
FontanaArte-Onde_Convogliate_Master_MCU-N.elf:     file format elf32-littlearm

Sections:
Idx Name          Size      VMA       LMA       File off  Algn
  0 .isr_vector   000000bc  08000000  08000000  00010000  2**0
                  CONTENTS, ALLOC, LOAD, READONLY, DATA
  1 .text         00007aa8  080000c0  080000c0  000100c0  2**3
                  CONTENTS, ALLOC, LOAD, READONLY, CODE
  2 .rodata       000000dc  08007b68  08007b68  00017b68  2**2
                  CONTENTS, ALLOC, LOAD, READONLY, DATA
  3 .ARM.extab    00000000  08007c44  08007c44  000200ac  2**0
                  CONTENTS
  4 .ARM          00000008  08007c44  08007c44  00017c44  2**2
                  CONTENTS, ALLOC, LOAD, READONLY, DATA
  5 .preinit_array 00000000  08007c4c  08007c4c  000200ac  2**0
                  CONTENTS, ALLOC, LOAD, DATA
  6 .init_array   00000004  08007c4c  08007c4c  00017c4c  2**2
                  CONTENTS, ALLOC, LOAD, DATA
  7 .fini_array   00000004  08007c50  08007c50  00017c50  2**2
                  CONTENTS, ALLOC, LOAD, DATA
  8 .data         000000ac  20000000  08007c54  00020000  2**2
                  CONTENTS, ALLOC, LOAD, CODE
  9 .bss          0000025c  200000ac  08007d00  000200ac  2**2
                  ALLOC
 10 ._user_heap_stack 00000600  20000308  08007d00  00020308  2**0
                  ALLOC
 11 .ARM.attributes 00000028  00000000  00000000  000200ac  2**0
                  CONTENTS, READONLY
 12 .debug_info   0001546b  00000000  00000000  000200d4  2**0
                  CONTENTS, READONLY, DEBUGGING, OCTETS
 13 .debug_abbrev 00002ef4  00000000  00000000  0003553f  2**0
                  CONTENTS, READONLY, DEBUGGING, OCTETS
 14 .debug_aranges 000013f8  00000000  00000000  00038438  2**3
                  CONTENTS, READONLY, DEBUGGING, OCTETS
 15 .debug_ranges 000012d0  00000000  00000000  00039830  2**3
                  CONTENTS, READONLY, DEBUGGING, OCTETS
 16 .debug_macro  000195ea  00000000  00000000  0003ab00  2**0
                  CONTENTS, READONLY, DEBUGGING, OCTETS
 17 .debug_line   00018aed  00000000  00000000  000540ea  2**0
                  CONTENTS, READONLY, DEBUGGING, OCTETS
 18 .debug_str    000a3276  00000000  00000000  0006cbd7  2**0
                  CONTENTS, READONLY, DEBUGGING, OCTETS
 19 .comment      00000053  00000000  00000000  0010fe4d  2**0
                  CONTENTS, READONLY
 20 .debug_frame  000048cc  00000000  00000000  0010fea0  2**2
                  CONTENTS, READONLY, DEBUGGING, OCTETS

Disassembly of section .text:

080000c0 <__do_global_dtors_aux>:
 80000c0:	b510      	push	{r4, lr}
 80000c2:	4c06      	ldr	r4, [pc, #24]	; (80000dc <__do_global_dtors_aux+0x1c>)
 80000c4:	7823      	ldrb	r3, [r4, #0]
 80000c6:	2b00      	cmp	r3, #0
 80000c8:	d107      	bne.n	80000da <__do_global_dtors_aux+0x1a>
 80000ca:	4b05      	ldr	r3, [pc, #20]	; (80000e0 <__do_global_dtors_aux+0x20>)
 80000cc:	2b00      	cmp	r3, #0
 80000ce:	d002      	beq.n	80000d6 <__do_global_dtors_aux+0x16>
 80000d0:	4804      	ldr	r0, [pc, #16]	; (80000e4 <__do_global_dtors_aux+0x24>)
 80000d2:	e000      	b.n	80000d6 <__do_global_dtors_aux+0x16>
 80000d4:	bf00      	nop
 80000d6:	2301      	movs	r3, #1
 80000d8:	7023      	strb	r3, [r4, #0]
 80000da:	bd10      	pop	{r4, pc}
 80000dc:	200000ac 	.word	0x200000ac
 80000e0:	00000000 	.word	0x00000000
 80000e4:	08007b3c 	.word	0x08007b3c

080000e8 <frame_dummy>:
 80000e8:	4b04      	ldr	r3, [pc, #16]	; (80000fc <frame_dummy+0x14>)
 80000ea:	b510      	push	{r4, lr}
 80000ec:	2b00      	cmp	r3, #0
 80000ee:	d003      	beq.n	80000f8 <frame_dummy+0x10>
 80000f0:	4903      	ldr	r1, [pc, #12]	; (8000100 <frame_dummy+0x18>)
 80000f2:	4804      	ldr	r0, [pc, #16]	; (8000104 <frame_dummy+0x1c>)
 80000f4:	e000      	b.n	80000f8 <frame_dummy+0x10>
 80000f6:	bf00      	nop
 80000f8:	bd10      	pop	{r4, pc}
 80000fa:	46c0      	nop			; (mov r8, r8)
 80000fc:	00000000 	.word	0x00000000
 8000100:	200000b0 	.word	0x200000b0
 8000104:	08007b3c 	.word	0x08007b3c

08000108 <__udivsi3>:
 8000108:	2200      	movs	r2, #0
 800010a:	0843      	lsrs	r3, r0, #1
 800010c:	428b      	cmp	r3, r1
 800010e:	d374      	bcc.n	80001fa <__udivsi3+0xf2>
 8000110:	0903      	lsrs	r3, r0, #4
 8000112:	428b      	cmp	r3, r1
 8000114:	d35f      	bcc.n	80001d6 <__udivsi3+0xce>
 8000116:	0a03      	lsrs	r3, r0, #8
 8000118:	428b      	cmp	r3, r1
 800011a:	d344      	bcc.n	80001a6 <__udivsi3+0x9e>
 800011c:	0b03      	lsrs	r3, r0, #12
 800011e:	428b      	cmp	r3, r1
 8000120:	d328      	bcc.n	8000174 <__udivsi3+0x6c>
 8000122:	0c03      	lsrs	r3, r0, #16
 8000124:	428b      	cmp	r3, r1
 8000126:	d30d      	bcc.n	8000144 <__udivsi3+0x3c>
 8000128:	22ff      	movs	r2, #255	; 0xff
 800012a:	0209      	lsls	r1, r1, #8
 800012c:	ba12      	rev	r2, r2
 800012e:	0c03      	lsrs	r3, r0, #16
 8000130:	428b      	cmp	r3, r1
 8000132:	d302      	bcc.n	800013a <__udivsi3+0x32>
 8000134:	1212      	asrs	r2, r2, #8
 8000136:	0209      	lsls	r1, r1, #8
 8000138:	d065      	beq.n	8000206 <__udivsi3+0xfe>
 800013a:	0b03      	lsrs	r3, r0, #12
 800013c:	428b      	cmp	r3, r1
 800013e:	d319      	bcc.n	8000174 <__udivsi3+0x6c>
 8000140:	e000      	b.n	8000144 <__udivsi3+0x3c>
 8000142:	0a09      	lsrs	r1, r1, #8
 8000144:	0bc3      	lsrs	r3, r0, #15
 8000146:	428b      	cmp	r3, r1
 8000148:	d301      	bcc.n	800014e <__udivsi3+0x46>
 800014a:	03cb      	lsls	r3, r1, #15
 800014c:	1ac0      	subs	r0, r0, r3
 800014e:	4152      	adcs	r2, r2
 8000150:	0b83      	lsrs	r3, r0, #14
 8000152:	428b      	cmp	r3, r1
 8000154:	d301      	bcc.n	800015a <__udivsi3+0x52>
 8000156:	038b      	lsls	r3, r1, #14
 8000158:	1ac0      	subs	r0, r0, r3
 800015a:	4152      	adcs	r2, r2
 800015c:	0b43      	lsrs	r3, r0, #13
 800015e:	428b      	cmp	r3, r1
 8000160:	d301      	bcc.n	8000166 <__udivsi3+0x5e>
 8000162:	034b      	lsls	r3, r1, #13
 8000164:	1ac0      	subs	r0, r0, r3
 8000166:	4152      	adcs	r2, r2
 8000168:	0b03      	lsrs	r3, r0, #12
 800016a:	428b      	cmp	r3, r1
 800016c:	d301      	bcc.n	8000172 <__udivsi3+0x6a>
 800016e:	030b      	lsls	r3, r1, #12
 8000170:	1ac0      	subs	r0, r0, r3
 8000172:	4152      	adcs	r2, r2
 8000174:	0ac3      	lsrs	r3, r0, #11
 8000176:	428b      	cmp	r3, r1
 8000178:	d301      	bcc.n	800017e <__udivsi3+0x76>
 800017a:	02cb      	lsls	r3, r1, #11
 800017c:	1ac0      	subs	r0, r0, r3
 800017e:	4152      	adcs	r2, r2
 8000180:	0a83      	lsrs	r3, r0, #10
 8000182:	428b      	cmp	r3, r1
 8000184:	d301      	bcc.n	800018a <__udivsi3+0x82>
 8000186:	028b      	lsls	r3, r1, #10
 8000188:	1ac0      	subs	r0, r0, r3
 800018a:	4152      	adcs	r2, r2
 800018c:	0a43      	lsrs	r3, r0, #9
 800018e:	428b      	cmp	r3, r1
 8000190:	d301      	bcc.n	8000196 <__udivsi3+0x8e>
 8000192:	024b      	lsls	r3, r1, #9
 8000194:	1ac0      	subs	r0, r0, r3
 8000196:	4152      	adcs	r2, r2
 8000198:	0a03      	lsrs	r3, r0, #8
 800019a:	428b      	cmp	r3, r1
 800019c:	d301      	bcc.n	80001a2 <__udivsi3+0x9a>
 800019e:	020b      	lsls	r3, r1, #8
 80001a0:	1ac0      	subs	r0, r0, r3
 80001a2:	4152      	adcs	r2, r2
 80001a4:	d2cd      	bcs.n	8000142 <__udivsi3+0x3a>
 80001a6:	09c3      	lsrs	r3, r0, #7
 80001a8:	428b      	cmp	r3, r1
 80001aa:	d301      	bcc.n	80001b0 <__udivsi3+0xa8>
 80001ac:	01cb      	lsls	r3, r1, #7
 80001ae:	1ac0      	subs	r0, r0, r3
 80001b0:	4152      	adcs	r2, r2
 80001b2:	0983      	lsrs	r3, r0, #6
 80001b4:	428b      	cmp	r3, r1
 80001b6:	d301      	bcc.n	80001bc <__udivsi3+0xb4>
 80001b8:	018b      	lsls	r3, r1, #6
 80001ba:	1ac0      	subs	r0, r0, r3
 80001bc:	4152      	adcs	r2, r2
 80001be:	0943      	lsrs	r3, r0, #5
 80001c0:	428b      	cmp	r3, r1
 80001c2:	d301      	bcc.n	80001c8 <__udivsi3+0xc0>
 80001c4:	014b      	lsls	r3, r1, #5
 80001c6:	1ac0      	subs	r0, r0, r3
 80001c8:	4152      	adcs	r2, r2
 80001ca:	0903      	lsrs	r3, r0, #4
 80001cc:	428b      	cmp	r3, r1
 80001ce:	d301      	bcc.n	80001d4 <__udivsi3+0xcc>
 80001d0:	010b      	lsls	r3, r1, #4
 80001d2:	1ac0      	subs	r0, r0, r3
 80001d4:	4152      	adcs	r2, r2
 80001d6:	08c3      	lsrs	r3, r0, #3
 80001d8:	428b      	cmp	r3, r1
 80001da:	d301      	bcc.n	80001e0 <__udivsi3+0xd8>
 80001dc:	00cb      	lsls	r3, r1, #3
 80001de:	1ac0      	subs	r0, r0, r3
 80001e0:	4152      	adcs	r2, r2
 80001e2:	0883      	lsrs	r3, r0, #2
 80001e4:	428b      	cmp	r3, r1
 80001e6:	d301      	bcc.n	80001ec <__udivsi3+0xe4>
 80001e8:	008b      	lsls	r3, r1, #2
 80001ea:	1ac0      	subs	r0, r0, r3
 80001ec:	4152      	adcs	r2, r2
 80001ee:	0843      	lsrs	r3, r0, #1
 80001f0:	428b      	cmp	r3, r1
 80001f2:	d301      	bcc.n	80001f8 <__udivsi3+0xf0>
 80001f4:	004b      	lsls	r3, r1, #1
 80001f6:	1ac0      	subs	r0, r0, r3
 80001f8:	4152      	adcs	r2, r2
 80001fa:	1a41      	subs	r1, r0, r1
 80001fc:	d200      	bcs.n	8000200 <__udivsi3+0xf8>
 80001fe:	4601      	mov	r1, r0
 8000200:	4152      	adcs	r2, r2
 8000202:	4610      	mov	r0, r2
 8000204:	4770      	bx	lr
 8000206:	e7ff      	b.n	8000208 <__udivsi3+0x100>
 8000208:	b501      	push	{r0, lr}
 800020a:	2000      	movs	r0, #0
 800020c:	f000 f8f0 	bl	80003f0 <__aeabi_idiv0>
 8000210:	bd02      	pop	{r1, pc}
 8000212:	46c0      	nop			; (mov r8, r8)

08000214 <__aeabi_uidivmod>:
 8000214:	2900      	cmp	r1, #0
 8000216:	d0f7      	beq.n	8000208 <__udivsi3+0x100>
 8000218:	e776      	b.n	8000108 <__udivsi3>
 800021a:	4770      	bx	lr

0800021c <__divsi3>:
 800021c:	4603      	mov	r3, r0
 800021e:	430b      	orrs	r3, r1
 8000220:	d47f      	bmi.n	8000322 <__divsi3+0x106>
 8000222:	2200      	movs	r2, #0
 8000224:	0843      	lsrs	r3, r0, #1
 8000226:	428b      	cmp	r3, r1
 8000228:	d374      	bcc.n	8000314 <__divsi3+0xf8>
 800022a:	0903      	lsrs	r3, r0, #4
 800022c:	428b      	cmp	r3, r1
 800022e:	d35f      	bcc.n	80002f0 <__divsi3+0xd4>
 8000230:	0a03      	lsrs	r3, r0, #8
 8000232:	428b      	cmp	r3, r1
 8000234:	d344      	bcc.n	80002c0 <__divsi3+0xa4>
 8000236:	0b03      	lsrs	r3, r0, #12
 8000238:	428b      	cmp	r3, r1
 800023a:	d328      	bcc.n	800028e <__divsi3+0x72>
 800023c:	0c03      	lsrs	r3, r0, #16
 800023e:	428b      	cmp	r3, r1
 8000240:	d30d      	bcc.n	800025e <__divsi3+0x42>
 8000242:	22ff      	movs	r2, #255	; 0xff
 8000244:	0209      	lsls	r1, r1, #8
 8000246:	ba12      	rev	r2, r2
 8000248:	0c03      	lsrs	r3, r0, #16
 800024a:	428b      	cmp	r3, r1
 800024c:	d302      	bcc.n	8000254 <__divsi3+0x38>
 800024e:	1212      	asrs	r2, r2, #8
 8000250:	0209      	lsls	r1, r1, #8
 8000252:	d065      	beq.n	8000320 <__divsi3+0x104>
 8000254:	0b03      	lsrs	r3, r0, #12
 8000256:	428b      	cmp	r3, r1
 8000258:	d319      	bcc.n	800028e <__divsi3+0x72>
 800025a:	e000      	b.n	800025e <__divsi3+0x42>
 800025c:	0a09      	lsrs	r1, r1, #8
 800025e:	0bc3      	lsrs	r3, r0, #15
 8000260:	428b      	cmp	r3, r1
 8000262:	d301      	bcc.n	8000268 <__divsi3+0x4c>
 8000264:	03cb      	lsls	r3, r1, #15
 8000266:	1ac0      	subs	r0, r0, r3
 8000268:	4152      	adcs	r2, r2
 800026a:	0b83      	lsrs	r3, r0, #14
 800026c:	428b      	cmp	r3, r1
 800026e:	d301      	bcc.n	8000274 <__divsi3+0x58>
 8000270:	038b      	lsls	r3, r1, #14
 8000272:	1ac0      	subs	r0, r0, r3
 8000274:	4152      	adcs	r2, r2
 8000276:	0b43      	lsrs	r3, r0, #13
 8000278:	428b      	cmp	r3, r1
 800027a:	d301      	bcc.n	8000280 <__divsi3+0x64>
 800027c:	034b      	lsls	r3, r1, #13
 800027e:	1ac0      	subs	r0, r0, r3
 8000280:	4152      	adcs	r2, r2
 8000282:	0b03      	lsrs	r3, r0, #12
 8000284:	428b      	cmp	r3, r1
 8000286:	d301      	bcc.n	800028c <__divsi3+0x70>
 8000288:	030b      	lsls	r3, r1, #12
 800028a:	1ac0      	subs	r0, r0, r3
 800028c:	4152      	adcs	r2, r2
 800028e:	0ac3      	lsrs	r3, r0, #11
 8000290:	428b      	cmp	r3, r1
 8000292:	d301      	bcc.n	8000298 <__divsi3+0x7c>
 8000294:	02cb      	lsls	r3, r1, #11
 8000296:	1ac0      	subs	r0, r0, r3
 8000298:	4152      	adcs	r2, r2
 800029a:	0a83      	lsrs	r3, r0, #10
 800029c:	428b      	cmp	r3, r1
 800029e:	d301      	bcc.n	80002a4 <__divsi3+0x88>
 80002a0:	028b      	lsls	r3, r1, #10
 80002a2:	1ac0      	subs	r0, r0, r3
 80002a4:	4152      	adcs	r2, r2
 80002a6:	0a43      	lsrs	r3, r0, #9
 80002a8:	428b      	cmp	r3, r1
 80002aa:	d301      	bcc.n	80002b0 <__divsi3+0x94>
 80002ac:	024b      	lsls	r3, r1, #9
 80002ae:	1ac0      	subs	r0, r0, r3
 80002b0:	4152      	adcs	r2, r2
 80002b2:	0a03      	lsrs	r3, r0, #8
 80002b4:	428b      	cmp	r3, r1
 80002b6:	d301      	bcc.n	80002bc <__divsi3+0xa0>
 80002b8:	020b      	lsls	r3, r1, #8
 80002ba:	1ac0      	subs	r0, r0, r3
 80002bc:	4152      	adcs	r2, r2
 80002be:	d2cd      	bcs.n	800025c <__divsi3+0x40>
 80002c0:	09c3      	lsrs	r3, r0, #7
 80002c2:	428b      	cmp	r3, r1
 80002c4:	d301      	bcc.n	80002ca <__divsi3+0xae>
 80002c6:	01cb      	lsls	r3, r1, #7
 80002c8:	1ac0      	subs	r0, r0, r3
 80002ca:	4152      	adcs	r2, r2
 80002cc:	0983      	lsrs	r3, r0, #6
 80002ce:	428b      	cmp	r3, r1
 80002d0:	d301      	bcc.n	80002d6 <__divsi3+0xba>
 80002d2:	018b      	lsls	r3, r1, #6
 80002d4:	1ac0      	subs	r0, r0, r3
 80002d6:	4152      	adcs	r2, r2
 80002d8:	0943      	lsrs	r3, r0, #5
 80002da:	428b      	cmp	r3, r1
 80002dc:	d301      	bcc.n	80002e2 <__divsi3+0xc6>
 80002de:	014b      	lsls	r3, r1, #5
 80002e0:	1ac0      	subs	r0, r0, r3
 80002e2:	4152      	adcs	r2, r2
 80002e4:	0903      	lsrs	r3, r0, #4
 80002e6:	428b      	cmp	r3, r1
 80002e8:	d301      	bcc.n	80002ee <__divsi3+0xd2>
 80002ea:	010b      	lsls	r3, r1, #4
 80002ec:	1ac0      	subs	r0, r0, r3
 80002ee:	4152      	adcs	r2, r2
 80002f0:	08c3      	lsrs	r3, r0, #3
 80002f2:	428b      	cmp	r3, r1
 80002f4:	d301      	bcc.n	80002fa <__divsi3+0xde>
 80002f6:	00cb      	lsls	r3, r1, #3
 80002f8:	1ac0      	subs	r0, r0, r3
 80002fa:	4152      	adcs	r2, r2
 80002fc:	0883      	lsrs	r3, r0, #2
 80002fe:	428b      	cmp	r3, r1
 8000300:	d301      	bcc.n	8000306 <__divsi3+0xea>
 8000302:	008b      	lsls	r3, r1, #2
 8000304:	1ac0      	subs	r0, r0, r3
 8000306:	4152      	adcs	r2, r2
 8000308:	0843      	lsrs	r3, r0, #1
 800030a:	428b      	cmp	r3, r1
 800030c:	d301      	bcc.n	8000312 <__divsi3+0xf6>
 800030e:	004b      	lsls	r3, r1, #1
 8000310:	1ac0      	subs	r0, r0, r3
 8000312:	4152      	adcs	r2, r2
 8000314:	1a41      	subs	r1, r0, r1
 8000316:	d200      	bcs.n	800031a <__divsi3+0xfe>
 8000318:	4601      	mov	r1, r0
 800031a:	4152      	adcs	r2, r2
 800031c:	4610      	mov	r0, r2
 800031e:	4770      	bx	lr
 8000320:	e05d      	b.n	80003de <__divsi3+0x1c2>
 8000322:	0fca      	lsrs	r2, r1, #31
 8000324:	d000      	beq.n	8000328 <__divsi3+0x10c>
 8000326:	4249      	negs	r1, r1
 8000328:	1003      	asrs	r3, r0, #32
 800032a:	d300      	bcc.n	800032e <__divsi3+0x112>
 800032c:	4240      	negs	r0, r0
 800032e:	4053      	eors	r3, r2
 8000330:	2200      	movs	r2, #0
 8000332:	469c      	mov	ip, r3
 8000334:	0903      	lsrs	r3, r0, #4
 8000336:	428b      	cmp	r3, r1
 8000338:	d32d      	bcc.n	8000396 <__divsi3+0x17a>
 800033a:	0a03      	lsrs	r3, r0, #8
 800033c:	428b      	cmp	r3, r1
 800033e:	d312      	bcc.n	8000366 <__divsi3+0x14a>
 8000340:	22fc      	movs	r2, #252	; 0xfc
 8000342:	0189      	lsls	r1, r1, #6
 8000344:	ba12      	rev	r2, r2
 8000346:	0a03      	lsrs	r3, r0, #8
 8000348:	428b      	cmp	r3, r1
 800034a:	d30c      	bcc.n	8000366 <__divsi3+0x14a>
 800034c:	0189      	lsls	r1, r1, #6
 800034e:	1192      	asrs	r2, r2, #6
 8000350:	428b      	cmp	r3, r1
 8000352:	d308      	bcc.n	8000366 <__divsi3+0x14a>
 8000354:	0189      	lsls	r1, r1, #6
 8000356:	1192      	asrs	r2, r2, #6
 8000358:	428b      	cmp	r3, r1
 800035a:	d304      	bcc.n	8000366 <__divsi3+0x14a>
 800035c:	0189      	lsls	r1, r1, #6
 800035e:	d03a      	beq.n	80003d6 <__divsi3+0x1ba>
 8000360:	1192      	asrs	r2, r2, #6
 8000362:	e000      	b.n	8000366 <__divsi3+0x14a>
 8000364:	0989      	lsrs	r1, r1, #6
 8000366:	09c3      	lsrs	r3, r0, #7
 8000368:	428b      	cmp	r3, r1
 800036a:	d301      	bcc.n	8000370 <__divsi3+0x154>
 800036c:	01cb      	lsls	r3, r1, #7
 800036e:	1ac0      	subs	r0, r0, r3
 8000370:	4152      	adcs	r2, r2
 8000372:	0983      	lsrs	r3, r0, #6
 8000374:	428b      	cmp	r3, r1
 8000376:	d301      	bcc.n	800037c <__divsi3+0x160>
 8000378:	018b      	lsls	r3, r1, #6
 800037a:	1ac0      	subs	r0, r0, r3
 800037c:	4152      	adcs	r2, r2
 800037e:	0943      	lsrs	r3, r0, #5
 8000380:	428b      	cmp	r3, r1
 8000382:	d301      	bcc.n	8000388 <__divsi3+0x16c>
 8000384:	014b      	lsls	r3, r1, #5
 8000386:	1ac0      	subs	r0, r0, r3
 8000388:	4152      	adcs	r2, r2
 800038a:	0903      	lsrs	r3, r0, #4
 800038c:	428b      	cmp	r3, r1
 800038e:	d301      	bcc.n	8000394 <__divsi3+0x178>
 8000390:	010b      	lsls	r3, r1, #4
 8000392:	1ac0      	subs	r0, r0, r3
 8000394:	4152      	adcs	r2, r2
 8000396:	08c3      	lsrs	r3, r0, #3
 8000398:	428b      	cmp	r3, r1
 800039a:	d301      	bcc.n	80003a0 <__divsi3+0x184>
 800039c:	00cb      	lsls	r3, r1, #3
 800039e:	1ac0      	subs	r0, r0, r3
 80003a0:	4152      	adcs	r2, r2
 80003a2:	0883      	lsrs	r3, r0, #2
 80003a4:	428b      	cmp	r3, r1
 80003a6:	d301      	bcc.n	80003ac <__divsi3+0x190>
 80003a8:	008b      	lsls	r3, r1, #2
 80003aa:	1ac0      	subs	r0, r0, r3
 80003ac:	4152      	adcs	r2, r2
 80003ae:	d2d9      	bcs.n	8000364 <__divsi3+0x148>
 80003b0:	0843      	lsrs	r3, r0, #1
 80003b2:	428b      	cmp	r3, r1
 80003b4:	d301      	bcc.n	80003ba <__divsi3+0x19e>
 80003b6:	004b      	lsls	r3, r1, #1
 80003b8:	1ac0      	subs	r0, r0, r3
 80003ba:	4152      	adcs	r2, r2
 80003bc:	1a41      	subs	r1, r0, r1
 80003be:	d200      	bcs.n	80003c2 <__divsi3+0x1a6>
 80003c0:	4601      	mov	r1, r0
 80003c2:	4663      	mov	r3, ip
 80003c4:	4152      	adcs	r2, r2
 80003c6:	105b      	asrs	r3, r3, #1
 80003c8:	4610      	mov	r0, r2
 80003ca:	d301      	bcc.n	80003d0 <__divsi3+0x1b4>
 80003cc:	4240      	negs	r0, r0
 80003ce:	2b00      	cmp	r3, #0
 80003d0:	d500      	bpl.n	80003d4 <__divsi3+0x1b8>
 80003d2:	4249      	negs	r1, r1
 80003d4:	4770      	bx	lr
 80003d6:	4663      	mov	r3, ip
 80003d8:	105b      	asrs	r3, r3, #1
 80003da:	d300      	bcc.n	80003de <__divsi3+0x1c2>
 80003dc:	4240      	negs	r0, r0
 80003de:	b501      	push	{r0, lr}
 80003e0:	2000      	movs	r0, #0
 80003e2:	f000 f805 	bl	80003f0 <__aeabi_idiv0>
 80003e6:	bd02      	pop	{r1, pc}

080003e8 <__aeabi_idivmod>:
 80003e8:	2900      	cmp	r1, #0
 80003ea:	d0f8      	beq.n	80003de <__divsi3+0x1c2>
 80003ec:	e716      	b.n	800021c <__divsi3>
 80003ee:	4770      	bx	lr

080003f0 <__aeabi_idiv0>:
 80003f0:	4770      	bx	lr
 80003f2:	46c0      	nop			; (mov r8, r8)

080003f4 <__aeabi_uldivmod>:
 80003f4:	2b00      	cmp	r3, #0
 80003f6:	d111      	bne.n	800041c <__aeabi_uldivmod+0x28>
 80003f8:	2a00      	cmp	r2, #0
 80003fa:	d10f      	bne.n	800041c <__aeabi_uldivmod+0x28>
 80003fc:	2900      	cmp	r1, #0
 80003fe:	d100      	bne.n	8000402 <__aeabi_uldivmod+0xe>
 8000400:	2800      	cmp	r0, #0
 8000402:	d002      	beq.n	800040a <__aeabi_uldivmod+0x16>
 8000404:	2100      	movs	r1, #0
 8000406:	43c9      	mvns	r1, r1
 8000408:	1c08      	adds	r0, r1, #0
 800040a:	b407      	push	{r0, r1, r2}
 800040c:	4802      	ldr	r0, [pc, #8]	; (8000418 <__aeabi_uldivmod+0x24>)
 800040e:	a102      	add	r1, pc, #8	; (adr r1, 8000418 <__aeabi_uldivmod+0x24>)
 8000410:	1840      	adds	r0, r0, r1
 8000412:	9002      	str	r0, [sp, #8]
 8000414:	bd03      	pop	{r0, r1, pc}
 8000416:	46c0      	nop			; (mov r8, r8)
 8000418:	ffffffd9 	.word	0xffffffd9
 800041c:	b403      	push	{r0, r1}
 800041e:	4668      	mov	r0, sp
 8000420:	b501      	push	{r0, lr}
 8000422:	9802      	ldr	r0, [sp, #8]
 8000424:	f000 f806 	bl	8000434 <__udivmoddi4>
 8000428:	9b01      	ldr	r3, [sp, #4]
 800042a:	469e      	mov	lr, r3
 800042c:	b002      	add	sp, #8
 800042e:	bc0c      	pop	{r2, r3}
 8000430:	4770      	bx	lr
 8000432:	46c0      	nop			; (mov r8, r8)

08000434 <__udivmoddi4>:
 8000434:	b5f0      	push	{r4, r5, r6, r7, lr}
 8000436:	4657      	mov	r7, sl
 8000438:	464e      	mov	r6, r9
 800043a:	4645      	mov	r5, r8
 800043c:	46de      	mov	lr, fp
 800043e:	b5e0      	push	{r5, r6, r7, lr}
 8000440:	0004      	movs	r4, r0
 8000442:	000d      	movs	r5, r1
 8000444:	4692      	mov	sl, r2
 8000446:	4699      	mov	r9, r3
 8000448:	b083      	sub	sp, #12
 800044a:	428b      	cmp	r3, r1
 800044c:	d830      	bhi.n	80004b0 <__udivmoddi4+0x7c>
 800044e:	d02d      	beq.n	80004ac <__udivmoddi4+0x78>
 8000450:	4649      	mov	r1, r9
 8000452:	4650      	mov	r0, sl
 8000454:	f000 f8ba 	bl	80005cc <__clzdi2>
 8000458:	0029      	movs	r1, r5
 800045a:	0006      	movs	r6, r0
 800045c:	0020      	movs	r0, r4
 800045e:	f000 f8b5 	bl	80005cc <__clzdi2>
 8000462:	1a33      	subs	r3, r6, r0
 8000464:	4698      	mov	r8, r3
 8000466:	3b20      	subs	r3, #32
 8000468:	469b      	mov	fp, r3
 800046a:	d433      	bmi.n	80004d4 <__udivmoddi4+0xa0>
 800046c:	465a      	mov	r2, fp
 800046e:	4653      	mov	r3, sl
 8000470:	4093      	lsls	r3, r2
 8000472:	4642      	mov	r2, r8
 8000474:	001f      	movs	r7, r3
 8000476:	4653      	mov	r3, sl
 8000478:	4093      	lsls	r3, r2
 800047a:	001e      	movs	r6, r3
 800047c:	42af      	cmp	r7, r5
 800047e:	d83a      	bhi.n	80004f6 <__udivmoddi4+0xc2>
 8000480:	42af      	cmp	r7, r5
 8000482:	d100      	bne.n	8000486 <__udivmoddi4+0x52>
 8000484:	e078      	b.n	8000578 <__udivmoddi4+0x144>
 8000486:	465b      	mov	r3, fp
 8000488:	1ba4      	subs	r4, r4, r6
 800048a:	41bd      	sbcs	r5, r7
 800048c:	2b00      	cmp	r3, #0
 800048e:	da00      	bge.n	8000492 <__udivmoddi4+0x5e>
 8000490:	e075      	b.n	800057e <__udivmoddi4+0x14a>
 8000492:	2200      	movs	r2, #0
 8000494:	2300      	movs	r3, #0
 8000496:	9200      	str	r2, [sp, #0]
 8000498:	9301      	str	r3, [sp, #4]
 800049a:	2301      	movs	r3, #1
 800049c:	465a      	mov	r2, fp
 800049e:	4093      	lsls	r3, r2
 80004a0:	9301      	str	r3, [sp, #4]
 80004a2:	2301      	movs	r3, #1
 80004a4:	4642      	mov	r2, r8
 80004a6:	4093      	lsls	r3, r2
 80004a8:	9300      	str	r3, [sp, #0]
 80004aa:	e028      	b.n	80004fe <__udivmoddi4+0xca>
 80004ac:	4282      	cmp	r2, r0
 80004ae:	d9cf      	bls.n	8000450 <__udivmoddi4+0x1c>
 80004b0:	2200      	movs	r2, #0
 80004b2:	2300      	movs	r3, #0
 80004b4:	9200      	str	r2, [sp, #0]
 80004b6:	9301      	str	r3, [sp, #4]
 80004b8:	9b0c      	ldr	r3, [sp, #48]	; 0x30
 80004ba:	2b00      	cmp	r3, #0
 80004bc:	d001      	beq.n	80004c2 <__udivmoddi4+0x8e>
 80004be:	601c      	str	r4, [r3, #0]
 80004c0:	605d      	str	r5, [r3, #4]
 80004c2:	9800      	ldr	r0, [sp, #0]
 80004c4:	9901      	ldr	r1, [sp, #4]
 80004c6:	b003      	add	sp, #12
 80004c8:	bcf0      	pop	{r4, r5, r6, r7}
 80004ca:	46bb      	mov	fp, r7
 80004cc:	46b2      	mov	sl, r6
 80004ce:	46a9      	mov	r9, r5
 80004d0:	46a0      	mov	r8, r4
 80004d2:	bdf0      	pop	{r4, r5, r6, r7, pc}
 80004d4:	4642      	mov	r2, r8
 80004d6:	2320      	movs	r3, #32
 80004d8:	1a9b      	subs	r3, r3, r2
 80004da:	4652      	mov	r2, sl
 80004dc:	40da      	lsrs	r2, r3
 80004de:	4641      	mov	r1, r8
 80004e0:	0013      	movs	r3, r2
 80004e2:	464a      	mov	r2, r9
 80004e4:	408a      	lsls	r2, r1
 80004e6:	0017      	movs	r7, r2
 80004e8:	4642      	mov	r2, r8
 80004ea:	431f      	orrs	r7, r3
 80004ec:	4653      	mov	r3, sl
 80004ee:	4093      	lsls	r3, r2
 80004f0:	001e      	movs	r6, r3
 80004f2:	42af      	cmp	r7, r5
 80004f4:	d9c4      	bls.n	8000480 <__udivmoddi4+0x4c>
 80004f6:	2200      	movs	r2, #0
 80004f8:	2300      	movs	r3, #0
 80004fa:	9200      	str	r2, [sp, #0]
 80004fc:	9301      	str	r3, [sp, #4]
 80004fe:	4643      	mov	r3, r8
 8000500:	2b00      	cmp	r3, #0
 8000502:	d0d9      	beq.n	80004b8 <__udivmoddi4+0x84>
 8000504:	07fb      	lsls	r3, r7, #31
 8000506:	0872      	lsrs	r2, r6, #1
 8000508:	431a      	orrs	r2, r3
 800050a:	4646      	mov	r6, r8
 800050c:	087b      	lsrs	r3, r7, #1
 800050e:	e00e      	b.n	800052e <__udivmoddi4+0xfa>
 8000510:	42ab      	cmp	r3, r5
 8000512:	d101      	bne.n	8000518 <__udivmoddi4+0xe4>
 8000514:	42a2      	cmp	r2, r4
 8000516:	d80c      	bhi.n	8000532 <__udivmoddi4+0xfe>
 8000518:	1aa4      	subs	r4, r4, r2
 800051a:	419d      	sbcs	r5, r3
 800051c:	2001      	movs	r0, #1
 800051e:	1924      	adds	r4, r4, r4
 8000520:	416d      	adcs	r5, r5
 8000522:	2100      	movs	r1, #0
 8000524:	3e01      	subs	r6, #1
 8000526:	1824      	adds	r4, r4, r0
 8000528:	414d      	adcs	r5, r1
 800052a:	2e00      	cmp	r6, #0
 800052c:	d006      	beq.n	800053c <__udivmoddi4+0x108>
 800052e:	42ab      	cmp	r3, r5
 8000530:	d9ee      	bls.n	8000510 <__udivmoddi4+0xdc>
 8000532:	3e01      	subs	r6, #1
 8000534:	1924      	adds	r4, r4, r4
 8000536:	416d      	adcs	r5, r5
 8000538:	2e00      	cmp	r6, #0
 800053a:	d1f8      	bne.n	800052e <__udivmoddi4+0xfa>
 800053c:	9800      	ldr	r0, [sp, #0]
 800053e:	9901      	ldr	r1, [sp, #4]
 8000540:	465b      	mov	r3, fp
 8000542:	1900      	adds	r0, r0, r4
 8000544:	4169      	adcs	r1, r5
 8000546:	2b00      	cmp	r3, #0
 8000548:	db24      	blt.n	8000594 <__udivmoddi4+0x160>
 800054a:	002b      	movs	r3, r5
 800054c:	465a      	mov	r2, fp
 800054e:	4644      	mov	r4, r8
 8000550:	40d3      	lsrs	r3, r2
 8000552:	002a      	movs	r2, r5
 8000554:	40e2      	lsrs	r2, r4
 8000556:	001c      	movs	r4, r3
 8000558:	465b      	mov	r3, fp
 800055a:	0015      	movs	r5, r2
 800055c:	2b00      	cmp	r3, #0
 800055e:	db2a      	blt.n	80005b6 <__udivmoddi4+0x182>
 8000560:	0026      	movs	r6, r4
 8000562:	409e      	lsls	r6, r3
 8000564:	0033      	movs	r3, r6
 8000566:	0026      	movs	r6, r4
 8000568:	4647      	mov	r7, r8
 800056a:	40be      	lsls	r6, r7
 800056c:	0032      	movs	r2, r6
 800056e:	1a80      	subs	r0, r0, r2
 8000570:	4199      	sbcs	r1, r3
 8000572:	9000      	str	r0, [sp, #0]
 8000574:	9101      	str	r1, [sp, #4]
 8000576:	e79f      	b.n	80004b8 <__udivmoddi4+0x84>
 8000578:	42a3      	cmp	r3, r4
 800057a:	d8bc      	bhi.n	80004f6 <__udivmoddi4+0xc2>
 800057c:	e783      	b.n	8000486 <__udivmoddi4+0x52>
 800057e:	4642      	mov	r2, r8
 8000580:	2320      	movs	r3, #32
 8000582:	2100      	movs	r1, #0
 8000584:	1a9b      	subs	r3, r3, r2
 8000586:	2200      	movs	r2, #0
 8000588:	9100      	str	r1, [sp, #0]
 800058a:	9201      	str	r2, [sp, #4]
 800058c:	2201      	movs	r2, #1
 800058e:	40da      	lsrs	r2, r3
 8000590:	9201      	str	r2, [sp, #4]
 8000592:	e786      	b.n	80004a2 <__udivmoddi4+0x6e>
 8000594:	4642      	mov	r2, r8
 8000596:	2320      	movs	r3, #32
 8000598:	1a9b      	subs	r3, r3, r2
 800059a:	002a      	movs	r2, r5
 800059c:	4646      	mov	r6, r8
 800059e:	409a      	lsls	r2, r3
 80005a0:	0023      	movs	r3, r4
 80005a2:	40f3      	lsrs	r3, r6
 80005a4:	4644      	mov	r4, r8
 80005a6:	4313      	orrs	r3, r2
 80005a8:	002a      	movs	r2, r5
 80005aa:	40e2      	lsrs	r2, r4
 80005ac:	001c      	movs	r4, r3
 80005ae:	465b      	mov	r3, fp
 80005b0:	0015      	movs	r5, r2
 80005b2:	2b00      	cmp	r3, #0
 80005b4:	dad4      	bge.n	8000560 <__udivmoddi4+0x12c>
 80005b6:	4642      	mov	r2, r8
 80005b8:	002f      	movs	r7, r5
 80005ba:	2320      	movs	r3, #32
 80005bc:	0026      	movs	r6, r4
 80005be:	4097      	lsls	r7, r2
 80005c0:	1a9b      	subs	r3, r3, r2
 80005c2:	40de      	lsrs	r6, r3
 80005c4:	003b      	movs	r3, r7
 80005c6:	4333      	orrs	r3, r6
 80005c8:	e7cd      	b.n	8000566 <__udivmoddi4+0x132>
 80005ca:	46c0      	nop			; (mov r8, r8)

080005cc <__clzdi2>:
 80005cc:	b510      	push	{r4, lr}
 80005ce:	2900      	cmp	r1, #0
 80005d0:	d103      	bne.n	80005da <__clzdi2+0xe>
 80005d2:	f000 f807 	bl	80005e4 <__clzsi2>
 80005d6:	3020      	adds	r0, #32
 80005d8:	e002      	b.n	80005e0 <__clzdi2+0x14>
 80005da:	1c08      	adds	r0, r1, #0
 80005dc:	f000 f802 	bl	80005e4 <__clzsi2>
 80005e0:	bd10      	pop	{r4, pc}
 80005e2:	46c0      	nop			; (mov r8, r8)

080005e4 <__clzsi2>:
 80005e4:	211c      	movs	r1, #28
 80005e6:	2301      	movs	r3, #1
 80005e8:	041b      	lsls	r3, r3, #16
 80005ea:	4298      	cmp	r0, r3
 80005ec:	d301      	bcc.n	80005f2 <__clzsi2+0xe>
 80005ee:	0c00      	lsrs	r0, r0, #16
 80005f0:	3910      	subs	r1, #16
 80005f2:	0a1b      	lsrs	r3, r3, #8
 80005f4:	4298      	cmp	r0, r3
 80005f6:	d301      	bcc.n	80005fc <__clzsi2+0x18>
 80005f8:	0a00      	lsrs	r0, r0, #8
 80005fa:	3908      	subs	r1, #8
 80005fc:	091b      	lsrs	r3, r3, #4
 80005fe:	4298      	cmp	r0, r3
 8000600:	d301      	bcc.n	8000606 <__clzsi2+0x22>
 8000602:	0900      	lsrs	r0, r0, #4
 8000604:	3904      	subs	r1, #4
 8000606:	a202      	add	r2, pc, #8	; (adr r2, 8000610 <__clzsi2+0x2c>)
 8000608:	5c10      	ldrb	r0, [r2, r0]
 800060a:	1840      	adds	r0, r0, r1
 800060c:	4770      	bx	lr
 800060e:	46c0      	nop			; (mov r8, r8)
 8000610:	02020304 	.word	0x02020304
 8000614:	01010101 	.word	0x01010101
	...

08000620 <HAL_SYSTICK_Callback>:
/* USER CODE END PFP */

/* Private user code ---------------------------------------------------------*/
/* USER CODE BEGIN 0 */
void HAL_SYSTICK_Callback(void)
{
 8000620:	b580      	push	{r7, lr}
 8000622:	af00      	add	r7, sp, #0
	if(mSec < 5000) mSec++;
 8000624:	4b29      	ldr	r3, [pc, #164]	; (80006cc <HAL_SYSTICK_Callback+0xac>)
 8000626:	881b      	ldrh	r3, [r3, #0]
 8000628:	4a29      	ldr	r2, [pc, #164]	; (80006d0 <HAL_SYSTICK_Callback+0xb0>)
 800062a:	4293      	cmp	r3, r2
 800062c:	d805      	bhi.n	800063a <HAL_SYSTICK_Callback+0x1a>
 800062e:	4b27      	ldr	r3, [pc, #156]	; (80006cc <HAL_SYSTICK_Callback+0xac>)
 8000630:	881b      	ldrh	r3, [r3, #0]
 8000632:	3301      	adds	r3, #1
 8000634:	b29a      	uxth	r2, r3
 8000636:	4b25      	ldr	r3, [pc, #148]	; (80006cc <HAL_SYSTICK_Callback+0xac>)
 8000638:	801a      	strh	r2, [r3, #0]

	if(mSecDoubleTouch < MAXIMUM_DOUBLE_TOUCH_TIME) mSecDoubleTouch++;
 800063a:	4b26      	ldr	r3, [pc, #152]	; (80006d4 <HAL_SYSTICK_Callback+0xb4>)
 800063c:	881a      	ldrh	r2, [r3, #0]
 800063e:	23fa      	movs	r3, #250	; 0xfa
 8000640:	005b      	lsls	r3, r3, #1
 8000642:	429a      	cmp	r2, r3
 8000644:	d205      	bcs.n	8000652 <HAL_SYSTICK_Callback+0x32>
 8000646:	4b23      	ldr	r3, [pc, #140]	; (80006d4 <HAL_SYSTICK_Callback+0xb4>)
 8000648:	881b      	ldrh	r3, [r3, #0]
 800064a:	3301      	adds	r3, #1
 800064c:	b29a      	uxth	r2, r3
 800064e:	4b21      	ldr	r3, [pc, #132]	; (80006d4 <HAL_SYSTICK_Callback+0xb4>)
 8000650:	801a      	strh	r2, [r3, #0]
	if(mSecDoubleTouch == MAXIMUM_DOUBLE_TOUCH_TIME)
 8000652:	4b20      	ldr	r3, [pc, #128]	; (80006d4 <HAL_SYSTICK_Callback+0xb4>)
 8000654:	881a      	ldrh	r2, [r3, #0]
 8000656:	23fa      	movs	r3, #250	; 0xfa
 8000658:	005b      	lsls	r3, r3, #1
 800065a:	429a      	cmp	r2, r3
 800065c:	d102      	bne.n	8000664 <HAL_SYSTICK_Callback+0x44>
	{
		touch_count = 0;
 800065e:	4b1e      	ldr	r3, [pc, #120]	; (80006d8 <HAL_SYSTICK_Callback+0xb8>)
 8000660:	2200      	movs	r2, #0
 8000662:	701a      	strb	r2, [r3, #0]
	}

#ifdef SLAVE_RESPONSE
	if(slave_does_not_respond > 1)
 8000664:	4b1d      	ldr	r3, [pc, #116]	; (80006dc <HAL_SYSTICK_Callback+0xbc>)
 8000666:	781b      	ldrb	r3, [r3, #0]
 8000668:	2b01      	cmp	r3, #1
 800066a:	d92b      	bls.n	80006c4 <HAL_SYSTICK_Callback+0xa4>
	{
		if(mSec_Allarm < 250) mSec_Allarm++;
 800066c:	4b1c      	ldr	r3, [pc, #112]	; (80006e0 <HAL_SYSTICK_Callback+0xc0>)
 800066e:	881b      	ldrh	r3, [r3, #0]
 8000670:	2bf9      	cmp	r3, #249	; 0xf9
 8000672:	d805      	bhi.n	8000680 <HAL_SYSTICK_Callback+0x60>
 8000674:	4b1a      	ldr	r3, [pc, #104]	; (80006e0 <HAL_SYSTICK_Callback+0xc0>)
 8000676:	881b      	ldrh	r3, [r3, #0]
 8000678:	3301      	adds	r3, #1
 800067a:	b29a      	uxth	r2, r3
 800067c:	4b18      	ldr	r3, [pc, #96]	; (80006e0 <HAL_SYSTICK_Callback+0xc0>)
 800067e:	801a      	strh	r2, [r3, #0]
		if(mSec_Allarm == 250)
 8000680:	4b17      	ldr	r3, [pc, #92]	; (80006e0 <HAL_SYSTICK_Callback+0xc0>)
 8000682:	881b      	ldrh	r3, [r3, #0]
 8000684:	2bfa      	cmp	r3, #250	; 0xfa
 8000686:	d11d      	bne.n	80006c4 <HAL_SYSTICK_Callback+0xa4>
			//if(htim2.Instance->CCR3 == 0) htim2.Instance->CCR3 = 255;
			//else if(htim2.Instance->CCR3 == 255) htim2.Instance->CCR3 = 0;



			if(htim2.Instance->CCR3 == 0)
 8000688:	4b16      	ldr	r3, [pc, #88]	; (80006e4 <HAL_SYSTICK_Callback+0xc4>)
 800068a:	681b      	ldr	r3, [r3, #0]
 800068c:	6bdb      	ldr	r3, [r3, #60]	; 0x3c
 800068e:	2b00      	cmp	r3, #0
 8000690:	d108      	bne.n	80006a4 <HAL_SYSTICK_Callback+0x84>
			{
				//HAL_GPIO_WritePin(DEBUG_GPIO_Port, DEBUG_Pin, GPIO_PIN_RESET);
				htim17.Instance->CCR1 = 0;
 8000692:	4b15      	ldr	r3, [pc, #84]	; (80006e8 <HAL_SYSTICK_Callback+0xc8>)
 8000694:	681b      	ldr	r3, [r3, #0]
 8000696:	2200      	movs	r2, #0
 8000698:	635a      	str	r2, [r3, #52]	; 0x34
				htim2.Instance->CCR3 = 100;
 800069a:	4b12      	ldr	r3, [pc, #72]	; (80006e4 <HAL_SYSTICK_Callback+0xc4>)
 800069c:	681b      	ldr	r3, [r3, #0]
 800069e:	2264      	movs	r2, #100	; 0x64
 80006a0:	63da      	str	r2, [r3, #60]	; 0x3c
 80006a2:	e00c      	b.n	80006be <HAL_SYSTICK_Callback+0x9e>
			}
			else if(htim2.Instance->CCR3 == 100)
 80006a4:	4b0f      	ldr	r3, [pc, #60]	; (80006e4 <HAL_SYSTICK_Callback+0xc4>)
 80006a6:	681b      	ldr	r3, [r3, #0]
 80006a8:	6bdb      	ldr	r3, [r3, #60]	; 0x3c
 80006aa:	2b64      	cmp	r3, #100	; 0x64
 80006ac:	d107      	bne.n	80006be <HAL_SYSTICK_Callback+0x9e>
			{
				//HAL_GPIO_WritePin(DEBUG_GPIO_Port, DEBUG_Pin, GPIO_PIN_SET);
				htim17.Instance->CCR1 = 100;
 80006ae:	4b0e      	ldr	r3, [pc, #56]	; (80006e8 <HAL_SYSTICK_Callback+0xc8>)
 80006b0:	681b      	ldr	r3, [r3, #0]
 80006b2:	2264      	movs	r2, #100	; 0x64
 80006b4:	635a      	str	r2, [r3, #52]	; 0x34
				htim2.Instance->CCR3 = 0;
 80006b6:	4b0b      	ldr	r3, [pc, #44]	; (80006e4 <HAL_SYSTICK_Callback+0xc4>)
 80006b8:	681b      	ldr	r3, [r3, #0]
 80006ba:	2200      	movs	r2, #0
 80006bc:	63da      	str	r2, [r3, #60]	; 0x3c
			}
			mSec_Allarm = 0;
 80006be:	4b08      	ldr	r3, [pc, #32]	; (80006e0 <HAL_SYSTICK_Callback+0xc0>)
 80006c0:	2200      	movs	r2, #0
 80006c2:	801a      	strh	r2, [r3, #0]
		}
	}
#endif
}
 80006c4:	46c0      	nop			; (mov r8, r8)
 80006c6:	46bd      	mov	sp, r7
 80006c8:	bd80      	pop	{r7, pc}
 80006ca:	46c0      	nop			; (mov r8, r8)
 80006cc:	200000d6 	.word	0x200000d6
 80006d0:	00001387 	.word	0x00001387
 80006d4:	200000ee 	.word	0x200000ee
 80006d8:	200000ed 	.word	0x200000ed
 80006dc:	200000eb 	.word	0x200000eb
 80006e0:	200000d8 	.word	0x200000d8
 80006e4:	2000026c 	.word	0x2000026c
 80006e8:	20000160 	.word	0x20000160

080006ec <main>:
/**
  * @brief  The application entry point.
  * @retval int
  */
int main(void)
{
 80006ec:	b5b0      	push	{r4, r5, r7, lr}
 80006ee:	b08a      	sub	sp, #40	; 0x28
 80006f0:	af00      	add	r7, sp, #0
  /* USER CODE END 1 */

  /* MCU Configuration--------------------------------------------------------*/

  /* Reset of all peripherals, Initializes the Flash interface and the Systick. */
  HAL_Init();
 80006f2:	f001 fdf1 	bl	80022d8 <HAL_Init>
  /* USER CODE BEGIN Init */

  /* USER CODE END Init */

  /* Configure the system clock */
  SystemClock_Config();
 80006f6:	f000 fc57 	bl	8000fa8 <SystemClock_Config>
  /* USER CODE BEGIN SysInit */

  /* USER CODE END SysInit */

  /* Initialize all configured peripherals */
  MX_GPIO_Init();
 80006fa:	f000 feb5 	bl	8001468 <MX_GPIO_Init>
  MX_COMP1_Init();
 80006fe:	f000 fcb3 	bl	8001068 <MX_COMP1_Init>
  MX_I2C2_Init();
 8000702:	f000 fce3 	bl	80010cc <MX_I2C2_Init>
  MX_USART1_UART_Init();
 8000706:	f000 fe61 	bl	80013cc <MX_USART1_UART_Init>
  MX_TIM2_Init();
 800070a:	f000 fd23 	bl	8001154 <MX_TIM2_Init>
  MX_TIM14_Init();
 800070e:	f000 fd89 	bl	8001224 <MX_TIM14_Init>
  MX_TIM17_Init();
 8000712:	f000 fdd5 	bl	80012c0 <MX_TIM17_Init>
  /* USER CODE BEGIN 2 */
	HAL_Delay(10);
 8000716:	200a      	movs	r0, #10
 8000718:	f001 fe64 	bl	80023e4 <HAL_Delay>

	/* Controllare PWM gen prima di modificare, sia master che slave  750khz, pwm50%*/
	if (HAL_GPIO_ReadPin(MODE_SELECT_GPIO_Port, MODE_SELECT_Pin) == GPIO_PIN_RESET)
 800071c:	23a0      	movs	r3, #160	; 0xa0
 800071e:	05db      	lsls	r3, r3, #23
 8000720:	2180      	movs	r1, #128	; 0x80
 8000722:	0018      	movs	r0, r3
 8000724:	f002 fda0 	bl	8003268 <HAL_GPIO_ReadPin>
 8000728:	1e03      	subs	r3, r0, #0
 800072a:	d102      	bne.n	8000732 <main+0x46>
	{
		// Per proximity è gia configurato, nella dichiarazione
		Software = Touch;
 800072c:	4ada      	ldr	r2, [pc, #872]	; (8000a98 <main+0x3ac>)
 800072e:	2301      	movs	r3, #1
 8000730:	7013      	strb	r3, [r2, #0]
	}
	//Resistenza di limitazione
	//NON PIU USATA LA CORRENTE DI LIMITAZIONE HAL_GPIO_WritePin(CURRENT_LIMIT_GPIO_Port, CURRENT_LIMIT_Pin, GPIO_PIN_SET);				//Resistenza di limitazione
	HAL_COMP_Start(&hcomp1);
 8000732:	4bda      	ldr	r3, [pc, #872]	; (8000a9c <main+0x3b0>)
 8000734:	0018      	movs	r0, r3
 8000736:	f002 f89d 	bl	8002874 <HAL_COMP_Start>
	HAL_TIM_PWM_Start(&htim2, TIM_CHANNEL_3); // led 3
 800073a:	4bd9      	ldr	r3, [pc, #868]	; (8000aa0 <main+0x3b4>)
 800073c:	2108      	movs	r1, #8
 800073e:	0018      	movs	r0, r3
 8000740:	f005 f876 	bl	8005830 <HAL_TIM_PWM_Start>
	HAL_TIM_PWM_Start(&htim2, TIM_CHANNEL_1);  // led 1
 8000744:	4bd6      	ldr	r3, [pc, #856]	; (8000aa0 <main+0x3b4>)
 8000746:	2100      	movs	r1, #0
 8000748:	0018      	movs	r0, r3
 800074a:	f005 f871 	bl	8005830 <HAL_TIM_PWM_Start>
	HAL_TIM_PWM_Start(&htim14, TIM_CHANNEL_1); // pwm gen out
 800074e:	4bd5      	ldr	r3, [pc, #852]	; (8000aa4 <main+0x3b8>)
 8000750:	2100      	movs	r1, #0
 8000752:	0018      	movs	r0, r3
 8000754:	f005 f86c 	bl	8005830 <HAL_TIM_PWM_Start>
	HAL_TIM_PWM_Start(&htim17, TIM_CHANNEL_1); // led 2
 8000758:	4bd3      	ldr	r3, [pc, #844]	; (8000aa8 <main+0x3bc>)
 800075a:	2100      	movs	r1, #0
 800075c:	0018      	movs	r0, r3
 800075e:	f005 f867 	bl	8005830 <HAL_TIM_PWM_Start>
	htim2.Instance->CCR1 = 0;
 8000762:	4bcf      	ldr	r3, [pc, #828]	; (8000aa0 <main+0x3b4>)
 8000764:	681a      	ldr	r2, [r3, #0]
 8000766:	2300      	movs	r3, #0
 8000768:	6353      	str	r3, [r2, #52]	; 0x34
	htim2.Instance->CCR3 = 0;
 800076a:	4bcd      	ldr	r3, [pc, #820]	; (8000aa0 <main+0x3b4>)
 800076c:	681a      	ldr	r2, [r3, #0]
 800076e:	2300      	movs	r3, #0
 8000770:	63d3      	str	r3, [r2, #60]	; 0x3c
	htim17.Instance->CCR1 = 0;
 8000772:	4bcd      	ldr	r3, [pc, #820]	; (8000aa8 <main+0x3bc>)
 8000774:	681a      	ldr	r2, [r3, #0]
 8000776:	2300      	movs	r3, #0
 8000778:	6353      	str	r3, [r2, #52]	; 0x34

//#ifdef PROXIMITY
	if (Software == Proximity)
 800077a:	4bc7      	ldr	r3, [pc, #796]	; (8000a98 <main+0x3ac>)
 800077c:	781b      	ldrb	r3, [r3, #0]
 800077e:	2b00      	cmp	r3, #0
 8000780:	d109      	bne.n	8000796 <main+0xaa>
	{
		VCNL4020_Init(&hi2c2, THRESHOLD_LEVEL);
 8000782:	4aca      	ldr	r2, [pc, #808]	; (8000aac <main+0x3c0>)
 8000784:	4bca      	ldr	r3, [pc, #808]	; (8000ab0 <main+0x3c4>)
 8000786:	0011      	movs	r1, r2
 8000788:	0018      	movs	r0, r3
 800078a:	f001 fd50 	bl	800222e <VCNL4020_Init>
		htim2.Instance->CCR1 = MIN_LED_BLUE_LEVEL; //Led Blue
 800078e:	4bc4      	ldr	r3, [pc, #784]	; (8000aa0 <main+0x3b4>)
 8000790:	681a      	ldr	r2, [r3, #0]
 8000792:	2332      	movs	r3, #50	; 0x32
 8000794:	6353      	str	r3, [r2, #52]	; 0x34
	}
//#endif

	FlashPtr = (uint16_t*)DIMMING_CH1_FLASH;
 8000796:	4ac7      	ldr	r2, [pc, #796]	; (8000ab4 <main+0x3c8>)
 8000798:	4bc7      	ldr	r3, [pc, #796]	; (8000ab8 <main+0x3cc>)
 800079a:	6013      	str	r3, [r2, #0]
	DimmingLevelCh1 = *FlashPtr;
 800079c:	4bc5      	ldr	r3, [pc, #788]	; (8000ab4 <main+0x3c8>)
 800079e:	681b      	ldr	r3, [r3, #0]
 80007a0:	881b      	ldrh	r3, [r3, #0]
 80007a2:	b2db      	uxtb	r3, r3
 80007a4:	4ac5      	ldr	r2, [pc, #788]	; (8000abc <main+0x3d0>)
 80007a6:	7013      	strb	r3, [r2, #0]
	FlashPtr = (uint16_t*)DIMMING_CH2_FLASH;
 80007a8:	4ac2      	ldr	r2, [pc, #776]	; (8000ab4 <main+0x3c8>)
 80007aa:	4bc5      	ldr	r3, [pc, #788]	; (8000ac0 <main+0x3d4>)
 80007ac:	6013      	str	r3, [r2, #0]
	DimmingLevelCh2 = *FlashPtr;
 80007ae:	4bc1      	ldr	r3, [pc, #772]	; (8000ab4 <main+0x3c8>)
 80007b0:	681b      	ldr	r3, [r3, #0]
 80007b2:	881b      	ldrh	r3, [r3, #0]
 80007b4:	b2db      	uxtb	r3, r3
 80007b6:	4ac3      	ldr	r2, [pc, #780]	; (8000ac4 <main+0x3d8>)
 80007b8:	7013      	strb	r3, [r2, #0]
	FlashPtr = (uint16_t*)POWER_FLASH;
 80007ba:	4abe      	ldr	r2, [pc, #760]	; (8000ab4 <main+0x3c8>)
 80007bc:	4bc2      	ldr	r3, [pc, #776]	; (8000ac8 <main+0x3dc>)
 80007be:	6013      	str	r3, [r2, #0]
	Power = *FlashPtr;
 80007c0:	4bbc      	ldr	r3, [pc, #752]	; (8000ab4 <main+0x3c8>)
 80007c2:	681b      	ldr	r3, [r3, #0]
 80007c4:	881b      	ldrh	r3, [r3, #0]
 80007c6:	b2db      	uxtb	r3, r3
 80007c8:	4ac0      	ldr	r2, [pc, #768]	; (8000acc <main+0x3e0>)
 80007ca:	7013      	strb	r3, [r2, #0]
	FlashPtr = (uint16_t*)DIMMINGDIRECTION_CH1_FLASH;
 80007cc:	4ab9      	ldr	r2, [pc, #740]	; (8000ab4 <main+0x3c8>)
 80007ce:	4bc0      	ldr	r3, [pc, #768]	; (8000ad0 <main+0x3e4>)
 80007d0:	6013      	str	r3, [r2, #0]
	DimmingDirectionCh1 = *FlashPtr;
 80007d2:	4bb8      	ldr	r3, [pc, #736]	; (8000ab4 <main+0x3c8>)
 80007d4:	681b      	ldr	r3, [r3, #0]
 80007d6:	881b      	ldrh	r3, [r3, #0]
 80007d8:	b2db      	uxtb	r3, r3
 80007da:	4abe      	ldr	r2, [pc, #760]	; (8000ad4 <main+0x3e8>)
 80007dc:	7013      	strb	r3, [r2, #0]
	FlashPtr = (uint16_t*)DIMMINGDIRECTION_CH2_FLASH;
 80007de:	4ab5      	ldr	r2, [pc, #724]	; (8000ab4 <main+0x3c8>)
 80007e0:	4bbd      	ldr	r3, [pc, #756]	; (8000ad8 <main+0x3ec>)
 80007e2:	6013      	str	r3, [r2, #0]
	DimmingDirectionCh2 = *FlashPtr;
 80007e4:	4bb3      	ldr	r3, [pc, #716]	; (8000ab4 <main+0x3c8>)
 80007e6:	681b      	ldr	r3, [r3, #0]
 80007e8:	881b      	ldrh	r3, [r3, #0]
 80007ea:	b2db      	uxtb	r3, r3
 80007ec:	4abb      	ldr	r2, [pc, #748]	; (8000adc <main+0x3f0>)
 80007ee:	7013      	strb	r3, [r2, #0]
	FlashPtr = (uint16_t*)CHANNEL_SELECTED_FLASH;
 80007f0:	4ab0      	ldr	r2, [pc, #704]	; (8000ab4 <main+0x3c8>)
 80007f2:	4bbb      	ldr	r3, [pc, #748]	; (8000ae0 <main+0x3f4>)
 80007f4:	6013      	str	r3, [r2, #0]
	Channel = *FlashPtr;
 80007f6:	4baf      	ldr	r3, [pc, #700]	; (8000ab4 <main+0x3c8>)
 80007f8:	681b      	ldr	r3, [r3, #0]
 80007fa:	881b      	ldrh	r3, [r3, #0]
 80007fc:	b2db      	uxtb	r3, r3
 80007fe:	4ab9      	ldr	r2, [pc, #740]	; (8000ae4 <main+0x3f8>)
 8000800:	7013      	strb	r3, [r2, #0]

	if(Power == On)
 8000802:	4bb2      	ldr	r3, [pc, #712]	; (8000acc <main+0x3e0>)
 8000804:	781b      	ldrb	r3, [r3, #0]
 8000806:	2b01      	cmp	r3, #1
 8000808:	d10c      	bne.n	8000824 <main+0x138>
	{
		Edge = Rise;
 800080a:	4ab7      	ldr	r2, [pc, #732]	; (8000ae8 <main+0x3fc>)
 800080c:	2301      	movs	r3, #1
 800080e:	7013      	strb	r3, [r2, #0]
		TargetLevelCh1 = DimmingLevelCh1;
 8000810:	4baa      	ldr	r3, [pc, #680]	; (8000abc <main+0x3d0>)
 8000812:	781b      	ldrb	r3, [r3, #0]
 8000814:	b29b      	uxth	r3, r3
 8000816:	4ab5      	ldr	r2, [pc, #724]	; (8000aec <main+0x400>)
 8000818:	8013      	strh	r3, [r2, #0]
		TargetLevelCh2 = DimmingLevelCh2;
 800081a:	4baa      	ldr	r3, [pc, #680]	; (8000ac4 <main+0x3d8>)
 800081c:	781b      	ldrb	r3, [r3, #0]
 800081e:	b29b      	uxth	r3, r3
 8000820:	4ab3      	ldr	r2, [pc, #716]	; (8000af0 <main+0x404>)
 8000822:	8013      	strh	r3, [r2, #0]
	}
	if((DimmingLevelCh1 == 0xFF)||(DimmingLevelCh2 == 0xFF)||(Power == 0xFF)||(DimmingDirectionCh1 == 0xFF)||(DimmingDirectionCh2 == 0xFF)||(Channel == 0xFF))							//Se la memoria e' vuota
 8000824:	4ba5      	ldr	r3, [pc, #660]	; (8000abc <main+0x3d0>)
 8000826:	781b      	ldrb	r3, [r3, #0]
 8000828:	2bff      	cmp	r3, #255	; 0xff
 800082a:	d013      	beq.n	8000854 <main+0x168>
 800082c:	4ba5      	ldr	r3, [pc, #660]	; (8000ac4 <main+0x3d8>)
 800082e:	781b      	ldrb	r3, [r3, #0]
 8000830:	2bff      	cmp	r3, #255	; 0xff
 8000832:	d00f      	beq.n	8000854 <main+0x168>
 8000834:	4ba5      	ldr	r3, [pc, #660]	; (8000acc <main+0x3e0>)
 8000836:	781b      	ldrb	r3, [r3, #0]
 8000838:	2bff      	cmp	r3, #255	; 0xff
 800083a:	d00b      	beq.n	8000854 <main+0x168>
 800083c:	4ba5      	ldr	r3, [pc, #660]	; (8000ad4 <main+0x3e8>)
 800083e:	781b      	ldrb	r3, [r3, #0]
 8000840:	2bff      	cmp	r3, #255	; 0xff
 8000842:	d007      	beq.n	8000854 <main+0x168>
 8000844:	4ba5      	ldr	r3, [pc, #660]	; (8000adc <main+0x3f0>)
 8000846:	781b      	ldrb	r3, [r3, #0]
 8000848:	2bff      	cmp	r3, #255	; 0xff
 800084a:	d003      	beq.n	8000854 <main+0x168>
 800084c:	4ba5      	ldr	r3, [pc, #660]	; (8000ae4 <main+0x3f8>)
 800084e:	781b      	ldrb	r3, [r3, #0]
 8000850:	2bff      	cmp	r3, #255	; 0xff
 8000852:	d111      	bne.n	8000878 <main+0x18c>
	{
		DimmingDirectionCh1 = Up;
 8000854:	4a9f      	ldr	r2, [pc, #636]	; (8000ad4 <main+0x3e8>)
 8000856:	2301      	movs	r3, #1
 8000858:	7013      	strb	r3, [r2, #0]
		DimmingDirectionCh2 = Up;
 800085a:	4aa0      	ldr	r2, [pc, #640]	; (8000adc <main+0x3f0>)
 800085c:	2301      	movs	r3, #1
 800085e:	7013      	strb	r3, [r2, #0]
		Power = Off;
 8000860:	4a9a      	ldr	r2, [pc, #616]	; (8000acc <main+0x3e0>)
 8000862:	2300      	movs	r3, #0
 8000864:	7013      	strb	r3, [r2, #0]
		DimmingLevelCh1 = MIN_PWM;
 8000866:	4a95      	ldr	r2, [pc, #596]	; (8000abc <main+0x3d0>)
 8000868:	2301      	movs	r3, #1
 800086a:	7013      	strb	r3, [r2, #0]
		DimmingLevelCh2 = MIN_PWM;
 800086c:	4a95      	ldr	r2, [pc, #596]	; (8000ac4 <main+0x3d8>)
 800086e:	2301      	movs	r3, #1
 8000870:	7013      	strb	r3, [r2, #0]
		Channel = 1;
 8000872:	4a9c      	ldr	r2, [pc, #624]	; (8000ae4 <main+0x3f8>)
 8000874:	2301      	movs	r3, #1
 8000876:	7013      	strb	r3, [r2, #0]
	}
	HAL_Delay(300);
 8000878:	2396      	movs	r3, #150	; 0x96
 800087a:	005b      	lsls	r3, r3, #1
 800087c:	0018      	movs	r0, r3
 800087e:	f001 fdb1 	bl	80023e4 <HAL_Delay>

	// Da commentare dopo
	Channel = 1;
 8000882:	4a98      	ldr	r2, [pc, #608]	; (8000ae4 <main+0x3f8>)
 8000884:	2301      	movs	r3, #1
 8000886:	7013      	strb	r3, [r2, #0]
	Power = On;
 8000888:	4a90      	ldr	r2, [pc, #576]	; (8000acc <main+0x3e0>)
 800088a:	2301      	movs	r3, #1
 800088c:	7013      	strb	r3, [r2, #0]
			TxBuffer[0] = 153;
			TxBuffer[1] = 153;
			TxBuffer[2] = 153;
			HAL_UART_Transmit(&huart1, TxBuffer, 3, 500);
	  }*/
	if((TimeOut)&&(mSecDoubleTouch == MAXIMUM_DOUBLE_TOUCH_TIME)&&(channel_is_changed == 0))
 800088e:	4b99      	ldr	r3, [pc, #612]	; (8000af4 <main+0x408>)
 8000890:	781b      	ldrb	r3, [r3, #0]
 8000892:	2b00      	cmp	r3, #0
 8000894:	d100      	bne.n	8000898 <main+0x1ac>
 8000896:	e0b6      	b.n	8000a06 <main+0x31a>
 8000898:	4b97      	ldr	r3, [pc, #604]	; (8000af8 <main+0x40c>)
 800089a:	881a      	ldrh	r2, [r3, #0]
 800089c:	23fa      	movs	r3, #250	; 0xfa
 800089e:	005b      	lsls	r3, r3, #1
 80008a0:	429a      	cmp	r2, r3
 80008a2:	d000      	beq.n	80008a6 <main+0x1ba>
 80008a4:	e0af      	b.n	8000a06 <main+0x31a>
 80008a6:	4b95      	ldr	r3, [pc, #596]	; (8000afc <main+0x410>)
 80008a8:	781b      	ldrb	r3, [r3, #0]
 80008aa:	2b00      	cmp	r3, #0
 80008ac:	d000      	beq.n	80008b0 <main+0x1c4>
 80008ae:	e0aa      	b.n	8000a06 <main+0x31a>
	{
		if((mSecTouch > MINIMUM_SHORT_TOUCH_TIME) && (mSecTouch < MAXIMUM_SHORT_TOUCH_TIME))
 80008b0:	4b93      	ldr	r3, [pc, #588]	; (8000b00 <main+0x414>)
 80008b2:	881b      	ldrh	r3, [r3, #0]
 80008b4:	2b0a      	cmp	r3, #10
 80008b6:	d93b      	bls.n	8000930 <main+0x244>
 80008b8:	4b91      	ldr	r3, [pc, #580]	; (8000b00 <main+0x414>)
 80008ba:	881a      	ldrh	r2, [r3, #0]
 80008bc:	23c8      	movs	r3, #200	; 0xc8
 80008be:	005b      	lsls	r3, r3, #1
 80008c0:	429a      	cmp	r2, r3
 80008c2:	d235      	bcs.n	8000930 <main+0x244>
		{
			if(Power == Off)
 80008c4:	4b81      	ldr	r3, [pc, #516]	; (8000acc <main+0x3e0>)
 80008c6:	781b      	ldrb	r3, [r3, #0]
 80008c8:	2b00      	cmp	r3, #0
 80008ca:	d116      	bne.n	80008fa <main+0x20e>
			{
				Power = On;
 80008cc:	4a7f      	ldr	r2, [pc, #508]	; (8000acc <main+0x3e0>)
 80008ce:	2301      	movs	r3, #1
 80008d0:	7013      	strb	r3, [r2, #0]
				TargetLevelCh1 = DimmingLevelCh1;
 80008d2:	4b7a      	ldr	r3, [pc, #488]	; (8000abc <main+0x3d0>)
 80008d4:	781b      	ldrb	r3, [r3, #0]
 80008d6:	b29b      	uxth	r3, r3
 80008d8:	4a84      	ldr	r2, [pc, #528]	; (8000aec <main+0x400>)
 80008da:	8013      	strh	r3, [r2, #0]
				TargetLevelCh2 = DimmingLevelCh2;
 80008dc:	4b79      	ldr	r3, [pc, #484]	; (8000ac4 <main+0x3d8>)
 80008de:	781b      	ldrb	r3, [r3, #0]
 80008e0:	b29b      	uxth	r3, r3
 80008e2:	4a83      	ldr	r2, [pc, #524]	; (8000af0 <main+0x404>)
 80008e4:	8013      	strh	r3, [r2, #0]
				Edge = Rise;
 80008e6:	4a80      	ldr	r2, [pc, #512]	; (8000ae8 <main+0x3fc>)
 80008e8:	2301      	movs	r3, #1
 80008ea:	7013      	strb	r3, [r2, #0]
				BufferMemCh1 = 0;
 80008ec:	4a85      	ldr	r2, [pc, #532]	; (8000b04 <main+0x418>)
 80008ee:	2300      	movs	r3, #0
 80008f0:	7013      	strb	r3, [r2, #0]
				BufferMemCh2 = 0;
 80008f2:	4a85      	ldr	r2, [pc, #532]	; (8000b08 <main+0x41c>)
 80008f4:	2300      	movs	r3, #0
 80008f6:	7013      	strb	r3, [r2, #0]
 80008f8:	e013      	b.n	8000922 <main+0x236>
			}
			else
			{
				Power = Off;
 80008fa:	4a74      	ldr	r2, [pc, #464]	; (8000acc <main+0x3e0>)
 80008fc:	2300      	movs	r3, #0
 80008fe:	7013      	strb	r3, [r2, #0]
				TargetLevelCh1 = 0;
 8000900:	4a7a      	ldr	r2, [pc, #488]	; (8000aec <main+0x400>)
 8000902:	2300      	movs	r3, #0
 8000904:	8013      	strh	r3, [r2, #0]
				TargetLevelCh2 = 0;
 8000906:	4a7a      	ldr	r2, [pc, #488]	; (8000af0 <main+0x404>)
 8000908:	2300      	movs	r3, #0
 800090a:	8013      	strh	r3, [r2, #0]
				Edge = Fall;
 800090c:	4a76      	ldr	r2, [pc, #472]	; (8000ae8 <main+0x3fc>)
 800090e:	2302      	movs	r3, #2
 8000910:	7013      	strb	r3, [r2, #0]
				BufferMemCh1 = DimmingLevelCh1;
 8000912:	4b6a      	ldr	r3, [pc, #424]	; (8000abc <main+0x3d0>)
 8000914:	781b      	ldrb	r3, [r3, #0]
 8000916:	4a7b      	ldr	r2, [pc, #492]	; (8000b04 <main+0x418>)
 8000918:	7013      	strb	r3, [r2, #0]
				BufferMemCh2 = DimmingLevelCh2;
 800091a:	4b6a      	ldr	r3, [pc, #424]	; (8000ac4 <main+0x3d8>)
 800091c:	781b      	ldrb	r3, [r3, #0]
 800091e:	4a7a      	ldr	r2, [pc, #488]	; (8000b08 <main+0x41c>)
 8000920:	7013      	strb	r3, [r2, #0]
			}
			mSec = 0;
 8000922:	4a7a      	ldr	r2, [pc, #488]	; (8000b0c <main+0x420>)
 8000924:	2300      	movs	r3, #0
 8000926:	8013      	strh	r3, [r2, #0]
			mSecTouch = MAXIMUM_SHORT_TOUCH_TIME + 1;
 8000928:	4a75      	ldr	r2, [pc, #468]	; (8000b00 <main+0x414>)
 800092a:	2392      	movs	r3, #146	; 0x92
 800092c:	33ff      	adds	r3, #255	; 0xff
 800092e:	8013      	strh	r3, [r2, #0]
		}
		HAL_FLASH_Unlock();
 8000930:	f002 fa00 	bl	8002d34 <HAL_FLASH_Unlock>
		HAL_FLASHEx_Erase(&ErasePAGE31Init, &MyPageError);
 8000934:	4a76      	ldr	r2, [pc, #472]	; (8000b10 <main+0x424>)
 8000936:	4b77      	ldr	r3, [pc, #476]	; (8000b14 <main+0x428>)
 8000938:	0011      	movs	r1, r2
 800093a:	0018      	movs	r0, r3
 800093c:	f002 fa8c 	bl	8002e58 <HAL_FLASHEx_Erase>
		FlashPtr = (uint16_t*)DIMMING_CH1_FLASH;
 8000940:	4a5c      	ldr	r2, [pc, #368]	; (8000ab4 <main+0x3c8>)
 8000942:	4b5d      	ldr	r3, [pc, #372]	; (8000ab8 <main+0x3cc>)
 8000944:	6013      	str	r3, [r2, #0]
		HAL_FLASH_Program(FLASH_TYPEPROGRAM_DOUBLEWORD, (uint32_t)FlashPtr, (uint8_t)DimmingLevelCh1);
 8000946:	4b5b      	ldr	r3, [pc, #364]	; (8000ab4 <main+0x3c8>)
 8000948:	681b      	ldr	r3, [r3, #0]
 800094a:	0019      	movs	r1, r3
 800094c:	4b5b      	ldr	r3, [pc, #364]	; (8000abc <main+0x3d0>)
 800094e:	781b      	ldrb	r3, [r3, #0]
 8000950:	001c      	movs	r4, r3
 8000952:	2300      	movs	r3, #0
 8000954:	001d      	movs	r5, r3
 8000956:	0022      	movs	r2, r4
 8000958:	002b      	movs	r3, r5
 800095a:	2001      	movs	r0, #1
 800095c:	f002 f99c 	bl	8002c98 <HAL_FLASH_Program>
		FlashPtr = (uint16_t*)DIMMING_CH2_FLASH;
 8000960:	4a54      	ldr	r2, [pc, #336]	; (8000ab4 <main+0x3c8>)
 8000962:	4b57      	ldr	r3, [pc, #348]	; (8000ac0 <main+0x3d4>)
 8000964:	6013      	str	r3, [r2, #0]
		HAL_FLASH_Program(FLASH_TYPEPROGRAM_DOUBLEWORD, (uint32_t)FlashPtr, (uint8_t)DimmingLevelCh2);
 8000966:	4b53      	ldr	r3, [pc, #332]	; (8000ab4 <main+0x3c8>)
 8000968:	681b      	ldr	r3, [r3, #0]
 800096a:	0019      	movs	r1, r3
 800096c:	4b55      	ldr	r3, [pc, #340]	; (8000ac4 <main+0x3d8>)
 800096e:	781b      	ldrb	r3, [r3, #0]
 8000970:	623b      	str	r3, [r7, #32]
 8000972:	2300      	movs	r3, #0
 8000974:	627b      	str	r3, [r7, #36]	; 0x24
 8000976:	6a3a      	ldr	r2, [r7, #32]
 8000978:	6a7b      	ldr	r3, [r7, #36]	; 0x24
 800097a:	2001      	movs	r0, #1
 800097c:	f002 f98c 	bl	8002c98 <HAL_FLASH_Program>
		FlashPtr = (uint16_t*)POWER_FLASH;
 8000980:	4a4c      	ldr	r2, [pc, #304]	; (8000ab4 <main+0x3c8>)
 8000982:	4b51      	ldr	r3, [pc, #324]	; (8000ac8 <main+0x3dc>)
 8000984:	6013      	str	r3, [r2, #0]
		HAL_FLASH_Program(FLASH_TYPEPROGRAM_DOUBLEWORD, (uint32_t)FlashPtr, (uint8_t)Power);
 8000986:	4b4b      	ldr	r3, [pc, #300]	; (8000ab4 <main+0x3c8>)
 8000988:	681b      	ldr	r3, [r3, #0]
 800098a:	0019      	movs	r1, r3
 800098c:	4b4f      	ldr	r3, [pc, #316]	; (8000acc <main+0x3e0>)
 800098e:	781b      	ldrb	r3, [r3, #0]
 8000990:	61bb      	str	r3, [r7, #24]
 8000992:	2300      	movs	r3, #0
 8000994:	61fb      	str	r3, [r7, #28]
 8000996:	69ba      	ldr	r2, [r7, #24]
 8000998:	69fb      	ldr	r3, [r7, #28]
 800099a:	2001      	movs	r0, #1
 800099c:	f002 f97c 	bl	8002c98 <HAL_FLASH_Program>
		FlashPtr = (uint16_t*)DIMMINGDIRECTION_CH1_FLASH;
 80009a0:	4a44      	ldr	r2, [pc, #272]	; (8000ab4 <main+0x3c8>)
 80009a2:	4b4b      	ldr	r3, [pc, #300]	; (8000ad0 <main+0x3e4>)
 80009a4:	6013      	str	r3, [r2, #0]
		HAL_FLASH_Program(FLASH_TYPEPROGRAM_DOUBLEWORD, (uint32_t)FlashPtr, (uint8_t)DimmingDirectionCh1);
 80009a6:	4b43      	ldr	r3, [pc, #268]	; (8000ab4 <main+0x3c8>)
 80009a8:	681b      	ldr	r3, [r3, #0]
 80009aa:	0019      	movs	r1, r3
 80009ac:	4b49      	ldr	r3, [pc, #292]	; (8000ad4 <main+0x3e8>)
 80009ae:	781b      	ldrb	r3, [r3, #0]
 80009b0:	613b      	str	r3, [r7, #16]
 80009b2:	2300      	movs	r3, #0
 80009b4:	617b      	str	r3, [r7, #20]
 80009b6:	693a      	ldr	r2, [r7, #16]
 80009b8:	697b      	ldr	r3, [r7, #20]
 80009ba:	2001      	movs	r0, #1
 80009bc:	f002 f96c 	bl	8002c98 <HAL_FLASH_Program>
		FlashPtr = (uint16_t*)DIMMINGDIRECTION_CH2_FLASH;
 80009c0:	4a3c      	ldr	r2, [pc, #240]	; (8000ab4 <main+0x3c8>)
 80009c2:	4b45      	ldr	r3, [pc, #276]	; (8000ad8 <main+0x3ec>)
 80009c4:	6013      	str	r3, [r2, #0]
		HAL_FLASH_Program(FLASH_TYPEPROGRAM_DOUBLEWORD, (uint32_t)FlashPtr, (uint8_t)DimmingDirectionCh2);
 80009c6:	4b3b      	ldr	r3, [pc, #236]	; (8000ab4 <main+0x3c8>)
 80009c8:	681b      	ldr	r3, [r3, #0]
 80009ca:	0019      	movs	r1, r3
 80009cc:	4b43      	ldr	r3, [pc, #268]	; (8000adc <main+0x3f0>)
 80009ce:	781b      	ldrb	r3, [r3, #0]
 80009d0:	60bb      	str	r3, [r7, #8]
 80009d2:	2300      	movs	r3, #0
 80009d4:	60fb      	str	r3, [r7, #12]
 80009d6:	68ba      	ldr	r2, [r7, #8]
 80009d8:	68fb      	ldr	r3, [r7, #12]
 80009da:	2001      	movs	r0, #1
 80009dc:	f002 f95c 	bl	8002c98 <HAL_FLASH_Program>
		FlashPtr = (uint16_t*)CHANNEL_SELECTED_FLASH;
 80009e0:	4a34      	ldr	r2, [pc, #208]	; (8000ab4 <main+0x3c8>)
 80009e2:	4b3f      	ldr	r3, [pc, #252]	; (8000ae0 <main+0x3f4>)
 80009e4:	6013      	str	r3, [r2, #0]
		HAL_FLASH_Program(FLASH_TYPEPROGRAM_DOUBLEWORD, (uint32_t)FlashPtr, (uint8_t)Channel);
 80009e6:	4b33      	ldr	r3, [pc, #204]	; (8000ab4 <main+0x3c8>)
 80009e8:	681b      	ldr	r3, [r3, #0]
 80009ea:	0019      	movs	r1, r3
 80009ec:	4b3d      	ldr	r3, [pc, #244]	; (8000ae4 <main+0x3f8>)
 80009ee:	781b      	ldrb	r3, [r3, #0]
 80009f0:	603b      	str	r3, [r7, #0]
 80009f2:	2300      	movs	r3, #0
 80009f4:	607b      	str	r3, [r7, #4]
 80009f6:	683a      	ldr	r2, [r7, #0]
 80009f8:	687b      	ldr	r3, [r7, #4]
 80009fa:	2001      	movs	r0, #1
 80009fc:	f002 f94c 	bl	8002c98 <HAL_FLASH_Program>
		TimeOut = 0;
 8000a00:	4a3c      	ldr	r2, [pc, #240]	; (8000af4 <main+0x408>)
 8000a02:	2300      	movs	r3, #0
 8000a04:	7013      	strb	r3, [r2, #0]
	}

	if((Power == On)&&(Edge == None))
 8000a06:	4b31      	ldr	r3, [pc, #196]	; (8000acc <main+0x3e0>)
 8000a08:	781b      	ldrb	r3, [r3, #0]
 8000a0a:	2b01      	cmp	r3, #1
 8000a0c:	d000      	beq.n	8000a10 <main+0x324>
 8000a0e:	e12c      	b.n	8000c6a <main+0x57e>
 8000a10:	4b35      	ldr	r3, [pc, #212]	; (8000ae8 <main+0x3fc>)
 8000a12:	781b      	ldrb	r3, [r3, #0]
 8000a14:	2b00      	cmp	r3, #0
 8000a16:	d000      	beq.n	8000a1a <main+0x32e>
 8000a18:	e127      	b.n	8000c6a <main+0x57e>
	{
		if((RisingEdge)&&(mSec > MAXIMUM_SHORT_TOUCH_TIME))
 8000a1a:	4b3f      	ldr	r3, [pc, #252]	; (8000b18 <main+0x42c>)
 8000a1c:	781b      	ldrb	r3, [r3, #0]
 8000a1e:	2b00      	cmp	r3, #0
 8000a20:	d100      	bne.n	8000a24 <main+0x338>
 8000a22:	e122      	b.n	8000c6a <main+0x57e>
 8000a24:	4b39      	ldr	r3, [pc, #228]	; (8000b0c <main+0x420>)
 8000a26:	881a      	ldrh	r2, [r3, #0]
 8000a28:	23c8      	movs	r3, #200	; 0xc8
 8000a2a:	005b      	lsls	r3, r3, #1
 8000a2c:	429a      	cmp	r2, r3
 8000a2e:	d800      	bhi.n	8000a32 <main+0x346>
 8000a30:	e11b      	b.n	8000c6a <main+0x57e>
		{
			HAL_Delay(MANUAL_RAMP_DELAY_TIME);
 8000a32:	2002      	movs	r0, #2
 8000a34:	f001 fcd6 	bl	80023e4 <HAL_Delay>
			if(Channel == 1)
 8000a38:	4b2a      	ldr	r3, [pc, #168]	; (8000ae4 <main+0x3f8>)
 8000a3a:	781b      	ldrb	r3, [r3, #0]
 8000a3c:	2b01      	cmp	r3, #1
 8000a3e:	d000      	beq.n	8000a42 <main+0x356>
 8000a40:	e07d      	b.n	8000b3e <main+0x452>
			{
				if(DimmingDirectionCh1 == Up)
 8000a42:	4b24      	ldr	r3, [pc, #144]	; (8000ad4 <main+0x3e8>)
 8000a44:	781b      	ldrb	r3, [r3, #0]
 8000a46:	2b01      	cmp	r3, #1
 8000a48:	d110      	bne.n	8000a6c <main+0x380>
				{
					if((DimmingLevelCh1 < MAX_PWM)&&(RisingEdge == 1)) DimmingLevelCh1 ++;			//Controllo se il tasto è ancora premuto
 8000a4a:	4b1c      	ldr	r3, [pc, #112]	; (8000abc <main+0x3d0>)
 8000a4c:	781b      	ldrb	r3, [r3, #0]
 8000a4e:	2bfc      	cmp	r3, #252	; 0xfc
 8000a50:	d900      	bls.n	8000a54 <main+0x368>
 8000a52:	e0f9      	b.n	8000c48 <main+0x55c>
 8000a54:	4b30      	ldr	r3, [pc, #192]	; (8000b18 <main+0x42c>)
 8000a56:	781b      	ldrb	r3, [r3, #0]
 8000a58:	2b01      	cmp	r3, #1
 8000a5a:	d000      	beq.n	8000a5e <main+0x372>
 8000a5c:	e0f4      	b.n	8000c48 <main+0x55c>
 8000a5e:	4b17      	ldr	r3, [pc, #92]	; (8000abc <main+0x3d0>)
 8000a60:	781b      	ldrb	r3, [r3, #0]
 8000a62:	3301      	adds	r3, #1
 8000a64:	b2db      	uxtb	r3, r3
 8000a66:	4a15      	ldr	r2, [pc, #84]	; (8000abc <main+0x3d0>)
 8000a68:	7013      	strb	r3, [r2, #0]
 8000a6a:	e0ed      	b.n	8000c48 <main+0x55c>
				}
				else
				{
#ifdef ONE_CHANNEL_OFF
					if(DimmingLevelCh2 >= MIN_PWM)
 8000a6c:	4b15      	ldr	r3, [pc, #84]	; (8000ac4 <main+0x3d8>)
 8000a6e:	781b      	ldrb	r3, [r3, #0]
 8000a70:	2b00      	cmp	r3, #0
 8000a72:	d053      	beq.n	8000b1c <main+0x430>
					{

						if((DimmingLevelCh1 > 0)&&(RisingEdge == 1)) DimmingLevelCh1 --;			//Controllo se il tasto è ancora premuto
 8000a74:	4b11      	ldr	r3, [pc, #68]	; (8000abc <main+0x3d0>)
 8000a76:	781b      	ldrb	r3, [r3, #0]
 8000a78:	2b00      	cmp	r3, #0
 8000a7a:	d100      	bne.n	8000a7e <main+0x392>
 8000a7c:	e0e4      	b.n	8000c48 <main+0x55c>
 8000a7e:	4b26      	ldr	r3, [pc, #152]	; (8000b18 <main+0x42c>)
 8000a80:	781b      	ldrb	r3, [r3, #0]
 8000a82:	2b01      	cmp	r3, #1
 8000a84:	d000      	beq.n	8000a88 <main+0x39c>
 8000a86:	e0df      	b.n	8000c48 <main+0x55c>
 8000a88:	4b0c      	ldr	r3, [pc, #48]	; (8000abc <main+0x3d0>)
 8000a8a:	781b      	ldrb	r3, [r3, #0]
 8000a8c:	3b01      	subs	r3, #1
 8000a8e:	b2db      	uxtb	r3, r3
 8000a90:	4a0a      	ldr	r2, [pc, #40]	; (8000abc <main+0x3d0>)
 8000a92:	7013      	strb	r3, [r2, #0]
 8000a94:	e0d8      	b.n	8000c48 <main+0x55c>
 8000a96:	46c0      	nop			; (mov r8, r8)
 8000a98:	200000ce 	.word	0x200000ce
 8000a9c:	200001ac 	.word	0x200001ac
 8000aa0:	2000026c 	.word	0x2000026c
 8000aa4:	200002b8 	.word	0x200002b8
 8000aa8:	20000160 	.word	0x20000160
 8000aac:	00004650 	.word	0x00004650
 8000ab0:	20000114 	.word	0x20000114
 8000ab4:	200000dc 	.word	0x200000dc
 8000ab8:	0800f800 	.word	0x0800f800
 8000abc:	20000013 	.word	0x20000013
 8000ac0:	0800f810 	.word	0x0800f810
 8000ac4:	20000014 	.word	0x20000014
 8000ac8:	0800f820 	.word	0x0800f820
 8000acc:	200000cd 	.word	0x200000cd
 8000ad0:	0800f830 	.word	0x0800f830
 8000ad4:	20000010 	.word	0x20000010
 8000ad8:	0800f840 	.word	0x0800f840
 8000adc:	20000011 	.word	0x20000011
 8000ae0:	0800f850 	.word	0x0800f850
 8000ae4:	20000015 	.word	0x20000015
 8000ae8:	200000cc 	.word	0x200000cc
 8000aec:	200000d2 	.word	0x200000d2
 8000af0:	200000d4 	.word	0x200000d4
 8000af4:	200000d0 	.word	0x200000d0
 8000af8:	200000ee 	.word	0x200000ee
 8000afc:	200000f0 	.word	0x200000f0
 8000b00:	200000f2 	.word	0x200000f2
 8000b04:	200000f4 	.word	0x200000f4
 8000b08:	200000f5 	.word	0x200000f5
 8000b0c:	200000d6 	.word	0x200000d6
 8000b10:	200000c8 	.word	0x200000c8
 8000b14:	20000000 	.word	0x20000000
 8000b18:	200000cf 	.word	0x200000cf
					}
					else
					{
#endif
						if((DimmingLevelCh1 > MIN_PWM)&&(RisingEdge == 1)) DimmingLevelCh1 --;			//Controllo se il tasto è ancora premuto
 8000b1c:	4b98      	ldr	r3, [pc, #608]	; (8000d80 <main+0x694>)
 8000b1e:	781b      	ldrb	r3, [r3, #0]
 8000b20:	2b01      	cmp	r3, #1
 8000b22:	d800      	bhi.n	8000b26 <main+0x43a>
 8000b24:	e090      	b.n	8000c48 <main+0x55c>
 8000b26:	4b97      	ldr	r3, [pc, #604]	; (8000d84 <main+0x698>)
 8000b28:	781b      	ldrb	r3, [r3, #0]
 8000b2a:	2b01      	cmp	r3, #1
 8000b2c:	d000      	beq.n	8000b30 <main+0x444>
 8000b2e:	e08b      	b.n	8000c48 <main+0x55c>
 8000b30:	4b93      	ldr	r3, [pc, #588]	; (8000d80 <main+0x694>)
 8000b32:	781b      	ldrb	r3, [r3, #0]
 8000b34:	3b01      	subs	r3, #1
 8000b36:	b2db      	uxtb	r3, r3
 8000b38:	4a91      	ldr	r2, [pc, #580]	; (8000d80 <main+0x694>)
 8000b3a:	7013      	strb	r3, [r2, #0]
 8000b3c:	e084      	b.n	8000c48 <main+0x55c>
#ifdef ONE_CHANNEL_OFF
					}
#endif
				}
			}
			else if(Channel == 2)
 8000b3e:	4b92      	ldr	r3, [pc, #584]	; (8000d88 <main+0x69c>)
 8000b40:	781b      	ldrb	r3, [r3, #0]
 8000b42:	2b02      	cmp	r3, #2
 8000b44:	d136      	bne.n	8000bb4 <main+0x4c8>
			{
				if(DimmingDirectionCh2 == Up)
 8000b46:	4b91      	ldr	r3, [pc, #580]	; (8000d8c <main+0x6a0>)
 8000b48:	781b      	ldrb	r3, [r3, #0]
 8000b4a:	2b01      	cmp	r3, #1
 8000b4c:	d110      	bne.n	8000b70 <main+0x484>
				{
					if((DimmingLevelCh2 < MAX_PWM)&&(RisingEdge == 1)) DimmingLevelCh2 ++;			//Controllo se il tasto è ancora premuto
 8000b4e:	4b90      	ldr	r3, [pc, #576]	; (8000d90 <main+0x6a4>)
 8000b50:	781b      	ldrb	r3, [r3, #0]
 8000b52:	2bfc      	cmp	r3, #252	; 0xfc
 8000b54:	d900      	bls.n	8000b58 <main+0x46c>
 8000b56:	e077      	b.n	8000c48 <main+0x55c>
 8000b58:	4b8a      	ldr	r3, [pc, #552]	; (8000d84 <main+0x698>)
 8000b5a:	781b      	ldrb	r3, [r3, #0]
 8000b5c:	2b01      	cmp	r3, #1
 8000b5e:	d000      	beq.n	8000b62 <main+0x476>
 8000b60:	e072      	b.n	8000c48 <main+0x55c>
 8000b62:	4b8b      	ldr	r3, [pc, #556]	; (8000d90 <main+0x6a4>)
 8000b64:	781b      	ldrb	r3, [r3, #0]
 8000b66:	3301      	adds	r3, #1
 8000b68:	b2db      	uxtb	r3, r3
 8000b6a:	4a89      	ldr	r2, [pc, #548]	; (8000d90 <main+0x6a4>)
 8000b6c:	7013      	strb	r3, [r2, #0]
 8000b6e:	e06b      	b.n	8000c48 <main+0x55c>
				}
				else
				{
#ifdef ONE_CHANNEL_OFF
					if(DimmingLevelCh1 >= MIN_PWM)
 8000b70:	4b83      	ldr	r3, [pc, #524]	; (8000d80 <main+0x694>)
 8000b72:	781b      	ldrb	r3, [r3, #0]
 8000b74:	2b00      	cmp	r3, #0
 8000b76:	d00e      	beq.n	8000b96 <main+0x4aa>
					{
						if((DimmingLevelCh2 > 0)&&(RisingEdge == 1)) DimmingLevelCh2 --;			//Controllo se il tasto è ancora premuto
 8000b78:	4b85      	ldr	r3, [pc, #532]	; (8000d90 <main+0x6a4>)
 8000b7a:	781b      	ldrb	r3, [r3, #0]
 8000b7c:	2b00      	cmp	r3, #0
 8000b7e:	d063      	beq.n	8000c48 <main+0x55c>
 8000b80:	4b80      	ldr	r3, [pc, #512]	; (8000d84 <main+0x698>)
 8000b82:	781b      	ldrb	r3, [r3, #0]
 8000b84:	2b01      	cmp	r3, #1
 8000b86:	d15f      	bne.n	8000c48 <main+0x55c>
 8000b88:	4b81      	ldr	r3, [pc, #516]	; (8000d90 <main+0x6a4>)
 8000b8a:	781b      	ldrb	r3, [r3, #0]
 8000b8c:	3b01      	subs	r3, #1
 8000b8e:	b2db      	uxtb	r3, r3
 8000b90:	4a7f      	ldr	r2, [pc, #508]	; (8000d90 <main+0x6a4>)
 8000b92:	7013      	strb	r3, [r2, #0]
 8000b94:	e058      	b.n	8000c48 <main+0x55c>
					}
					else
					{
#endif
						if((DimmingLevelCh2 > MIN_PWM)&&(RisingEdge == 1)) DimmingLevelCh2 --;			//Controllo se il tasto è ancora premuto
 8000b96:	4b7e      	ldr	r3, [pc, #504]	; (8000d90 <main+0x6a4>)
 8000b98:	781b      	ldrb	r3, [r3, #0]
 8000b9a:	2b01      	cmp	r3, #1
 8000b9c:	d954      	bls.n	8000c48 <main+0x55c>
 8000b9e:	4b79      	ldr	r3, [pc, #484]	; (8000d84 <main+0x698>)
 8000ba0:	781b      	ldrb	r3, [r3, #0]
 8000ba2:	2b01      	cmp	r3, #1
 8000ba4:	d150      	bne.n	8000c48 <main+0x55c>
 8000ba6:	4b7a      	ldr	r3, [pc, #488]	; (8000d90 <main+0x6a4>)
 8000ba8:	781b      	ldrb	r3, [r3, #0]
 8000baa:	3b01      	subs	r3, #1
 8000bac:	b2db      	uxtb	r3, r3
 8000bae:	4a78      	ldr	r2, [pc, #480]	; (8000d90 <main+0x6a4>)
 8000bb0:	7013      	strb	r3, [r2, #0]
 8000bb2:	e049      	b.n	8000c48 <main+0x55c>
					}
#endif
				}
			}
			// Canale 1 e 2 in sincrono
			else if(Channel == 3)
 8000bb4:	4b74      	ldr	r3, [pc, #464]	; (8000d88 <main+0x69c>)
 8000bb6:	781b      	ldrb	r3, [r3, #0]
 8000bb8:	2b03      	cmp	r3, #3
 8000bba:	d145      	bne.n	8000c48 <main+0x55c>
			{
				if(DimmingDirectionCh2 == Up)
 8000bbc:	4b73      	ldr	r3, [pc, #460]	; (8000d8c <main+0x6a0>)
 8000bbe:	781b      	ldrb	r3, [r3, #0]
 8000bc0:	2b01      	cmp	r3, #1
 8000bc2:	d114      	bne.n	8000bee <main+0x502>
				{
					if((DimmingLevelCh2 < MAX_PWM)&&(RisingEdge == 1))
 8000bc4:	4b72      	ldr	r3, [pc, #456]	; (8000d90 <main+0x6a4>)
 8000bc6:	781b      	ldrb	r3, [r3, #0]
 8000bc8:	2bfc      	cmp	r3, #252	; 0xfc
 8000bca:	d83d      	bhi.n	8000c48 <main+0x55c>
 8000bcc:	4b6d      	ldr	r3, [pc, #436]	; (8000d84 <main+0x698>)
 8000bce:	781b      	ldrb	r3, [r3, #0]
 8000bd0:	2b01      	cmp	r3, #1
 8000bd2:	d139      	bne.n	8000c48 <main+0x55c>
					{
						DimmingLevelCh2 ++;			//Controllo se il tasto è ancora premuto
 8000bd4:	4b6e      	ldr	r3, [pc, #440]	; (8000d90 <main+0x6a4>)
 8000bd6:	781b      	ldrb	r3, [r3, #0]
 8000bd8:	3301      	adds	r3, #1
 8000bda:	b2db      	uxtb	r3, r3
 8000bdc:	4a6c      	ldr	r2, [pc, #432]	; (8000d90 <main+0x6a4>)
 8000bde:	7013      	strb	r3, [r2, #0]
						DimmingLevelCh1 ++;
 8000be0:	4b67      	ldr	r3, [pc, #412]	; (8000d80 <main+0x694>)
 8000be2:	781b      	ldrb	r3, [r3, #0]
 8000be4:	3301      	adds	r3, #1
 8000be6:	b2db      	uxtb	r3, r3
 8000be8:	4a65      	ldr	r2, [pc, #404]	; (8000d80 <main+0x694>)
 8000bea:	7013      	strb	r3, [r2, #0]
 8000bec:	e02c      	b.n	8000c48 <main+0x55c>
					}
				}
				else
				{
#ifdef ONE_CHANNEL_OFF
					if(DimmingLevelCh1 >= MIN_PWM)
 8000bee:	4b64      	ldr	r3, [pc, #400]	; (8000d80 <main+0x694>)
 8000bf0:	781b      	ldrb	r3, [r3, #0]
 8000bf2:	2b00      	cmp	r3, #0
 8000bf4:	d014      	beq.n	8000c20 <main+0x534>
					{
						if((DimmingLevelCh2 > 0)&&(RisingEdge == 1))
 8000bf6:	4b66      	ldr	r3, [pc, #408]	; (8000d90 <main+0x6a4>)
 8000bf8:	781b      	ldrb	r3, [r3, #0]
 8000bfa:	2b00      	cmp	r3, #0
 8000bfc:	d024      	beq.n	8000c48 <main+0x55c>
 8000bfe:	4b61      	ldr	r3, [pc, #388]	; (8000d84 <main+0x698>)
 8000c00:	781b      	ldrb	r3, [r3, #0]
 8000c02:	2b01      	cmp	r3, #1
 8000c04:	d120      	bne.n	8000c48 <main+0x55c>
						{
							DimmingLevelCh2 --;			//Controllo se il tasto è ancora premuto
 8000c06:	4b62      	ldr	r3, [pc, #392]	; (8000d90 <main+0x6a4>)
 8000c08:	781b      	ldrb	r3, [r3, #0]
 8000c0a:	3b01      	subs	r3, #1
 8000c0c:	b2db      	uxtb	r3, r3
 8000c0e:	4a60      	ldr	r2, [pc, #384]	; (8000d90 <main+0x6a4>)
 8000c10:	7013      	strb	r3, [r2, #0]
							DimmingLevelCh1 --;
 8000c12:	4b5b      	ldr	r3, [pc, #364]	; (8000d80 <main+0x694>)
 8000c14:	781b      	ldrb	r3, [r3, #0]
 8000c16:	3b01      	subs	r3, #1
 8000c18:	b2db      	uxtb	r3, r3
 8000c1a:	4a59      	ldr	r2, [pc, #356]	; (8000d80 <main+0x694>)
 8000c1c:	7013      	strb	r3, [r2, #0]
 8000c1e:	e013      	b.n	8000c48 <main+0x55c>
						}
					}
					else
					{
#endif
						if((DimmingLevelCh2 > MIN_PWM)&&(RisingEdge == 1))
 8000c20:	4b5b      	ldr	r3, [pc, #364]	; (8000d90 <main+0x6a4>)
 8000c22:	781b      	ldrb	r3, [r3, #0]
 8000c24:	2b01      	cmp	r3, #1
 8000c26:	d90f      	bls.n	8000c48 <main+0x55c>
 8000c28:	4b56      	ldr	r3, [pc, #344]	; (8000d84 <main+0x698>)
 8000c2a:	781b      	ldrb	r3, [r3, #0]
 8000c2c:	2b01      	cmp	r3, #1
 8000c2e:	d10b      	bne.n	8000c48 <main+0x55c>
						{
							DimmingLevelCh2 --;			//Controllo se il tasto è ancora premuto
 8000c30:	4b57      	ldr	r3, [pc, #348]	; (8000d90 <main+0x6a4>)
 8000c32:	781b      	ldrb	r3, [r3, #0]
 8000c34:	3b01      	subs	r3, #1
 8000c36:	b2db      	uxtb	r3, r3
 8000c38:	4a55      	ldr	r2, [pc, #340]	; (8000d90 <main+0x6a4>)
 8000c3a:	7013      	strb	r3, [r2, #0]
							DimmingLevelCh1 --;
 8000c3c:	4b50      	ldr	r3, [pc, #320]	; (8000d80 <main+0x694>)
 8000c3e:	781b      	ldrb	r3, [r3, #0]
 8000c40:	3b01      	subs	r3, #1
 8000c42:	b2db      	uxtb	r3, r3
 8000c44:	4a4e      	ldr	r2, [pc, #312]	; (8000d80 <main+0x694>)
 8000c46:	7013      	strb	r3, [r2, #0]
					}
#endif
				}
			}

			TxBuffer[0] = 0;
 8000c48:	4a52      	ldr	r2, [pc, #328]	; (8000d94 <main+0x6a8>)
 8000c4a:	2300      	movs	r3, #0
 8000c4c:	7013      	strb	r3, [r2, #0]
			TxBuffer[1] = DimmingLevelCh1;
 8000c4e:	4b4c      	ldr	r3, [pc, #304]	; (8000d80 <main+0x694>)
 8000c50:	781b      	ldrb	r3, [r3, #0]
 8000c52:	4a50      	ldr	r2, [pc, #320]	; (8000d94 <main+0x6a8>)
 8000c54:	7053      	strb	r3, [r2, #1]
			TxBuffer[2] = DimmingLevelCh2;
 8000c56:	4b4e      	ldr	r3, [pc, #312]	; (8000d90 <main+0x6a4>)
 8000c58:	781b      	ldrb	r3, [r3, #0]
 8000c5a:	4a4e      	ldr	r2, [pc, #312]	; (8000d94 <main+0x6a8>)
 8000c5c:	7093      	strb	r3, [r2, #2]
			HAL_UART_Transmit(&huart1, TxBuffer, 3, 10);
 8000c5e:	494d      	ldr	r1, [pc, #308]	; (8000d94 <main+0x6a8>)
 8000c60:	484d      	ldr	r0, [pc, #308]	; (8000d98 <main+0x6ac>)
 8000c62:	230a      	movs	r3, #10
 8000c64:	2203      	movs	r2, #3
 8000c66:	f005 fc95 	bl	8006594 <HAL_UART_Transmit>
		}
	}

	if(Edge == Rise)
 8000c6a:	4b4c      	ldr	r3, [pc, #304]	; (8000d9c <main+0x6b0>)
 8000c6c:	781b      	ldrb	r3, [r3, #0]
 8000c6e:	2b01      	cmp	r3, #1
 8000c70:	d14a      	bne.n	8000d08 <main+0x61c>
	{
		i = AUTOMATIC_RAMP_DELAY_TIME;
 8000c72:	4a4b      	ldr	r2, [pc, #300]	; (8000da0 <main+0x6b4>)
 8000c74:	4b4b      	ldr	r3, [pc, #300]	; (8000da4 <main+0x6b8>)
 8000c76:	8013      	strh	r3, [r2, #0]
		while(--i > 1) asm("NOP");
 8000c78:	e000      	b.n	8000c7c <main+0x590>
 8000c7a:	46c0      	nop			; (mov r8, r8)
 8000c7c:	4b48      	ldr	r3, [pc, #288]	; (8000da0 <main+0x6b4>)
 8000c7e:	881b      	ldrh	r3, [r3, #0]
 8000c80:	3b01      	subs	r3, #1
 8000c82:	b29b      	uxth	r3, r3
 8000c84:	4a46      	ldr	r2, [pc, #280]	; (8000da0 <main+0x6b4>)
 8000c86:	8013      	strh	r3, [r2, #0]
 8000c88:	4b45      	ldr	r3, [pc, #276]	; (8000da0 <main+0x6b4>)
 8000c8a:	881b      	ldrh	r3, [r3, #0]
 8000c8c:	2b01      	cmp	r3, #1
 8000c8e:	d8f4      	bhi.n	8000c7a <main+0x58e>

		if(BufferMemCh1 < TargetLevelCh1) BufferMemCh1 ++;
 8000c90:	4b45      	ldr	r3, [pc, #276]	; (8000da8 <main+0x6bc>)
 8000c92:	781b      	ldrb	r3, [r3, #0]
 8000c94:	b29a      	uxth	r2, r3
 8000c96:	4b45      	ldr	r3, [pc, #276]	; (8000dac <main+0x6c0>)
 8000c98:	881b      	ldrh	r3, [r3, #0]
 8000c9a:	429a      	cmp	r2, r3
 8000c9c:	d205      	bcs.n	8000caa <main+0x5be>
 8000c9e:	4b42      	ldr	r3, [pc, #264]	; (8000da8 <main+0x6bc>)
 8000ca0:	781b      	ldrb	r3, [r3, #0]
 8000ca2:	3301      	adds	r3, #1
 8000ca4:	b2db      	uxtb	r3, r3
 8000ca6:	4a40      	ldr	r2, [pc, #256]	; (8000da8 <main+0x6bc>)
 8000ca8:	7013      	strb	r3, [r2, #0]
		if(BufferMemCh2 < TargetLevelCh2) BufferMemCh2 ++;
 8000caa:	4b41      	ldr	r3, [pc, #260]	; (8000db0 <main+0x6c4>)
 8000cac:	781b      	ldrb	r3, [r3, #0]
 8000cae:	b29a      	uxth	r2, r3
 8000cb0:	4b40      	ldr	r3, [pc, #256]	; (8000db4 <main+0x6c8>)
 8000cb2:	881b      	ldrh	r3, [r3, #0]
 8000cb4:	429a      	cmp	r2, r3
 8000cb6:	d205      	bcs.n	8000cc4 <main+0x5d8>
 8000cb8:	4b3d      	ldr	r3, [pc, #244]	; (8000db0 <main+0x6c4>)
 8000cba:	781b      	ldrb	r3, [r3, #0]
 8000cbc:	3301      	adds	r3, #1
 8000cbe:	b2db      	uxtb	r3, r3
 8000cc0:	4a3b      	ldr	r2, [pc, #236]	; (8000db0 <main+0x6c4>)
 8000cc2:	7013      	strb	r3, [r2, #0]
		if((BufferMemCh1 == TargetLevelCh1)&&(BufferMemCh2 == TargetLevelCh2)) Edge = None;
 8000cc4:	4b38      	ldr	r3, [pc, #224]	; (8000da8 <main+0x6bc>)
 8000cc6:	781b      	ldrb	r3, [r3, #0]
 8000cc8:	b29a      	uxth	r2, r3
 8000cca:	4b38      	ldr	r3, [pc, #224]	; (8000dac <main+0x6c0>)
 8000ccc:	881b      	ldrh	r3, [r3, #0]
 8000cce:	429a      	cmp	r2, r3
 8000cd0:	d109      	bne.n	8000ce6 <main+0x5fa>
 8000cd2:	4b37      	ldr	r3, [pc, #220]	; (8000db0 <main+0x6c4>)
 8000cd4:	781b      	ldrb	r3, [r3, #0]
 8000cd6:	b29a      	uxth	r2, r3
 8000cd8:	4b36      	ldr	r3, [pc, #216]	; (8000db4 <main+0x6c8>)
 8000cda:	881b      	ldrh	r3, [r3, #0]
 8000cdc:	429a      	cmp	r2, r3
 8000cde:	d102      	bne.n	8000ce6 <main+0x5fa>
 8000ce0:	4a2e      	ldr	r2, [pc, #184]	; (8000d9c <main+0x6b0>)
 8000ce2:	2300      	movs	r3, #0
 8000ce4:	7013      	strb	r3, [r2, #0]

		TxBuffer[0] = 0;
 8000ce6:	4a2b      	ldr	r2, [pc, #172]	; (8000d94 <main+0x6a8>)
 8000ce8:	2300      	movs	r3, #0
 8000cea:	7013      	strb	r3, [r2, #0]
		TxBuffer[1] = BufferMemCh1;
 8000cec:	4b2e      	ldr	r3, [pc, #184]	; (8000da8 <main+0x6bc>)
 8000cee:	781b      	ldrb	r3, [r3, #0]
 8000cf0:	4a28      	ldr	r2, [pc, #160]	; (8000d94 <main+0x6a8>)
 8000cf2:	7053      	strb	r3, [r2, #1]
		TxBuffer[2] = BufferMemCh2;
 8000cf4:	4b2e      	ldr	r3, [pc, #184]	; (8000db0 <main+0x6c4>)
 8000cf6:	781b      	ldrb	r3, [r3, #0]
 8000cf8:	4a26      	ldr	r2, [pc, #152]	; (8000d94 <main+0x6a8>)
 8000cfa:	7093      	strb	r3, [r2, #2]
		HAL_UART_Transmit(&huart1, TxBuffer, 3, 10);
 8000cfc:	4925      	ldr	r1, [pc, #148]	; (8000d94 <main+0x6a8>)
 8000cfe:	4826      	ldr	r0, [pc, #152]	; (8000d98 <main+0x6ac>)
 8000d00:	230a      	movs	r3, #10
 8000d02:	2203      	movs	r2, #3
 8000d04:	f005 fc46 	bl	8006594 <HAL_UART_Transmit>
	}

	if(Edge == Fall)
 8000d08:	4b24      	ldr	r3, [pc, #144]	; (8000d9c <main+0x6b0>)
 8000d0a:	781b      	ldrb	r3, [r3, #0]
 8000d0c:	2b02      	cmp	r3, #2
 8000d0e:	d000      	beq.n	8000d12 <main+0x626>
 8000d10:	e094      	b.n	8000e3c <main+0x750>
	{
		i = AUTOMATIC_RAMP_DELAY_TIME;
 8000d12:	4a23      	ldr	r2, [pc, #140]	; (8000da0 <main+0x6b4>)
 8000d14:	4b23      	ldr	r3, [pc, #140]	; (8000da4 <main+0x6b8>)
 8000d16:	8013      	strh	r3, [r2, #0]
		while(--i > 1) asm("NOP");
 8000d18:	e000      	b.n	8000d1c <main+0x630>
 8000d1a:	46c0      	nop			; (mov r8, r8)
 8000d1c:	4b20      	ldr	r3, [pc, #128]	; (8000da0 <main+0x6b4>)
 8000d1e:	881b      	ldrh	r3, [r3, #0]
 8000d20:	3b01      	subs	r3, #1
 8000d22:	b29b      	uxth	r3, r3
 8000d24:	4a1e      	ldr	r2, [pc, #120]	; (8000da0 <main+0x6b4>)
 8000d26:	8013      	strh	r3, [r2, #0]
 8000d28:	4b1d      	ldr	r3, [pc, #116]	; (8000da0 <main+0x6b4>)
 8000d2a:	881b      	ldrh	r3, [r3, #0]
 8000d2c:	2b01      	cmp	r3, #1
 8000d2e:	d8f4      	bhi.n	8000d1a <main+0x62e>

		if(BufferMemCh1 > BufferMemCh2)
 8000d30:	4b1d      	ldr	r3, [pc, #116]	; (8000da8 <main+0x6bc>)
 8000d32:	781a      	ldrb	r2, [r3, #0]
 8000d34:	4b1e      	ldr	r3, [pc, #120]	; (8000db0 <main+0x6c4>)
 8000d36:	781b      	ldrb	r3, [r3, #0]
 8000d38:	429a      	cmp	r2, r3
 8000d3a:	d90d      	bls.n	8000d58 <main+0x66c>
		{
			if(BufferMemCh1 > TargetLevelCh1) BufferMemCh1 --;
 8000d3c:	4b1a      	ldr	r3, [pc, #104]	; (8000da8 <main+0x6bc>)
 8000d3e:	781b      	ldrb	r3, [r3, #0]
 8000d40:	b29a      	uxth	r2, r3
 8000d42:	4b1a      	ldr	r3, [pc, #104]	; (8000dac <main+0x6c0>)
 8000d44:	881b      	ldrh	r3, [r3, #0]
 8000d46:	429a      	cmp	r2, r3
 8000d48:	d956      	bls.n	8000df8 <main+0x70c>
 8000d4a:	4b17      	ldr	r3, [pc, #92]	; (8000da8 <main+0x6bc>)
 8000d4c:	781b      	ldrb	r3, [r3, #0]
 8000d4e:	3b01      	subs	r3, #1
 8000d50:	b2db      	uxtb	r3, r3
 8000d52:	4a15      	ldr	r2, [pc, #84]	; (8000da8 <main+0x6bc>)
 8000d54:	7013      	strb	r3, [r2, #0]
 8000d56:	e04f      	b.n	8000df8 <main+0x70c>
		}
		else if(BufferMemCh1 < BufferMemCh2)
 8000d58:	4b13      	ldr	r3, [pc, #76]	; (8000da8 <main+0x6bc>)
 8000d5a:	781a      	ldrb	r2, [r3, #0]
 8000d5c:	4b14      	ldr	r3, [pc, #80]	; (8000db0 <main+0x6c4>)
 8000d5e:	781b      	ldrb	r3, [r3, #0]
 8000d60:	429a      	cmp	r2, r3
 8000d62:	d229      	bcs.n	8000db8 <main+0x6cc>
		{
			if(BufferMemCh2 > TargetLevelCh2) BufferMemCh2 --;
 8000d64:	4b12      	ldr	r3, [pc, #72]	; (8000db0 <main+0x6c4>)
 8000d66:	781b      	ldrb	r3, [r3, #0]
 8000d68:	b29a      	uxth	r2, r3
 8000d6a:	4b12      	ldr	r3, [pc, #72]	; (8000db4 <main+0x6c8>)
 8000d6c:	881b      	ldrh	r3, [r3, #0]
 8000d6e:	429a      	cmp	r2, r3
 8000d70:	d942      	bls.n	8000df8 <main+0x70c>
 8000d72:	4b0f      	ldr	r3, [pc, #60]	; (8000db0 <main+0x6c4>)
 8000d74:	781b      	ldrb	r3, [r3, #0]
 8000d76:	3b01      	subs	r3, #1
 8000d78:	b2db      	uxtb	r3, r3
 8000d7a:	4a0d      	ldr	r2, [pc, #52]	; (8000db0 <main+0x6c4>)
 8000d7c:	7013      	strb	r3, [r2, #0]
 8000d7e:	e03b      	b.n	8000df8 <main+0x70c>
 8000d80:	20000013 	.word	0x20000013
 8000d84:	200000cf 	.word	0x200000cf
 8000d88:	20000015 	.word	0x20000015
 8000d8c:	20000011 	.word	0x20000011
 8000d90:	20000014 	.word	0x20000014
 8000d94:	200000e4 	.word	0x200000e4
 8000d98:	200001dc 	.word	0x200001dc
 8000d9c:	200000cc 	.word	0x200000cc
 8000da0:	200000e0 	.word	0x200000e0
 8000da4:	00000bb8 	.word	0x00000bb8
 8000da8:	200000f4 	.word	0x200000f4
 8000dac:	200000d2 	.word	0x200000d2
 8000db0:	200000f5 	.word	0x200000f5
 8000db4:	200000d4 	.word	0x200000d4
		}
		else if(BufferMemCh1 == BufferMemCh2)
 8000db8:	4b6c      	ldr	r3, [pc, #432]	; (8000f6c <main+0x880>)
 8000dba:	781a      	ldrb	r2, [r3, #0]
 8000dbc:	4b6c      	ldr	r3, [pc, #432]	; (8000f70 <main+0x884>)
 8000dbe:	781b      	ldrb	r3, [r3, #0]
 8000dc0:	429a      	cmp	r2, r3
 8000dc2:	d119      	bne.n	8000df8 <main+0x70c>
		{
			if(BufferMemCh1 > TargetLevelCh1) BufferMemCh1 --;
 8000dc4:	4b69      	ldr	r3, [pc, #420]	; (8000f6c <main+0x880>)
 8000dc6:	781b      	ldrb	r3, [r3, #0]
 8000dc8:	b29a      	uxth	r2, r3
 8000dca:	4b6a      	ldr	r3, [pc, #424]	; (8000f74 <main+0x888>)
 8000dcc:	881b      	ldrh	r3, [r3, #0]
 8000dce:	429a      	cmp	r2, r3
 8000dd0:	d905      	bls.n	8000dde <main+0x6f2>
 8000dd2:	4b66      	ldr	r3, [pc, #408]	; (8000f6c <main+0x880>)
 8000dd4:	781b      	ldrb	r3, [r3, #0]
 8000dd6:	3b01      	subs	r3, #1
 8000dd8:	b2db      	uxtb	r3, r3
 8000dda:	4a64      	ldr	r2, [pc, #400]	; (8000f6c <main+0x880>)
 8000ddc:	7013      	strb	r3, [r2, #0]
			if(BufferMemCh2 > TargetLevelCh2) BufferMemCh2 --;
 8000dde:	4b64      	ldr	r3, [pc, #400]	; (8000f70 <main+0x884>)
 8000de0:	781b      	ldrb	r3, [r3, #0]
 8000de2:	b29a      	uxth	r2, r3
 8000de4:	4b64      	ldr	r3, [pc, #400]	; (8000f78 <main+0x88c>)
 8000de6:	881b      	ldrh	r3, [r3, #0]
 8000de8:	429a      	cmp	r2, r3
 8000dea:	d905      	bls.n	8000df8 <main+0x70c>
 8000dec:	4b60      	ldr	r3, [pc, #384]	; (8000f70 <main+0x884>)
 8000dee:	781b      	ldrb	r3, [r3, #0]
 8000df0:	3b01      	subs	r3, #1
 8000df2:	b2db      	uxtb	r3, r3
 8000df4:	4a5e      	ldr	r2, [pc, #376]	; (8000f70 <main+0x884>)
 8000df6:	7013      	strb	r3, [r2, #0]
		}
		if((BufferMemCh1 == TargetLevelCh1)&&(BufferMemCh2 == TargetLevelCh2)) Edge = None;
 8000df8:	4b5c      	ldr	r3, [pc, #368]	; (8000f6c <main+0x880>)
 8000dfa:	781b      	ldrb	r3, [r3, #0]
 8000dfc:	b29a      	uxth	r2, r3
 8000dfe:	4b5d      	ldr	r3, [pc, #372]	; (8000f74 <main+0x888>)
 8000e00:	881b      	ldrh	r3, [r3, #0]
 8000e02:	429a      	cmp	r2, r3
 8000e04:	d109      	bne.n	8000e1a <main+0x72e>
 8000e06:	4b5a      	ldr	r3, [pc, #360]	; (8000f70 <main+0x884>)
 8000e08:	781b      	ldrb	r3, [r3, #0]
 8000e0a:	b29a      	uxth	r2, r3
 8000e0c:	4b5a      	ldr	r3, [pc, #360]	; (8000f78 <main+0x88c>)
 8000e0e:	881b      	ldrh	r3, [r3, #0]
 8000e10:	429a      	cmp	r2, r3
 8000e12:	d102      	bne.n	8000e1a <main+0x72e>
 8000e14:	4a59      	ldr	r2, [pc, #356]	; (8000f7c <main+0x890>)
 8000e16:	2300      	movs	r3, #0
 8000e18:	7013      	strb	r3, [r2, #0]

		TxBuffer[0] = 0;
 8000e1a:	4a59      	ldr	r2, [pc, #356]	; (8000f80 <main+0x894>)
 8000e1c:	2300      	movs	r3, #0
 8000e1e:	7013      	strb	r3, [r2, #0]
		TxBuffer[1] = BufferMemCh1;
 8000e20:	4b52      	ldr	r3, [pc, #328]	; (8000f6c <main+0x880>)
 8000e22:	781b      	ldrb	r3, [r3, #0]
 8000e24:	4a56      	ldr	r2, [pc, #344]	; (8000f80 <main+0x894>)
 8000e26:	7053      	strb	r3, [r2, #1]
		TxBuffer[2] = BufferMemCh2;
 8000e28:	4b51      	ldr	r3, [pc, #324]	; (8000f70 <main+0x884>)
 8000e2a:	781b      	ldrb	r3, [r3, #0]
 8000e2c:	4a54      	ldr	r2, [pc, #336]	; (8000f80 <main+0x894>)
 8000e2e:	7093      	strb	r3, [r2, #2]
		HAL_UART_Transmit(&huart1, TxBuffer, 3, 10);
 8000e30:	4953      	ldr	r1, [pc, #332]	; (8000f80 <main+0x894>)
 8000e32:	4854      	ldr	r0, [pc, #336]	; (8000f84 <main+0x898>)
 8000e34:	230a      	movs	r3, #10
 8000e36:	2203      	movs	r2, #3
 8000e38:	f005 fbac 	bl	8006594 <HAL_UART_Transmit>
	}

	if((is_to_ceck == 1) && (Edge == None) && (mSec > 1000))
 8000e3c:	4b52      	ldr	r3, [pc, #328]	; (8000f88 <main+0x89c>)
 8000e3e:	781b      	ldrb	r3, [r3, #0]
 8000e40:	2b01      	cmp	r3, #1
 8000e42:	d154      	bne.n	8000eee <main+0x802>
 8000e44:	4b4d      	ldr	r3, [pc, #308]	; (8000f7c <main+0x890>)
 8000e46:	781b      	ldrb	r3, [r3, #0]
 8000e48:	2b00      	cmp	r3, #0
 8000e4a:	d150      	bne.n	8000eee <main+0x802>
 8000e4c:	4b4f      	ldr	r3, [pc, #316]	; (8000f8c <main+0x8a0>)
 8000e4e:	881a      	ldrh	r2, [r3, #0]
 8000e50:	23fa      	movs	r3, #250	; 0xfa
 8000e52:	009b      	lsls	r3, r3, #2
 8000e54:	429a      	cmp	r2, r3
 8000e56:	d94a      	bls.n	8000eee <main+0x802>
	{
		HAL_Delay(1);
 8000e58:	2001      	movs	r0, #1
 8000e5a:	f001 fac3 	bl	80023e4 <HAL_Delay>
		TxBuffer[0] = 1;
 8000e5e:	4a48      	ldr	r2, [pc, #288]	; (8000f80 <main+0x894>)
 8000e60:	2301      	movs	r3, #1
 8000e62:	7013      	strb	r3, [r2, #0]
		TxBuffer[1] = 254;
 8000e64:	4a46      	ldr	r2, [pc, #280]	; (8000f80 <main+0x894>)
 8000e66:	23fe      	movs	r3, #254	; 0xfe
 8000e68:	7053      	strb	r3, [r2, #1]
		TxBuffer[2] = 254;
 8000e6a:	4a45      	ldr	r2, [pc, #276]	; (8000f80 <main+0x894>)
 8000e6c:	23fe      	movs	r3, #254	; 0xfe
 8000e6e:	7093      	strb	r3, [r2, #2]
		HAL_UART_Transmit(&huart1, TxBuffer, 3, 500);
 8000e70:	23fa      	movs	r3, #250	; 0xfa
 8000e72:	005b      	lsls	r3, r3, #1
 8000e74:	4942      	ldr	r1, [pc, #264]	; (8000f80 <main+0x894>)
 8000e76:	4843      	ldr	r0, [pc, #268]	; (8000f84 <main+0x898>)
 8000e78:	2203      	movs	r2, #3
 8000e7a:	f005 fb8b 	bl	8006594 <HAL_UART_Transmit>
		HAL_Delay(1);														//Importante al fine di recepire bene il pacchetto
 8000e7e:	2001      	movs	r0, #1
 8000e80:	f001 fab0 	bl	80023e4 <HAL_Delay>
		HAL_UART_Abort(&huart1);											//Importante al fine di recepire bene il pacchetto
 8000e84:	4b3f      	ldr	r3, [pc, #252]	; (8000f84 <main+0x898>)
 8000e86:	0018      	movs	r0, r3
 8000e88:	f005 fd22 	bl	80068d0 <HAL_UART_Abort>
		if(HAL_UART_Receive(&huart1, RxBuffer, 3, 5) == HAL_OK)
 8000e8c:	4940      	ldr	r1, [pc, #256]	; (8000f90 <main+0x8a4>)
 8000e8e:	483d      	ldr	r0, [pc, #244]	; (8000f84 <main+0x898>)
 8000e90:	2305      	movs	r3, #5
 8000e92:	2203      	movs	r2, #3
 8000e94:	f005 fc2a 	bl	80066ec <HAL_UART_Receive>
 8000e98:	1e03      	subs	r3, r0, #0
 8000e9a:	d116      	bne.n	8000eca <main+0x7de>
		{
			if((RxBuffer[0] == 1)&&(RxBuffer[1] == 255)&&(RxBuffer[2] == 255)) slave_does_not_respond = 0;
 8000e9c:	4b3c      	ldr	r3, [pc, #240]	; (8000f90 <main+0x8a4>)
 8000e9e:	781b      	ldrb	r3, [r3, #0]
 8000ea0:	2b01      	cmp	r3, #1
 8000ea2:	d10b      	bne.n	8000ebc <main+0x7d0>
 8000ea4:	4b3a      	ldr	r3, [pc, #232]	; (8000f90 <main+0x8a4>)
 8000ea6:	785b      	ldrb	r3, [r3, #1]
 8000ea8:	2bff      	cmp	r3, #255	; 0xff
 8000eaa:	d107      	bne.n	8000ebc <main+0x7d0>
 8000eac:	4b38      	ldr	r3, [pc, #224]	; (8000f90 <main+0x8a4>)
 8000eae:	789b      	ldrb	r3, [r3, #2]
 8000eb0:	2bff      	cmp	r3, #255	; 0xff
 8000eb2:	d103      	bne.n	8000ebc <main+0x7d0>
 8000eb4:	4a37      	ldr	r2, [pc, #220]	; (8000f94 <main+0x8a8>)
 8000eb6:	2300      	movs	r3, #0
 8000eb8:	7013      	strb	r3, [r2, #0]
 8000eba:	e00c      	b.n	8000ed6 <main+0x7ea>
			else slave_does_not_respond ++;
 8000ebc:	4b35      	ldr	r3, [pc, #212]	; (8000f94 <main+0x8a8>)
 8000ebe:	781b      	ldrb	r3, [r3, #0]
 8000ec0:	3301      	adds	r3, #1
 8000ec2:	b2db      	uxtb	r3, r3
 8000ec4:	4a33      	ldr	r2, [pc, #204]	; (8000f94 <main+0x8a8>)
 8000ec6:	7013      	strb	r3, [r2, #0]
 8000ec8:	e005      	b.n	8000ed6 <main+0x7ea>
		}
		else slave_does_not_respond ++;
 8000eca:	4b32      	ldr	r3, [pc, #200]	; (8000f94 <main+0x8a8>)
 8000ecc:	781b      	ldrb	r3, [r3, #0]
 8000ece:	3301      	adds	r3, #1
 8000ed0:	b2db      	uxtb	r3, r3
 8000ed2:	4a30      	ldr	r2, [pc, #192]	; (8000f94 <main+0x8a8>)
 8000ed4:	7013      	strb	r3, [r2, #0]
		RxBuffer[0] = 0;
 8000ed6:	4a2e      	ldr	r2, [pc, #184]	; (8000f90 <main+0x8a4>)
 8000ed8:	2300      	movs	r3, #0
 8000eda:	7013      	strb	r3, [r2, #0]
		RxBuffer[1] = 0;
 8000edc:	4a2c      	ldr	r2, [pc, #176]	; (8000f90 <main+0x8a4>)
 8000ede:	2300      	movs	r3, #0
 8000ee0:	7053      	strb	r3, [r2, #1]
		RxBuffer[2] = 0;
 8000ee2:	4a2b      	ldr	r2, [pc, #172]	; (8000f90 <main+0x8a4>)
 8000ee4:	2300      	movs	r3, #0
 8000ee6:	7093      	strb	r3, [r2, #2]
		is_to_ceck = 0;
 8000ee8:	4a27      	ldr	r2, [pc, #156]	; (8000f88 <main+0x89c>)
 8000eea:	2300      	movs	r3, #0
 8000eec:	7013      	strb	r3, [r2, #0]
	}

#ifdef SLAVE_RESPONSE
	if(slave_does_not_respond == 0)
 8000eee:	4b29      	ldr	r3, [pc, #164]	; (8000f94 <main+0x8a8>)
 8000ef0:	781b      	ldrb	r3, [r3, #0]
 8000ef2:	2b00      	cmp	r3, #0
 8000ef4:	d000      	beq.n	8000ef8 <main+0x80c>
 8000ef6:	e4ca      	b.n	800088e <main+0x1a2>
	{
#endif
//			if(TxBuffer[1] > 0) htim2.Instance->CCR2 = TxBuffer[1] + 20;
//			else htim2.Instance->CCR2 = 0;
		if(Power == On)
 8000ef8:	4b27      	ldr	r3, [pc, #156]	; (8000f98 <main+0x8ac>)
 8000efa:	781b      	ldrb	r3, [r3, #0]
 8000efc:	2b01      	cmp	r3, #1
 8000efe:	d124      	bne.n	8000f4a <main+0x85e>
		{
			switch (Channel)
 8000f00:	4b26      	ldr	r3, [pc, #152]	; (8000f9c <main+0x8b0>)
 8000f02:	781b      	ldrb	r3, [r3, #0]
 8000f04:	2b03      	cmp	r3, #3
 8000f06:	d017      	beq.n	8000f38 <main+0x84c>
 8000f08:	dc2d      	bgt.n	8000f66 <main+0x87a>
 8000f0a:	2b01      	cmp	r3, #1
 8000f0c:	d002      	beq.n	8000f14 <main+0x828>
 8000f0e:	2b02      	cmp	r3, #2
 8000f10:	d009      	beq.n	8000f26 <main+0x83a>
					htim17.Instance->CCR1 = 100;
					htim2.Instance->CCR3 = 100;
					//HAL_GPIO_WritePin(DEBUG_GPIO_Port, DEBUG_Pin, GPIO_PIN_SET);
					break;
				default:
					break;
 8000f12:	e028      	b.n	8000f66 <main+0x87a>
					htim17.Instance->CCR1 = 100;
 8000f14:	4b22      	ldr	r3, [pc, #136]	; (8000fa0 <main+0x8b4>)
 8000f16:	681a      	ldr	r2, [r3, #0]
 8000f18:	2364      	movs	r3, #100	; 0x64
 8000f1a:	6353      	str	r3, [r2, #52]	; 0x34
					htim2.Instance->CCR3 = 0;
 8000f1c:	4b21      	ldr	r3, [pc, #132]	; (8000fa4 <main+0x8b8>)
 8000f1e:	681a      	ldr	r2, [r3, #0]
 8000f20:	2300      	movs	r3, #0
 8000f22:	63d3      	str	r3, [r2, #60]	; 0x3c
					break;
 8000f24:	e020      	b.n	8000f68 <main+0x87c>
					htim17.Instance->CCR1 = 0;
 8000f26:	4b1e      	ldr	r3, [pc, #120]	; (8000fa0 <main+0x8b4>)
 8000f28:	681a      	ldr	r2, [r3, #0]
 8000f2a:	2300      	movs	r3, #0
 8000f2c:	6353      	str	r3, [r2, #52]	; 0x34
					htim2.Instance->CCR3 = 100;
 8000f2e:	4b1d      	ldr	r3, [pc, #116]	; (8000fa4 <main+0x8b8>)
 8000f30:	681a      	ldr	r2, [r3, #0]
 8000f32:	2364      	movs	r3, #100	; 0x64
 8000f34:	63d3      	str	r3, [r2, #60]	; 0x3c
					break;
 8000f36:	e017      	b.n	8000f68 <main+0x87c>
					htim17.Instance->CCR1 = 100;
 8000f38:	4b19      	ldr	r3, [pc, #100]	; (8000fa0 <main+0x8b4>)
 8000f3a:	681a      	ldr	r2, [r3, #0]
 8000f3c:	2364      	movs	r3, #100	; 0x64
 8000f3e:	6353      	str	r3, [r2, #52]	; 0x34
					htim2.Instance->CCR3 = 100;
 8000f40:	4b18      	ldr	r3, [pc, #96]	; (8000fa4 <main+0x8b8>)
 8000f42:	681a      	ldr	r2, [r3, #0]
 8000f44:	2364      	movs	r3, #100	; 0x64
 8000f46:	63d3      	str	r3, [r2, #60]	; 0x3c
					break;
 8000f48:	e00e      	b.n	8000f68 <main+0x87c>
			}
		}
		else if(Edge == None)
 8000f4a:	4b0c      	ldr	r3, [pc, #48]	; (8000f7c <main+0x890>)
 8000f4c:	781b      	ldrb	r3, [r3, #0]
 8000f4e:	2b00      	cmp	r3, #0
 8000f50:	d000      	beq.n	8000f54 <main+0x868>
 8000f52:	e49c      	b.n	800088e <main+0x1a2>
		{
			htim17.Instance->CCR1 = 0;
 8000f54:	4b12      	ldr	r3, [pc, #72]	; (8000fa0 <main+0x8b4>)
 8000f56:	681a      	ldr	r2, [r3, #0]
 8000f58:	2300      	movs	r3, #0
 8000f5a:	6353      	str	r3, [r2, #52]	; 0x34
			htim2.Instance->CCR3 = 0;
 8000f5c:	4b11      	ldr	r3, [pc, #68]	; (8000fa4 <main+0x8b8>)
 8000f5e:	681a      	ldr	r2, [r3, #0]
 8000f60:	2300      	movs	r3, #0
 8000f62:	63d3      	str	r3, [r2, #60]	; 0x3c
 8000f64:	e493      	b.n	800088e <main+0x1a2>
					break;
 8000f66:	46c0      	nop			; (mov r8, r8)
	if((TimeOut)&&(mSecDoubleTouch == MAXIMUM_DOUBLE_TOUCH_TIME)&&(channel_is_changed == 0))
 8000f68:	e491      	b.n	800088e <main+0x1a2>
 8000f6a:	46c0      	nop			; (mov r8, r8)
 8000f6c:	200000f4 	.word	0x200000f4
 8000f70:	200000f5 	.word	0x200000f5
 8000f74:	200000d2 	.word	0x200000d2
 8000f78:	200000d4 	.word	0x200000d4
 8000f7c:	200000cc 	.word	0x200000cc
 8000f80:	200000e4 	.word	0x200000e4
 8000f84:	200001dc 	.word	0x200001dc
 8000f88:	200000ec 	.word	0x200000ec
 8000f8c:	200000d6 	.word	0x200000d6
 8000f90:	200000e8 	.word	0x200000e8
 8000f94:	200000eb 	.word	0x200000eb
 8000f98:	200000cd 	.word	0x200000cd
 8000f9c:	20000015 	.word	0x20000015
 8000fa0:	20000160 	.word	0x20000160
 8000fa4:	2000026c 	.word	0x2000026c

08000fa8 <SystemClock_Config>:
/**
  * @brief System Clock Configuration
  * @retval None
  */
void SystemClock_Config(void)
{
 8000fa8:	b590      	push	{r4, r7, lr}
 8000faa:	b0a1      	sub	sp, #132	; 0x84
 8000fac:	af00      	add	r7, sp, #0
  RCC_OscInitTypeDef RCC_OscInitStruct = {0};
 8000fae:	2448      	movs	r4, #72	; 0x48
 8000fb0:	193b      	adds	r3, r7, r4
 8000fb2:	0018      	movs	r0, r3
 8000fb4:	2338      	movs	r3, #56	; 0x38
 8000fb6:	001a      	movs	r2, r3
 8000fb8:	2100      	movs	r1, #0
 8000fba:	f006 fdb7 	bl	8007b2c <memset>
  RCC_ClkInitTypeDef RCC_ClkInitStruct = {0};
 8000fbe:	2338      	movs	r3, #56	; 0x38
 8000fc0:	18fb      	adds	r3, r7, r3
 8000fc2:	0018      	movs	r0, r3
 8000fc4:	2310      	movs	r3, #16
 8000fc6:	001a      	movs	r2, r3
 8000fc8:	2100      	movs	r1, #0
 8000fca:	f006 fdaf 	bl	8007b2c <memset>
  RCC_PeriphCLKInitTypeDef PeriphClkInit = {0};
 8000fce:	1d3b      	adds	r3, r7, #4
 8000fd0:	0018      	movs	r0, r3
 8000fd2:	2334      	movs	r3, #52	; 0x34
 8000fd4:	001a      	movs	r2, r3
 8000fd6:	2100      	movs	r1, #0
 8000fd8:	f006 fda8 	bl	8007b2c <memset>

  /** Configure the main internal regulator output voltage
  */
  HAL_PWREx_ControlVoltageScaling(PWR_REGULATOR_VOLTAGE_SCALE1);
 8000fdc:	2380      	movs	r3, #128	; 0x80
 8000fde:	009b      	lsls	r3, r3, #2
 8000fe0:	0018      	movs	r0, r3
 8000fe2:	f003 fca7 	bl	8004934 <HAL_PWREx_ControlVoltageScaling>
  /** Initializes the RCC Oscillators according to the specified parameters
  * in the RCC_OscInitTypeDef structure.
  */
  RCC_OscInitStruct.OscillatorType = RCC_OSCILLATORTYPE_HSI;
 8000fe6:	193b      	adds	r3, r7, r4
 8000fe8:	2202      	movs	r2, #2
 8000fea:	601a      	str	r2, [r3, #0]
  RCC_OscInitStruct.HSIState = RCC_HSI_ON;
 8000fec:	193b      	adds	r3, r7, r4
 8000fee:	2280      	movs	r2, #128	; 0x80
 8000ff0:	0052      	lsls	r2, r2, #1
 8000ff2:	60da      	str	r2, [r3, #12]
  RCC_OscInitStruct.HSIDiv = RCC_HSI_DIV1;
 8000ff4:	193b      	adds	r3, r7, r4
 8000ff6:	2200      	movs	r2, #0
 8000ff8:	611a      	str	r2, [r3, #16]
  RCC_OscInitStruct.HSICalibrationValue = RCC_HSICALIBRATION_DEFAULT;
 8000ffa:	193b      	adds	r3, r7, r4
 8000ffc:	2240      	movs	r2, #64	; 0x40
 8000ffe:	615a      	str	r2, [r3, #20]
  RCC_OscInitStruct.PLL.PLLState = RCC_PLL_NONE;
 8001000:	193b      	adds	r3, r7, r4
 8001002:	2200      	movs	r2, #0
 8001004:	61da      	str	r2, [r3, #28]
  if (HAL_RCC_OscConfig(&RCC_OscInitStruct) != HAL_OK)
 8001006:	193b      	adds	r3, r7, r4
 8001008:	0018      	movs	r0, r3
 800100a:	f003 fcdf 	bl	80049cc <HAL_RCC_OscConfig>
 800100e:	1e03      	subs	r3, r0, #0
 8001010:	d001      	beq.n	8001016 <SystemClock_Config+0x6e>
  {
    Error_Handler();
 8001012:	f000 fe15 	bl	8001c40 <Error_Handler>
  }
  /** Initializes the CPU, AHB and APB buses clocks
  */
  RCC_ClkInitStruct.ClockType = RCC_CLOCKTYPE_HCLK|RCC_CLOCKTYPE_SYSCLK
 8001016:	2138      	movs	r1, #56	; 0x38
 8001018:	187b      	adds	r3, r7, r1
 800101a:	2207      	movs	r2, #7
 800101c:	601a      	str	r2, [r3, #0]
                              |RCC_CLOCKTYPE_PCLK1;
  RCC_ClkInitStruct.SYSCLKSource = RCC_SYSCLKSOURCE_HSI;
 800101e:	187b      	adds	r3, r7, r1
 8001020:	2200      	movs	r2, #0
 8001022:	605a      	str	r2, [r3, #4]
  RCC_ClkInitStruct.AHBCLKDivider = RCC_SYSCLK_DIV1;
 8001024:	187b      	adds	r3, r7, r1
 8001026:	2200      	movs	r2, #0
 8001028:	609a      	str	r2, [r3, #8]
  RCC_ClkInitStruct.APB1CLKDivider = RCC_HCLK_DIV1;
 800102a:	187b      	adds	r3, r7, r1
 800102c:	2200      	movs	r2, #0
 800102e:	60da      	str	r2, [r3, #12]

  if (HAL_RCC_ClockConfig(&RCC_ClkInitStruct, FLASH_LATENCY_0) != HAL_OK)
 8001030:	187b      	adds	r3, r7, r1
 8001032:	2100      	movs	r1, #0
 8001034:	0018      	movs	r0, r3
 8001036:	f003 ffe9 	bl	800500c <HAL_RCC_ClockConfig>
 800103a:	1e03      	subs	r3, r0, #0
 800103c:	d001      	beq.n	8001042 <SystemClock_Config+0x9a>
  {
    Error_Handler();
 800103e:	f000 fdff 	bl	8001c40 <Error_Handler>
  }
  /** Initializes the peripherals clocks
  */
  PeriphClkInit.PeriphClockSelection = RCC_PERIPHCLK_USART1;
 8001042:	1d3b      	adds	r3, r7, #4
 8001044:	2201      	movs	r2, #1
 8001046:	601a      	str	r2, [r3, #0]
  PeriphClkInit.Usart1ClockSelection = RCC_USART1CLKSOURCE_PCLK1;
 8001048:	1d3b      	adds	r3, r7, #4
 800104a:	2200      	movs	r2, #0
 800104c:	605a      	str	r2, [r3, #4]
  if (HAL_RCCEx_PeriphCLKConfig(&PeriphClkInit) != HAL_OK)
 800104e:	1d3b      	adds	r3, r7, #4
 8001050:	0018      	movs	r0, r3
 8001052:	f004 f985 	bl	8005360 <HAL_RCCEx_PeriphCLKConfig>
 8001056:	1e03      	subs	r3, r0, #0
 8001058:	d001      	beq.n	800105e <SystemClock_Config+0xb6>
  {
    Error_Handler();
 800105a:	f000 fdf1 	bl	8001c40 <Error_Handler>
  }
}
 800105e:	46c0      	nop			; (mov r8, r8)
 8001060:	46bd      	mov	sp, r7
 8001062:	b021      	add	sp, #132	; 0x84
 8001064:	bd90      	pop	{r4, r7, pc}
	...

08001068 <MX_COMP1_Init>:
  * @brief COMP1 Initialization Function
  * @param None
  * @retval None
  */
static void MX_COMP1_Init(void)
{
 8001068:	b580      	push	{r7, lr}
 800106a:	af00      	add	r7, sp, #0
  /* USER CODE END COMP1_Init 0 */

  /* USER CODE BEGIN COMP1_Init 1 */

  /* USER CODE END COMP1_Init 1 */
  hcomp1.Instance = COMP1;
 800106c:	4b15      	ldr	r3, [pc, #84]	; (80010c4 <MX_COMP1_Init+0x5c>)
 800106e:	4a16      	ldr	r2, [pc, #88]	; (80010c8 <MX_COMP1_Init+0x60>)
 8001070:	601a      	str	r2, [r3, #0]
  hcomp1.Init.InputPlus = COMP_INPUT_PLUS_IO3;
 8001072:	4b14      	ldr	r3, [pc, #80]	; (80010c4 <MX_COMP1_Init+0x5c>)
 8001074:	2280      	movs	r2, #128	; 0x80
 8001076:	0092      	lsls	r2, r2, #2
 8001078:	611a      	str	r2, [r3, #16]
  hcomp1.Init.InputMinus = COMP_INPUT_MINUS_1_4VREFINT;
 800107a:	4b12      	ldr	r3, [pc, #72]	; (80010c4 <MX_COMP1_Init+0x5c>)
 800107c:	2200      	movs	r2, #0
 800107e:	615a      	str	r2, [r3, #20]
  hcomp1.Init.OutputPol = COMP_OUTPUTPOL_INVERTED;
 8001080:	4b10      	ldr	r3, [pc, #64]	; (80010c4 <MX_COMP1_Init+0x5c>)
 8001082:	2280      	movs	r2, #128	; 0x80
 8001084:	0212      	lsls	r2, r2, #8
 8001086:	61da      	str	r2, [r3, #28]
  hcomp1.Init.WindowOutput = COMP_WINDOWOUTPUT_EACH_COMP;
 8001088:	4b0e      	ldr	r3, [pc, #56]	; (80010c4 <MX_COMP1_Init+0x5c>)
 800108a:	2200      	movs	r2, #0
 800108c:	609a      	str	r2, [r3, #8]
  hcomp1.Init.Hysteresis = COMP_HYSTERESIS_NONE;
 800108e:	4b0d      	ldr	r3, [pc, #52]	; (80010c4 <MX_COMP1_Init+0x5c>)
 8001090:	2200      	movs	r2, #0
 8001092:	619a      	str	r2, [r3, #24]
  hcomp1.Init.BlankingSrce = COMP_BLANKINGSRC_NONE;
 8001094:	4b0b      	ldr	r3, [pc, #44]	; (80010c4 <MX_COMP1_Init+0x5c>)
 8001096:	2200      	movs	r2, #0
 8001098:	621a      	str	r2, [r3, #32]
  hcomp1.Init.Mode = COMP_POWERMODE_HIGHSPEED;
 800109a:	4b0a      	ldr	r3, [pc, #40]	; (80010c4 <MX_COMP1_Init+0x5c>)
 800109c:	2200      	movs	r2, #0
 800109e:	60da      	str	r2, [r3, #12]
  hcomp1.Init.WindowMode = COMP_WINDOWMODE_DISABLE;
 80010a0:	4b08      	ldr	r3, [pc, #32]	; (80010c4 <MX_COMP1_Init+0x5c>)
 80010a2:	2200      	movs	r2, #0
 80010a4:	605a      	str	r2, [r3, #4]
  hcomp1.Init.TriggerMode = COMP_TRIGGERMODE_NONE;
 80010a6:	4b07      	ldr	r3, [pc, #28]	; (80010c4 <MX_COMP1_Init+0x5c>)
 80010a8:	2200      	movs	r2, #0
 80010aa:	625a      	str	r2, [r3, #36]	; 0x24
  if (HAL_COMP_Init(&hcomp1) != HAL_OK)
 80010ac:	4b05      	ldr	r3, [pc, #20]	; (80010c4 <MX_COMP1_Init+0x5c>)
 80010ae:	0018      	movs	r0, r3
 80010b0:	f001 fa7e 	bl	80025b0 <HAL_COMP_Init>
 80010b4:	1e03      	subs	r3, r0, #0
 80010b6:	d001      	beq.n	80010bc <MX_COMP1_Init+0x54>
  {
    Error_Handler();
 80010b8:	f000 fdc2 	bl	8001c40 <Error_Handler>
  }
  /* USER CODE BEGIN COMP1_Init 2 */

  /* USER CODE END COMP1_Init 2 */

}
 80010bc:	46c0      	nop			; (mov r8, r8)
 80010be:	46bd      	mov	sp, r7
 80010c0:	bd80      	pop	{r7, pc}
 80010c2:	46c0      	nop			; (mov r8, r8)
 80010c4:	200001ac 	.word	0x200001ac
 80010c8:	40010200 	.word	0x40010200

080010cc <MX_I2C2_Init>:
  * @brief I2C2 Initialization Function
  * @param None
  * @retval None
  */
static void MX_I2C2_Init(void)
{
 80010cc:	b580      	push	{r7, lr}
 80010ce:	af00      	add	r7, sp, #0
  /* USER CODE END I2C2_Init 0 */

  /* USER CODE BEGIN I2C2_Init 1 */

  /* USER CODE END I2C2_Init 1 */
  hi2c2.Instance = I2C2;
 80010d0:	4b1e      	ldr	r3, [pc, #120]	; (800114c <MX_I2C2_Init+0x80>)
 80010d2:	4a1f      	ldr	r2, [pc, #124]	; (8001150 <MX_I2C2_Init+0x84>)
 80010d4:	601a      	str	r2, [r3, #0]
  hi2c2.Init.Timing = 0x00000107;
 80010d6:	4b1d      	ldr	r3, [pc, #116]	; (800114c <MX_I2C2_Init+0x80>)
 80010d8:	2208      	movs	r2, #8
 80010da:	32ff      	adds	r2, #255	; 0xff
 80010dc:	605a      	str	r2, [r3, #4]
  hi2c2.Init.OwnAddress1 = 0;
 80010de:	4b1b      	ldr	r3, [pc, #108]	; (800114c <MX_I2C2_Init+0x80>)
 80010e0:	2200      	movs	r2, #0
 80010e2:	609a      	str	r2, [r3, #8]
  hi2c2.Init.AddressingMode = I2C_ADDRESSINGMODE_7BIT;
 80010e4:	4b19      	ldr	r3, [pc, #100]	; (800114c <MX_I2C2_Init+0x80>)
 80010e6:	2201      	movs	r2, #1
 80010e8:	60da      	str	r2, [r3, #12]
  hi2c2.Init.DualAddressMode = I2C_DUALADDRESS_DISABLE;
 80010ea:	4b18      	ldr	r3, [pc, #96]	; (800114c <MX_I2C2_Init+0x80>)
 80010ec:	2200      	movs	r2, #0
 80010ee:	611a      	str	r2, [r3, #16]
  hi2c2.Init.OwnAddress2 = 0;
 80010f0:	4b16      	ldr	r3, [pc, #88]	; (800114c <MX_I2C2_Init+0x80>)
 80010f2:	2200      	movs	r2, #0
 80010f4:	615a      	str	r2, [r3, #20]
  hi2c2.Init.OwnAddress2Masks = I2C_OA2_NOMASK;
 80010f6:	4b15      	ldr	r3, [pc, #84]	; (800114c <MX_I2C2_Init+0x80>)
 80010f8:	2200      	movs	r2, #0
 80010fa:	619a      	str	r2, [r3, #24]
  hi2c2.Init.GeneralCallMode = I2C_GENERALCALL_DISABLE;
 80010fc:	4b13      	ldr	r3, [pc, #76]	; (800114c <MX_I2C2_Init+0x80>)
 80010fe:	2200      	movs	r2, #0
 8001100:	61da      	str	r2, [r3, #28]
  hi2c2.Init.NoStretchMode = I2C_NOSTRETCH_DISABLE;
 8001102:	4b12      	ldr	r3, [pc, #72]	; (800114c <MX_I2C2_Init+0x80>)
 8001104:	2200      	movs	r2, #0
 8001106:	621a      	str	r2, [r3, #32]
  if (HAL_I2C_Init(&hi2c2) != HAL_OK)
 8001108:	4b10      	ldr	r3, [pc, #64]	; (800114c <MX_I2C2_Init+0x80>)
 800110a:	0018      	movs	r0, r3
 800110c:	f002 f8f4 	bl	80032f8 <HAL_I2C_Init>
 8001110:	1e03      	subs	r3, r0, #0
 8001112:	d001      	beq.n	8001118 <MX_I2C2_Init+0x4c>
  {
    Error_Handler();
 8001114:	f000 fd94 	bl	8001c40 <Error_Handler>
  }
  /** Configure Analogue filter
  */
  if (HAL_I2CEx_ConfigAnalogFilter(&hi2c2, I2C_ANALOGFILTER_ENABLE) != HAL_OK)
 8001118:	4b0c      	ldr	r3, [pc, #48]	; (800114c <MX_I2C2_Init+0x80>)
 800111a:	2100      	movs	r1, #0
 800111c:	0018      	movs	r0, r3
 800111e:	f003 fb53 	bl	80047c8 <HAL_I2CEx_ConfigAnalogFilter>
 8001122:	1e03      	subs	r3, r0, #0
 8001124:	d001      	beq.n	800112a <MX_I2C2_Init+0x5e>
  {
    Error_Handler();
 8001126:	f000 fd8b 	bl	8001c40 <Error_Handler>
  }
  /** Configure Digital filter
  */
  if (HAL_I2CEx_ConfigDigitalFilter(&hi2c2, 0) != HAL_OK)
 800112a:	4b08      	ldr	r3, [pc, #32]	; (800114c <MX_I2C2_Init+0x80>)
 800112c:	2100      	movs	r1, #0
 800112e:	0018      	movs	r0, r3
 8001130:	f003 fb96 	bl	8004860 <HAL_I2CEx_ConfigDigitalFilter>
 8001134:	1e03      	subs	r3, r0, #0
 8001136:	d001      	beq.n	800113c <MX_I2C2_Init+0x70>
  {
    Error_Handler();
 8001138:	f000 fd82 	bl	8001c40 <Error_Handler>
  }
  /** I2C Fast mode Plus enable
  */
  HAL_I2CEx_EnableFastModePlus(I2C_FASTMODEPLUS_I2C2);
 800113c:	2380      	movs	r3, #128	; 0x80
 800113e:	039b      	lsls	r3, r3, #14
 8001140:	0018      	movs	r0, r3
 8001142:	f003 fbd9 	bl	80048f8 <HAL_I2CEx_EnableFastModePlus>
  /* USER CODE BEGIN I2C2_Init 2 */

  /* USER CODE END I2C2_Init 2 */

}
 8001146:	46c0      	nop			; (mov r8, r8)
 8001148:	46bd      	mov	sp, r7
 800114a:	bd80      	pop	{r7, pc}
 800114c:	20000114 	.word	0x20000114
 8001150:	40005800 	.word	0x40005800

08001154 <MX_TIM2_Init>:
  * @brief TIM2 Initialization Function
  * @param None
  * @retval None
  */
static void MX_TIM2_Init(void)
{
 8001154:	b580      	push	{r7, lr}
 8001156:	b08a      	sub	sp, #40	; 0x28
 8001158:	af00      	add	r7, sp, #0

  /* USER CODE BEGIN TIM2_Init 0 */

  /* USER CODE END TIM2_Init 0 */

  TIM_MasterConfigTypeDef sMasterConfig = {0};
 800115a:	231c      	movs	r3, #28
 800115c:	18fb      	adds	r3, r7, r3
 800115e:	0018      	movs	r0, r3
 8001160:	230c      	movs	r3, #12
 8001162:	001a      	movs	r2, r3
 8001164:	2100      	movs	r1, #0
 8001166:	f006 fce1 	bl	8007b2c <memset>
  TIM_OC_InitTypeDef sConfigOC = {0};
 800116a:	003b      	movs	r3, r7
 800116c:	0018      	movs	r0, r3
 800116e:	231c      	movs	r3, #28
 8001170:	001a      	movs	r2, r3
 8001172:	2100      	movs	r1, #0
 8001174:	f006 fcda 	bl	8007b2c <memset>

  /* USER CODE BEGIN TIM2_Init 1 */

  /* USER CODE END TIM2_Init 1 */
  htim2.Instance = TIM2;
 8001178:	4b29      	ldr	r3, [pc, #164]	; (8001220 <MX_TIM2_Init+0xcc>)
 800117a:	2280      	movs	r2, #128	; 0x80
 800117c:	05d2      	lsls	r2, r2, #23
 800117e:	601a      	str	r2, [r3, #0]
  htim2.Init.Prescaler = 63;
 8001180:	4b27      	ldr	r3, [pc, #156]	; (8001220 <MX_TIM2_Init+0xcc>)
 8001182:	223f      	movs	r2, #63	; 0x3f
 8001184:	605a      	str	r2, [r3, #4]
  htim2.Init.CounterMode = TIM_COUNTERMODE_UP;
 8001186:	4b26      	ldr	r3, [pc, #152]	; (8001220 <MX_TIM2_Init+0xcc>)
 8001188:	2200      	movs	r2, #0
 800118a:	609a      	str	r2, [r3, #8]
  htim2.Init.Period = 252;
 800118c:	4b24      	ldr	r3, [pc, #144]	; (8001220 <MX_TIM2_Init+0xcc>)
 800118e:	22fc      	movs	r2, #252	; 0xfc
 8001190:	60da      	str	r2, [r3, #12]
  htim2.Init.ClockDivision = TIM_CLOCKDIVISION_DIV1;
 8001192:	4b23      	ldr	r3, [pc, #140]	; (8001220 <MX_TIM2_Init+0xcc>)
 8001194:	2200      	movs	r2, #0
 8001196:	611a      	str	r2, [r3, #16]
  htim2.Init.AutoReloadPreload = TIM_AUTORELOAD_PRELOAD_DISABLE;
 8001198:	4b21      	ldr	r3, [pc, #132]	; (8001220 <MX_TIM2_Init+0xcc>)
 800119a:	2200      	movs	r2, #0
 800119c:	619a      	str	r2, [r3, #24]
  if (HAL_TIM_PWM_Init(&htim2) != HAL_OK)
 800119e:	4b20      	ldr	r3, [pc, #128]	; (8001220 <MX_TIM2_Init+0xcc>)
 80011a0:	0018      	movs	r0, r3
 80011a2:	f004 faed 	bl	8005780 <HAL_TIM_PWM_Init>
 80011a6:	1e03      	subs	r3, r0, #0
 80011a8:	d001      	beq.n	80011ae <MX_TIM2_Init+0x5a>
  {
    Error_Handler();
 80011aa:	f000 fd49 	bl	8001c40 <Error_Handler>
  }
  sMasterConfig.MasterOutputTrigger = TIM_TRGO_RESET;
 80011ae:	211c      	movs	r1, #28
 80011b0:	187b      	adds	r3, r7, r1
 80011b2:	2200      	movs	r2, #0
 80011b4:	601a      	str	r2, [r3, #0]
  sMasterConfig.MasterSlaveMode = TIM_MASTERSLAVEMODE_DISABLE;
 80011b6:	187b      	adds	r3, r7, r1
 80011b8:	2200      	movs	r2, #0
 80011ba:	609a      	str	r2, [r3, #8]
  if (HAL_TIMEx_MasterConfigSynchronization(&htim2, &sMasterConfig) != HAL_OK)
 80011bc:	187a      	adds	r2, r7, r1
 80011be:	4b18      	ldr	r3, [pc, #96]	; (8001220 <MX_TIM2_Init+0xcc>)
 80011c0:	0011      	movs	r1, r2
 80011c2:	0018      	movs	r0, r3
 80011c4:	f005 f87c 	bl	80062c0 <HAL_TIMEx_MasterConfigSynchronization>
 80011c8:	1e03      	subs	r3, r0, #0
 80011ca:	d001      	beq.n	80011d0 <MX_TIM2_Init+0x7c>
  {
    Error_Handler();
 80011cc:	f000 fd38 	bl	8001c40 <Error_Handler>
  }
  sConfigOC.OCMode = TIM_OCMODE_PWM1;
 80011d0:	003b      	movs	r3, r7
 80011d2:	2260      	movs	r2, #96	; 0x60
 80011d4:	601a      	str	r2, [r3, #0]
  sConfigOC.Pulse = 0;
 80011d6:	003b      	movs	r3, r7
 80011d8:	2200      	movs	r2, #0
 80011da:	605a      	str	r2, [r3, #4]
  sConfigOC.OCPolarity = TIM_OCPOLARITY_HIGH;
 80011dc:	003b      	movs	r3, r7
 80011de:	2200      	movs	r2, #0
 80011e0:	609a      	str	r2, [r3, #8]
  sConfigOC.OCFastMode = TIM_OCFAST_DISABLE;
 80011e2:	003b      	movs	r3, r7
 80011e4:	2200      	movs	r2, #0
 80011e6:	611a      	str	r2, [r3, #16]
  if (HAL_TIM_PWM_ConfigChannel(&htim2, &sConfigOC, TIM_CHANNEL_1) != HAL_OK)
 80011e8:	0039      	movs	r1, r7
 80011ea:	4b0d      	ldr	r3, [pc, #52]	; (8001220 <MX_TIM2_Init+0xcc>)
 80011ec:	2200      	movs	r2, #0
 80011ee:	0018      	movs	r0, r3
 80011f0:	f004 fc08 	bl	8005a04 <HAL_TIM_PWM_ConfigChannel>
 80011f4:	1e03      	subs	r3, r0, #0
 80011f6:	d001      	beq.n	80011fc <MX_TIM2_Init+0xa8>
  {
    Error_Handler();
 80011f8:	f000 fd22 	bl	8001c40 <Error_Handler>
  }
  if (HAL_TIM_PWM_ConfigChannel(&htim2, &sConfigOC, TIM_CHANNEL_3) != HAL_OK)
 80011fc:	0039      	movs	r1, r7
 80011fe:	4b08      	ldr	r3, [pc, #32]	; (8001220 <MX_TIM2_Init+0xcc>)
 8001200:	2208      	movs	r2, #8
 8001202:	0018      	movs	r0, r3
 8001204:	f004 fbfe 	bl	8005a04 <HAL_TIM_PWM_ConfigChannel>
 8001208:	1e03      	subs	r3, r0, #0
 800120a:	d001      	beq.n	8001210 <MX_TIM2_Init+0xbc>
  {
    Error_Handler();
 800120c:	f000 fd18 	bl	8001c40 <Error_Handler>
  }
  /* USER CODE BEGIN TIM2_Init 2 */

  /* USER CODE END TIM2_Init 2 */
  HAL_TIM_MspPostInit(&htim2);
 8001210:	4b03      	ldr	r3, [pc, #12]	; (8001220 <MX_TIM2_Init+0xcc>)
 8001212:	0018      	movs	r0, r3
 8001214:	f000 fe34 	bl	8001e80 <HAL_TIM_MspPostInit>

}
 8001218:	46c0      	nop			; (mov r8, r8)
 800121a:	46bd      	mov	sp, r7
 800121c:	b00a      	add	sp, #40	; 0x28
 800121e:	bd80      	pop	{r7, pc}
 8001220:	2000026c 	.word	0x2000026c

08001224 <MX_TIM14_Init>:
  * @brief TIM14 Initialization Function
  * @param None
  * @retval None
  */
static void MX_TIM14_Init(void)
{
 8001224:	b580      	push	{r7, lr}
 8001226:	b088      	sub	sp, #32
 8001228:	af00      	add	r7, sp, #0

  /* USER CODE BEGIN TIM14_Init 0 */

  /* USER CODE END TIM14_Init 0 */

  TIM_OC_InitTypeDef sConfigOC = {0};
 800122a:	1d3b      	adds	r3, r7, #4
 800122c:	0018      	movs	r0, r3
 800122e:	231c      	movs	r3, #28
 8001230:	001a      	movs	r2, r3
 8001232:	2100      	movs	r1, #0
 8001234:	f006 fc7a 	bl	8007b2c <memset>

  /* USER CODE BEGIN TIM14_Init 1 */

  /* USER CODE END TIM14_Init 1 */
  htim14.Instance = TIM14;
 8001238:	4b1f      	ldr	r3, [pc, #124]	; (80012b8 <MX_TIM14_Init+0x94>)
 800123a:	4a20      	ldr	r2, [pc, #128]	; (80012bc <MX_TIM14_Init+0x98>)
 800123c:	601a      	str	r2, [r3, #0]
  htim14.Init.Prescaler = 5;
 800123e:	4b1e      	ldr	r3, [pc, #120]	; (80012b8 <MX_TIM14_Init+0x94>)
 8001240:	2205      	movs	r2, #5
 8001242:	605a      	str	r2, [r3, #4]
  htim14.Init.CounterMode = TIM_COUNTERMODE_UP;
 8001244:	4b1c      	ldr	r3, [pc, #112]	; (80012b8 <MX_TIM14_Init+0x94>)
 8001246:	2200      	movs	r2, #0
 8001248:	609a      	str	r2, [r3, #8]
  htim14.Init.Period = 3;
 800124a:	4b1b      	ldr	r3, [pc, #108]	; (80012b8 <MX_TIM14_Init+0x94>)
 800124c:	2203      	movs	r2, #3
 800124e:	60da      	str	r2, [r3, #12]
  htim14.Init.ClockDivision = TIM_CLOCKDIVISION_DIV1;
 8001250:	4b19      	ldr	r3, [pc, #100]	; (80012b8 <MX_TIM14_Init+0x94>)
 8001252:	2200      	movs	r2, #0
 8001254:	611a      	str	r2, [r3, #16]
  htim14.Init.AutoReloadPreload = TIM_AUTORELOAD_PRELOAD_DISABLE;
 8001256:	4b18      	ldr	r3, [pc, #96]	; (80012b8 <MX_TIM14_Init+0x94>)
 8001258:	2200      	movs	r2, #0
 800125a:	619a      	str	r2, [r3, #24]
  if (HAL_TIM_Base_Init(&htim14) != HAL_OK)
 800125c:	4b16      	ldr	r3, [pc, #88]	; (80012b8 <MX_TIM14_Init+0x94>)
 800125e:	0018      	movs	r0, r3
 8001260:	f004 fa36 	bl	80056d0 <HAL_TIM_Base_Init>
 8001264:	1e03      	subs	r3, r0, #0
 8001266:	d001      	beq.n	800126c <MX_TIM14_Init+0x48>
  {
    Error_Handler();
 8001268:	f000 fcea 	bl	8001c40 <Error_Handler>
  }
  if (HAL_TIM_PWM_Init(&htim14) != HAL_OK)
 800126c:	4b12      	ldr	r3, [pc, #72]	; (80012b8 <MX_TIM14_Init+0x94>)
 800126e:	0018      	movs	r0, r3
 8001270:	f004 fa86 	bl	8005780 <HAL_TIM_PWM_Init>
 8001274:	1e03      	subs	r3, r0, #0
 8001276:	d001      	beq.n	800127c <MX_TIM14_Init+0x58>
  {
    Error_Handler();
 8001278:	f000 fce2 	bl	8001c40 <Error_Handler>
  }
  sConfigOC.OCMode = TIM_OCMODE_PWM1;
 800127c:	1d3b      	adds	r3, r7, #4
 800127e:	2260      	movs	r2, #96	; 0x60
 8001280:	601a      	str	r2, [r3, #0]
  sConfigOC.Pulse = 3;
 8001282:	1d3b      	adds	r3, r7, #4
 8001284:	2203      	movs	r2, #3
 8001286:	605a      	str	r2, [r3, #4]
  sConfigOC.OCPolarity = TIM_OCPOLARITY_HIGH;
 8001288:	1d3b      	adds	r3, r7, #4
 800128a:	2200      	movs	r2, #0
 800128c:	609a      	str	r2, [r3, #8]
  sConfigOC.OCFastMode = TIM_OCFAST_DISABLE;
 800128e:	1d3b      	adds	r3, r7, #4
 8001290:	2200      	movs	r2, #0
 8001292:	611a      	str	r2, [r3, #16]
  if (HAL_TIM_PWM_ConfigChannel(&htim14, &sConfigOC, TIM_CHANNEL_1) != HAL_OK)
 8001294:	1d39      	adds	r1, r7, #4
 8001296:	4b08      	ldr	r3, [pc, #32]	; (80012b8 <MX_TIM14_Init+0x94>)
 8001298:	2200      	movs	r2, #0
 800129a:	0018      	movs	r0, r3
 800129c:	f004 fbb2 	bl	8005a04 <HAL_TIM_PWM_ConfigChannel>
 80012a0:	1e03      	subs	r3, r0, #0
 80012a2:	d001      	beq.n	80012a8 <MX_TIM14_Init+0x84>
  {
    Error_Handler();
 80012a4:	f000 fccc 	bl	8001c40 <Error_Handler>
  }
  /* USER CODE BEGIN TIM14_Init 2 */

  /* USER CODE END TIM14_Init 2 */
  HAL_TIM_MspPostInit(&htim14);
 80012a8:	4b03      	ldr	r3, [pc, #12]	; (80012b8 <MX_TIM14_Init+0x94>)
 80012aa:	0018      	movs	r0, r3
 80012ac:	f000 fde8 	bl	8001e80 <HAL_TIM_MspPostInit>

}
 80012b0:	46c0      	nop			; (mov r8, r8)
 80012b2:	46bd      	mov	sp, r7
 80012b4:	b008      	add	sp, #32
 80012b6:	bd80      	pop	{r7, pc}
 80012b8:	200002b8 	.word	0x200002b8
 80012bc:	40002000 	.word	0x40002000

080012c0 <MX_TIM17_Init>:
  * @brief TIM17 Initialization Function
  * @param None
  * @retval None
  */
static void MX_TIM17_Init(void)
{
 80012c0:	b580      	push	{r7, lr}
 80012c2:	b094      	sub	sp, #80	; 0x50
 80012c4:	af00      	add	r7, sp, #0

  /* USER CODE BEGIN TIM17_Init 0 */

  /* USER CODE END TIM17_Init 0 */

  TIM_OC_InitTypeDef sConfigOC = {0};
 80012c6:	2334      	movs	r3, #52	; 0x34
 80012c8:	18fb      	adds	r3, r7, r3
 80012ca:	0018      	movs	r0, r3
 80012cc:	231c      	movs	r3, #28
 80012ce:	001a      	movs	r2, r3
 80012d0:	2100      	movs	r1, #0
 80012d2:	f006 fc2b 	bl	8007b2c <memset>
  TIM_BreakDeadTimeConfigTypeDef sBreakDeadTimeConfig = {0};
 80012d6:	003b      	movs	r3, r7
 80012d8:	0018      	movs	r0, r3
 80012da:	2334      	movs	r3, #52	; 0x34
 80012dc:	001a      	movs	r2, r3
 80012de:	2100      	movs	r1, #0
 80012e0:	f006 fc24 	bl	8007b2c <memset>

  /* USER CODE BEGIN TIM17_Init 1 */

  /* USER CODE END TIM17_Init 1 */
  htim17.Instance = TIM17;
 80012e4:	4b37      	ldr	r3, [pc, #220]	; (80013c4 <MX_TIM17_Init+0x104>)
 80012e6:	4a38      	ldr	r2, [pc, #224]	; (80013c8 <MX_TIM17_Init+0x108>)
 80012e8:	601a      	str	r2, [r3, #0]
  htim17.Init.Prescaler = 63;
 80012ea:	4b36      	ldr	r3, [pc, #216]	; (80013c4 <MX_TIM17_Init+0x104>)
 80012ec:	223f      	movs	r2, #63	; 0x3f
 80012ee:	605a      	str	r2, [r3, #4]
  htim17.Init.CounterMode = TIM_COUNTERMODE_UP;
 80012f0:	4b34      	ldr	r3, [pc, #208]	; (80013c4 <MX_TIM17_Init+0x104>)
 80012f2:	2200      	movs	r2, #0
 80012f4:	609a      	str	r2, [r3, #8]
  htim17.Init.Period = 252;
 80012f6:	4b33      	ldr	r3, [pc, #204]	; (80013c4 <MX_TIM17_Init+0x104>)
 80012f8:	22fc      	movs	r2, #252	; 0xfc
 80012fa:	60da      	str	r2, [r3, #12]
  htim17.Init.ClockDivision = TIM_CLOCKDIVISION_DIV1;
 80012fc:	4b31      	ldr	r3, [pc, #196]	; (80013c4 <MX_TIM17_Init+0x104>)
 80012fe:	2200      	movs	r2, #0
 8001300:	611a      	str	r2, [r3, #16]
  htim17.Init.RepetitionCounter = 0;
 8001302:	4b30      	ldr	r3, [pc, #192]	; (80013c4 <MX_TIM17_Init+0x104>)
 8001304:	2200      	movs	r2, #0
 8001306:	615a      	str	r2, [r3, #20]
  htim17.Init.AutoReloadPreload = TIM_AUTORELOAD_PRELOAD_DISABLE;
 8001308:	4b2e      	ldr	r3, [pc, #184]	; (80013c4 <MX_TIM17_Init+0x104>)
 800130a:	2200      	movs	r2, #0
 800130c:	619a      	str	r2, [r3, #24]
  if (HAL_TIM_Base_Init(&htim17) != HAL_OK)
 800130e:	4b2d      	ldr	r3, [pc, #180]	; (80013c4 <MX_TIM17_Init+0x104>)
 8001310:	0018      	movs	r0, r3
 8001312:	f004 f9dd 	bl	80056d0 <HAL_TIM_Base_Init>
 8001316:	1e03      	subs	r3, r0, #0
 8001318:	d001      	beq.n	800131e <MX_TIM17_Init+0x5e>
  {
    Error_Handler();
 800131a:	f000 fc91 	bl	8001c40 <Error_Handler>
  }
  if (HAL_TIM_PWM_Init(&htim17) != HAL_OK)
 800131e:	4b29      	ldr	r3, [pc, #164]	; (80013c4 <MX_TIM17_Init+0x104>)
 8001320:	0018      	movs	r0, r3
 8001322:	f004 fa2d 	bl	8005780 <HAL_TIM_PWM_Init>
 8001326:	1e03      	subs	r3, r0, #0
 8001328:	d001      	beq.n	800132e <MX_TIM17_Init+0x6e>
  {
    Error_Handler();
 800132a:	f000 fc89 	bl	8001c40 <Error_Handler>
  }
  sConfigOC.OCMode = TIM_OCMODE_PWM1;
 800132e:	2134      	movs	r1, #52	; 0x34
 8001330:	187b      	adds	r3, r7, r1
 8001332:	2260      	movs	r2, #96	; 0x60
 8001334:	601a      	str	r2, [r3, #0]
  sConfigOC.Pulse = 0;
 8001336:	187b      	adds	r3, r7, r1
 8001338:	2200      	movs	r2, #0
 800133a:	605a      	str	r2, [r3, #4]
  sConfigOC.OCPolarity = TIM_OCPOLARITY_HIGH;
 800133c:	187b      	adds	r3, r7, r1
 800133e:	2200      	movs	r2, #0
 8001340:	609a      	str	r2, [r3, #8]
  sConfigOC.OCNPolarity = TIM_OCNPOLARITY_HIGH;
 8001342:	187b      	adds	r3, r7, r1
 8001344:	2200      	movs	r2, #0
 8001346:	60da      	str	r2, [r3, #12]
  sConfigOC.OCFastMode = TIM_OCFAST_DISABLE;
 8001348:	187b      	adds	r3, r7, r1
 800134a:	2200      	movs	r2, #0
 800134c:	611a      	str	r2, [r3, #16]
  sConfigOC.OCIdleState = TIM_OCIDLESTATE_RESET;
 800134e:	187b      	adds	r3, r7, r1
 8001350:	2200      	movs	r2, #0
 8001352:	615a      	str	r2, [r3, #20]
  sConfigOC.OCNIdleState = TIM_OCNIDLESTATE_RESET;
 8001354:	187b      	adds	r3, r7, r1
 8001356:	2200      	movs	r2, #0
 8001358:	619a      	str	r2, [r3, #24]
  if (HAL_TIM_PWM_ConfigChannel(&htim17, &sConfigOC, TIM_CHANNEL_1) != HAL_OK)
 800135a:	1879      	adds	r1, r7, r1
 800135c:	4b19      	ldr	r3, [pc, #100]	; (80013c4 <MX_TIM17_Init+0x104>)
 800135e:	2200      	movs	r2, #0
 8001360:	0018      	movs	r0, r3
 8001362:	f004 fb4f 	bl	8005a04 <HAL_TIM_PWM_ConfigChannel>
 8001366:	1e03      	subs	r3, r0, #0
 8001368:	d001      	beq.n	800136e <MX_TIM17_Init+0xae>
  {
    Error_Handler();
 800136a:	f000 fc69 	bl	8001c40 <Error_Handler>
  }
  sBreakDeadTimeConfig.OffStateRunMode = TIM_OSSR_DISABLE;
 800136e:	003b      	movs	r3, r7
 8001370:	2200      	movs	r2, #0
 8001372:	601a      	str	r2, [r3, #0]
  sBreakDeadTimeConfig.OffStateIDLEMode = TIM_OSSI_DISABLE;
 8001374:	003b      	movs	r3, r7
 8001376:	2200      	movs	r2, #0
 8001378:	605a      	str	r2, [r3, #4]
  sBreakDeadTimeConfig.LockLevel = TIM_LOCKLEVEL_OFF;
 800137a:	003b      	movs	r3, r7
 800137c:	2200      	movs	r2, #0
 800137e:	609a      	str	r2, [r3, #8]
  sBreakDeadTimeConfig.DeadTime = 0;
 8001380:	003b      	movs	r3, r7
 8001382:	2200      	movs	r2, #0
 8001384:	60da      	str	r2, [r3, #12]
  sBreakDeadTimeConfig.BreakState = TIM_BREAK_DISABLE;
 8001386:	003b      	movs	r3, r7
 8001388:	2200      	movs	r2, #0
 800138a:	611a      	str	r2, [r3, #16]
  sBreakDeadTimeConfig.BreakPolarity = TIM_BREAKPOLARITY_HIGH;
 800138c:	003b      	movs	r3, r7
 800138e:	2280      	movs	r2, #128	; 0x80
 8001390:	0192      	lsls	r2, r2, #6
 8001392:	615a      	str	r2, [r3, #20]
  sBreakDeadTimeConfig.BreakFilter = 0;
 8001394:	003b      	movs	r3, r7
 8001396:	2200      	movs	r2, #0
 8001398:	619a      	str	r2, [r3, #24]
  sBreakDeadTimeConfig.AutomaticOutput = TIM_AUTOMATICOUTPUT_DISABLE;
 800139a:	003b      	movs	r3, r7
 800139c:	2200      	movs	r2, #0
 800139e:	631a      	str	r2, [r3, #48]	; 0x30
  if (HAL_TIMEx_ConfigBreakDeadTime(&htim17, &sBreakDeadTimeConfig) != HAL_OK)
 80013a0:	003a      	movs	r2, r7
 80013a2:	4b08      	ldr	r3, [pc, #32]	; (80013c4 <MX_TIM17_Init+0x104>)
 80013a4:	0011      	movs	r1, r2
 80013a6:	0018      	movs	r0, r3
 80013a8:	f004 fff8 	bl	800639c <HAL_TIMEx_ConfigBreakDeadTime>
 80013ac:	1e03      	subs	r3, r0, #0
 80013ae:	d001      	beq.n	80013b4 <MX_TIM17_Init+0xf4>
  {
    Error_Handler();
 80013b0:	f000 fc46 	bl	8001c40 <Error_Handler>
  }
  /* USER CODE BEGIN TIM17_Init 2 */

  /* USER CODE END TIM17_Init 2 */
  HAL_TIM_MspPostInit(&htim17);
 80013b4:	4b03      	ldr	r3, [pc, #12]	; (80013c4 <MX_TIM17_Init+0x104>)
 80013b6:	0018      	movs	r0, r3
 80013b8:	f000 fd62 	bl	8001e80 <HAL_TIM_MspPostInit>

}
 80013bc:	46c0      	nop			; (mov r8, r8)
 80013be:	46bd      	mov	sp, r7
 80013c0:	b014      	add	sp, #80	; 0x50
 80013c2:	bd80      	pop	{r7, pc}
 80013c4:	20000160 	.word	0x20000160
 80013c8:	40014800 	.word	0x40014800

080013cc <MX_USART1_UART_Init>:
  * @brief USART1 Initialization Function
  * @param None
  * @retval None
  */
static void MX_USART1_UART_Init(void)
{
 80013cc:	b580      	push	{r7, lr}
 80013ce:	af00      	add	r7, sp, #0
  /* USER CODE END USART1_Init 0 */

  /* USER CODE BEGIN USART1_Init 1 */

  /* USER CODE END USART1_Init 1 */
  huart1.Instance = USART1;
 80013d0:	4b23      	ldr	r3, [pc, #140]	; (8001460 <MX_USART1_UART_Init+0x94>)
 80013d2:	4a24      	ldr	r2, [pc, #144]	; (8001464 <MX_USART1_UART_Init+0x98>)
 80013d4:	601a      	str	r2, [r3, #0]
  huart1.Init.BaudRate = 9600;
 80013d6:	4b22      	ldr	r3, [pc, #136]	; (8001460 <MX_USART1_UART_Init+0x94>)
 80013d8:	2296      	movs	r2, #150	; 0x96
 80013da:	0192      	lsls	r2, r2, #6
 80013dc:	605a      	str	r2, [r3, #4]
  huart1.Init.WordLength = UART_WORDLENGTH_8B;
 80013de:	4b20      	ldr	r3, [pc, #128]	; (8001460 <MX_USART1_UART_Init+0x94>)
 80013e0:	2200      	movs	r2, #0
 80013e2:	609a      	str	r2, [r3, #8]
  huart1.Init.StopBits = UART_STOPBITS_1;
 80013e4:	4b1e      	ldr	r3, [pc, #120]	; (8001460 <MX_USART1_UART_Init+0x94>)
 80013e6:	2200      	movs	r2, #0
 80013e8:	60da      	str	r2, [r3, #12]
  huart1.Init.Parity = UART_PARITY_NONE;
 80013ea:	4b1d      	ldr	r3, [pc, #116]	; (8001460 <MX_USART1_UART_Init+0x94>)
 80013ec:	2200      	movs	r2, #0
 80013ee:	611a      	str	r2, [r3, #16]
  huart1.Init.Mode = UART_MODE_TX_RX;
 80013f0:	4b1b      	ldr	r3, [pc, #108]	; (8001460 <MX_USART1_UART_Init+0x94>)
 80013f2:	220c      	movs	r2, #12
 80013f4:	615a      	str	r2, [r3, #20]
  huart1.Init.HwFlowCtl = UART_HWCONTROL_NONE;
 80013f6:	4b1a      	ldr	r3, [pc, #104]	; (8001460 <MX_USART1_UART_Init+0x94>)
 80013f8:	2200      	movs	r2, #0
 80013fa:	619a      	str	r2, [r3, #24]
  huart1.Init.OverSampling = UART_OVERSAMPLING_16;
 80013fc:	4b18      	ldr	r3, [pc, #96]	; (8001460 <MX_USART1_UART_Init+0x94>)
 80013fe:	2200      	movs	r2, #0
 8001400:	61da      	str	r2, [r3, #28]
  huart1.Init.OneBitSampling = UART_ONE_BIT_SAMPLE_DISABLE;
 8001402:	4b17      	ldr	r3, [pc, #92]	; (8001460 <MX_USART1_UART_Init+0x94>)
 8001404:	2200      	movs	r2, #0
 8001406:	621a      	str	r2, [r3, #32]
  huart1.Init.ClockPrescaler = UART_PRESCALER_DIV1;
 8001408:	4b15      	ldr	r3, [pc, #84]	; (8001460 <MX_USART1_UART_Init+0x94>)
 800140a:	2200      	movs	r2, #0
 800140c:	625a      	str	r2, [r3, #36]	; 0x24
  huart1.AdvancedInit.AdvFeatureInit = UART_ADVFEATURE_NO_INIT;
 800140e:	4b14      	ldr	r3, [pc, #80]	; (8001460 <MX_USART1_UART_Init+0x94>)
 8001410:	2200      	movs	r2, #0
 8001412:	629a      	str	r2, [r3, #40]	; 0x28
  if (HAL_UART_Init(&huart1) != HAL_OK)
 8001414:	4b12      	ldr	r3, [pc, #72]	; (8001460 <MX_USART1_UART_Init+0x94>)
 8001416:	0018      	movs	r0, r3
 8001418:	f005 f866 	bl	80064e8 <HAL_UART_Init>
 800141c:	1e03      	subs	r3, r0, #0
 800141e:	d001      	beq.n	8001424 <MX_USART1_UART_Init+0x58>
  {
    Error_Handler();
 8001420:	f000 fc0e 	bl	8001c40 <Error_Handler>
  }
  if (HAL_UARTEx_SetTxFifoThreshold(&huart1, UART_TXFIFO_THRESHOLD_1_8) != HAL_OK)
 8001424:	4b0e      	ldr	r3, [pc, #56]	; (8001460 <MX_USART1_UART_Init+0x94>)
 8001426:	2100      	movs	r1, #0
 8001428:	0018      	movs	r0, r3
 800142a:	f006 fa6f 	bl	800790c <HAL_UARTEx_SetTxFifoThreshold>
 800142e:	1e03      	subs	r3, r0, #0
 8001430:	d001      	beq.n	8001436 <MX_USART1_UART_Init+0x6a>
  {
    Error_Handler();
 8001432:	f000 fc05 	bl	8001c40 <Error_Handler>
  }
  if (HAL_UARTEx_SetRxFifoThreshold(&huart1, UART_RXFIFO_THRESHOLD_1_8) != HAL_OK)
 8001436:	4b0a      	ldr	r3, [pc, #40]	; (8001460 <MX_USART1_UART_Init+0x94>)
 8001438:	2100      	movs	r1, #0
 800143a:	0018      	movs	r0, r3
 800143c:	f006 faa6 	bl	800798c <HAL_UARTEx_SetRxFifoThreshold>
 8001440:	1e03      	subs	r3, r0, #0
 8001442:	d001      	beq.n	8001448 <MX_USART1_UART_Init+0x7c>
  {
    Error_Handler();
 8001444:	f000 fbfc 	bl	8001c40 <Error_Handler>
  }
  if (HAL_UARTEx_DisableFifoMode(&huart1) != HAL_OK)
 8001448:	4b05      	ldr	r3, [pc, #20]	; (8001460 <MX_USART1_UART_Init+0x94>)
 800144a:	0018      	movs	r0, r3
 800144c:	f006 fa24 	bl	8007898 <HAL_UARTEx_DisableFifoMode>
 8001450:	1e03      	subs	r3, r0, #0
 8001452:	d001      	beq.n	8001458 <MX_USART1_UART_Init+0x8c>
  {
    Error_Handler();
 8001454:	f000 fbf4 	bl	8001c40 <Error_Handler>
  }
  /* USER CODE BEGIN USART1_Init 2 */

  /* USER CODE END USART1_Init 2 */

}
 8001458:	46c0      	nop			; (mov r8, r8)
 800145a:	46bd      	mov	sp, r7
 800145c:	bd80      	pop	{r7, pc}
 800145e:	46c0      	nop			; (mov r8, r8)
 8001460:	200001dc 	.word	0x200001dc
 8001464:	40013800 	.word	0x40013800

08001468 <MX_GPIO_Init>:
  * @brief GPIO Initialization Function
  * @param None
  * @retval None
  */
static void MX_GPIO_Init(void)
{
 8001468:	b590      	push	{r4, r7, lr}
 800146a:	b089      	sub	sp, #36	; 0x24
 800146c:	af00      	add	r7, sp, #0
  GPIO_InitTypeDef GPIO_InitStruct = {0};
 800146e:	240c      	movs	r4, #12
 8001470:	193b      	adds	r3, r7, r4
 8001472:	0018      	movs	r0, r3
 8001474:	2314      	movs	r3, #20
 8001476:	001a      	movs	r2, r3
 8001478:	2100      	movs	r1, #0
 800147a:	f006 fb57 	bl	8007b2c <memset>

  /* GPIO Ports Clock Enable */
  __HAL_RCC_GPIOA_CLK_ENABLE();
 800147e:	4b34      	ldr	r3, [pc, #208]	; (8001550 <MX_GPIO_Init+0xe8>)
 8001480:	6b5a      	ldr	r2, [r3, #52]	; 0x34
 8001482:	4b33      	ldr	r3, [pc, #204]	; (8001550 <MX_GPIO_Init+0xe8>)
 8001484:	2101      	movs	r1, #1
 8001486:	430a      	orrs	r2, r1
 8001488:	635a      	str	r2, [r3, #52]	; 0x34
 800148a:	4b31      	ldr	r3, [pc, #196]	; (8001550 <MX_GPIO_Init+0xe8>)
 800148c:	6b5b      	ldr	r3, [r3, #52]	; 0x34
 800148e:	2201      	movs	r2, #1
 8001490:	4013      	ands	r3, r2
 8001492:	60bb      	str	r3, [r7, #8]
 8001494:	68bb      	ldr	r3, [r7, #8]
  __HAL_RCC_GPIOD_CLK_ENABLE();
 8001496:	4b2e      	ldr	r3, [pc, #184]	; (8001550 <MX_GPIO_Init+0xe8>)
 8001498:	6b5a      	ldr	r2, [r3, #52]	; 0x34
 800149a:	4b2d      	ldr	r3, [pc, #180]	; (8001550 <MX_GPIO_Init+0xe8>)
 800149c:	2108      	movs	r1, #8
 800149e:	430a      	orrs	r2, r1
 80014a0:	635a      	str	r2, [r3, #52]	; 0x34
 80014a2:	4b2b      	ldr	r3, [pc, #172]	; (8001550 <MX_GPIO_Init+0xe8>)
 80014a4:	6b5b      	ldr	r3, [r3, #52]	; 0x34
 80014a6:	2208      	movs	r2, #8
 80014a8:	4013      	ands	r3, r2
 80014aa:	607b      	str	r3, [r7, #4]
 80014ac:	687b      	ldr	r3, [r7, #4]
  __HAL_RCC_GPIOB_CLK_ENABLE();
 80014ae:	4b28      	ldr	r3, [pc, #160]	; (8001550 <MX_GPIO_Init+0xe8>)
 80014b0:	6b5a      	ldr	r2, [r3, #52]	; 0x34
 80014b2:	4b27      	ldr	r3, [pc, #156]	; (8001550 <MX_GPIO_Init+0xe8>)
 80014b4:	2102      	movs	r1, #2
 80014b6:	430a      	orrs	r2, r1
 80014b8:	635a      	str	r2, [r3, #52]	; 0x34
 80014ba:	4b25      	ldr	r3, [pc, #148]	; (8001550 <MX_GPIO_Init+0xe8>)
 80014bc:	6b5b      	ldr	r3, [r3, #52]	; 0x34
 80014be:	2202      	movs	r2, #2
 80014c0:	4013      	ands	r3, r2
 80014c2:	603b      	str	r3, [r7, #0]
 80014c4:	683b      	ldr	r3, [r7, #0]

  /*Configure GPIO pin : MODE_SELECT_Pin */
  GPIO_InitStruct.Pin = MODE_SELECT_Pin;
 80014c6:	193b      	adds	r3, r7, r4
 80014c8:	2280      	movs	r2, #128	; 0x80
 80014ca:	601a      	str	r2, [r3, #0]
  GPIO_InitStruct.Mode = GPIO_MODE_INPUT;
 80014cc:	193b      	adds	r3, r7, r4
 80014ce:	2200      	movs	r2, #0
 80014d0:	605a      	str	r2, [r3, #4]
  GPIO_InitStruct.Pull = GPIO_NOPULL;
 80014d2:	193b      	adds	r3, r7, r4
 80014d4:	2200      	movs	r2, #0
 80014d6:	609a      	str	r2, [r3, #8]
  HAL_GPIO_Init(MODE_SELECT_GPIO_Port, &GPIO_InitStruct);
 80014d8:	193a      	adds	r2, r7, r4
 80014da:	23a0      	movs	r3, #160	; 0xa0
 80014dc:	05db      	lsls	r3, r3, #23
 80014de:	0011      	movs	r1, r2
 80014e0:	0018      	movs	r0, r3
 80014e2:	f001 fd5d 	bl	8002fa0 <HAL_GPIO_Init>

  /*Configure GPIO pin : PROXIMITY_Pin */
  GPIO_InitStruct.Pin = PROXIMITY_Pin;
 80014e6:	193b      	adds	r3, r7, r4
 80014e8:	2280      	movs	r2, #128	; 0x80
 80014ea:	0052      	lsls	r2, r2, #1
 80014ec:	601a      	str	r2, [r3, #0]
  GPIO_InitStruct.Mode = GPIO_MODE_IT_RISING_FALLING;
 80014ee:	193b      	adds	r3, r7, r4
 80014f0:	4a18      	ldr	r2, [pc, #96]	; (8001554 <MX_GPIO_Init+0xec>)
 80014f2:	605a      	str	r2, [r3, #4]
  GPIO_InitStruct.Pull = GPIO_NOPULL;
 80014f4:	193b      	adds	r3, r7, r4
 80014f6:	2200      	movs	r2, #0
 80014f8:	609a      	str	r2, [r3, #8]
  HAL_GPIO_Init(PROXIMITY_GPIO_Port, &GPIO_InitStruct);
 80014fa:	193a      	adds	r2, r7, r4
 80014fc:	23a0      	movs	r3, #160	; 0xa0
 80014fe:	05db      	lsls	r3, r3, #23
 8001500:	0011      	movs	r1, r2
 8001502:	0018      	movs	r0, r3
 8001504:	f001 fd4c 	bl	8002fa0 <HAL_GPIO_Init>

  /*Configure GPIO pin : TOUCH_Pin */
  GPIO_InitStruct.Pin = TOUCH_Pin;
 8001508:	193b      	adds	r3, r7, r4
 800150a:	2208      	movs	r2, #8
 800150c:	601a      	str	r2, [r3, #0]
  GPIO_InitStruct.Mode = GPIO_MODE_IT_RISING_FALLING;
 800150e:	193b      	adds	r3, r7, r4
 8001510:	4a10      	ldr	r2, [pc, #64]	; (8001554 <MX_GPIO_Init+0xec>)
 8001512:	605a      	str	r2, [r3, #4]
  GPIO_InitStruct.Pull = GPIO_NOPULL;
 8001514:	193b      	adds	r3, r7, r4
 8001516:	2200      	movs	r2, #0
 8001518:	609a      	str	r2, [r3, #8]
  HAL_GPIO_Init(TOUCH_GPIO_Port, &GPIO_InitStruct);
 800151a:	193b      	adds	r3, r7, r4
 800151c:	4a0e      	ldr	r2, [pc, #56]	; (8001558 <MX_GPIO_Init+0xf0>)
 800151e:	0019      	movs	r1, r3
 8001520:	0010      	movs	r0, r2
 8001522:	f001 fd3d 	bl	8002fa0 <HAL_GPIO_Init>

  /* EXTI interrupt init*/
  HAL_NVIC_SetPriority(EXTI2_3_IRQn, 0, 0);
 8001526:	2200      	movs	r2, #0
 8001528:	2100      	movs	r1, #0
 800152a:	2006      	movs	r0, #6
 800152c:	f001 faa0 	bl	8002a70 <HAL_NVIC_SetPriority>
  HAL_NVIC_EnableIRQ(EXTI2_3_IRQn);
 8001530:	2006      	movs	r0, #6
 8001532:	f001 fab2 	bl	8002a9a <HAL_NVIC_EnableIRQ>

  HAL_NVIC_SetPriority(EXTI4_15_IRQn, 0, 0);
 8001536:	2200      	movs	r2, #0
 8001538:	2100      	movs	r1, #0
 800153a:	2007      	movs	r0, #7
 800153c:	f001 fa98 	bl	8002a70 <HAL_NVIC_SetPriority>
  HAL_NVIC_EnableIRQ(EXTI4_15_IRQn);
 8001540:	2007      	movs	r0, #7
 8001542:	f001 faaa 	bl	8002a9a <HAL_NVIC_EnableIRQ>

}
 8001546:	46c0      	nop			; (mov r8, r8)
 8001548:	46bd      	mov	sp, r7
 800154a:	b009      	add	sp, #36	; 0x24
 800154c:	bd90      	pop	{r4, r7, pc}
 800154e:	46c0      	nop			; (mov r8, r8)
 8001550:	40021000 	.word	0x40021000
 8001554:	10310000 	.word	0x10310000
 8001558:	50000c00 	.word	0x50000c00

0800155c <HAL_GPIO_EXTI_Rising_Callback>:

/* USER CODE BEGIN 4 */

void HAL_GPIO_EXTI_Rising_Callback(uint16_t GPIO_Pin)
{
 800155c:	b580      	push	{r7, lr}
 800155e:	b082      	sub	sp, #8
 8001560:	af00      	add	r7, sp, #0
 8001562:	0002      	movs	r2, r0
 8001564:	1dbb      	adds	r3, r7, #6
 8001566:	801a      	strh	r2, [r3, #0]
//#ifdef TOUCH
	if (Software == Touch)
 8001568:	4b0f      	ldr	r3, [pc, #60]	; (80015a8 <HAL_GPIO_EXTI_Rising_Callback+0x4c>)
 800156a:	781b      	ldrb	r3, [r3, #0]
 800156c:	2b01      	cmp	r3, #1
 800156e:	d116      	bne.n	800159e <HAL_GPIO_EXTI_Rising_Callback+0x42>
	{
	if(GPIO_Pin == TOUCH_Pin)
 8001570:	1dbb      	adds	r3, r7, #6
 8001572:	881b      	ldrh	r3, [r3, #0]
 8001574:	2b08      	cmp	r3, #8
 8001576:	d112      	bne.n	800159e <HAL_GPIO_EXTI_Rising_Callback+0x42>
	{
		if(FallingEdge)
 8001578:	4b0c      	ldr	r3, [pc, #48]	; (80015ac <HAL_GPIO_EXTI_Rising_Callback+0x50>)
 800157a:	781b      	ldrb	r3, [r3, #0]
 800157c:	2b00      	cmp	r3, #0
 800157e:	d00e      	beq.n	800159e <HAL_GPIO_EXTI_Rising_Callback+0x42>
		{
			FallingEdge = 0;
 8001580:	4b0a      	ldr	r3, [pc, #40]	; (80015ac <HAL_GPIO_EXTI_Rising_Callback+0x50>)
 8001582:	2200      	movs	r2, #0
 8001584:	701a      	strb	r2, [r3, #0]
			RisingEdge = 1;
 8001586:	4b0a      	ldr	r3, [pc, #40]	; (80015b0 <HAL_GPIO_EXTI_Rising_Callback+0x54>)
 8001588:	2201      	movs	r2, #1
 800158a:	701a      	strb	r2, [r3, #0]
			mSec = 0;
 800158c:	4b09      	ldr	r3, [pc, #36]	; (80015b4 <HAL_GPIO_EXTI_Rising_Callback+0x58>)
 800158e:	2200      	movs	r2, #0
 8001590:	801a      	strh	r2, [r3, #0]
			TimeOut = 0;
 8001592:	4b09      	ldr	r3, [pc, #36]	; (80015b8 <HAL_GPIO_EXTI_Rising_Callback+0x5c>)
 8001594:	2200      	movs	r2, #0
 8001596:	701a      	strb	r2, [r3, #0]
			channel_is_changed = 0;
 8001598:	4b08      	ldr	r3, [pc, #32]	; (80015bc <HAL_GPIO_EXTI_Rising_Callback+0x60>)
 800159a:	2200      	movs	r2, #0
 800159c:	701a      	strb	r2, [r3, #0]
		}
	}
	}
//#endif
}
 800159e:	46c0      	nop			; (mov r8, r8)
 80015a0:	46bd      	mov	sp, r7
 80015a2:	b002      	add	sp, #8
 80015a4:	bd80      	pop	{r7, pc}
 80015a6:	46c0      	nop			; (mov r8, r8)
 80015a8:	200000ce 	.word	0x200000ce
 80015ac:	20000012 	.word	0x20000012
 80015b0:	200000cf 	.word	0x200000cf
 80015b4:	200000d6 	.word	0x200000d6
 80015b8:	200000d0 	.word	0x200000d0
 80015bc:	200000f0 	.word	0x200000f0

080015c0 <HAL_GPIO_EXTI_Falling_Callback>:
void HAL_GPIO_EXTI_Falling_Callback(uint16_t GPIO_Pin)
{
 80015c0:	b580      	push	{r7, lr}
 80015c2:	b084      	sub	sp, #16
 80015c4:	af00      	add	r7, sp, #0
 80015c6:	0002      	movs	r2, r0
 80015c8:	1dbb      	adds	r3, r7, #6
 80015ca:	801a      	strh	r2, [r3, #0]
//#ifdef PROXIMITY
if (Software == Proximity)
 80015cc:	4bcd      	ldr	r3, [pc, #820]	; (8001904 <HAL_GPIO_EXTI_Falling_Callback+0x344>)
 80015ce:	781b      	ldrb	r3, [r3, #0]
 80015d0:	2b00      	cmp	r3, #0
 80015d2:	d000      	beq.n	80015d6 <HAL_GPIO_EXTI_Falling_Callback+0x16>
 80015d4:	e1c8      	b.n	8001968 <HAL_GPIO_EXTI_Falling_Callback+0x3a8>
{
	if(GPIO_Pin == PROXIMITY_Pin)
 80015d6:	1dbb      	adds	r3, r7, #6
 80015d8:	881a      	ldrh	r2, [r3, #0]
 80015da:	2380      	movs	r3, #128	; 0x80
 80015dc:	005b      	lsls	r3, r3, #1
 80015de:	429a      	cmp	r2, r3
 80015e0:	d000      	beq.n	80015e4 <HAL_GPIO_EXTI_Falling_Callback+0x24>
 80015e2:	e302      	b.n	8001bea <HAL_GPIO_EXTI_Falling_Callback+0x62a>
	{
		if(I2C_Read_Byte(&hi2c2, VCNL4020_ADDRESS, VCNL4020_INTERRUPT_STATUS_REG) == 0x01)	//Se e' stata superata la soglia alta
 80015e4:	4bc8      	ldr	r3, [pc, #800]	; (8001908 <HAL_GPIO_EXTI_Falling_Callback+0x348>)
 80015e6:	228e      	movs	r2, #142	; 0x8e
 80015e8:	2126      	movs	r1, #38	; 0x26
 80015ea:	0018      	movs	r0, r3
 80015ec:	f000 fdb2 	bl	8002154 <I2C_Read_Byte>
 80015f0:	0003      	movs	r3, r0
 80015f2:	2b01      	cmp	r3, #1
 80015f4:	d128      	bne.n	8001648 <HAL_GPIO_EXTI_Falling_Callback+0x88>
		{
			I2C_Write_Byte(&hi2c2, VCNL4020_ADDRESS, VCNL4020_INTERRUPT_STATUS_REG, 0x01);  //Clear flag
 80015f6:	48c4      	ldr	r0, [pc, #784]	; (8001908 <HAL_GPIO_EXTI_Falling_Callback+0x348>)
 80015f8:	2301      	movs	r3, #1
 80015fa:	228e      	movs	r2, #142	; 0x8e
 80015fc:	2126      	movs	r1, #38	; 0x26
 80015fe:	f000 fd81 	bl	8002104 <I2C_Write_Byte>

			VCNL4020_Set_Threshold(&hi2c2, THRESHOLD_LEVEL - 1000, 0xFFFF);
 8001602:	4ac2      	ldr	r2, [pc, #776]	; (800190c <HAL_GPIO_EXTI_Falling_Callback+0x34c>)
 8001604:	49c2      	ldr	r1, [pc, #776]	; (8001910 <HAL_GPIO_EXTI_Falling_Callback+0x350>)
 8001606:	4bc0      	ldr	r3, [pc, #768]	; (8001908 <HAL_GPIO_EXTI_Falling_Callback+0x348>)
 8001608:	0018      	movs	r0, r3
 800160a:	f000 fdcc 	bl	80021a6 <VCNL4020_Set_Threshold>

			I2C_Write_Byte(&hi2c2, VCNL4020_ADDRESS, VCNL4020_COMMAND_REG, 0x03);
 800160e:	48be      	ldr	r0, [pc, #760]	; (8001908 <HAL_GPIO_EXTI_Falling_Callback+0x348>)
 8001610:	2303      	movs	r3, #3
 8001612:	2280      	movs	r2, #128	; 0x80
 8001614:	2126      	movs	r1, #38	; 0x26
 8001616:	f000 fd75 	bl	8002104 <I2C_Write_Byte>

			if(FallingEdge)
 800161a:	4bbe      	ldr	r3, [pc, #760]	; (8001914 <HAL_GPIO_EXTI_Falling_Callback+0x354>)
 800161c:	781b      	ldrb	r3, [r3, #0]
 800161e:	2b00      	cmp	r3, #0
 8001620:	d00e      	beq.n	8001640 <HAL_GPIO_EXTI_Falling_Callback+0x80>
			{
				FallingEdge = 0;
 8001622:	4bbc      	ldr	r3, [pc, #752]	; (8001914 <HAL_GPIO_EXTI_Falling_Callback+0x354>)
 8001624:	2200      	movs	r2, #0
 8001626:	701a      	strb	r2, [r3, #0]
				RisingEdge = 1;
 8001628:	4bbb      	ldr	r3, [pc, #748]	; (8001918 <HAL_GPIO_EXTI_Falling_Callback+0x358>)
 800162a:	2201      	movs	r2, #1
 800162c:	701a      	strb	r2, [r3, #0]
				mSec = 0;
 800162e:	4bbb      	ldr	r3, [pc, #748]	; (800191c <HAL_GPIO_EXTI_Falling_Callback+0x35c>)
 8001630:	2200      	movs	r2, #0
 8001632:	801a      	strh	r2, [r3, #0]
				TimeOut = 0;
 8001634:	4bba      	ldr	r3, [pc, #744]	; (8001920 <HAL_GPIO_EXTI_Falling_Callback+0x360>)
 8001636:	2200      	movs	r2, #0
 8001638:	701a      	strb	r2, [r3, #0]
				channel_is_changed = 0;
 800163a:	4bba      	ldr	r3, [pc, #744]	; (8001924 <HAL_GPIO_EXTI_Falling_Callback+0x364>)
 800163c:	2200      	movs	r2, #0
 800163e:	701a      	strb	r2, [r3, #0]
			}
			htim2.Instance->CCR1 = 254;														//Led Blue
 8001640:	4bb9      	ldr	r3, [pc, #740]	; (8001928 <HAL_GPIO_EXTI_Falling_Callback+0x368>)
 8001642:	681b      	ldr	r3, [r3, #0]
 8001644:	22fe      	movs	r2, #254	; 0xfe
 8001646:	635a      	str	r2, [r3, #52]	; 0x34
		}
		if(I2C_Read_Byte(&hi2c2, VCNL4020_ADDRESS, VCNL4020_INTERRUPT_STATUS_REG) == 0x02)	//Se e' stata superata la soglia bassa
 8001648:	4baf      	ldr	r3, [pc, #700]	; (8001908 <HAL_GPIO_EXTI_Falling_Callback+0x348>)
 800164a:	228e      	movs	r2, #142	; 0x8e
 800164c:	2126      	movs	r1, #38	; 0x26
 800164e:	0018      	movs	r0, r3
 8001650:	f000 fd80 	bl	8002154 <I2C_Read_Byte>
 8001654:	0003      	movs	r3, r0
 8001656:	2b02      	cmp	r3, #2
 8001658:	d000      	beq.n	800165c <HAL_GPIO_EXTI_Falling_Callback+0x9c>
 800165a:	e2c6      	b.n	8001bea <HAL_GPIO_EXTI_Falling_Callback+0x62a>
		{
			I2C_Write_Byte(&hi2c2, VCNL4020_ADDRESS, VCNL4020_INTERRUPT_STATUS_REG, 0x02);  //Clear flag
 800165c:	48aa      	ldr	r0, [pc, #680]	; (8001908 <HAL_GPIO_EXTI_Falling_Callback+0x348>)
 800165e:	2302      	movs	r3, #2
 8001660:	228e      	movs	r2, #142	; 0x8e
 8001662:	2126      	movs	r1, #38	; 0x26
 8001664:	f000 fd4e 	bl	8002104 <I2C_Write_Byte>

			VCNL4020_Set_Threshold(&hi2c2, 0, THRESHOLD_LEVEL);
 8001668:	4ab0      	ldr	r2, [pc, #704]	; (800192c <HAL_GPIO_EXTI_Falling_Callback+0x36c>)
 800166a:	4ba7      	ldr	r3, [pc, #668]	; (8001908 <HAL_GPIO_EXTI_Falling_Callback+0x348>)
 800166c:	2100      	movs	r1, #0
 800166e:	0018      	movs	r0, r3
 8001670:	f000 fd99 	bl	80021a6 <VCNL4020_Set_Threshold>

			I2C_Write_Byte(&hi2c2, VCNL4020_ADDRESS, VCNL4020_COMMAND_REG, 0x03);
 8001674:	48a4      	ldr	r0, [pc, #656]	; (8001908 <HAL_GPIO_EXTI_Falling_Callback+0x348>)
 8001676:	2303      	movs	r3, #3
 8001678:	2280      	movs	r2, #128	; 0x80
 800167a:	2126      	movs	r1, #38	; 0x26
 800167c:	f000 fd42 	bl	8002104 <I2C_Write_Byte>

			if(RisingEdge)
 8001680:	4ba5      	ldr	r3, [pc, #660]	; (8001918 <HAL_GPIO_EXTI_Falling_Callback+0x358>)
 8001682:	781b      	ldrb	r3, [r3, #0]
 8001684:	2b00      	cmp	r3, #0
 8001686:	d100      	bne.n	800168a <HAL_GPIO_EXTI_Falling_Callback+0xca>
 8001688:	e136      	b.n	80018f8 <HAL_GPIO_EXTI_Falling_Callback+0x338>
			{
				FallingEdge = 1;
 800168a:	4ba2      	ldr	r3, [pc, #648]	; (8001914 <HAL_GPIO_EXTI_Falling_Callback+0x354>)
 800168c:	2201      	movs	r2, #1
 800168e:	701a      	strb	r2, [r3, #0]
				RisingEdge = 0;
 8001690:	4ba1      	ldr	r3, [pc, #644]	; (8001918 <HAL_GPIO_EXTI_Falling_Callback+0x358>)
 8001692:	2200      	movs	r2, #0
 8001694:	701a      	strb	r2, [r3, #0]
				TimeOut = 1;
 8001696:	4ba2      	ldr	r3, [pc, #648]	; (8001920 <HAL_GPIO_EXTI_Falling_Callback+0x360>)
 8001698:	2201      	movs	r2, #1
 800169a:	701a      	strb	r2, [r3, #0]
				is_to_ceck = 1;
 800169c:	4ba4      	ldr	r3, [pc, #656]	; (8001930 <HAL_GPIO_EXTI_Falling_Callback+0x370>)
 800169e:	2201      	movs	r2, #1
 80016a0:	701a      	strb	r2, [r3, #0]
				if((mSec > MAXIMUM_SHORT_TOUCH_TIME)&&(Power == On))
 80016a2:	4b9e      	ldr	r3, [pc, #632]	; (800191c <HAL_GPIO_EXTI_Falling_Callback+0x35c>)
 80016a4:	881a      	ldrh	r2, [r3, #0]
 80016a6:	23c8      	movs	r3, #200	; 0xc8
 80016a8:	005b      	lsls	r3, r3, #1
 80016aa:	429a      	cmp	r2, r3
 80016ac:	d932      	bls.n	8001714 <HAL_GPIO_EXTI_Falling_Callback+0x154>
 80016ae:	4ba1      	ldr	r3, [pc, #644]	; (8001934 <HAL_GPIO_EXTI_Falling_Callback+0x374>)
 80016b0:	781b      	ldrb	r3, [r3, #0]
 80016b2:	2b01      	cmp	r3, #1
 80016b4:	d12e      	bne.n	8001714 <HAL_GPIO_EXTI_Falling_Callback+0x154>
				{
					if(Channel == 1)
 80016b6:	4ba0      	ldr	r3, [pc, #640]	; (8001938 <HAL_GPIO_EXTI_Falling_Callback+0x378>)
 80016b8:	781b      	ldrb	r3, [r3, #0]
 80016ba:	2b01      	cmp	r3, #1
 80016bc:	d10b      	bne.n	80016d6 <HAL_GPIO_EXTI_Falling_Callback+0x116>
					{
						if(DimmingDirectionCh1 == Up) DimmingDirectionCh1 = Down;
 80016be:	4b9f      	ldr	r3, [pc, #636]	; (800193c <HAL_GPIO_EXTI_Falling_Callback+0x37c>)
 80016c0:	781b      	ldrb	r3, [r3, #0]
 80016c2:	2b01      	cmp	r3, #1
 80016c4:	d103      	bne.n	80016ce <HAL_GPIO_EXTI_Falling_Callback+0x10e>
 80016c6:	4b9d      	ldr	r3, [pc, #628]	; (800193c <HAL_GPIO_EXTI_Falling_Callback+0x37c>)
 80016c8:	2200      	movs	r2, #0
 80016ca:	701a      	strb	r2, [r3, #0]
 80016cc:	e022      	b.n	8001714 <HAL_GPIO_EXTI_Falling_Callback+0x154>
						else DimmingDirectionCh1 = Up;
 80016ce:	4b9b      	ldr	r3, [pc, #620]	; (800193c <HAL_GPIO_EXTI_Falling_Callback+0x37c>)
 80016d0:	2201      	movs	r2, #1
 80016d2:	701a      	strb	r2, [r3, #0]
 80016d4:	e01e      	b.n	8001714 <HAL_GPIO_EXTI_Falling_Callback+0x154>
					}
					else if(Channel == 2)
 80016d6:	4b98      	ldr	r3, [pc, #608]	; (8001938 <HAL_GPIO_EXTI_Falling_Callback+0x378>)
 80016d8:	781b      	ldrb	r3, [r3, #0]
 80016da:	2b02      	cmp	r3, #2
 80016dc:	d10b      	bne.n	80016f6 <HAL_GPIO_EXTI_Falling_Callback+0x136>
					{
						if(DimmingDirectionCh2 == Up) DimmingDirectionCh2 = Down;
 80016de:	4b98      	ldr	r3, [pc, #608]	; (8001940 <HAL_GPIO_EXTI_Falling_Callback+0x380>)
 80016e0:	781b      	ldrb	r3, [r3, #0]
 80016e2:	2b01      	cmp	r3, #1
 80016e4:	d103      	bne.n	80016ee <HAL_GPIO_EXTI_Falling_Callback+0x12e>
 80016e6:	4b96      	ldr	r3, [pc, #600]	; (8001940 <HAL_GPIO_EXTI_Falling_Callback+0x380>)
 80016e8:	2200      	movs	r2, #0
 80016ea:	701a      	strb	r2, [r3, #0]
 80016ec:	e012      	b.n	8001714 <HAL_GPIO_EXTI_Falling_Callback+0x154>
						else DimmingDirectionCh2 = Up;
 80016ee:	4b94      	ldr	r3, [pc, #592]	; (8001940 <HAL_GPIO_EXTI_Falling_Callback+0x380>)
 80016f0:	2201      	movs	r2, #1
 80016f2:	701a      	strb	r2, [r3, #0]
 80016f4:	e00e      	b.n	8001714 <HAL_GPIO_EXTI_Falling_Callback+0x154>
					}
					else if(Channel == 3)
 80016f6:	4b90      	ldr	r3, [pc, #576]	; (8001938 <HAL_GPIO_EXTI_Falling_Callback+0x378>)
 80016f8:	781b      	ldrb	r3, [r3, #0]
 80016fa:	2b03      	cmp	r3, #3
 80016fc:	d10a      	bne.n	8001714 <HAL_GPIO_EXTI_Falling_Callback+0x154>
					{
						if(DimmingDirectionCh2 == Up) DimmingDirectionCh2 = Down;
 80016fe:	4b90      	ldr	r3, [pc, #576]	; (8001940 <HAL_GPIO_EXTI_Falling_Callback+0x380>)
 8001700:	781b      	ldrb	r3, [r3, #0]
 8001702:	2b01      	cmp	r3, #1
 8001704:	d103      	bne.n	800170e <HAL_GPIO_EXTI_Falling_Callback+0x14e>
 8001706:	4b8e      	ldr	r3, [pc, #568]	; (8001940 <HAL_GPIO_EXTI_Falling_Callback+0x380>)
 8001708:	2200      	movs	r2, #0
 800170a:	701a      	strb	r2, [r3, #0]
 800170c:	e002      	b.n	8001714 <HAL_GPIO_EXTI_Falling_Callback+0x154>
						else DimmingDirectionCh2 = Up;
 800170e:	4b8c      	ldr	r3, [pc, #560]	; (8001940 <HAL_GPIO_EXTI_Falling_Callback+0x380>)
 8001710:	2201      	movs	r2, #1
 8001712:	701a      	strb	r2, [r3, #0]
					}
				}
				if(mSec < MAXIMUM_SHORT_TOUCH_TIME)
 8001714:	4b81      	ldr	r3, [pc, #516]	; (800191c <HAL_GPIO_EXTI_Falling_Callback+0x35c>)
 8001716:	881a      	ldrh	r2, [r3, #0]
 8001718:	23c8      	movs	r3, #200	; 0xc8
 800171a:	005b      	lsls	r3, r3, #1
 800171c:	429a      	cmp	r2, r3
 800171e:	d300      	bcc.n	8001722 <HAL_GPIO_EXTI_Falling_Callback+0x162>
 8001720:	e0ea      	b.n	80018f8 <HAL_GPIO_EXTI_Falling_Callback+0x338>
				{
					if(touch_count == 0)
 8001722:	4b88      	ldr	r3, [pc, #544]	; (8001944 <HAL_GPIO_EXTI_Falling_Callback+0x384>)
 8001724:	781b      	ldrb	r3, [r3, #0]
 8001726:	2b00      	cmp	r3, #0
 8001728:	d10a      	bne.n	8001740 <HAL_GPIO_EXTI_Falling_Callback+0x180>
					{
						touch_count = 1;
 800172a:	4b86      	ldr	r3, [pc, #536]	; (8001944 <HAL_GPIO_EXTI_Falling_Callback+0x384>)
 800172c:	2201      	movs	r2, #1
 800172e:	701a      	strb	r2, [r3, #0]
						mSecDoubleTouch = 0;
 8001730:	4b85      	ldr	r3, [pc, #532]	; (8001948 <HAL_GPIO_EXTI_Falling_Callback+0x388>)
 8001732:	2200      	movs	r2, #0
 8001734:	801a      	strh	r2, [r3, #0]
						mSecTouch = mSec;
 8001736:	4b79      	ldr	r3, [pc, #484]	; (800191c <HAL_GPIO_EXTI_Falling_Callback+0x35c>)
 8001738:	881a      	ldrh	r2, [r3, #0]
 800173a:	4b84      	ldr	r3, [pc, #528]	; (800194c <HAL_GPIO_EXTI_Falling_Callback+0x38c>)
 800173c:	801a      	strh	r2, [r3, #0]
 800173e:	e0db      	b.n	80018f8 <HAL_GPIO_EXTI_Falling_Callback+0x338>
					}
					else if((touch_count == 1)&&(mSecDoubleTouch < MAXIMUM_DOUBLE_TOUCH_TIME))
 8001740:	4b80      	ldr	r3, [pc, #512]	; (8001944 <HAL_GPIO_EXTI_Falling_Callback+0x384>)
 8001742:	781b      	ldrb	r3, [r3, #0]
 8001744:	2b01      	cmp	r3, #1
 8001746:	d000      	beq.n	800174a <HAL_GPIO_EXTI_Falling_Callback+0x18a>
 8001748:	e0d6      	b.n	80018f8 <HAL_GPIO_EXTI_Falling_Callback+0x338>
 800174a:	4b7f      	ldr	r3, [pc, #508]	; (8001948 <HAL_GPIO_EXTI_Falling_Callback+0x388>)
 800174c:	881a      	ldrh	r2, [r3, #0]
 800174e:	23fa      	movs	r3, #250	; 0xfa
 8001750:	005b      	lsls	r3, r3, #1
 8001752:	429a      	cmp	r2, r3
 8001754:	d300      	bcc.n	8001758 <HAL_GPIO_EXTI_Falling_Callback+0x198>
 8001756:	e0cf      	b.n	80018f8 <HAL_GPIO_EXTI_Falling_Callback+0x338>
					{
						if(Power == On)
 8001758:	4b76      	ldr	r3, [pc, #472]	; (8001934 <HAL_GPIO_EXTI_Falling_Callback+0x374>)
 800175a:	781b      	ldrb	r3, [r3, #0]
 800175c:	2b01      	cmp	r3, #1
 800175e:	d000      	beq.n	8001762 <HAL_GPIO_EXTI_Falling_Callback+0x1a2>
 8001760:	e0c0      	b.n	80018e4 <HAL_GPIO_EXTI_Falling_Callback+0x324>
						{
							/*	if(Channel == 1) Channel = 2;
							else if(Channel == 2) Channel = 1;*/
							Channel ++;
 8001762:	4b75      	ldr	r3, [pc, #468]	; (8001938 <HAL_GPIO_EXTI_Falling_Callback+0x378>)
 8001764:	781b      	ldrb	r3, [r3, #0]
 8001766:	3301      	adds	r3, #1
 8001768:	b2da      	uxtb	r2, r3
 800176a:	4b73      	ldr	r3, [pc, #460]	; (8001938 <HAL_GPIO_EXTI_Falling_Callback+0x378>)
 800176c:	701a      	strb	r2, [r3, #0]
							// Channel = 3 son due canali in sincrono
							if (Channel == 3)
 800176e:	4b72      	ldr	r3, [pc, #456]	; (8001938 <HAL_GPIO_EXTI_Falling_Callback+0x378>)
 8001770:	781b      	ldrb	r3, [r3, #0]
 8001772:	2b03      	cmp	r3, #3
 8001774:	d000      	beq.n	8001778 <HAL_GPIO_EXTI_Falling_Callback+0x1b8>
 8001776:	e0ae      	b.n	80018d6 <HAL_GPIO_EXTI_Falling_Callback+0x316>
							{
								if (DimmingLevelCh2 == DimmingLevelCh1)
 8001778:	4b75      	ldr	r3, [pc, #468]	; (8001950 <HAL_GPIO_EXTI_Falling_Callback+0x390>)
 800177a:	781a      	ldrb	r2, [r3, #0]
 800177c:	4b75      	ldr	r3, [pc, #468]	; (8001954 <HAL_GPIO_EXTI_Falling_Callback+0x394>)
 800177e:	781b      	ldrb	r3, [r3, #0]
 8001780:	429a      	cmp	r2, r3
 8001782:	d106      	bne.n	8001792 <HAL_GPIO_EXTI_Falling_Callback+0x1d2>
								{
									DimmingDirectionCh1 = Up;
 8001784:	4b6d      	ldr	r3, [pc, #436]	; (800193c <HAL_GPIO_EXTI_Falling_Callback+0x37c>)
 8001786:	2201      	movs	r2, #1
 8001788:	701a      	strb	r2, [r3, #0]
									DimmingDirectionCh2 = Up;
 800178a:	4b6d      	ldr	r3, [pc, #436]	; (8001940 <HAL_GPIO_EXTI_Falling_Callback+0x380>)
 800178c:	2201      	movs	r2, #1
 800178e:	701a      	strb	r2, [r3, #0]
 8001790:	e0a1      	b.n	80018d6 <HAL_GPIO_EXTI_Falling_Callback+0x316>
								}
								else
								{
									DimmingDirectionCh1 = Up;
 8001792:	4b6a      	ldr	r3, [pc, #424]	; (800193c <HAL_GPIO_EXTI_Falling_Callback+0x37c>)
 8001794:	2201      	movs	r2, #1
 8001796:	701a      	strb	r2, [r3, #0]
									DimmingDirectionCh2 = Up;
 8001798:	4b69      	ldr	r3, [pc, #420]	; (8001940 <HAL_GPIO_EXTI_Falling_Callback+0x380>)
 800179a:	2201      	movs	r2, #1
 800179c:	701a      	strb	r2, [r3, #0]

									// Ch1 = 70 Ch2 = 90
									uint16_t half_dimming_level = (DimmingLevelCh2 + DimmingLevelCh1) / 2;
 800179e:	4b6c      	ldr	r3, [pc, #432]	; (8001950 <HAL_GPIO_EXTI_Falling_Callback+0x390>)
 80017a0:	781b      	ldrb	r3, [r3, #0]
 80017a2:	001a      	movs	r2, r3
 80017a4:	4b6b      	ldr	r3, [pc, #428]	; (8001954 <HAL_GPIO_EXTI_Falling_Callback+0x394>)
 80017a6:	781b      	ldrb	r3, [r3, #0]
 80017a8:	18d3      	adds	r3, r2, r3
 80017aa:	2b00      	cmp	r3, #0
 80017ac:	da00      	bge.n	80017b0 <HAL_GPIO_EXTI_Falling_Callback+0x1f0>
 80017ae:	3301      	adds	r3, #1
 80017b0:	105b      	asrs	r3, r3, #1
 80017b2:	001a      	movs	r2, r3
 80017b4:	230c      	movs	r3, #12
 80017b6:	18fb      	adds	r3, r7, r3
 80017b8:	801a      	strh	r2, [r3, #0]
									if (DimmingLevelCh1 < DimmingLevelCh2)
 80017ba:	4b66      	ldr	r3, [pc, #408]	; (8001954 <HAL_GPIO_EXTI_Falling_Callback+0x394>)
 80017bc:	781a      	ldrb	r2, [r3, #0]
 80017be:	4b64      	ldr	r3, [pc, #400]	; (8001950 <HAL_GPIO_EXTI_Falling_Callback+0x390>)
 80017c0:	781b      	ldrb	r3, [r3, #0]
 80017c2:	429a      	cmp	r2, r3
 80017c4:	d261      	bcs.n	800188a <HAL_GPIO_EXTI_Falling_Callback+0x2ca>
									{
										for (; DimmingLevelCh1 <= half_dimming_level; DimmingLevelCh1 ++)
 80017c6:	e02b      	b.n	8001820 <HAL_GPIO_EXTI_Falling_Callback+0x260>
										{
											i = AUTOMATIC_RAMP_DELAY_TIME;
 80017c8:	4b63      	ldr	r3, [pc, #396]	; (8001958 <HAL_GPIO_EXTI_Falling_Callback+0x398>)
 80017ca:	4a64      	ldr	r2, [pc, #400]	; (800195c <HAL_GPIO_EXTI_Falling_Callback+0x39c>)
 80017cc:	801a      	strh	r2, [r3, #0]
											while(--i > 1) asm("NOP");
 80017ce:	e000      	b.n	80017d2 <HAL_GPIO_EXTI_Falling_Callback+0x212>
 80017d0:	46c0      	nop			; (mov r8, r8)
 80017d2:	4b61      	ldr	r3, [pc, #388]	; (8001958 <HAL_GPIO_EXTI_Falling_Callback+0x398>)
 80017d4:	881b      	ldrh	r3, [r3, #0]
 80017d6:	3b01      	subs	r3, #1
 80017d8:	b29a      	uxth	r2, r3
 80017da:	4b5f      	ldr	r3, [pc, #380]	; (8001958 <HAL_GPIO_EXTI_Falling_Callback+0x398>)
 80017dc:	801a      	strh	r2, [r3, #0]
 80017de:	4b5e      	ldr	r3, [pc, #376]	; (8001958 <HAL_GPIO_EXTI_Falling_Callback+0x398>)
 80017e0:	881b      	ldrh	r3, [r3, #0]
 80017e2:	2b01      	cmp	r3, #1
 80017e4:	d8f4      	bhi.n	80017d0 <HAL_GPIO_EXTI_Falling_Callback+0x210>

											TxBuffer[0] = 0;
 80017e6:	4b5e      	ldr	r3, [pc, #376]	; (8001960 <HAL_GPIO_EXTI_Falling_Callback+0x3a0>)
 80017e8:	2200      	movs	r2, #0
 80017ea:	701a      	strb	r2, [r3, #0]
											TxBuffer[1] = DimmingLevelCh1;
 80017ec:	4b59      	ldr	r3, [pc, #356]	; (8001954 <HAL_GPIO_EXTI_Falling_Callback+0x394>)
 80017ee:	781a      	ldrb	r2, [r3, #0]
 80017f0:	4b5b      	ldr	r3, [pc, #364]	; (8001960 <HAL_GPIO_EXTI_Falling_Callback+0x3a0>)
 80017f2:	705a      	strb	r2, [r3, #1]
											TxBuffer[2] = DimmingLevelCh2;
 80017f4:	4b56      	ldr	r3, [pc, #344]	; (8001950 <HAL_GPIO_EXTI_Falling_Callback+0x390>)
 80017f6:	781a      	ldrb	r2, [r3, #0]
 80017f8:	4b59      	ldr	r3, [pc, #356]	; (8001960 <HAL_GPIO_EXTI_Falling_Callback+0x3a0>)
 80017fa:	709a      	strb	r2, [r3, #2]
											HAL_UART_Transmit(&huart1, TxBuffer, 3, 10);
 80017fc:	4958      	ldr	r1, [pc, #352]	; (8001960 <HAL_GPIO_EXTI_Falling_Callback+0x3a0>)
 80017fe:	4859      	ldr	r0, [pc, #356]	; (8001964 <HAL_GPIO_EXTI_Falling_Callback+0x3a4>)
 8001800:	230a      	movs	r3, #10
 8001802:	2203      	movs	r2, #3
 8001804:	f004 fec6 	bl	8006594 <HAL_UART_Transmit>
											DimmingLevelCh2 --;
 8001808:	4b51      	ldr	r3, [pc, #324]	; (8001950 <HAL_GPIO_EXTI_Falling_Callback+0x390>)
 800180a:	781b      	ldrb	r3, [r3, #0]
 800180c:	3b01      	subs	r3, #1
 800180e:	b2da      	uxtb	r2, r3
 8001810:	4b4f      	ldr	r3, [pc, #316]	; (8001950 <HAL_GPIO_EXTI_Falling_Callback+0x390>)
 8001812:	701a      	strb	r2, [r3, #0]
										for (; DimmingLevelCh1 <= half_dimming_level; DimmingLevelCh1 ++)
 8001814:	4b4f      	ldr	r3, [pc, #316]	; (8001954 <HAL_GPIO_EXTI_Falling_Callback+0x394>)
 8001816:	781b      	ldrb	r3, [r3, #0]
 8001818:	3301      	adds	r3, #1
 800181a:	b2da      	uxtb	r2, r3
 800181c:	4b4d      	ldr	r3, [pc, #308]	; (8001954 <HAL_GPIO_EXTI_Falling_Callback+0x394>)
 800181e:	701a      	strb	r2, [r3, #0]
 8001820:	4b4c      	ldr	r3, [pc, #304]	; (8001954 <HAL_GPIO_EXTI_Falling_Callback+0x394>)
 8001822:	781b      	ldrb	r3, [r3, #0]
 8001824:	b29b      	uxth	r3, r3
 8001826:	220c      	movs	r2, #12
 8001828:	18ba      	adds	r2, r7, r2
 800182a:	8812      	ldrh	r2, [r2, #0]
 800182c:	429a      	cmp	r2, r3
 800182e:	d2cb      	bcs.n	80017c8 <HAL_GPIO_EXTI_Falling_Callback+0x208>
 8001830:	e033      	b.n	800189a <HAL_GPIO_EXTI_Falling_Callback+0x2da>
									}
									else
									{
										for (; DimmingLevelCh2 <= half_dimming_level; DimmingLevelCh2 ++)
										{
											i = AUTOMATIC_RAMP_DELAY_TIME;
 8001832:	4b49      	ldr	r3, [pc, #292]	; (8001958 <HAL_GPIO_EXTI_Falling_Callback+0x398>)
 8001834:	4a49      	ldr	r2, [pc, #292]	; (800195c <HAL_GPIO_EXTI_Falling_Callback+0x39c>)
 8001836:	801a      	strh	r2, [r3, #0]
											while(--i > 1) asm("NOP");
 8001838:	e000      	b.n	800183c <HAL_GPIO_EXTI_Falling_Callback+0x27c>
 800183a:	46c0      	nop			; (mov r8, r8)
 800183c:	4b46      	ldr	r3, [pc, #280]	; (8001958 <HAL_GPIO_EXTI_Falling_Callback+0x398>)
 800183e:	881b      	ldrh	r3, [r3, #0]
 8001840:	3b01      	subs	r3, #1
 8001842:	b29a      	uxth	r2, r3
 8001844:	4b44      	ldr	r3, [pc, #272]	; (8001958 <HAL_GPIO_EXTI_Falling_Callback+0x398>)
 8001846:	801a      	strh	r2, [r3, #0]
 8001848:	4b43      	ldr	r3, [pc, #268]	; (8001958 <HAL_GPIO_EXTI_Falling_Callback+0x398>)
 800184a:	881b      	ldrh	r3, [r3, #0]
 800184c:	2b01      	cmp	r3, #1
 800184e:	d8f4      	bhi.n	800183a <HAL_GPIO_EXTI_Falling_Callback+0x27a>

											TxBuffer[0] = 0;
 8001850:	4b43      	ldr	r3, [pc, #268]	; (8001960 <HAL_GPIO_EXTI_Falling_Callback+0x3a0>)
 8001852:	2200      	movs	r2, #0
 8001854:	701a      	strb	r2, [r3, #0]
											TxBuffer[1] = DimmingLevelCh1;
 8001856:	4b3f      	ldr	r3, [pc, #252]	; (8001954 <HAL_GPIO_EXTI_Falling_Callback+0x394>)
 8001858:	781a      	ldrb	r2, [r3, #0]
 800185a:	4b41      	ldr	r3, [pc, #260]	; (8001960 <HAL_GPIO_EXTI_Falling_Callback+0x3a0>)
 800185c:	705a      	strb	r2, [r3, #1]
											TxBuffer[2] = DimmingLevelCh2;
 800185e:	4b3c      	ldr	r3, [pc, #240]	; (8001950 <HAL_GPIO_EXTI_Falling_Callback+0x390>)
 8001860:	781a      	ldrb	r2, [r3, #0]
 8001862:	4b3f      	ldr	r3, [pc, #252]	; (8001960 <HAL_GPIO_EXTI_Falling_Callback+0x3a0>)
 8001864:	709a      	strb	r2, [r3, #2]
											HAL_UART_Transmit(&huart1, TxBuffer, 3, 10);
 8001866:	493e      	ldr	r1, [pc, #248]	; (8001960 <HAL_GPIO_EXTI_Falling_Callback+0x3a0>)
 8001868:	483e      	ldr	r0, [pc, #248]	; (8001964 <HAL_GPIO_EXTI_Falling_Callback+0x3a4>)
 800186a:	230a      	movs	r3, #10
 800186c:	2203      	movs	r2, #3
 800186e:	f004 fe91 	bl	8006594 <HAL_UART_Transmit>
											DimmingLevelCh1 --;
 8001872:	4b38      	ldr	r3, [pc, #224]	; (8001954 <HAL_GPIO_EXTI_Falling_Callback+0x394>)
 8001874:	781b      	ldrb	r3, [r3, #0]
 8001876:	3b01      	subs	r3, #1
 8001878:	b2da      	uxtb	r2, r3
 800187a:	4b36      	ldr	r3, [pc, #216]	; (8001954 <HAL_GPIO_EXTI_Falling_Callback+0x394>)
 800187c:	701a      	strb	r2, [r3, #0]
										for (; DimmingLevelCh2 <= half_dimming_level; DimmingLevelCh2 ++)
 800187e:	4b34      	ldr	r3, [pc, #208]	; (8001950 <HAL_GPIO_EXTI_Falling_Callback+0x390>)
 8001880:	781b      	ldrb	r3, [r3, #0]
 8001882:	3301      	adds	r3, #1
 8001884:	b2da      	uxtb	r2, r3
 8001886:	4b32      	ldr	r3, [pc, #200]	; (8001950 <HAL_GPIO_EXTI_Falling_Callback+0x390>)
 8001888:	701a      	strb	r2, [r3, #0]
 800188a:	4b31      	ldr	r3, [pc, #196]	; (8001950 <HAL_GPIO_EXTI_Falling_Callback+0x390>)
 800188c:	781b      	ldrb	r3, [r3, #0]
 800188e:	b29b      	uxth	r3, r3
 8001890:	220c      	movs	r2, #12
 8001892:	18ba      	adds	r2, r7, r2
 8001894:	8812      	ldrh	r2, [r2, #0]
 8001896:	429a      	cmp	r2, r3
 8001898:	d2cb      	bcs.n	8001832 <HAL_GPIO_EXTI_Falling_Callback+0x272>
										}
									}

									TxBuffer[0] = 0;
 800189a:	4b31      	ldr	r3, [pc, #196]	; (8001960 <HAL_GPIO_EXTI_Falling_Callback+0x3a0>)
 800189c:	2200      	movs	r2, #0
 800189e:	701a      	strb	r2, [r3, #0]
									TxBuffer[1] = half_dimming_level;
 80018a0:	210c      	movs	r1, #12
 80018a2:	187b      	adds	r3, r7, r1
 80018a4:	881b      	ldrh	r3, [r3, #0]
 80018a6:	b2da      	uxtb	r2, r3
 80018a8:	4b2d      	ldr	r3, [pc, #180]	; (8001960 <HAL_GPIO_EXTI_Falling_Callback+0x3a0>)
 80018aa:	705a      	strb	r2, [r3, #1]
									TxBuffer[2] = half_dimming_level;
 80018ac:	187b      	adds	r3, r7, r1
 80018ae:	881b      	ldrh	r3, [r3, #0]
 80018b0:	b2da      	uxtb	r2, r3
 80018b2:	4b2b      	ldr	r3, [pc, #172]	; (8001960 <HAL_GPIO_EXTI_Falling_Callback+0x3a0>)
 80018b4:	709a      	strb	r2, [r3, #2]

									DimmingLevelCh1 = half_dimming_level;
 80018b6:	187b      	adds	r3, r7, r1
 80018b8:	881b      	ldrh	r3, [r3, #0]
 80018ba:	b2da      	uxtb	r2, r3
 80018bc:	4b25      	ldr	r3, [pc, #148]	; (8001954 <HAL_GPIO_EXTI_Falling_Callback+0x394>)
 80018be:	701a      	strb	r2, [r3, #0]
									DimmingLevelCh2 = DimmingLevelCh1;
 80018c0:	4b24      	ldr	r3, [pc, #144]	; (8001954 <HAL_GPIO_EXTI_Falling_Callback+0x394>)
 80018c2:	781a      	ldrb	r2, [r3, #0]
 80018c4:	4b22      	ldr	r3, [pc, #136]	; (8001950 <HAL_GPIO_EXTI_Falling_Callback+0x390>)
 80018c6:	701a      	strb	r2, [r3, #0]
									HAL_UART_Transmit(&huart1, TxBuffer, 3, 10);
 80018c8:	4925      	ldr	r1, [pc, #148]	; (8001960 <HAL_GPIO_EXTI_Falling_Callback+0x3a0>)
 80018ca:	4826      	ldr	r0, [pc, #152]	; (8001964 <HAL_GPIO_EXTI_Falling_Callback+0x3a4>)
 80018cc:	230a      	movs	r3, #10
 80018ce:	2203      	movs	r2, #3
 80018d0:	f004 fe60 	bl	8006594 <HAL_UART_Transmit>
									 asm("NOP");
 80018d4:	46c0      	nop			; (mov r8, r8)
								}
							}
							if (Channel > 3) Channel = 1;
 80018d6:	4b18      	ldr	r3, [pc, #96]	; (8001938 <HAL_GPIO_EXTI_Falling_Callback+0x378>)
 80018d8:	781b      	ldrb	r3, [r3, #0]
 80018da:	2b03      	cmp	r3, #3
 80018dc:	d902      	bls.n	80018e4 <HAL_GPIO_EXTI_Falling_Callback+0x324>
 80018de:	4b16      	ldr	r3, [pc, #88]	; (8001938 <HAL_GPIO_EXTI_Falling_Callback+0x378>)
 80018e0:	2201      	movs	r2, #1
 80018e2:	701a      	strb	r2, [r3, #0]

						}
						touch_count = 0;
 80018e4:	4b17      	ldr	r3, [pc, #92]	; (8001944 <HAL_GPIO_EXTI_Falling_Callback+0x384>)
 80018e6:	2200      	movs	r2, #0
 80018e8:	701a      	strb	r2, [r3, #0]
						channel_is_changed = 1;
 80018ea:	4b0e      	ldr	r3, [pc, #56]	; (8001924 <HAL_GPIO_EXTI_Falling_Callback+0x364>)
 80018ec:	2201      	movs	r2, #1
 80018ee:	701a      	strb	r2, [r3, #0]
						mSecTouch = MAXIMUM_SHORT_TOUCH_TIME + 1;
 80018f0:	4b16      	ldr	r3, [pc, #88]	; (800194c <HAL_GPIO_EXTI_Falling_Callback+0x38c>)
 80018f2:	2292      	movs	r2, #146	; 0x92
 80018f4:	32ff      	adds	r2, #255	; 0xff
 80018f6:	801a      	strh	r2, [r3, #0]
					}
				}
			}
			htim2.Instance->CCR1 = MIN_LED_BLUE_LEVEL;										//Led Blue
 80018f8:	4b0b      	ldr	r3, [pc, #44]	; (8001928 <HAL_GPIO_EXTI_Falling_Callback+0x368>)
 80018fa:	681b      	ldr	r3, [r3, #0]
 80018fc:	2232      	movs	r2, #50	; 0x32
 80018fe:	635a      	str	r2, [r3, #52]	; 0x34
			}
		}
	}
//#endif
}
}
 8001900:	e173      	b.n	8001bea <HAL_GPIO_EXTI_Falling_Callback+0x62a>
 8001902:	46c0      	nop			; (mov r8, r8)
 8001904:	200000ce 	.word	0x200000ce
 8001908:	20000114 	.word	0x20000114
 800190c:	0000ffff 	.word	0x0000ffff
 8001910:	00004268 	.word	0x00004268
 8001914:	20000012 	.word	0x20000012
 8001918:	200000cf 	.word	0x200000cf
 800191c:	200000d6 	.word	0x200000d6
 8001920:	200000d0 	.word	0x200000d0
 8001924:	200000f0 	.word	0x200000f0
 8001928:	2000026c 	.word	0x2000026c
 800192c:	00004650 	.word	0x00004650
 8001930:	200000ec 	.word	0x200000ec
 8001934:	200000cd 	.word	0x200000cd
 8001938:	20000015 	.word	0x20000015
 800193c:	20000010 	.word	0x20000010
 8001940:	20000011 	.word	0x20000011
 8001944:	200000ed 	.word	0x200000ed
 8001948:	200000ee 	.word	0x200000ee
 800194c:	200000f2 	.word	0x200000f2
 8001950:	20000014 	.word	0x20000014
 8001954:	20000013 	.word	0x20000013
 8001958:	200000e0 	.word	0x200000e0
 800195c:	00000bb8 	.word	0x00000bb8
 8001960:	200000e4 	.word	0x200000e4
 8001964:	200001dc 	.word	0x200001dc
if(GPIO_Pin == TOUCH_Pin)
 8001968:	1dbb      	adds	r3, r7, #6
 800196a:	881b      	ldrh	r3, [r3, #0]
 800196c:	2b08      	cmp	r3, #8
 800196e:	d000      	beq.n	8001972 <HAL_GPIO_EXTI_Falling_Callback+0x3b2>
 8001970:	e13b      	b.n	8001bea <HAL_GPIO_EXTI_Falling_Callback+0x62a>
		if(RisingEdge)
 8001972:	4ba0      	ldr	r3, [pc, #640]	; (8001bf4 <HAL_GPIO_EXTI_Falling_Callback+0x634>)
 8001974:	781b      	ldrb	r3, [r3, #0]
 8001976:	2b00      	cmp	r3, #0
 8001978:	d100      	bne.n	800197c <HAL_GPIO_EXTI_Falling_Callback+0x3bc>
 800197a:	e136      	b.n	8001bea <HAL_GPIO_EXTI_Falling_Callback+0x62a>
			FallingEdge = 1;
 800197c:	4b9e      	ldr	r3, [pc, #632]	; (8001bf8 <HAL_GPIO_EXTI_Falling_Callback+0x638>)
 800197e:	2201      	movs	r2, #1
 8001980:	701a      	strb	r2, [r3, #0]
			RisingEdge = 0;
 8001982:	4b9c      	ldr	r3, [pc, #624]	; (8001bf4 <HAL_GPIO_EXTI_Falling_Callback+0x634>)
 8001984:	2200      	movs	r2, #0
 8001986:	701a      	strb	r2, [r3, #0]
			TimeOut = 1;
 8001988:	4b9c      	ldr	r3, [pc, #624]	; (8001bfc <HAL_GPIO_EXTI_Falling_Callback+0x63c>)
 800198a:	2201      	movs	r2, #1
 800198c:	701a      	strb	r2, [r3, #0]
			is_to_ceck = 1;
 800198e:	4b9c      	ldr	r3, [pc, #624]	; (8001c00 <HAL_GPIO_EXTI_Falling_Callback+0x640>)
 8001990:	2201      	movs	r2, #1
 8001992:	701a      	strb	r2, [r3, #0]
			if((mSec > MAXIMUM_SHORT_TOUCH_TIME)&&(Power == On))
 8001994:	4b9b      	ldr	r3, [pc, #620]	; (8001c04 <HAL_GPIO_EXTI_Falling_Callback+0x644>)
 8001996:	881a      	ldrh	r2, [r3, #0]
 8001998:	23c8      	movs	r3, #200	; 0xc8
 800199a:	005b      	lsls	r3, r3, #1
 800199c:	429a      	cmp	r2, r3
 800199e:	d932      	bls.n	8001a06 <HAL_GPIO_EXTI_Falling_Callback+0x446>
 80019a0:	4b99      	ldr	r3, [pc, #612]	; (8001c08 <HAL_GPIO_EXTI_Falling_Callback+0x648>)
 80019a2:	781b      	ldrb	r3, [r3, #0]
 80019a4:	2b01      	cmp	r3, #1
 80019a6:	d12e      	bne.n	8001a06 <HAL_GPIO_EXTI_Falling_Callback+0x446>
				if(Channel == 1)
 80019a8:	4b98      	ldr	r3, [pc, #608]	; (8001c0c <HAL_GPIO_EXTI_Falling_Callback+0x64c>)
 80019aa:	781b      	ldrb	r3, [r3, #0]
 80019ac:	2b01      	cmp	r3, #1
 80019ae:	d10b      	bne.n	80019c8 <HAL_GPIO_EXTI_Falling_Callback+0x408>
					if(DimmingDirectionCh1 == Up) DimmingDirectionCh1 = Down;
 80019b0:	4b97      	ldr	r3, [pc, #604]	; (8001c10 <HAL_GPIO_EXTI_Falling_Callback+0x650>)
 80019b2:	781b      	ldrb	r3, [r3, #0]
 80019b4:	2b01      	cmp	r3, #1
 80019b6:	d103      	bne.n	80019c0 <HAL_GPIO_EXTI_Falling_Callback+0x400>
 80019b8:	4b95      	ldr	r3, [pc, #596]	; (8001c10 <HAL_GPIO_EXTI_Falling_Callback+0x650>)
 80019ba:	2200      	movs	r2, #0
 80019bc:	701a      	strb	r2, [r3, #0]
 80019be:	e022      	b.n	8001a06 <HAL_GPIO_EXTI_Falling_Callback+0x446>
					else DimmingDirectionCh1 = Up;
 80019c0:	4b93      	ldr	r3, [pc, #588]	; (8001c10 <HAL_GPIO_EXTI_Falling_Callback+0x650>)
 80019c2:	2201      	movs	r2, #1
 80019c4:	701a      	strb	r2, [r3, #0]
 80019c6:	e01e      	b.n	8001a06 <HAL_GPIO_EXTI_Falling_Callback+0x446>
				else if(Channel == 2)
 80019c8:	4b90      	ldr	r3, [pc, #576]	; (8001c0c <HAL_GPIO_EXTI_Falling_Callback+0x64c>)
 80019ca:	781b      	ldrb	r3, [r3, #0]
 80019cc:	2b02      	cmp	r3, #2
 80019ce:	d10b      	bne.n	80019e8 <HAL_GPIO_EXTI_Falling_Callback+0x428>
					if(DimmingDirectionCh2 == Up) DimmingDirectionCh2 = Down;
 80019d0:	4b90      	ldr	r3, [pc, #576]	; (8001c14 <HAL_GPIO_EXTI_Falling_Callback+0x654>)
 80019d2:	781b      	ldrb	r3, [r3, #0]
 80019d4:	2b01      	cmp	r3, #1
 80019d6:	d103      	bne.n	80019e0 <HAL_GPIO_EXTI_Falling_Callback+0x420>
 80019d8:	4b8e      	ldr	r3, [pc, #568]	; (8001c14 <HAL_GPIO_EXTI_Falling_Callback+0x654>)
 80019da:	2200      	movs	r2, #0
 80019dc:	701a      	strb	r2, [r3, #0]
 80019de:	e012      	b.n	8001a06 <HAL_GPIO_EXTI_Falling_Callback+0x446>
					else DimmingDirectionCh2 = Up;
 80019e0:	4b8c      	ldr	r3, [pc, #560]	; (8001c14 <HAL_GPIO_EXTI_Falling_Callback+0x654>)
 80019e2:	2201      	movs	r2, #1
 80019e4:	701a      	strb	r2, [r3, #0]
 80019e6:	e00e      	b.n	8001a06 <HAL_GPIO_EXTI_Falling_Callback+0x446>
				else if(Channel == 3)
 80019e8:	4b88      	ldr	r3, [pc, #544]	; (8001c0c <HAL_GPIO_EXTI_Falling_Callback+0x64c>)
 80019ea:	781b      	ldrb	r3, [r3, #0]
 80019ec:	2b03      	cmp	r3, #3
 80019ee:	d10a      	bne.n	8001a06 <HAL_GPIO_EXTI_Falling_Callback+0x446>
					if(DimmingDirectionCh2 == Up) DimmingDirectionCh2 = Down;
 80019f0:	4b88      	ldr	r3, [pc, #544]	; (8001c14 <HAL_GPIO_EXTI_Falling_Callback+0x654>)
 80019f2:	781b      	ldrb	r3, [r3, #0]
 80019f4:	2b01      	cmp	r3, #1
 80019f6:	d103      	bne.n	8001a00 <HAL_GPIO_EXTI_Falling_Callback+0x440>
 80019f8:	4b86      	ldr	r3, [pc, #536]	; (8001c14 <HAL_GPIO_EXTI_Falling_Callback+0x654>)
 80019fa:	2200      	movs	r2, #0
 80019fc:	701a      	strb	r2, [r3, #0]
 80019fe:	e002      	b.n	8001a06 <HAL_GPIO_EXTI_Falling_Callback+0x446>
					else DimmingDirectionCh2 = Up;
 8001a00:	4b84      	ldr	r3, [pc, #528]	; (8001c14 <HAL_GPIO_EXTI_Falling_Callback+0x654>)
 8001a02:	2201      	movs	r2, #1
 8001a04:	701a      	strb	r2, [r3, #0]
			if(mSec < MAXIMUM_SHORT_TOUCH_TIME)
 8001a06:	4b7f      	ldr	r3, [pc, #508]	; (8001c04 <HAL_GPIO_EXTI_Falling_Callback+0x644>)
 8001a08:	881a      	ldrh	r2, [r3, #0]
 8001a0a:	23c8      	movs	r3, #200	; 0xc8
 8001a0c:	005b      	lsls	r3, r3, #1
 8001a0e:	429a      	cmp	r2, r3
 8001a10:	d300      	bcc.n	8001a14 <HAL_GPIO_EXTI_Falling_Callback+0x454>
 8001a12:	e0ea      	b.n	8001bea <HAL_GPIO_EXTI_Falling_Callback+0x62a>
				if(touch_count == 0)
 8001a14:	4b80      	ldr	r3, [pc, #512]	; (8001c18 <HAL_GPIO_EXTI_Falling_Callback+0x658>)
 8001a16:	781b      	ldrb	r3, [r3, #0]
 8001a18:	2b00      	cmp	r3, #0
 8001a1a:	d10a      	bne.n	8001a32 <HAL_GPIO_EXTI_Falling_Callback+0x472>
					touch_count = 1;
 8001a1c:	4b7e      	ldr	r3, [pc, #504]	; (8001c18 <HAL_GPIO_EXTI_Falling_Callback+0x658>)
 8001a1e:	2201      	movs	r2, #1
 8001a20:	701a      	strb	r2, [r3, #0]
					mSecDoubleTouch = 0;
 8001a22:	4b7e      	ldr	r3, [pc, #504]	; (8001c1c <HAL_GPIO_EXTI_Falling_Callback+0x65c>)
 8001a24:	2200      	movs	r2, #0
 8001a26:	801a      	strh	r2, [r3, #0]
					mSecTouch = mSec;
 8001a28:	4b76      	ldr	r3, [pc, #472]	; (8001c04 <HAL_GPIO_EXTI_Falling_Callback+0x644>)
 8001a2a:	881a      	ldrh	r2, [r3, #0]
 8001a2c:	4b7c      	ldr	r3, [pc, #496]	; (8001c20 <HAL_GPIO_EXTI_Falling_Callback+0x660>)
 8001a2e:	801a      	strh	r2, [r3, #0]
}
 8001a30:	e0db      	b.n	8001bea <HAL_GPIO_EXTI_Falling_Callback+0x62a>
				else if((touch_count == 1)&&(mSecDoubleTouch < MAXIMUM_DOUBLE_TOUCH_TIME))
 8001a32:	4b79      	ldr	r3, [pc, #484]	; (8001c18 <HAL_GPIO_EXTI_Falling_Callback+0x658>)
 8001a34:	781b      	ldrb	r3, [r3, #0]
 8001a36:	2b01      	cmp	r3, #1
 8001a38:	d000      	beq.n	8001a3c <HAL_GPIO_EXTI_Falling_Callback+0x47c>
 8001a3a:	e0d6      	b.n	8001bea <HAL_GPIO_EXTI_Falling_Callback+0x62a>
 8001a3c:	4b77      	ldr	r3, [pc, #476]	; (8001c1c <HAL_GPIO_EXTI_Falling_Callback+0x65c>)
 8001a3e:	881a      	ldrh	r2, [r3, #0]
 8001a40:	23fa      	movs	r3, #250	; 0xfa
 8001a42:	005b      	lsls	r3, r3, #1
 8001a44:	429a      	cmp	r2, r3
 8001a46:	d300      	bcc.n	8001a4a <HAL_GPIO_EXTI_Falling_Callback+0x48a>
 8001a48:	e0cf      	b.n	8001bea <HAL_GPIO_EXTI_Falling_Callback+0x62a>
					if(Power == On)
 8001a4a:	4b6f      	ldr	r3, [pc, #444]	; (8001c08 <HAL_GPIO_EXTI_Falling_Callback+0x648>)
 8001a4c:	781b      	ldrb	r3, [r3, #0]
 8001a4e:	2b01      	cmp	r3, #1
 8001a50:	d000      	beq.n	8001a54 <HAL_GPIO_EXTI_Falling_Callback+0x494>
 8001a52:	e0c0      	b.n	8001bd6 <HAL_GPIO_EXTI_Falling_Callback+0x616>
						Channel ++;
 8001a54:	4b6d      	ldr	r3, [pc, #436]	; (8001c0c <HAL_GPIO_EXTI_Falling_Callback+0x64c>)
 8001a56:	781b      	ldrb	r3, [r3, #0]
 8001a58:	3301      	adds	r3, #1
 8001a5a:	b2da      	uxtb	r2, r3
 8001a5c:	4b6b      	ldr	r3, [pc, #428]	; (8001c0c <HAL_GPIO_EXTI_Falling_Callback+0x64c>)
 8001a5e:	701a      	strb	r2, [r3, #0]
						if (Channel == 3)
 8001a60:	4b6a      	ldr	r3, [pc, #424]	; (8001c0c <HAL_GPIO_EXTI_Falling_Callback+0x64c>)
 8001a62:	781b      	ldrb	r3, [r3, #0]
 8001a64:	2b03      	cmp	r3, #3
 8001a66:	d000      	beq.n	8001a6a <HAL_GPIO_EXTI_Falling_Callback+0x4aa>
 8001a68:	e0ae      	b.n	8001bc8 <HAL_GPIO_EXTI_Falling_Callback+0x608>
							if (DimmingLevelCh2 == DimmingLevelCh1)
 8001a6a:	4b6e      	ldr	r3, [pc, #440]	; (8001c24 <HAL_GPIO_EXTI_Falling_Callback+0x664>)
 8001a6c:	781a      	ldrb	r2, [r3, #0]
 8001a6e:	4b6e      	ldr	r3, [pc, #440]	; (8001c28 <HAL_GPIO_EXTI_Falling_Callback+0x668>)
 8001a70:	781b      	ldrb	r3, [r3, #0]
 8001a72:	429a      	cmp	r2, r3
 8001a74:	d106      	bne.n	8001a84 <HAL_GPIO_EXTI_Falling_Callback+0x4c4>
								DimmingDirectionCh1 = Up;
 8001a76:	4b66      	ldr	r3, [pc, #408]	; (8001c10 <HAL_GPIO_EXTI_Falling_Callback+0x650>)
 8001a78:	2201      	movs	r2, #1
 8001a7a:	701a      	strb	r2, [r3, #0]
								DimmingDirectionCh2 = Up;
 8001a7c:	4b65      	ldr	r3, [pc, #404]	; (8001c14 <HAL_GPIO_EXTI_Falling_Callback+0x654>)
 8001a7e:	2201      	movs	r2, #1
 8001a80:	701a      	strb	r2, [r3, #0]
 8001a82:	e0a1      	b.n	8001bc8 <HAL_GPIO_EXTI_Falling_Callback+0x608>
								DimmingDirectionCh1 = Up;
 8001a84:	4b62      	ldr	r3, [pc, #392]	; (8001c10 <HAL_GPIO_EXTI_Falling_Callback+0x650>)
 8001a86:	2201      	movs	r2, #1
 8001a88:	701a      	strb	r2, [r3, #0]
								DimmingDirectionCh2 = Up;
 8001a8a:	4b62      	ldr	r3, [pc, #392]	; (8001c14 <HAL_GPIO_EXTI_Falling_Callback+0x654>)
 8001a8c:	2201      	movs	r2, #1
 8001a8e:	701a      	strb	r2, [r3, #0]
								uint16_t half_dimming_level = (DimmingLevelCh2 + DimmingLevelCh1) / 2;
 8001a90:	4b64      	ldr	r3, [pc, #400]	; (8001c24 <HAL_GPIO_EXTI_Falling_Callback+0x664>)
 8001a92:	781b      	ldrb	r3, [r3, #0]
 8001a94:	001a      	movs	r2, r3
 8001a96:	4b64      	ldr	r3, [pc, #400]	; (8001c28 <HAL_GPIO_EXTI_Falling_Callback+0x668>)
 8001a98:	781b      	ldrb	r3, [r3, #0]
 8001a9a:	18d3      	adds	r3, r2, r3
 8001a9c:	2b00      	cmp	r3, #0
 8001a9e:	da00      	bge.n	8001aa2 <HAL_GPIO_EXTI_Falling_Callback+0x4e2>
 8001aa0:	3301      	adds	r3, #1
 8001aa2:	105b      	asrs	r3, r3, #1
 8001aa4:	001a      	movs	r2, r3
 8001aa6:	230e      	movs	r3, #14
 8001aa8:	18fb      	adds	r3, r7, r3
 8001aaa:	801a      	strh	r2, [r3, #0]
								if (DimmingLevelCh1 < DimmingLevelCh2)
 8001aac:	4b5e      	ldr	r3, [pc, #376]	; (8001c28 <HAL_GPIO_EXTI_Falling_Callback+0x668>)
 8001aae:	781a      	ldrb	r2, [r3, #0]
 8001ab0:	4b5c      	ldr	r3, [pc, #368]	; (8001c24 <HAL_GPIO_EXTI_Falling_Callback+0x664>)
 8001ab2:	781b      	ldrb	r3, [r3, #0]
 8001ab4:	429a      	cmp	r2, r3
 8001ab6:	d261      	bcs.n	8001b7c <HAL_GPIO_EXTI_Falling_Callback+0x5bc>
									for (; DimmingLevelCh1 <= half_dimming_level; DimmingLevelCh1 ++)
 8001ab8:	e02b      	b.n	8001b12 <HAL_GPIO_EXTI_Falling_Callback+0x552>
										i = AUTOMATIC_RAMP_DELAY_TIME;
 8001aba:	4b5c      	ldr	r3, [pc, #368]	; (8001c2c <HAL_GPIO_EXTI_Falling_Callback+0x66c>)
 8001abc:	4a5c      	ldr	r2, [pc, #368]	; (8001c30 <HAL_GPIO_EXTI_Falling_Callback+0x670>)
 8001abe:	801a      	strh	r2, [r3, #0]
										while(--i > 1) asm("NOP");
 8001ac0:	e000      	b.n	8001ac4 <HAL_GPIO_EXTI_Falling_Callback+0x504>
 8001ac2:	46c0      	nop			; (mov r8, r8)
 8001ac4:	4b59      	ldr	r3, [pc, #356]	; (8001c2c <HAL_GPIO_EXTI_Falling_Callback+0x66c>)
 8001ac6:	881b      	ldrh	r3, [r3, #0]
 8001ac8:	3b01      	subs	r3, #1
 8001aca:	b29a      	uxth	r2, r3
 8001acc:	4b57      	ldr	r3, [pc, #348]	; (8001c2c <HAL_GPIO_EXTI_Falling_Callback+0x66c>)
 8001ace:	801a      	strh	r2, [r3, #0]
 8001ad0:	4b56      	ldr	r3, [pc, #344]	; (8001c2c <HAL_GPIO_EXTI_Falling_Callback+0x66c>)
 8001ad2:	881b      	ldrh	r3, [r3, #0]
 8001ad4:	2b01      	cmp	r3, #1
 8001ad6:	d8f4      	bhi.n	8001ac2 <HAL_GPIO_EXTI_Falling_Callback+0x502>
										TxBuffer[0] = 0;
 8001ad8:	4b56      	ldr	r3, [pc, #344]	; (8001c34 <HAL_GPIO_EXTI_Falling_Callback+0x674>)
 8001ada:	2200      	movs	r2, #0
 8001adc:	701a      	strb	r2, [r3, #0]
										TxBuffer[1] = DimmingLevelCh1;
 8001ade:	4b52      	ldr	r3, [pc, #328]	; (8001c28 <HAL_GPIO_EXTI_Falling_Callback+0x668>)
 8001ae0:	781a      	ldrb	r2, [r3, #0]
 8001ae2:	4b54      	ldr	r3, [pc, #336]	; (8001c34 <HAL_GPIO_EXTI_Falling_Callback+0x674>)
 8001ae4:	705a      	strb	r2, [r3, #1]
										TxBuffer[2] = DimmingLevelCh2;
 8001ae6:	4b4f      	ldr	r3, [pc, #316]	; (8001c24 <HAL_GPIO_EXTI_Falling_Callback+0x664>)
 8001ae8:	781a      	ldrb	r2, [r3, #0]
 8001aea:	4b52      	ldr	r3, [pc, #328]	; (8001c34 <HAL_GPIO_EXTI_Falling_Callback+0x674>)
 8001aec:	709a      	strb	r2, [r3, #2]
										HAL_UART_Transmit(&huart1, TxBuffer, 3, 10);
 8001aee:	4951      	ldr	r1, [pc, #324]	; (8001c34 <HAL_GPIO_EXTI_Falling_Callback+0x674>)
 8001af0:	4851      	ldr	r0, [pc, #324]	; (8001c38 <HAL_GPIO_EXTI_Falling_Callback+0x678>)
 8001af2:	230a      	movs	r3, #10
 8001af4:	2203      	movs	r2, #3
 8001af6:	f004 fd4d 	bl	8006594 <HAL_UART_Transmit>
										DimmingLevelCh2 --;
 8001afa:	4b4a      	ldr	r3, [pc, #296]	; (8001c24 <HAL_GPIO_EXTI_Falling_Callback+0x664>)
 8001afc:	781b      	ldrb	r3, [r3, #0]
 8001afe:	3b01      	subs	r3, #1
 8001b00:	b2da      	uxtb	r2, r3
 8001b02:	4b48      	ldr	r3, [pc, #288]	; (8001c24 <HAL_GPIO_EXTI_Falling_Callback+0x664>)
 8001b04:	701a      	strb	r2, [r3, #0]
									for (; DimmingLevelCh1 <= half_dimming_level; DimmingLevelCh1 ++)
 8001b06:	4b48      	ldr	r3, [pc, #288]	; (8001c28 <HAL_GPIO_EXTI_Falling_Callback+0x668>)
 8001b08:	781b      	ldrb	r3, [r3, #0]
 8001b0a:	3301      	adds	r3, #1
 8001b0c:	b2da      	uxtb	r2, r3
 8001b0e:	4b46      	ldr	r3, [pc, #280]	; (8001c28 <HAL_GPIO_EXTI_Falling_Callback+0x668>)
 8001b10:	701a      	strb	r2, [r3, #0]
 8001b12:	4b45      	ldr	r3, [pc, #276]	; (8001c28 <HAL_GPIO_EXTI_Falling_Callback+0x668>)
 8001b14:	781b      	ldrb	r3, [r3, #0]
 8001b16:	b29b      	uxth	r3, r3
 8001b18:	220e      	movs	r2, #14
 8001b1a:	18ba      	adds	r2, r7, r2
 8001b1c:	8812      	ldrh	r2, [r2, #0]
 8001b1e:	429a      	cmp	r2, r3
 8001b20:	d2cb      	bcs.n	8001aba <HAL_GPIO_EXTI_Falling_Callback+0x4fa>
 8001b22:	e033      	b.n	8001b8c <HAL_GPIO_EXTI_Falling_Callback+0x5cc>
										i = AUTOMATIC_RAMP_DELAY_TIME;
 8001b24:	4b41      	ldr	r3, [pc, #260]	; (8001c2c <HAL_GPIO_EXTI_Falling_Callback+0x66c>)
 8001b26:	4a42      	ldr	r2, [pc, #264]	; (8001c30 <HAL_GPIO_EXTI_Falling_Callback+0x670>)
 8001b28:	801a      	strh	r2, [r3, #0]
										while(--i > 1) asm("NOP");
 8001b2a:	e000      	b.n	8001b2e <HAL_GPIO_EXTI_Falling_Callback+0x56e>
 8001b2c:	46c0      	nop			; (mov r8, r8)
 8001b2e:	4b3f      	ldr	r3, [pc, #252]	; (8001c2c <HAL_GPIO_EXTI_Falling_Callback+0x66c>)
 8001b30:	881b      	ldrh	r3, [r3, #0]
 8001b32:	3b01      	subs	r3, #1
 8001b34:	b29a      	uxth	r2, r3
 8001b36:	4b3d      	ldr	r3, [pc, #244]	; (8001c2c <HAL_GPIO_EXTI_Falling_Callback+0x66c>)
 8001b38:	801a      	strh	r2, [r3, #0]
 8001b3a:	4b3c      	ldr	r3, [pc, #240]	; (8001c2c <HAL_GPIO_EXTI_Falling_Callback+0x66c>)
 8001b3c:	881b      	ldrh	r3, [r3, #0]
 8001b3e:	2b01      	cmp	r3, #1
 8001b40:	d8f4      	bhi.n	8001b2c <HAL_GPIO_EXTI_Falling_Callback+0x56c>
										TxBuffer[0] = 0;
 8001b42:	4b3c      	ldr	r3, [pc, #240]	; (8001c34 <HAL_GPIO_EXTI_Falling_Callback+0x674>)
 8001b44:	2200      	movs	r2, #0
 8001b46:	701a      	strb	r2, [r3, #0]
										TxBuffer[1] = DimmingLevelCh1;
 8001b48:	4b37      	ldr	r3, [pc, #220]	; (8001c28 <HAL_GPIO_EXTI_Falling_Callback+0x668>)
 8001b4a:	781a      	ldrb	r2, [r3, #0]
 8001b4c:	4b39      	ldr	r3, [pc, #228]	; (8001c34 <HAL_GPIO_EXTI_Falling_Callback+0x674>)
 8001b4e:	705a      	strb	r2, [r3, #1]
										TxBuffer[2] = DimmingLevelCh2;
 8001b50:	4b34      	ldr	r3, [pc, #208]	; (8001c24 <HAL_GPIO_EXTI_Falling_Callback+0x664>)
 8001b52:	781a      	ldrb	r2, [r3, #0]
 8001b54:	4b37      	ldr	r3, [pc, #220]	; (8001c34 <HAL_GPIO_EXTI_Falling_Callback+0x674>)
 8001b56:	709a      	strb	r2, [r3, #2]
										HAL_UART_Transmit(&huart1, TxBuffer, 3, 10);
 8001b58:	4936      	ldr	r1, [pc, #216]	; (8001c34 <HAL_GPIO_EXTI_Falling_Callback+0x674>)
 8001b5a:	4837      	ldr	r0, [pc, #220]	; (8001c38 <HAL_GPIO_EXTI_Falling_Callback+0x678>)
 8001b5c:	230a      	movs	r3, #10
 8001b5e:	2203      	movs	r2, #3
 8001b60:	f004 fd18 	bl	8006594 <HAL_UART_Transmit>
										DimmingLevelCh1 --;
 8001b64:	4b30      	ldr	r3, [pc, #192]	; (8001c28 <HAL_GPIO_EXTI_Falling_Callback+0x668>)
 8001b66:	781b      	ldrb	r3, [r3, #0]
 8001b68:	3b01      	subs	r3, #1
 8001b6a:	b2da      	uxtb	r2, r3
 8001b6c:	4b2e      	ldr	r3, [pc, #184]	; (8001c28 <HAL_GPIO_EXTI_Falling_Callback+0x668>)
 8001b6e:	701a      	strb	r2, [r3, #0]
									for (; DimmingLevelCh2 <= half_dimming_level; DimmingLevelCh2 ++)
 8001b70:	4b2c      	ldr	r3, [pc, #176]	; (8001c24 <HAL_GPIO_EXTI_Falling_Callback+0x664>)
 8001b72:	781b      	ldrb	r3, [r3, #0]
 8001b74:	3301      	adds	r3, #1
 8001b76:	b2da      	uxtb	r2, r3
 8001b78:	4b2a      	ldr	r3, [pc, #168]	; (8001c24 <HAL_GPIO_EXTI_Falling_Callback+0x664>)
 8001b7a:	701a      	strb	r2, [r3, #0]
 8001b7c:	4b29      	ldr	r3, [pc, #164]	; (8001c24 <HAL_GPIO_EXTI_Falling_Callback+0x664>)
 8001b7e:	781b      	ldrb	r3, [r3, #0]
 8001b80:	b29b      	uxth	r3, r3
 8001b82:	220e      	movs	r2, #14
 8001b84:	18ba      	adds	r2, r7, r2
 8001b86:	8812      	ldrh	r2, [r2, #0]
 8001b88:	429a      	cmp	r2, r3
 8001b8a:	d2cb      	bcs.n	8001b24 <HAL_GPIO_EXTI_Falling_Callback+0x564>
								TxBuffer[0] = 0;
 8001b8c:	4b29      	ldr	r3, [pc, #164]	; (8001c34 <HAL_GPIO_EXTI_Falling_Callback+0x674>)
 8001b8e:	2200      	movs	r2, #0
 8001b90:	701a      	strb	r2, [r3, #0]
								TxBuffer[1] = half_dimming_level;
 8001b92:	210e      	movs	r1, #14
 8001b94:	187b      	adds	r3, r7, r1
 8001b96:	881b      	ldrh	r3, [r3, #0]
 8001b98:	b2da      	uxtb	r2, r3
 8001b9a:	4b26      	ldr	r3, [pc, #152]	; (8001c34 <HAL_GPIO_EXTI_Falling_Callback+0x674>)
 8001b9c:	705a      	strb	r2, [r3, #1]
								TxBuffer[2] = half_dimming_level;
 8001b9e:	187b      	adds	r3, r7, r1
 8001ba0:	881b      	ldrh	r3, [r3, #0]
 8001ba2:	b2da      	uxtb	r2, r3
 8001ba4:	4b23      	ldr	r3, [pc, #140]	; (8001c34 <HAL_GPIO_EXTI_Falling_Callback+0x674>)
 8001ba6:	709a      	strb	r2, [r3, #2]
								DimmingLevelCh1 = half_dimming_level;
 8001ba8:	187b      	adds	r3, r7, r1
 8001baa:	881b      	ldrh	r3, [r3, #0]
 8001bac:	b2da      	uxtb	r2, r3
 8001bae:	4b1e      	ldr	r3, [pc, #120]	; (8001c28 <HAL_GPIO_EXTI_Falling_Callback+0x668>)
 8001bb0:	701a      	strb	r2, [r3, #0]
								DimmingLevelCh2 = DimmingLevelCh1;
 8001bb2:	4b1d      	ldr	r3, [pc, #116]	; (8001c28 <HAL_GPIO_EXTI_Falling_Callback+0x668>)
 8001bb4:	781a      	ldrb	r2, [r3, #0]
 8001bb6:	4b1b      	ldr	r3, [pc, #108]	; (8001c24 <HAL_GPIO_EXTI_Falling_Callback+0x664>)
 8001bb8:	701a      	strb	r2, [r3, #0]
								HAL_UART_Transmit(&huart1, TxBuffer, 3, 10);
 8001bba:	491e      	ldr	r1, [pc, #120]	; (8001c34 <HAL_GPIO_EXTI_Falling_Callback+0x674>)
 8001bbc:	481e      	ldr	r0, [pc, #120]	; (8001c38 <HAL_GPIO_EXTI_Falling_Callback+0x678>)
 8001bbe:	230a      	movs	r3, #10
 8001bc0:	2203      	movs	r2, #3
 8001bc2:	f004 fce7 	bl	8006594 <HAL_UART_Transmit>
								 asm("NOP");
 8001bc6:	46c0      	nop			; (mov r8, r8)
						if (Channel > 3) Channel = 1;
 8001bc8:	4b10      	ldr	r3, [pc, #64]	; (8001c0c <HAL_GPIO_EXTI_Falling_Callback+0x64c>)
 8001bca:	781b      	ldrb	r3, [r3, #0]
 8001bcc:	2b03      	cmp	r3, #3
 8001bce:	d902      	bls.n	8001bd6 <HAL_GPIO_EXTI_Falling_Callback+0x616>
 8001bd0:	4b0e      	ldr	r3, [pc, #56]	; (8001c0c <HAL_GPIO_EXTI_Falling_Callback+0x64c>)
 8001bd2:	2201      	movs	r2, #1
 8001bd4:	701a      	strb	r2, [r3, #0]
					touch_count = 0;
 8001bd6:	4b10      	ldr	r3, [pc, #64]	; (8001c18 <HAL_GPIO_EXTI_Falling_Callback+0x658>)
 8001bd8:	2200      	movs	r2, #0
 8001bda:	701a      	strb	r2, [r3, #0]
					channel_is_changed = 1;
 8001bdc:	4b17      	ldr	r3, [pc, #92]	; (8001c3c <HAL_GPIO_EXTI_Falling_Callback+0x67c>)
 8001bde:	2201      	movs	r2, #1
 8001be0:	701a      	strb	r2, [r3, #0]
					mSecTouch = MAXIMUM_SHORT_TOUCH_TIME + 1;
 8001be2:	4b0f      	ldr	r3, [pc, #60]	; (8001c20 <HAL_GPIO_EXTI_Falling_Callback+0x660>)
 8001be4:	2292      	movs	r2, #146	; 0x92
 8001be6:	32ff      	adds	r2, #255	; 0xff
 8001be8:	801a      	strh	r2, [r3, #0]
}
 8001bea:	46c0      	nop			; (mov r8, r8)
 8001bec:	46bd      	mov	sp, r7
 8001bee:	b004      	add	sp, #16
 8001bf0:	bd80      	pop	{r7, pc}
 8001bf2:	46c0      	nop			; (mov r8, r8)
 8001bf4:	200000cf 	.word	0x200000cf
 8001bf8:	20000012 	.word	0x20000012
 8001bfc:	200000d0 	.word	0x200000d0
 8001c00:	200000ec 	.word	0x200000ec
 8001c04:	200000d6 	.word	0x200000d6
 8001c08:	200000cd 	.word	0x200000cd
 8001c0c:	20000015 	.word	0x20000015
 8001c10:	20000010 	.word	0x20000010
 8001c14:	20000011 	.word	0x20000011
 8001c18:	200000ed 	.word	0x200000ed
 8001c1c:	200000ee 	.word	0x200000ee
 8001c20:	200000f2 	.word	0x200000f2
 8001c24:	20000014 	.word	0x20000014
 8001c28:	20000013 	.word	0x20000013
 8001c2c:	200000e0 	.word	0x200000e0
 8001c30:	00000bb8 	.word	0x00000bb8
 8001c34:	200000e4 	.word	0x200000e4
 8001c38:	200001dc 	.word	0x200001dc
 8001c3c:	200000f0 	.word	0x200000f0

08001c40 <Error_Handler>:
/**
  * @brief  This function is executed in case of error occurrence.
  * @retval None
  */
void Error_Handler(void)
{
 8001c40:	b580      	push	{r7, lr}
 8001c42:	af00      	add	r7, sp, #0
  \details Disables IRQ interrupts by setting the I-bit in the CPSR.
           Can only be executed in Privileged modes.
 */
__STATIC_FORCEINLINE void __disable_irq(void)
{
  __ASM volatile ("cpsid i" : : : "memory");
 8001c44:	b672      	cpsid	i
}
 8001c46:	46c0      	nop			; (mov r8, r8)
  /* USER CODE BEGIN Error_Handler_Debug */
  /* User can add his own implementation to report the HAL error return state */
  __disable_irq();
  while (1)
 8001c48:	e7fe      	b.n	8001c48 <Error_Handler+0x8>
	...

08001c4c <HAL_MspInit>:
void HAL_TIM_MspPostInit(TIM_HandleTypeDef *htim);
                                                            /**
  * Initializes the Global MSP.
  */
void HAL_MspInit(void)
{
 8001c4c:	b580      	push	{r7, lr}
 8001c4e:	b082      	sub	sp, #8
 8001c50:	af00      	add	r7, sp, #0
  /* USER CODE BEGIN MspInit 0 */

  /* USER CODE END MspInit 0 */

  __HAL_RCC_SYSCFG_CLK_ENABLE();
 8001c52:	4b11      	ldr	r3, [pc, #68]	; (8001c98 <HAL_MspInit+0x4c>)
 8001c54:	6c1a      	ldr	r2, [r3, #64]	; 0x40
 8001c56:	4b10      	ldr	r3, [pc, #64]	; (8001c98 <HAL_MspInit+0x4c>)
 8001c58:	2101      	movs	r1, #1
 8001c5a:	430a      	orrs	r2, r1
 8001c5c:	641a      	str	r2, [r3, #64]	; 0x40
 8001c5e:	4b0e      	ldr	r3, [pc, #56]	; (8001c98 <HAL_MspInit+0x4c>)
 8001c60:	6c1b      	ldr	r3, [r3, #64]	; 0x40
 8001c62:	2201      	movs	r2, #1
 8001c64:	4013      	ands	r3, r2
 8001c66:	607b      	str	r3, [r7, #4]
 8001c68:	687b      	ldr	r3, [r7, #4]
  __HAL_RCC_PWR_CLK_ENABLE();
 8001c6a:	4b0b      	ldr	r3, [pc, #44]	; (8001c98 <HAL_MspInit+0x4c>)
 8001c6c:	6bda      	ldr	r2, [r3, #60]	; 0x3c
 8001c6e:	4b0a      	ldr	r3, [pc, #40]	; (8001c98 <HAL_MspInit+0x4c>)
 8001c70:	2180      	movs	r1, #128	; 0x80
 8001c72:	0549      	lsls	r1, r1, #21
 8001c74:	430a      	orrs	r2, r1
 8001c76:	63da      	str	r2, [r3, #60]	; 0x3c
 8001c78:	4b07      	ldr	r3, [pc, #28]	; (8001c98 <HAL_MspInit+0x4c>)
 8001c7a:	6bda      	ldr	r2, [r3, #60]	; 0x3c
 8001c7c:	2380      	movs	r3, #128	; 0x80
 8001c7e:	055b      	lsls	r3, r3, #21
 8001c80:	4013      	ands	r3, r2
 8001c82:	603b      	str	r3, [r7, #0]
 8001c84:	683b      	ldr	r3, [r7, #0]

  /* System interrupt init*/

  /** Disable the internal Pull-Up in Dead Battery pins of UCPD peripheral
  */
  HAL_SYSCFG_StrobeDBattpinsConfig(SYSCFG_CFGR1_UCPD1_STROBE | SYSCFG_CFGR1_UCPD2_STROBE);
 8001c86:	23c0      	movs	r3, #192	; 0xc0
 8001c88:	00db      	lsls	r3, r3, #3
 8001c8a:	0018      	movs	r0, r3
 8001c8c:	f000 fbce 	bl	800242c <HAL_SYSCFG_StrobeDBattpinsConfig>

  /* USER CODE BEGIN MspInit 1 */

  /* USER CODE END MspInit 1 */
}
 8001c90:	46c0      	nop			; (mov r8, r8)
 8001c92:	46bd      	mov	sp, r7
 8001c94:	b002      	add	sp, #8
 8001c96:	bd80      	pop	{r7, pc}
 8001c98:	40021000 	.word	0x40021000

08001c9c <HAL_COMP_MspInit>:
* This function configures the hardware resources used in this example
* @param hcomp: COMP handle pointer
* @retval None
*/
void HAL_COMP_MspInit(COMP_HandleTypeDef* hcomp)
{
 8001c9c:	b590      	push	{r4, r7, lr}
 8001c9e:	b089      	sub	sp, #36	; 0x24
 8001ca0:	af00      	add	r7, sp, #0
 8001ca2:	6078      	str	r0, [r7, #4]
  GPIO_InitTypeDef GPIO_InitStruct = {0};
 8001ca4:	240c      	movs	r4, #12
 8001ca6:	193b      	adds	r3, r7, r4
 8001ca8:	0018      	movs	r0, r3
 8001caa:	2314      	movs	r3, #20
 8001cac:	001a      	movs	r2, r3
 8001cae:	2100      	movs	r1, #0
 8001cb0:	f005 ff3c 	bl	8007b2c <memset>
  if(hcomp->Instance==COMP1)
 8001cb4:	687b      	ldr	r3, [r7, #4]
 8001cb6:	681b      	ldr	r3, [r3, #0]
 8001cb8:	4a1c      	ldr	r2, [pc, #112]	; (8001d2c <HAL_COMP_MspInit+0x90>)
 8001cba:	4293      	cmp	r3, r2
 8001cbc:	d131      	bne.n	8001d22 <HAL_COMP_MspInit+0x86>
  {
  /* USER CODE BEGIN COMP1_MspInit 0 */

  /* USER CODE END COMP1_MspInit 0 */

    __HAL_RCC_GPIOA_CLK_ENABLE();
 8001cbe:	4b1c      	ldr	r3, [pc, #112]	; (8001d30 <HAL_COMP_MspInit+0x94>)
 8001cc0:	6b5a      	ldr	r2, [r3, #52]	; 0x34
 8001cc2:	4b1b      	ldr	r3, [pc, #108]	; (8001d30 <HAL_COMP_MspInit+0x94>)
 8001cc4:	2101      	movs	r1, #1
 8001cc6:	430a      	orrs	r2, r1
 8001cc8:	635a      	str	r2, [r3, #52]	; 0x34
 8001cca:	4b19      	ldr	r3, [pc, #100]	; (8001d30 <HAL_COMP_MspInit+0x94>)
 8001ccc:	6b5b      	ldr	r3, [r3, #52]	; 0x34
 8001cce:	2201      	movs	r2, #1
 8001cd0:	4013      	ands	r3, r2
 8001cd2:	60bb      	str	r3, [r7, #8]
 8001cd4:	68bb      	ldr	r3, [r7, #8]
    /**COMP1 GPIO Configuration
    PA0     ------> COMP1_OUT
    PA1     ------> COMP1_INP
    */
    GPIO_InitStruct.Pin = GPIO_PIN_0;
 8001cd6:	193b      	adds	r3, r7, r4
 8001cd8:	2201      	movs	r2, #1
 8001cda:	601a      	str	r2, [r3, #0]
    GPIO_InitStruct.Mode = GPIO_MODE_AF_PP;
 8001cdc:	193b      	adds	r3, r7, r4
 8001cde:	2202      	movs	r2, #2
 8001ce0:	605a      	str	r2, [r3, #4]
    GPIO_InitStruct.Pull = GPIO_NOPULL;
 8001ce2:	193b      	adds	r3, r7, r4
 8001ce4:	2200      	movs	r2, #0
 8001ce6:	609a      	str	r2, [r3, #8]
    GPIO_InitStruct.Speed = GPIO_SPEED_FREQ_LOW;
 8001ce8:	193b      	adds	r3, r7, r4
 8001cea:	2200      	movs	r2, #0
 8001cec:	60da      	str	r2, [r3, #12]
    GPIO_InitStruct.Alternate = GPIO_AF7_COMP1;
 8001cee:	193b      	adds	r3, r7, r4
 8001cf0:	2207      	movs	r2, #7
 8001cf2:	611a      	str	r2, [r3, #16]
    HAL_GPIO_Init(GPIOA, &GPIO_InitStruct);
 8001cf4:	193a      	adds	r2, r7, r4
 8001cf6:	23a0      	movs	r3, #160	; 0xa0
 8001cf8:	05db      	lsls	r3, r3, #23
 8001cfa:	0011      	movs	r1, r2
 8001cfc:	0018      	movs	r0, r3
 8001cfe:	f001 f94f 	bl	8002fa0 <HAL_GPIO_Init>

    GPIO_InitStruct.Pin = GPIO_PIN_1;
 8001d02:	193b      	adds	r3, r7, r4
 8001d04:	2202      	movs	r2, #2
 8001d06:	601a      	str	r2, [r3, #0]
    GPIO_InitStruct.Mode = GPIO_MODE_ANALOG;
 8001d08:	193b      	adds	r3, r7, r4
 8001d0a:	2203      	movs	r2, #3
 8001d0c:	605a      	str	r2, [r3, #4]
    GPIO_InitStruct.Pull = GPIO_NOPULL;
 8001d0e:	193b      	adds	r3, r7, r4
 8001d10:	2200      	movs	r2, #0
 8001d12:	609a      	str	r2, [r3, #8]
    HAL_GPIO_Init(GPIOA, &GPIO_InitStruct);
 8001d14:	193a      	adds	r2, r7, r4
 8001d16:	23a0      	movs	r3, #160	; 0xa0
 8001d18:	05db      	lsls	r3, r3, #23
 8001d1a:	0011      	movs	r1, r2
 8001d1c:	0018      	movs	r0, r3
 8001d1e:	f001 f93f 	bl	8002fa0 <HAL_GPIO_Init>
  /* USER CODE BEGIN COMP1_MspInit 1 */

  /* USER CODE END COMP1_MspInit 1 */
  }

}
 8001d22:	46c0      	nop			; (mov r8, r8)
 8001d24:	46bd      	mov	sp, r7
 8001d26:	b009      	add	sp, #36	; 0x24
 8001d28:	bd90      	pop	{r4, r7, pc}
 8001d2a:	46c0      	nop			; (mov r8, r8)
 8001d2c:	40010200 	.word	0x40010200
 8001d30:	40021000 	.word	0x40021000

08001d34 <HAL_I2C_MspInit>:
* This function configures the hardware resources used in this example
* @param hi2c: I2C handle pointer
* @retval None
*/
void HAL_I2C_MspInit(I2C_HandleTypeDef* hi2c)
{
 8001d34:	b590      	push	{r4, r7, lr}
 8001d36:	b08b      	sub	sp, #44	; 0x2c
 8001d38:	af00      	add	r7, sp, #0
 8001d3a:	6078      	str	r0, [r7, #4]
  GPIO_InitTypeDef GPIO_InitStruct = {0};
 8001d3c:	2414      	movs	r4, #20
 8001d3e:	193b      	adds	r3, r7, r4
 8001d40:	0018      	movs	r0, r3
 8001d42:	2314      	movs	r3, #20
 8001d44:	001a      	movs	r2, r3
 8001d46:	2100      	movs	r1, #0
 8001d48:	f005 fef0 	bl	8007b2c <memset>
  if(hi2c->Instance==I2C2)
 8001d4c:	687b      	ldr	r3, [r7, #4]
 8001d4e:	681b      	ldr	r3, [r3, #0]
 8001d50:	4a20      	ldr	r2, [pc, #128]	; (8001dd4 <HAL_I2C_MspInit+0xa0>)
 8001d52:	4293      	cmp	r3, r2
 8001d54:	d139      	bne.n	8001dca <HAL_I2C_MspInit+0x96>
  {
  /* USER CODE BEGIN I2C2_MspInit 0 */

  /* USER CODE END I2C2_MspInit 0 */

    __HAL_RCC_GPIOA_CLK_ENABLE();
 8001d56:	4b20      	ldr	r3, [pc, #128]	; (8001dd8 <HAL_I2C_MspInit+0xa4>)
 8001d58:	6b5a      	ldr	r2, [r3, #52]	; 0x34
 8001d5a:	4b1f      	ldr	r3, [pc, #124]	; (8001dd8 <HAL_I2C_MspInit+0xa4>)
 8001d5c:	2101      	movs	r1, #1
 8001d5e:	430a      	orrs	r2, r1
 8001d60:	635a      	str	r2, [r3, #52]	; 0x34
 8001d62:	4b1d      	ldr	r3, [pc, #116]	; (8001dd8 <HAL_I2C_MspInit+0xa4>)
 8001d64:	6b5b      	ldr	r3, [r3, #52]	; 0x34
 8001d66:	2201      	movs	r2, #1
 8001d68:	4013      	ands	r3, r2
 8001d6a:	613b      	str	r3, [r7, #16]
 8001d6c:	693b      	ldr	r3, [r7, #16]
    /**I2C2 GPIO Configuration
    PA11 [PA9]     ------> I2C2_SCL
    PA12 [PA10]     ------> I2C2_SDA
    */
    GPIO_InitStruct.Pin = GPIO_PIN_11|GPIO_PIN_12;
 8001d6e:	193b      	adds	r3, r7, r4
 8001d70:	22c0      	movs	r2, #192	; 0xc0
 8001d72:	0152      	lsls	r2, r2, #5
 8001d74:	601a      	str	r2, [r3, #0]
    GPIO_InitStruct.Mode = GPIO_MODE_AF_OD;
 8001d76:	0021      	movs	r1, r4
 8001d78:	187b      	adds	r3, r7, r1
 8001d7a:	2212      	movs	r2, #18
 8001d7c:	605a      	str	r2, [r3, #4]
    GPIO_InitStruct.Pull = GPIO_PULLUP;
 8001d7e:	187b      	adds	r3, r7, r1
 8001d80:	2201      	movs	r2, #1
 8001d82:	609a      	str	r2, [r3, #8]
    GPIO_InitStruct.Speed = GPIO_SPEED_FREQ_LOW;
 8001d84:	187b      	adds	r3, r7, r1
 8001d86:	2200      	movs	r2, #0
 8001d88:	60da      	str	r2, [r3, #12]
    GPIO_InitStruct.Alternate = GPIO_AF6_I2C2;
 8001d8a:	187b      	adds	r3, r7, r1
 8001d8c:	2206      	movs	r2, #6
 8001d8e:	611a      	str	r2, [r3, #16]
    HAL_GPIO_Init(GPIOA, &GPIO_InitStruct);
 8001d90:	187a      	adds	r2, r7, r1
 8001d92:	23a0      	movs	r3, #160	; 0xa0
 8001d94:	05db      	lsls	r3, r3, #23
 8001d96:	0011      	movs	r1, r2
 8001d98:	0018      	movs	r0, r3
 8001d9a:	f001 f901 	bl	8002fa0 <HAL_GPIO_Init>

    /* Peripheral clock enable */
    __HAL_RCC_I2C2_CLK_ENABLE();
 8001d9e:	4b0e      	ldr	r3, [pc, #56]	; (8001dd8 <HAL_I2C_MspInit+0xa4>)
 8001da0:	6bda      	ldr	r2, [r3, #60]	; 0x3c
 8001da2:	4b0d      	ldr	r3, [pc, #52]	; (8001dd8 <HAL_I2C_MspInit+0xa4>)
 8001da4:	2180      	movs	r1, #128	; 0x80
 8001da6:	03c9      	lsls	r1, r1, #15
 8001da8:	430a      	orrs	r2, r1
 8001daa:	63da      	str	r2, [r3, #60]	; 0x3c
 8001dac:	4b0a      	ldr	r3, [pc, #40]	; (8001dd8 <HAL_I2C_MspInit+0xa4>)
 8001dae:	6bda      	ldr	r2, [r3, #60]	; 0x3c
 8001db0:	2380      	movs	r3, #128	; 0x80
 8001db2:	03db      	lsls	r3, r3, #15
 8001db4:	4013      	ands	r3, r2
 8001db6:	60fb      	str	r3, [r7, #12]
 8001db8:	68fb      	ldr	r3, [r7, #12]
    /* I2C2 interrupt Init */
    HAL_NVIC_SetPriority(I2C2_IRQn, 0, 0);
 8001dba:	2200      	movs	r2, #0
 8001dbc:	2100      	movs	r1, #0
 8001dbe:	2018      	movs	r0, #24
 8001dc0:	f000 fe56 	bl	8002a70 <HAL_NVIC_SetPriority>
    HAL_NVIC_EnableIRQ(I2C2_IRQn);
 8001dc4:	2018      	movs	r0, #24
 8001dc6:	f000 fe68 	bl	8002a9a <HAL_NVIC_EnableIRQ>
  /* USER CODE BEGIN I2C2_MspInit 1 */

  /* USER CODE END I2C2_MspInit 1 */
  }

}
 8001dca:	46c0      	nop			; (mov r8, r8)
 8001dcc:	46bd      	mov	sp, r7
 8001dce:	b00b      	add	sp, #44	; 0x2c
 8001dd0:	bd90      	pop	{r4, r7, pc}
 8001dd2:	46c0      	nop			; (mov r8, r8)
 8001dd4:	40005800 	.word	0x40005800
 8001dd8:	40021000 	.word	0x40021000

08001ddc <HAL_TIM_PWM_MspInit>:
* This function configures the hardware resources used in this example
* @param htim_pwm: TIM_PWM handle pointer
* @retval None
*/
void HAL_TIM_PWM_MspInit(TIM_HandleTypeDef* htim_pwm)
{
 8001ddc:	b580      	push	{r7, lr}
 8001dde:	b084      	sub	sp, #16
 8001de0:	af00      	add	r7, sp, #0
 8001de2:	6078      	str	r0, [r7, #4]
  if(htim_pwm->Instance==TIM2)
 8001de4:	687b      	ldr	r3, [r7, #4]
 8001de6:	681a      	ldr	r2, [r3, #0]
 8001de8:	2380      	movs	r3, #128	; 0x80
 8001dea:	05db      	lsls	r3, r3, #23
 8001dec:	429a      	cmp	r2, r3
 8001dee:	d10b      	bne.n	8001e08 <HAL_TIM_PWM_MspInit+0x2c>
  {
  /* USER CODE BEGIN TIM2_MspInit 0 */

  /* USER CODE END TIM2_MspInit 0 */
    /* Peripheral clock enable */
    __HAL_RCC_TIM2_CLK_ENABLE();
 8001df0:	4b07      	ldr	r3, [pc, #28]	; (8001e10 <HAL_TIM_PWM_MspInit+0x34>)
 8001df2:	6bda      	ldr	r2, [r3, #60]	; 0x3c
 8001df4:	4b06      	ldr	r3, [pc, #24]	; (8001e10 <HAL_TIM_PWM_MspInit+0x34>)
 8001df6:	2101      	movs	r1, #1
 8001df8:	430a      	orrs	r2, r1
 8001dfa:	63da      	str	r2, [r3, #60]	; 0x3c
 8001dfc:	4b04      	ldr	r3, [pc, #16]	; (8001e10 <HAL_TIM_PWM_MspInit+0x34>)
 8001dfe:	6bdb      	ldr	r3, [r3, #60]	; 0x3c
 8001e00:	2201      	movs	r2, #1
 8001e02:	4013      	ands	r3, r2
 8001e04:	60fb      	str	r3, [r7, #12]
 8001e06:	68fb      	ldr	r3, [r7, #12]
  /* USER CODE BEGIN TIM2_MspInit 1 */

  /* USER CODE END TIM2_MspInit 1 */
  }

}
 8001e08:	46c0      	nop			; (mov r8, r8)
 8001e0a:	46bd      	mov	sp, r7
 8001e0c:	b004      	add	sp, #16
 8001e0e:	bd80      	pop	{r7, pc}
 8001e10:	40021000 	.word	0x40021000

08001e14 <HAL_TIM_Base_MspInit>:
* This function configures the hardware resources used in this example
* @param htim_base: TIM_Base handle pointer
* @retval None
*/
void HAL_TIM_Base_MspInit(TIM_HandleTypeDef* htim_base)
{
 8001e14:	b580      	push	{r7, lr}
 8001e16:	b084      	sub	sp, #16
 8001e18:	af00      	add	r7, sp, #0
 8001e1a:	6078      	str	r0, [r7, #4]
  if(htim_base->Instance==TIM14)
 8001e1c:	687b      	ldr	r3, [r7, #4]
 8001e1e:	681b      	ldr	r3, [r3, #0]
 8001e20:	4a14      	ldr	r2, [pc, #80]	; (8001e74 <HAL_TIM_Base_MspInit+0x60>)
 8001e22:	4293      	cmp	r3, r2
 8001e24:	d10e      	bne.n	8001e44 <HAL_TIM_Base_MspInit+0x30>
  {
  /* USER CODE BEGIN TIM14_MspInit 0 */

  /* USER CODE END TIM14_MspInit 0 */
    /* Peripheral clock enable */
    __HAL_RCC_TIM14_CLK_ENABLE();
 8001e26:	4b14      	ldr	r3, [pc, #80]	; (8001e78 <HAL_TIM_Base_MspInit+0x64>)
 8001e28:	6c1a      	ldr	r2, [r3, #64]	; 0x40
 8001e2a:	4b13      	ldr	r3, [pc, #76]	; (8001e78 <HAL_TIM_Base_MspInit+0x64>)
 8001e2c:	2180      	movs	r1, #128	; 0x80
 8001e2e:	0209      	lsls	r1, r1, #8
 8001e30:	430a      	orrs	r2, r1
 8001e32:	641a      	str	r2, [r3, #64]	; 0x40
 8001e34:	4b10      	ldr	r3, [pc, #64]	; (8001e78 <HAL_TIM_Base_MspInit+0x64>)
 8001e36:	6c1a      	ldr	r2, [r3, #64]	; 0x40
 8001e38:	2380      	movs	r3, #128	; 0x80
 8001e3a:	021b      	lsls	r3, r3, #8
 8001e3c:	4013      	ands	r3, r2
 8001e3e:	60fb      	str	r3, [r7, #12]
 8001e40:	68fb      	ldr	r3, [r7, #12]
  /* USER CODE BEGIN TIM17_MspInit 1 */

  /* USER CODE END TIM17_MspInit 1 */
  }

}
 8001e42:	e012      	b.n	8001e6a <HAL_TIM_Base_MspInit+0x56>
  else if(htim_base->Instance==TIM17)
 8001e44:	687b      	ldr	r3, [r7, #4]
 8001e46:	681b      	ldr	r3, [r3, #0]
 8001e48:	4a0c      	ldr	r2, [pc, #48]	; (8001e7c <HAL_TIM_Base_MspInit+0x68>)
 8001e4a:	4293      	cmp	r3, r2
 8001e4c:	d10d      	bne.n	8001e6a <HAL_TIM_Base_MspInit+0x56>
    __HAL_RCC_TIM17_CLK_ENABLE();
 8001e4e:	4b0a      	ldr	r3, [pc, #40]	; (8001e78 <HAL_TIM_Base_MspInit+0x64>)
 8001e50:	6c1a      	ldr	r2, [r3, #64]	; 0x40
 8001e52:	4b09      	ldr	r3, [pc, #36]	; (8001e78 <HAL_TIM_Base_MspInit+0x64>)
 8001e54:	2180      	movs	r1, #128	; 0x80
 8001e56:	02c9      	lsls	r1, r1, #11
 8001e58:	430a      	orrs	r2, r1
 8001e5a:	641a      	str	r2, [r3, #64]	; 0x40
 8001e5c:	4b06      	ldr	r3, [pc, #24]	; (8001e78 <HAL_TIM_Base_MspInit+0x64>)
 8001e5e:	6c1a      	ldr	r2, [r3, #64]	; 0x40
 8001e60:	2380      	movs	r3, #128	; 0x80
 8001e62:	02db      	lsls	r3, r3, #11
 8001e64:	4013      	ands	r3, r2
 8001e66:	60bb      	str	r3, [r7, #8]
 8001e68:	68bb      	ldr	r3, [r7, #8]
}
 8001e6a:	46c0      	nop			; (mov r8, r8)
 8001e6c:	46bd      	mov	sp, r7
 8001e6e:	b004      	add	sp, #16
 8001e70:	bd80      	pop	{r7, pc}
 8001e72:	46c0      	nop			; (mov r8, r8)
 8001e74:	40002000 	.word	0x40002000
 8001e78:	40021000 	.word	0x40021000
 8001e7c:	40014800 	.word	0x40014800

08001e80 <HAL_TIM_MspPostInit>:

void HAL_TIM_MspPostInit(TIM_HandleTypeDef* htim)
{
 8001e80:	b590      	push	{r4, r7, lr}
 8001e82:	b08b      	sub	sp, #44	; 0x2c
 8001e84:	af00      	add	r7, sp, #0
 8001e86:	6078      	str	r0, [r7, #4]
  GPIO_InitTypeDef GPIO_InitStruct = {0};
 8001e88:	2414      	movs	r4, #20
 8001e8a:	193b      	adds	r3, r7, r4
 8001e8c:	0018      	movs	r0, r3
 8001e8e:	2314      	movs	r3, #20
 8001e90:	001a      	movs	r2, r3
 8001e92:	2100      	movs	r1, #0
 8001e94:	f005 fe4a 	bl	8007b2c <memset>
  if(htim->Instance==TIM2)
 8001e98:	687b      	ldr	r3, [r7, #4]
 8001e9a:	681a      	ldr	r2, [r3, #0]
 8001e9c:	2380      	movs	r3, #128	; 0x80
 8001e9e:	05db      	lsls	r3, r3, #23
 8001ea0:	429a      	cmp	r2, r3
 8001ea2:	d123      	bne.n	8001eec <HAL_TIM_MspPostInit+0x6c>
  {
  /* USER CODE BEGIN TIM2_MspPostInit 0 */

  /* USER CODE END TIM2_MspPostInit 0 */
    __HAL_RCC_GPIOA_CLK_ENABLE();
 8001ea4:	4b3b      	ldr	r3, [pc, #236]	; (8001f94 <HAL_TIM_MspPostInit+0x114>)
 8001ea6:	6b5a      	ldr	r2, [r3, #52]	; 0x34
 8001ea8:	4b3a      	ldr	r3, [pc, #232]	; (8001f94 <HAL_TIM_MspPostInit+0x114>)
 8001eaa:	2101      	movs	r1, #1
 8001eac:	430a      	orrs	r2, r1
 8001eae:	635a      	str	r2, [r3, #52]	; 0x34
 8001eb0:	4b38      	ldr	r3, [pc, #224]	; (8001f94 <HAL_TIM_MspPostInit+0x114>)
 8001eb2:	6b5b      	ldr	r3, [r3, #52]	; 0x34
 8001eb4:	2201      	movs	r2, #1
 8001eb6:	4013      	ands	r3, r2
 8001eb8:	613b      	str	r3, [r7, #16]
 8001eba:	693b      	ldr	r3, [r7, #16]
    /**TIM2 GPIO Configuration
    PA2     ------> TIM2_CH3
    PA5     ------> TIM2_CH1
    */
    GPIO_InitStruct.Pin = LED_3_Pin|LED_1_Pin;
 8001ebc:	0021      	movs	r1, r4
 8001ebe:	187b      	adds	r3, r7, r1
 8001ec0:	2224      	movs	r2, #36	; 0x24
 8001ec2:	601a      	str	r2, [r3, #0]
    GPIO_InitStruct.Mode = GPIO_MODE_AF_PP;
 8001ec4:	187b      	adds	r3, r7, r1
 8001ec6:	2202      	movs	r2, #2
 8001ec8:	605a      	str	r2, [r3, #4]
    GPIO_InitStruct.Pull = GPIO_NOPULL;
 8001eca:	187b      	adds	r3, r7, r1
 8001ecc:	2200      	movs	r2, #0
 8001ece:	609a      	str	r2, [r3, #8]
    GPIO_InitStruct.Speed = GPIO_SPEED_FREQ_LOW;
 8001ed0:	187b      	adds	r3, r7, r1
 8001ed2:	2200      	movs	r2, #0
 8001ed4:	60da      	str	r2, [r3, #12]
    GPIO_InitStruct.Alternate = GPIO_AF2_TIM2;
 8001ed6:	187b      	adds	r3, r7, r1
 8001ed8:	2202      	movs	r2, #2
 8001eda:	611a      	str	r2, [r3, #16]
    HAL_GPIO_Init(GPIOA, &GPIO_InitStruct);
 8001edc:	187a      	adds	r2, r7, r1
 8001ede:	23a0      	movs	r3, #160	; 0xa0
 8001ee0:	05db      	lsls	r3, r3, #23
 8001ee2:	0011      	movs	r1, r2
 8001ee4:	0018      	movs	r0, r3
 8001ee6:	f001 f85b 	bl	8002fa0 <HAL_GPIO_Init>
  /* USER CODE BEGIN TIM17_MspPostInit 1 */

  /* USER CODE END TIM17_MspPostInit 1 */
  }

}
 8001eea:	e04f      	b.n	8001f8c <HAL_TIM_MspPostInit+0x10c>
  else if(htim->Instance==TIM14)
 8001eec:	687b      	ldr	r3, [r7, #4]
 8001eee:	681b      	ldr	r3, [r3, #0]
 8001ef0:	4a29      	ldr	r2, [pc, #164]	; (8001f98 <HAL_TIM_MspPostInit+0x118>)
 8001ef2:	4293      	cmp	r3, r2
 8001ef4:	d123      	bne.n	8001f3e <HAL_TIM_MspPostInit+0xbe>
    __HAL_RCC_GPIOA_CLK_ENABLE();
 8001ef6:	4b27      	ldr	r3, [pc, #156]	; (8001f94 <HAL_TIM_MspPostInit+0x114>)
 8001ef8:	6b5a      	ldr	r2, [r3, #52]	; 0x34
 8001efa:	4b26      	ldr	r3, [pc, #152]	; (8001f94 <HAL_TIM_MspPostInit+0x114>)
 8001efc:	2101      	movs	r1, #1
 8001efe:	430a      	orrs	r2, r1
 8001f00:	635a      	str	r2, [r3, #52]	; 0x34
 8001f02:	4b24      	ldr	r3, [pc, #144]	; (8001f94 <HAL_TIM_MspPostInit+0x114>)
 8001f04:	6b5b      	ldr	r3, [r3, #52]	; 0x34
 8001f06:	2201      	movs	r2, #1
 8001f08:	4013      	ands	r3, r2
 8001f0a:	60fb      	str	r3, [r7, #12]
 8001f0c:	68fb      	ldr	r3, [r7, #12]
    GPIO_InitStruct.Pin = PWM_GEN_OUT_Pin;
 8001f0e:	2114      	movs	r1, #20
 8001f10:	187b      	adds	r3, r7, r1
 8001f12:	2210      	movs	r2, #16
 8001f14:	601a      	str	r2, [r3, #0]
    GPIO_InitStruct.Mode = GPIO_MODE_AF_PP;
 8001f16:	187b      	adds	r3, r7, r1
 8001f18:	2202      	movs	r2, #2
 8001f1a:	605a      	str	r2, [r3, #4]
    GPIO_InitStruct.Pull = GPIO_NOPULL;
 8001f1c:	187b      	adds	r3, r7, r1
 8001f1e:	2200      	movs	r2, #0
 8001f20:	609a      	str	r2, [r3, #8]
    GPIO_InitStruct.Speed = GPIO_SPEED_FREQ_LOW;
 8001f22:	187b      	adds	r3, r7, r1
 8001f24:	2200      	movs	r2, #0
 8001f26:	60da      	str	r2, [r3, #12]
    GPIO_InitStruct.Alternate = GPIO_AF4_TIM14;
