Archive member included to satisfy reference by file (symbol)

c:/st/stm32cubeide_1.1.0/stm32cubeide/plugins/com.st.stm32cube.ide.mcu.externaltools.gnu-tools-for-stm32.9-2020-q2-update.win32_1.5.0.202011040924/tools/bin/../lib/gcc/arm-none-eabi/9.3.1/../../../../arm-none-eabi/lib/thumb/v6-m/nofp\libc_nano.a(lib_a-errno.o)
                              Core/Src/syscalls.o (__errno)
c:/st/stm32cubeide_1.1.0/stm32cubeide/plugins/com.st.stm32cube.ide.mcu.externaltools.gnu-tools-for-stm32.9-2020-q2-update.win32_1.5.0.202011040924/tools/bin/../lib/gcc/arm-none-eabi/9.3.1/../../../../arm-none-eabi/lib/thumb/v6-m/nofp\libc_nano.a(lib_a-exit.o)
                              c:/st/stm32cubeide_1.1.0/stm32cubeide/plugins/com.st.stm32cube.ide.mcu.externaltools.gnu-tools-for-stm32.9-2020-q2-update.win32_1.5.0.202011040924/tools/bin/../lib/gcc/arm-none-eabi/9.3.1/../../../../arm-none-eabi/lib/thumb/v6-m/nofp/crt0.o (exit)
c:/st/stm32cubeide_1.1.0/stm32cubeide/plugins/com.st.stm32cube.ide.mcu.externaltools.gnu-tools-for-stm32.9-2020-q2-update.win32_1.5.0.202011040924/tools/bin/../lib/gcc/arm-none-eabi/9.3.1/../../../../arm-none-eabi/lib/thumb/v6-m/nofp\libc_nano.a(lib_a-impure.o)
                              c:/st/stm32cubeide_1.1.0/stm32cubeide/plugins/com.st.stm32cube.ide.mcu.externaltools.gnu-tools-for-stm32.9-2020-q2-update.win32_1.5.0.202011040924/tools/bin/../lib/gcc/arm-none-eabi/9.3.1/../../../../arm-none-eabi/lib/thumb/v6-m/nofp\libc_nano.a(lib_a-exit.o) (_global_impure_ptr)
c:/st/stm32cubeide_1.1.0/stm32cubeide/plugins/com.st.stm32cube.ide.mcu.externaltools.gnu-tools-for-stm32.9-2020-q2-update.win32_1.5.0.202011040924/tools/bin/../lib/gcc/arm-none-eabi/9.3.1/../../../../arm-none-eabi/lib/thumb/v6-m/nofp\libc_nano.a(lib_a-init.o)
                              c:/st/stm32cubeide_1.1.0/stm32cubeide/plugins/com.st.stm32cube.ide.mcu.externaltools.gnu-tools-for-stm32.9-2020-q2-update.win32_1.5.0.202011040924/tools/bin/../lib/gcc/arm-none-eabi/9.3.1/../../../../arm-none-eabi/lib/thumb/v6-m/nofp/crt0.o (__libc_init_array)
c:/st/stm32cubeide_1.1.0/stm32cubeide/plugins/com.st.stm32cube.ide.mcu.externaltools.gnu-tools-for-stm32.9-2020-q2-update.win32_1.5.0.202011040924/tools/bin/../lib/gcc/arm-none-eabi/9.3.1/../../../../arm-none-eabi/lib/thumb/v6-m/nofp\libc_nano.a(lib_a-memset.o)
                              c:/st/stm32cubeide_1.1.0/stm32cubeide/plugins/com.st.stm32cube.ide.mcu.externaltools.gnu-tools-for-stm32.9-2020-q2-update.win32_1.5.0.202011040924/tools/bin/../lib/gcc/arm-none-eabi/9.3.1/../../../../arm-none-eabi/lib/thumb/v6-m/nofp/crt0.o (memset)
c:/st/stm32cubeide_1.1.0/stm32cubeide/plugins/com.st.stm32cube.ide.mcu.externaltools.gnu-tools-for-stm32.9-2020-q2-update.win32_1.5.0.202011040924/tools/bin/../lib/gcc/arm-none-eabi/9.3.1/thumb/v6-m/nofp\libgcc.a(_udivsi3.o)
                              Core/Src/system_stm32g0xx.o (__aeabi_uidiv)
c:/st/stm32cubeide_1.1.0/stm32cubeide/plugins/com.st.stm32cube.ide.mcu.externaltools.gnu-tools-for-stm32.9-2020-q2-update.win32_1.5.0.202011040924/tools/bin/../lib/gcc/arm-none-eabi/9.3.1/thumb/v6-m/nofp\libgcc.a(_divsi3.o)
                              Drivers/STM32G0xx_HAL_Driver/stm32g0xx_hal_uart_ex.o (__aeabi_idiv)
c:/st/stm32cubeide_1.1.0/stm32cubeide/plugins/com.st.stm32cube.ide.mcu.externaltools.gnu-tools-for-stm32.9-2020-q2-update.win32_1.5.0.202011040924/tools/bin/../lib/gcc/arm-none-eabi/9.3.1/thumb/v6-m/nofp\libgcc.a(_dvmd_tls.o)
                              c:/st/stm32cubeide_1.1.0/stm32cubeide/plugins/com.st.stm32cube.ide.mcu.externaltools.gnu-tools-for-stm32.9-2020-q2-update.win32_1.5.0.202011040924/tools/bin/../lib/gcc/arm-none-eabi/9.3.1/thumb/v6-m/nofp\libgcc.a(_udivsi3.o) (__aeabi_idiv0)
c:/st/stm32cubeide_1.1.0/stm32cubeide/plugins/com.st.stm32cube.ide.mcu.externaltools.gnu-tools-for-stm32.9-2020-q2-update.win32_1.5.0.202011040924/tools/bin/../lib/gcc/arm-none-eabi/9.3.1/thumb/v6-m/nofp\libgcc.a(_aeabi_uldivmod.o)
                              Drivers/STM32G0xx_HAL_Driver/stm32g0xx_hal_uart.o (__aeabi_uldivmod)
c:/st/stm32cubeide_1.1.0/stm32cubeide/plugins/com.st.stm32cube.ide.mcu.externaltools.gnu-tools-for-stm32.9-2020-q2-update.win32_1.5.0.202011040924/tools/bin/../lib/gcc/arm-none-eabi/9.3.1/thumb/v6-m/nofp\libgcc.a(_udivmoddi4.o)
                              c:/st/stm32cubeide_1.1.0/stm32cubeide/plugins/com.st.stm32cube.ide.mcu.externaltools.gnu-tools-for-stm32.9-2020-q2-update.win32_1.5.0.202011040924/tools/bin/../lib/gcc/arm-none-eabi/9.3.1/thumb/v6-m/nofp\libgcc.a(_aeabi_uldivmod.o) (__udivmoddi4)
c:/st/stm32cubeide_1.1.0/stm32cubeide/plugins/com.st.stm32cube.ide.mcu.externaltools.gnu-tools-for-stm32.9-2020-q2-update.win32_1.5.0.202011040924/tools/bin/../lib/gcc/arm-none-eabi/9.3.1/thumb/v6-m/nofp\libgcc.a(_clzdi2.o)
                              c:/st/stm32cubeide_1.1.0/stm32cubeide/plugins/com.st.stm32cube.ide.mcu.externaltools.gnu-tools-for-stm32.9-2020-q2-update.win32_1.5.0.202011040924/tools/bin/../lib/gcc/arm-none-eabi/9.3.1/thumb/v6-m/nofp\libgcc.a(_udivmoddi4.o) (__clzdi2)
c:/st/stm32cubeide_1.1.0/stm32cubeide/plugins/com.st.stm32cube.ide.mcu.externaltools.gnu-tools-for-stm32.9-2020-q2-update.win32_1.5.0.202011040924/tools/bin/../lib/gcc/arm-none-eabi/9.3.1/thumb/v6-m/nofp\libgcc.a(_clzsi2.o)
                              c:/st/stm32cubeide_1.1.0/stm32cubeide/plugins/com.st.stm32cube.ide.mcu.externaltools.gnu-tools-for-stm32.9-2020-q2-update.win32_1.5.0.202011040924/tools/bin/../lib/gcc/arm-none-eabi/9.3.1/thumb/v6-m/nofp\libgcc.a(_clzdi2.o) (__clzsi2)

Allocating common symbols
Common symbol       size              file

hi2c2               0x4c              Core/Src/main.o
htim17              0x4c              Core/Src/main.o
uwTick              0x4               Drivers/STM32G0xx_HAL_Driver/stm32g0xx_hal.o
hcomp1              0x30              Core/Src/main.o
huart1              0x90              Core/Src/main.o
htim2               0x4c              Core/Src/main.o
htim14              0x4c              Core/Src/main.o

Discarded input sections

 .text          0x0000000000000000        0x0 c:/st/stm32cubeide_1.1.0/stm32cubeide/plugins/com.st.stm32cube.ide.mcu.externaltools.gnu-tools-for-stm32.9-2020-q2-update.win32_1.5.0.202011040924/tools/bin/../lib/gcc/arm-none-eabi/9.3.1/thumb/v6-m/nofp/crti.o
 .data          0x0000000000000000        0x0 c:/st/stm32cubeide_1.1.0/stm32cubeide/plugins/com.st.stm32cube.ide.mcu.externaltools.gnu-tools-for-stm32.9-2020-q2-update.win32_1.5.0.202011040924/tools/bin/../lib/gcc/arm-none-eabi/9.3.1/thumb/v6-m/nofp/crti.o
 .bss           0x0000000000000000        0x0 c:/st/stm32cubeide_1.1.0/stm32cubeide/plugins/com.st.stm32cube.ide.mcu.externaltools.gnu-tools-for-stm32.9-2020-q2-update.win32_1.5.0.202011040924/tools/bin/../lib/gcc/arm-none-eabi/9.3.1/thumb/v6-m/nofp/crti.o
 .data          0x0000000000000000        0x4 c:/st/stm32cubeide_1.1.0/stm32cubeide/plugins/com.st.stm32cube.ide.mcu.externaltools.gnu-tools-for-stm32.9-2020-q2-update.win32_1.5.0.202011040924/tools/bin/../lib/gcc/arm-none-eabi/9.3.1/thumb/v6-m/nofp/crtbegin.o
 .text          0x0000000000000000       0x80 c:/st/stm32cubeide_1.1.0/stm32cubeide/plugins/com.st.stm32cube.ide.mcu.externaltools.gnu-tools-for-stm32.9-2020-q2-update.win32_1.5.0.202011040924/tools/bin/../lib/gcc/arm-none-eabi/9.3.1/../../../../arm-none-eabi/lib/thumb/v6-m/nofp/crt0.o
 .data          0x0000000000000000        0x0 c:/st/stm32cubeide_1.1.0/stm32cubeide/plugins/com.st.stm32cube.ide.mcu.externaltools.gnu-tools-for-stm32.9-2020-q2-update.win32_1.5.0.202011040924/tools/bin/../lib/gcc/arm-none-eabi/9.3.1/../../../../arm-none-eabi/lib/thumb/v6-m/nofp/crt0.o
 .bss           0x0000000000000000        0x0 c:/st/stm32cubeide_1.1.0/stm32cubeide/plugins/com.st.stm32cube.ide.mcu.externaltools.gnu-tools-for-stm32.9-2020-q2-update.win32_1.5.0.202011040924/tools/bin/../lib/gcc/arm-none-eabi/9.3.1/../../../../arm-none-eabi/lib/thumb/v6-m/nofp/crt0.o
 .ARM.extab     0x0000000000000000        0x0 c:/st/stm32cubeide_1.1.0/stm32cubeide/plugins/com.st.stm32cube.ide.mcu.externaltools.gnu-tools-for-stm32.9-2020-q2-update.win32_1.5.0.202011040924/tools/bin/../lib/gcc/arm-none-eabi/9.3.1/../../../../arm-none-eabi/lib/thumb/v6-m/nofp/crt0.o
 .ARM.exidx     0x0000000000000000       0x10 c:/st/stm32cubeide_1.1.0/stm32cubeide/plugins/com.st.stm32cube.ide.mcu.externaltools.gnu-tools-for-stm32.9-2020-q2-update.win32_1.5.0.202011040924/tools/bin/../lib/gcc/arm-none-eabi/9.3.1/../../../../arm-none-eabi/lib/thumb/v6-m/nofp/crt0.o
 .ARM.attributes
                0x0000000000000000       0x1b c:/st/stm32cubeide_1.1.0/stm32cubeide/plugins/com.st.stm32cube.ide.mcu.externaltools.gnu-tools-for-stm32.9-2020-q2-update.win32_1.5.0.202011040924/tools/bin/../lib/gcc/arm-none-eabi/9.3.1/../../../../arm-none-eabi/lib/thumb/v6-m/nofp/crt0.o
 .group         0x0000000000000000        0xc Core/Src/main.o
 .group         0x0000000000000000        0xc Core/Src/main.o
 .group         0x0000000000000000        0xc Core/Src/main.o
 .group         0x0000000000000000        0xc Core/Src/main.o
 .group         0x0000000000000000        0xc Core/Src/main.o
 .group         0x0000000000000000        0xc Core/Src/main.o
 .group         0x0000000000000000        0xc Core/Src/main.o
Memory Configuration

Name             Origin             Length             Attributes
RAM              0x0000000020000000 0x0000000000009000 xrw
FLASH            0x0000000008000000 0x0000000000010000 xr
*default*        0x0000000000000000 0xffffffffffffffff

Linker script and memory map

LOAD c:/st/stm32cubeide_1.1.0/stm32cubeide/plugins/com.st.stm32cube.ide.mcu.externaltools.gnu-tools-for-stm32.9-2020-q2-update.win32_1.5.0.202011040924/tools/bin/../lib/gcc/arm-none-eabi/9.3.1/thumb/v6-m/nofp/crti.o
LOAD c:/st/stm32cubeide_1.1.0/stm32cubeide/plugins/com.st.stm32cube.ide.mcu.externaltools.gnu-tools-for-stm32.9-2020-q2-update.win32_1.5.0.202011040924/tools/bin/../lib/gcc/arm-none-eabi/9.3.1/thumb/v6-m/nofp/crtbegin.o
LOAD c:/st/stm32cubeide_1.1.0/stm32cubeide/plugins/com.st.stm32cube.ide.mcu.externaltools.gnu-tools-for-stm32.9-2020-q2-update.win32_1.5.0.202011040924/tools/bin/../lib/gcc/arm-none-eabi/9.3.1/../../../../arm-none-eabi/lib/thumb/v6-m/nofp/crt0.o
LOAD Core/Src/main.o
LOAD Core/Src/stm32g0xx_hal_msp.o
LOAD Core/Src/stm32g0xx_it.o
LOAD Core/Src/syscalls.o
LOAD Core/Src/sysmem.o
LOAD Core/Src/system_stm32g0xx.o
LOAD Core/Src/vcnl4020.o
LOAD Core/Startup/startup_stm32g071g8uxn.o
LOAD Drivers/STM32G0xx_HAL_Driver/stm32g0xx_hal.o
LOAD Drivers/STM32G0xx_HAL_Driver/stm32g0xx_hal_comp.o
LOAD Drivers/STM32G0xx_HAL_Driver/stm32g0xx_hal_cortex.o
LOAD Drivers/STM32G0xx_HAL_Driver/stm32g0xx_hal_dma.o
LOAD Drivers/STM32G0xx_HAL_Driver/stm32g0xx_hal_dma_ex.o
LOAD Drivers/STM32G0xx_HAL_Driver/stm32g0xx_hal_exti.o
LOAD Drivers/STM32G0xx_HAL_Driver/stm32g0xx_hal_flash.o
LOAD Drivers/STM32G0xx_HAL_Driver/stm32g0xx_hal_flash_ex.o
LOAD Drivers/STM32G0xx_HAL_Driver/stm32g0xx_hal_gpio.o
LOAD Drivers/STM32G0xx_HAL_Driver/stm32g0xx_hal_i2c.o
LOAD Drivers/STM32G0xx_HAL_Driver/stm32g0xx_hal_i2c_ex.o
LOAD Drivers/STM32G0xx_HAL_Driver/stm32g0xx_hal_pwr.o
LOAD Drivers/STM32G0xx_HAL_Driver/stm32g0xx_hal_pwr_ex.o
LOAD Drivers/STM32G0xx_HAL_Driver/stm32g0xx_hal_rcc.o
LOAD Drivers/STM32G0xx_HAL_Driver/stm32g0xx_hal_rcc_ex.o
LOAD Drivers/STM32G0xx_HAL_Driver/stm32g0xx_hal_tim.o
LOAD Drivers/STM32G0xx_HAL_Driver/stm32g0xx_hal_tim_ex.o
LOAD Drivers/STM32G0xx_HAL_Driver/stm32g0xx_hal_uart.o
LOAD Drivers/STM32G0xx_HAL_Driver/stm32g0xx_hal_uart_ex.o
LOAD Drivers/STM32G0xx_HAL_Driver/stm32g0xx_ll_dma.o
LOAD Drivers/STM32G0xx_HAL_Driver/stm32g0xx_ll_rcc.o
START GROUP
LOAD c:/st/stm32cubeide_1.1.0/stm32cubeide/plugins/com.st.stm32cube.ide.mcu.externaltools.gnu-tools-for-stm32.9-2020-q2-update.win32_1.5.0.202011040924/tools/bin/../lib/gcc/arm-none-eabi/9.3.1/../../../../arm-none-eabi/lib/thumb/v6-m/nofp\libc_nano.a
LOAD c:/st/stm32cubeide_1.1.0/stm32cubeide/plugins/com.st.stm32cube.ide.mcu.externaltools.gnu-tools-for-stm32.9-2020-q2-update.win32_1.5.0.202011040924/tools/bin/../lib/gcc/arm-none-eabi/9.3.1/../../../../arm-none-eabi/lib/thumb/v6-m/nofp\libm.a
END GROUP
START GROUP
LOAD c:/st/stm32cubeide_1.1.0/stm32cubeide/plugins/com.st.stm32cube.ide.mcu.externaltools.gnu-tools-for-stm32.9-2020-q2-update.win32_1.5.0.202011040924/tools/bin/../lib/gcc/arm-none-eabi/9.3.1/thumb/v6-m/nofp\libgcc.a
LOAD c:/st/stm32cubeide_1.1.0/stm32cubeide/plugins/com.st.stm32cube.ide.mcu.externaltools.gnu-tools-for-stm32.9-2020-q2-update.win32_1.5.0.202011040924/tools/bin/../lib/gcc/arm-none-eabi/9.3.1/../../../../arm-none-eabi/lib/thumb/v6-m/nofp\libc_nano.a
END GROUP
START GROUP
LOAD c:/st/stm32cubeide_1.1.0/stm32cubeide/plugins/com.st.stm32cube.ide.mcu.externaltools.gnu-tools-for-stm32.9-2020-q2-update.win32_1.5.0.202011040924/tools/bin/../lib/gcc/arm-none-eabi/9.3.1/thumb/v6-m/nofp\libgcc.a
LOAD c:/st/stm32cubeide_1.1.0/stm32cubeide/plugins/com.st.stm32cube.ide.mcu.externaltools.gnu-tools-for-stm32.9-2020-q2-update.win32_1.5.0.202011040924/tools/bin/../lib/gcc/arm-none-eabi/9.3.1/../../../../arm-none-eabi/lib/thumb/v6-m/nofp\libc_nano.a
LOAD c:/st/stm32cubeide_1.1.0/stm32cubeide/plugins/com.st.stm32cube.ide.mcu.externaltools.gnu-tools-for-stm32.9-2020-q2-update.win32_1.5.0.202011040924/tools/bin/../lib/gcc/arm-none-eabi/9.3.1/../../../../arm-none-eabi/lib/thumb/v6-m/nofp\libnosys.a
END GROUP
START GROUP
LOAD c:/st/stm32cubeide_1.1.0/stm32cubeide/plugins/com.st.stm32cube.ide.mcu.externaltools.gnu-tools-for-stm32.9-2020-q2-update.win32_1.5.0.202011040924/tools/bin/../lib/gcc/arm-none-eabi/9.3.1/thumb/v6-m/nofp\libgcc.a
LOAD c:/st/stm32cubeide_1.1.0/stm32cubeide/plugins/com.st.stm32cube.ide.mcu.externaltools.gnu-tools-for-stm32.9-2020-q2-update.win32_1.5.0.202011040924/tools/bin/../lib/gcc/arm-none-eabi/9.3.1/../../../../arm-none-eabi/lib/thumb/v6-m/nofp\libc_nano.a
LOAD c:/st/stm32cubeide_1.1.0/stm32cubeide/plugins/com.st.stm32cube.ide.mcu.externaltools.gnu-tools-for-stm32.9-2020-q2-update.win32_1.5.0.202011040924/tools/bin/../lib/gcc/arm-none-eabi/9.3.1/../../../../arm-none-eabi/lib/thumb/v6-m/nofp\libnosys.a
END GROUP
LOAD c:/st/stm32cubeide_1.1.0/stm32cubeide/plugins/com.st.stm32cube.ide.mcu.externaltools.gnu-tools-for-stm32.9-2020-q2-update.win32_1.5.0.202011040924/tools/bin/../lib/gcc/arm-none-eabi/9.3.1/thumb/v6-m/nofp/crtend.o
LOAD c:/st/stm32cubeide_1.1.0/stm32cubeide/plugins/com.st.stm32cube.ide.mcu.externaltools.gnu-tools-for-stm32.9-2020-q2-update.win32_1.5.0.202011040924/tools/bin/../lib/gcc/arm-none-eabi/9.3.1/thumb/v6-m/nofp/crtn.o
                0x0000000020009000                _estack = (ORIGIN (RAM) + LENGTH (RAM))
                0x0000000000000200                _Min_Heap_Size = 0x200
                0x0000000000000400                _Min_Stack_Size = 0x400

.isr_vector     0x0000000008000000       0xbc
                0x0000000008000000                . = ALIGN (0x4)
 *(.isr_vector)
 .isr_vector    0x0000000008000000       0xbc Core/Startup/startup_stm32g071g8uxn.o
                0x0000000008000000                g_pfnVectors
                0x00000000080000bc                . = ALIGN (0x4)

.text           0x00000000080000c0     0x7aa8
                0x00000000080000c0                . = ALIGN (0x4)
 *(.text)
 .text          0x00000000080000c0       0x48 c:/st/stm32cubeide_1.1.0/stm32cubeide/plugins/com.st.stm32cube.ide.mcu.externaltools.gnu-tools-for-stm32.9-2020-q2-update.win32_1.5.0.202011040924/tools/bin/../lib/gcc/arm-none-eabi/9.3.1/thumb/v6-m/nofp/crtbegin.o
 .text          0x0000000008000108      0x114 c:/st/stm32cubeide_1.1.0/stm32cubeide/plugins/com.st.stm32cube.ide.mcu.externaltools.gnu-tools-for-stm32.9-2020-q2-update.win32_1.5.0.202011040924/tools/bin/../lib/gcc/arm-none-eabi/9.3.1/thumb/v6-m/nofp\libgcc.a(_udivsi3.o)
                0x0000000008000108                __aeabi_uidiv
                0x0000000008000108                __udivsi3
                0x0000000008000214                __aeabi_uidivmod
 .text          0x000000000800021c      0x1d4 c:/st/stm32cubeide_1.1.0/stm32cubeide/plugins/com.st.stm32cube.ide.mcu.externaltools.gnu-tools-for-stm32.9-2020-q2-update.win32_1.5.0.202011040924/tools/bin/../lib/gcc/arm-none-eabi/9.3.1/thumb/v6-m/nofp\libgcc.a(_divsi3.o)
                0x000000000800021c                __divsi3
                0x000000000800021c                __aeabi_idiv
                0x00000000080003e8                __aeabi_idivmod
 .text          0x00000000080003f0        0x4 c:/st/stm32cubeide_1.1.0/stm32cubeide/plugins/com.st.stm32cube.ide.mcu.externaltools.gnu-tools-for-stm32.9-2020-q2-update.win32_1.5.0.202011040924/tools/bin/../lib/gcc/arm-none-eabi/9.3.1/thumb/v6-m/nofp\libgcc.a(_dvmd_tls.o)
                0x00000000080003f0                __aeabi_idiv0
                0x00000000080003f0                __aeabi_ldiv0
 .text          0x00000000080003f4       0x40 c:/st/stm32cubeide_1.1.0/stm32cubeide/plugins/com.st.stm32cube.ide.mcu.externaltools.gnu-tools-for-stm32.9-2020-q2-update.win32_1.5.0.202011040924/tools/bin/../lib/gcc/arm-none-eabi/9.3.1/thumb/v6-m/nofp\libgcc.a(_aeabi_uldivmod.o)
                0x00000000080003f4                __aeabi_uldivmod
 .text          0x0000000008000434      0x198 c:/st/stm32cubeide_1.1.0/stm32cubeide/plugins/com.st.stm32cube.ide.mcu.externaltools.gnu-tools-for-stm32.9-2020-q2-update.win32_1.5.0.202011040924/tools/bin/../lib/gcc/arm-none-eabi/9.3.1/thumb/v6-m/nofp\libgcc.a(_udivmoddi4.o)
                0x0000000008000434                __udivmoddi4
 .text          0x00000000080005cc       0x18 c:/st/stm32cubeide_1.1.0/stm32cubeide/plugins/com.st.stm32cube.ide.mcu.externaltools.gnu-tools-for-stm32.9-2020-q2-update.win32_1.5.0.202011040924/tools/bin/../lib/gcc/arm-none-eabi/9.3.1/thumb/v6-m/nofp\libgcc.a(_clzdi2.o)
                0x00000000080005cc                __clzdi2
 .text          0x00000000080005e4       0x3c c:/st/stm32cubeide_1.1.0/stm32cubeide/plugins/com.st.stm32cube.ide.mcu.externaltools.gnu-tools-for-stm32.9-2020-q2-update.win32_1.5.0.202011040924/tools/bin/../lib/gcc/arm-none-eabi/9.3.1/thumb/v6-m/nofp\libgcc.a(_clzsi2.o)
                0x00000000080005e4                __clzsi2
 *(.text*)
 .text.HAL_SYSTICK_Callback
                0x0000000008000620       0xcc Core/Src/main.o
                0x0000000008000620                HAL_SYSTICK_Callback
 .text.main     0x00000000080006ec      0x8bc Core/Src/main.o
                0x00000000080006ec                main
 .text.SystemClock_Config
                0x0000000008000fa8       0xbe Core/Src/main.o
                0x0000000008000fa8                SystemClock_Config
 *fill*         0x0000000008001066        0x2 
 .text.MX_COMP1_Init
                0x0000000008001068       0x64 Core/Src/main.o
 .text.MX_I2C2_Init
                0x00000000080010cc       0x88 Core/Src/main.o
 .text.MX_TIM2_Init
                0x0000000008001154       0xd0 Core/Src/main.o
 .text.MX_TIM14_Init
                0x0000000008001224       0x9c Core/Src/main.o
 .text.MX_TIM17_Init
                0x00000000080012c0      0x10c Core/Src/main.o
 .text.MX_USART1_UART_Init
                0x00000000080013cc       0x9c Core/Src/main.o
 .text.MX_GPIO_Init
                0x0000000008001468       0xf4 Core/Src/main.o
 .text.HAL_GPIO_EXTI_Rising_Callback
                0x000000000800155c       0x64 Core/Src/main.o
                0x000000000800155c                HAL_GPIO_EXTI_Rising_Callback
 .text.HAL_GPIO_EXTI_Falling_Callback
                0x00000000080015c0      0x680 Core/Src/main.o
                0x00000000080015c0                HAL_GPIO_EXTI_Falling_Callback
 .text.Error_Handler
                0x0000000008001c40        0xa Core/Src/main.o
                0x0000000008001c40                Error_Handler
 *fill*         0x0000000008001c4a        0x2 
 .text.HAL_MspInit
                0x0000000008001c4c       0x50 Core/Src/stm32g0xx_hal_msp.o
                0x0000000008001c4c                HAL_MspInit
 .text.HAL_COMP_MspInit
                0x0000000008001c9c       0x98 Core/Src/stm32g0xx_hal_msp.o
                0x0000000008001c9c                HAL_COMP_MspInit
 .text.HAL_I2C_MspInit
                0x0000000008001d34       0xa8 Core/Src/stm32g0xx_hal_msp.o
                0x0000000008001d34                HAL_I2C_MspInit
 .text.HAL_TIM_PWM_MspInit
                0x0000000008001ddc       0x38 Core/Src/stm32g0xx_hal_msp.o
                0x0000000008001ddc                HAL_TIM_PWM_MspInit
 .text.HAL_TIM_Base_MspInit
                0x0000000008001e14       0x6c Core/Src/stm32g0xx_hal_msp.o
                0x0000000008001e14                HAL_TIM_Base_MspInit
 .text.HAL_TIM_MspPostInit
                0x0000000008001e80      0x124 Core/Src/stm32g0xx_hal_msp.o
                0x0000000008001e80                HAL_TIM_MspPostInit
 .text.HAL_UART_MspInit
                0x0000000008001fa4       0xa8 Core/Src/stm32g0xx_hal_msp.o
                0x0000000008001fa4                HAL_UART_MspInit
 .text.NMI_Handler
                0x000000000800204c        0x6 Core/Src/stm32g0xx_it.o
                0x000000000800204c                NMI_Handler
 .text.HardFault_Handler
                0x0000000008002052        0x6 Core/Src/stm32g0xx_it.o
                0x0000000008002052                HardFault_Handler
 .text.SVC_Handler
                0x0000000008002058        0xa Core/Src/stm32g0xx_it.o
                0x0000000008002058                SVC_Handler
 .text.PendSV_Handler
                0x0000000008002062        0xa Core/Src/stm32g0xx_it.o
                0x0000000008002062                PendSV_Handler
 .text.SysTick_Handler
                0x000000000800206c       0x12 Core/Src/stm32g0xx_it.o
                0x000000000800206c                SysTick_Handler
 .text.EXTI2_3_IRQHandler
                0x000000000800207e       0x10 Core/Src/stm32g0xx_it.o
                0x000000000800207e                EXTI2_3_IRQHandler
 .text.EXTI4_15_IRQHandler
                0x000000000800208e       0x14 Core/Src/stm32g0xx_it.o
                0x000000000800208e                EXTI4_15_IRQHandler
 *fill*         0x00000000080020a2        0x2 
 .text.I2C2_IRQHandler
                0x00000000080020a4       0x30 Core/Src/stm32g0xx_it.o
                0x00000000080020a4                I2C2_IRQHandler
 .text.USART1_IRQHandler
                0x00000000080020d4       0x18 Core/Src/stm32g0xx_it.o
                0x00000000080020d4                USART1_IRQHandler
 .text.SystemInit
                0x00000000080020ec       0x18 Core/Src/system_stm32g0xx.o
                0x00000000080020ec                SystemInit
 .text.I2C_Write_Byte
                0x0000000008002104       0x50 Core/Src/vcnl4020.o
                0x0000000008002104                I2C_Write_Byte
 .text.I2C_Read_Byte
                0x0000000008002154       0x52 Core/Src/vcnl4020.o
                0x0000000008002154                I2C_Read_Byte
 .text.VCNL4020_Set_Threshold
                0x00000000080021a6       0x88 Core/Src/vcnl4020.o
                0x00000000080021a6                VCNL4020_Set_Threshold
 .text.VCNL4020_Init
                0x000000000800222e       0x54 Core/Src/vcnl4020.o
                0x000000000800222e                VCNL4020_Init
 *fill*         0x0000000008002282        0x2 
 .text.Reset_Handler
                0x0000000008002284       0x50 Core/Startup/startup_stm32g071g8uxn.o
                0x0000000008002284                Reset_Handler
 .text.Default_Handler
                0x00000000080022d4        0x2 Core/Startup/startup_stm32g071g8uxn.o
                0x00000000080022d4                USART3_4_LPUART1_IRQHandler
                0x00000000080022d4                TIM1_CC_IRQHandler
                0x00000000080022d4                ADC1_COMP_IRQHandler
                0x00000000080022d4                PVD_IRQHandler
                0x00000000080022d4                I2C1_IRQHandler
                0x00000000080022d4                TIM7_LPTIM2_IRQHandler
                0x00000000080022d4                RTC_TAMP_IRQHandler
                0x00000000080022d4                SPI1_IRQHandler
                0x00000000080022d4                TIM17_IRQHandler
                0x00000000080022d4                TIM16_IRQHandler
                0x00000000080022d4                TIM3_IRQHandler
                0x00000000080022d4                RCC_IRQHandler
                0x00000000080022d4                DMA1_Channel1_IRQHandler
                0x00000000080022d4                Default_Handler
                0x00000000080022d4                CEC_IRQHandler
                0x00000000080022d4                TIM14_IRQHandler
                0x00000000080022d4                TIM15_IRQHandler
                0x00000000080022d4                EXTI0_1_IRQHandler
                0x00000000080022d4                SPI2_IRQHandler
                0x00000000080022d4                TIM6_DAC_LPTIM1_IRQHandler
                0x00000000080022d4                WWDG_IRQHandler
                0x00000000080022d4                TIM2_IRQHandler
                0x00000000080022d4                DMA1_Ch4_7_DMAMUX1_OVR_IRQHandler
                0x00000000080022d4                DMA1_Channel2_3_IRQHandler
                0x00000000080022d4                UCPD1_2_IRQHandler
                0x00000000080022d4                USART2_IRQHandler
                0x00000000080022d4                FLASH_IRQHandler
                0x00000000080022d4                TIM1_BRK_UP_TRG_COM_IRQHandler
 *fill*         0x00000000080022d6        0x2 
 .text.HAL_Init
                0x00000000080022d8       0x40 Drivers/STM32G0xx_HAL_Driver/stm32g0xx_hal.o
                0x00000000080022d8                HAL_Init
 .text.HAL_InitTick
                0x0000000008002318       0x94 Drivers/STM32G0xx_HAL_Driver/stm32g0xx_hal.o
                0x0000000008002318                HAL_InitTick
 .text.HAL_IncTick
                0x00000000080023ac       0x24 Drivers/STM32G0xx_HAL_Driver/stm32g0xx_hal.o
                0x00000000080023ac                HAL_IncTick
 .text.HAL_GetTick
                0x00000000080023d0       0x14 Drivers/STM32G0xx_HAL_Driver/stm32g0xx_hal.o
                0x00000000080023d0                HAL_GetTick
 .text.HAL_Delay
                0x00000000080023e4       0x48 Drivers/STM32G0xx_HAL_Driver/stm32g0xx_hal.o
                0x00000000080023e4                HAL_Delay
 .text.HAL_SYSCFG_StrobeDBattpinsConfig
                0x000000000800242c       0x2c Drivers/STM32G0xx_HAL_Driver/stm32g0xx_hal.o
                0x000000000800242c                HAL_SYSCFG_StrobeDBattpinsConfig
 .text.LL_EXTI_EnableIT_0_31
                0x0000000008002458       0x24 Drivers/STM32G0xx_HAL_Driver/stm32g0xx_hal_comp.o
 .text.LL_EXTI_DisableIT_0_31
                0x000000000800247c       0x28 Drivers/STM32G0xx_HAL_Driver/stm32g0xx_hal_comp.o
 .text.LL_EXTI_EnableEvent_0_31
                0x00000000080024a4       0x24 Drivers/STM32G0xx_HAL_Driver/stm32g0xx_hal_comp.o
 .text.LL_EXTI_DisableEvent_0_31
                0x00000000080024c8       0x28 Drivers/STM32G0xx_HAL_Driver/stm32g0xx_hal_comp.o
 .text.LL_EXTI_EnableRisingTrig_0_31
                0x00000000080024f0       0x20 Drivers/STM32G0xx_HAL_Driver/stm32g0xx_hal_comp.o
 .text.LL_EXTI_DisableRisingTrig_0_31
                0x0000000008002510       0x24 Drivers/STM32G0xx_HAL_Driver/stm32g0xx_hal_comp.o
 .text.LL_EXTI_EnableFallingTrig_0_31
                0x0000000008002534       0x20 Drivers/STM32G0xx_HAL_Driver/stm32g0xx_hal_comp.o
 .text.LL_EXTI_DisableFallingTrig_0_31
                0x0000000008002554       0x24 Drivers/STM32G0xx_HAL_Driver/stm32g0xx_hal_comp.o
 .text.LL_EXTI_ClearFallingFlag_0_31
                0x0000000008002578       0x1c Drivers/STM32G0xx_HAL_Driver/stm32g0xx_hal_comp.o
 .text.LL_EXTI_ClearRisingFlag_0_31
                0x0000000008002594       0x1c Drivers/STM32G0xx_HAL_Driver/stm32g0xx_hal_comp.o
 .text.HAL_COMP_Init
                0x00000000080025b0      0x2c4 Drivers/STM32G0xx_HAL_Driver/stm32g0xx_hal_comp.o
                0x00000000080025b0                HAL_COMP_Init
 .text.HAL_COMP_Start
                0x0000000008002874       0xa4 Drivers/STM32G0xx_HAL_Driver/stm32g0xx_hal_comp.o
                0x0000000008002874                HAL_COMP_Start
 .text.__NVIC_EnableIRQ
                0x0000000008002918       0x34 Drivers/STM32G0xx_HAL_Driver/stm32g0xx_hal_cortex.o
 .text.__NVIC_SetPriority
                0x000000000800294c       0xdc Drivers/STM32G0xx_HAL_Driver/stm32g0xx_hal_cortex.o
 .text.SysTick_Config
                0x0000000008002a28       0x48 Drivers/STM32G0xx_HAL_Driver/stm32g0xx_hal_cortex.o
 .text.HAL_NVIC_SetPriority
                0x0000000008002a70       0x2a Drivers/STM32G0xx_HAL_Driver/stm32g0xx_hal_cortex.o
                0x0000000008002a70                HAL_NVIC_SetPriority
 .text.HAL_NVIC_EnableIRQ
                0x0000000008002a9a       0x20 Drivers/STM32G0xx_HAL_Driver/stm32g0xx_hal_cortex.o
                0x0000000008002a9a                HAL_NVIC_EnableIRQ
 .text.HAL_SYSTICK_Config
                0x0000000008002aba       0x1a Drivers/STM32G0xx_HAL_Driver/stm32g0xx_hal_cortex.o
                0x0000000008002aba                HAL_SYSTICK_Config
 .text.HAL_DMA_Abort
                0x0000000008002ad4       0xc4 Drivers/STM32G0xx_HAL_Driver/stm32g0xx_hal_dma.o
                0x0000000008002ad4                HAL_DMA_Abort
 .text.HAL_DMA_Abort_IT
                0x0000000008002b98       0xd4 Drivers/STM32G0xx_HAL_Driver/stm32g0xx_hal_dma.o
                0x0000000008002b98                HAL_DMA_Abort_IT
 .text.HAL_DMA_GetState
                0x0000000008002c6c       0x18 Drivers/STM32G0xx_HAL_Driver/stm32g0xx_hal_dma.o
                0x0000000008002c6c                HAL_DMA_GetState
 .text.HAL_DMA_GetError
                0x0000000008002c84       0x14 Drivers/STM32G0xx_HAL_Driver/stm32g0xx_hal_dma.o
                0x0000000008002c84                HAL_DMA_GetError
 .text.HAL_FLASH_Program
                0x0000000008002c98       0x9c Drivers/STM32G0xx_HAL_Driver/stm32g0xx_hal_flash.o
                0x0000000008002c98                HAL_FLASH_Program
 .text.HAL_FLASH_Unlock
                0x0000000008002d34       0x48 Drivers/STM32G0xx_HAL_Driver/stm32g0xx_hal_flash.o
                0x0000000008002d34                HAL_FLASH_Unlock
 .text.FLASH_WaitForLastOperation
                0x0000000008002d7c       0x9c Drivers/STM32G0xx_HAL_Driver/stm32g0xx_hal_flash.o
                0x0000000008002d7c                FLASH_WaitForLastOperation
 .text.FLASH_Program_DoubleWord
                0x0000000008002e18       0x40 Drivers/STM32G0xx_HAL_Driver/stm32g0xx_hal_flash.o
 .text.HAL_FLASHEx_Erase
                0x0000000008002e58       0xe8 Drivers/STM32G0xx_HAL_Driver/stm32g0xx_hal_flash_ex.o
                0x0000000008002e58                HAL_FLASHEx_Erase
 .text.FLASH_MassErase
                0x0000000008002f40       0x28 Drivers/STM32G0xx_HAL_Driver/stm32g0xx_hal_flash_ex.o
 .text.FLASH_PageErase
                0x0000000008002f68       0x38 Drivers/STM32G0xx_HAL_Driver/stm32g0xx_hal_flash_ex.o
                0x0000000008002f68                FLASH_PageErase
 .text.HAL_GPIO_Init
                0x0000000008002fa0      0x2c8 Drivers/STM32G0xx_HAL_Driver/stm32g0xx_hal_gpio.o
                0x0000000008002fa0                HAL_GPIO_Init
 .text.HAL_GPIO_ReadPin
                0x0000000008003268       0x3a Drivers/STM32G0xx_HAL_Driver/stm32g0xx_hal_gpio.o
                0x0000000008003268                HAL_GPIO_ReadPin
 *fill*         0x00000000080032a2        0x2 
 .text.HAL_GPIO_EXTI_IRQHandler
                0x00000000080032a4       0x54 Drivers/STM32G0xx_HAL_Driver/stm32g0xx_hal_gpio.o
                0x00000000080032a4                HAL_GPIO_EXTI_IRQHandler
 .text.HAL_I2C_Init
                0x00000000080032f8      0x12c Drivers/STM32G0xx_HAL_Driver/stm32g0xx_hal_i2c.o
                0x00000000080032f8                HAL_I2C_Init
 .text.HAL_I2C_Master_Transmit
                0x0000000008003424      0x210 Drivers/STM32G0xx_HAL_Driver/stm32g0xx_hal_i2c.o
                0x0000000008003424                HAL_I2C_Master_Transmit
 .text.HAL_I2C_Master_Receive
                0x0000000008003634      0x210 Drivers/STM32G0xx_HAL_Driver/stm32g0xx_hal_i2c.o
                0x0000000008003634                HAL_I2C_Master_Receive
 .text.HAL_I2C_EV_IRQHandler
                0x0000000008003844       0x34 Drivers/STM32G0xx_HAL_Driver/stm32g0xx_hal_i2c.o
                0x0000000008003844                HAL_I2C_EV_IRQHandler
 .text.HAL_I2C_ER_IRQHandler
                0x0000000008003878       0xc4 Drivers/STM32G0xx_HAL_Driver/stm32g0xx_hal_i2c.o
                0x0000000008003878                HAL_I2C_ER_IRQHandler
 .text.HAL_I2C_SlaveTxCpltCallback
                0x000000000800393c       0x10 Drivers/STM32G0xx_HAL_Driver/stm32g0xx_hal_i2c.o
                0x000000000800393c                HAL_I2C_SlaveTxCpltCallback
 .text.HAL_I2C_SlaveRxCpltCallback
                0x000000000800394c       0x10 Drivers/STM32G0xx_HAL_Driver/stm32g0xx_hal_i2c.o
                0x000000000800394c                HAL_I2C_SlaveRxCpltCallback
 .text.HAL_I2C_AddrCallback
                0x000000000800395c       0x20 Drivers/STM32G0xx_HAL_Driver/stm32g0xx_hal_i2c.o
                0x000000000800395c                HAL_I2C_AddrCallback
 .text.HAL_I2C_ListenCpltCallback
                0x000000000800397c       0x10 Drivers/STM32G0xx_HAL_Driver/stm32g0xx_hal_i2c.o
                0x000000000800397c                HAL_I2C_ListenCpltCallback
 .text.HAL_I2C_ErrorCallback
                0x000000000800398c       0x10 Drivers/STM32G0xx_HAL_Driver/stm32g0xx_hal_i2c.o
                0x000000000800398c                HAL_I2C_ErrorCallback
 .text.HAL_I2C_AbortCpltCallback
                0x000000000800399c       0x10 Drivers/STM32G0xx_HAL_Driver/stm32g0xx_hal_i2c.o
                0x000000000800399c                HAL_I2C_AbortCpltCallback
 .text.I2C_Slave_ISR_IT
                0x00000000080039ac      0x228 Drivers/STM32G0xx_HAL_Driver/stm32g0xx_hal_i2c.o
 .text.I2C_ITAddrCplt
                0x0000000008003bd4      0x148 Drivers/STM32G0xx_HAL_Driver/stm32g0xx_hal_i2c.o
 .text.I2C_ITSlaveSeqCplt
                0x0000000008003d1c       0xcc Drivers/STM32G0xx_HAL_Driver/stm32g0xx_hal_i2c.o
 .text.I2C_ITSlaveCplt
                0x0000000008003de8      0x248 Drivers/STM32G0xx_HAL_Driver/stm32g0xx_hal_i2c.o
 .text.I2C_ITListenCplt
                0x0000000008004030       0xb4 Drivers/STM32G0xx_HAL_Driver/stm32g0xx_hal_i2c.o
 .text.I2C_ITError
                0x00000000080040e4      0x1c4 Drivers/STM32G0xx_HAL_Driver/stm32g0xx_hal_i2c.o
 .text.I2C_TreatErrorCallback
                0x00000000080042a8       0x52 Drivers/STM32G0xx_HAL_Driver/stm32g0xx_hal_i2c.o
 .text.I2C_Flush_TXDR
                0x00000000080042fa       0x44 Drivers/STM32G0xx_HAL_Driver/stm32g0xx_hal_i2c.o
 .text.I2C_DMAAbort
                0x000000000800433e       0x3e Drivers/STM32G0xx_HAL_Driver/stm32g0xx_hal_i2c.o
 .text.I2C_WaitOnFlagUntilTimeout
                0x000000000800437c       0x7e Drivers/STM32G0xx_HAL_Driver/stm32g0xx_hal_i2c.o
 .text.I2C_WaitOnTXISFlagUntilTimeout
                0x00000000080043fa       0x7e Drivers/STM32G0xx_HAL_Driver/stm32g0xx_hal_i2c.o
 .text.I2C_WaitOnSTOPFlagUntilTimeout
                0x0000000008004478       0x78 Drivers/STM32G0xx_HAL_Driver/stm32g0xx_hal_i2c.o
 .text.I2C_WaitOnRXNEFlagUntilTimeout
                0x00000000080044f0       0xd8 Drivers/STM32G0xx_HAL_Driver/stm32g0xx_hal_i2c.o
 .text.I2C_IsAcknowledgeFailed
                0x00000000080045c8       0xcc Drivers/STM32G0xx_HAL_Driver/stm32g0xx_hal_i2c.o
 .text.I2C_TransferConfig
                0x0000000008004694       0x6c Drivers/STM32G0xx_HAL_Driver/stm32g0xx_hal_i2c.o
 .text.I2C_Disable_IRQ
                0x0000000008004700       0xc6 Drivers/STM32G0xx_HAL_Driver/stm32g0xx_hal_i2c.o
 *fill*         0x00000000080047c6        0x2 
 .text.HAL_I2CEx_ConfigAnalogFilter
                0x00000000080047c8       0x98 Drivers/STM32G0xx_HAL_Driver/stm32g0xx_hal_i2c_ex.o
                0x00000000080047c8                HAL_I2CEx_ConfigAnalogFilter
 .text.HAL_I2CEx_ConfigDigitalFilter
                0x0000000008004860       0x98 Drivers/STM32G0xx_HAL_Driver/stm32g0xx_hal_i2c_ex.o
                0x0000000008004860                HAL_I2CEx_ConfigDigitalFilter
 .text.HAL_I2CEx_EnableFastModePlus
                0x00000000080048f8       0x3c Drivers/STM32G0xx_HAL_Driver/stm32g0xx_hal_i2c_ex.o
                0x00000000080048f8                HAL_I2CEx_EnableFastModePlus
 .text.HAL_PWREx_ControlVoltageScaling
                0x0000000008004934       0x80 Drivers/STM32G0xx_HAL_Driver/stm32g0xx_hal_pwr_ex.o
                0x0000000008004934                HAL_PWREx_ControlVoltageScaling
 .text.LL_RCC_GetAPB1Prescaler
                0x00000000080049b4       0x18 Drivers/STM32G0xx_HAL_Driver/stm32g0xx_hal_rcc.o
 .text.HAL_RCC_OscConfig
                0x00000000080049cc      0x640 Drivers/STM32G0xx_HAL_Driver/stm32g0xx_hal_rcc.o
                0x00000000080049cc                HAL_RCC_OscConfig
 .text.HAL_RCC_ClockConfig
                0x000000000800500c      0x210 Drivers/STM32G0xx_HAL_Driver/stm32g0xx_hal_rcc.o
                0x000000000800500c                HAL_RCC_ClockConfig
 .text.HAL_RCC_GetSysClockFreq
                0x000000000800521c      0x104 Drivers/STM32G0xx_HAL_Driver/stm32g0xx_hal_rcc.o
                0x000000000800521c                HAL_RCC_GetSysClockFreq
 .text.HAL_RCC_GetHCLKFreq
                0x0000000008005320       0x14 Drivers/STM32G0xx_HAL_Driver/stm32g0xx_hal_rcc.o
                0x0000000008005320                HAL_RCC_GetHCLKFreq
 .text.HAL_RCC_GetPCLK1Freq
                0x0000000008005334       0x2c Drivers/STM32G0xx_HAL_Driver/stm32g0xx_hal_rcc.o
                0x0000000008005334                HAL_RCC_GetPCLK1Freq
 .text.HAL_RCCEx_PeriphCLKConfig
                0x0000000008005360      0x370 Drivers/STM32G0xx_HAL_Driver/stm32g0xx_hal_rcc_ex.o
                0x0000000008005360                HAL_RCCEx_PeriphCLKConfig
 .text.HAL_TIM_Base_Init
                0x00000000080056d0       0xb0 Drivers/STM32G0xx_HAL_Driver/stm32g0xx_hal_tim.o
                0x00000000080056d0                HAL_TIM_Base_Init
 .text.HAL_TIM_PWM_Init
                0x0000000008005780       0xb0 Drivers/STM32G0xx_HAL_Driver/stm32g0xx_hal_tim.o
                0x0000000008005780                HAL_TIM_PWM_Init
 .text.HAL_TIM_PWM_Start
                0x0000000008005830      0x1d4 Drivers/STM32G0xx_HAL_Driver/stm32g0xx_hal_tim.o
                0x0000000008005830                HAL_TIM_PWM_Start
 .text.HAL_TIM_PWM_ConfigChannel
                0x0000000008005a04      0x1ec Drivers/STM32G0xx_HAL_Driver/stm32g0xx_hal_tim.o
                0x0000000008005a04                HAL_TIM_PWM_ConfigChannel
 .text.TIM_Base_SetConfig
                0x0000000008005bf0      0x100 Drivers/STM32G0xx_HAL_Driver/stm32g0xx_hal_tim.o
                0x0000000008005bf0                TIM_Base_SetConfig
 .text.TIM_OC1_SetConfig
                0x0000000008005cf0      0x114 Drivers/STM32G0xx_HAL_Driver/stm32g0xx_hal_tim.o
 .text.TIM_OC2_SetConfig
                0x0000000008005e04      0x108 Drivers/STM32G0xx_HAL_Driver/stm32g0xx_hal_tim.o
                0x0000000008005e04                TIM_OC2_SetConfig
 .text.TIM_OC3_SetConfig
                0x0000000008005f0c      0x110 Drivers/STM32G0xx_HAL_Driver/stm32g0xx_hal_tim.o
 .text.TIM_OC4_SetConfig
                0x000000000800601c       0xd4 Drivers/STM32G0xx_HAL_Driver/stm32g0xx_hal_tim.o
 .text.TIM_OC5_SetConfig
                0x00000000080060f0       0xc0 Drivers/STM32G0xx_HAL_Driver/stm32g0xx_hal_tim.o
 .text.TIM_OC6_SetConfig
                0x00000000080061b0       0xc8 Drivers/STM32G0xx_HAL_Driver/stm32g0xx_hal_tim.o
 .text.TIM_CCxChannelCmd
                0x0000000008006278       0x46 Drivers/STM32G0xx_HAL_Driver/stm32g0xx_hal_tim.o
                0x0000000008006278                TIM_CCxChannelCmd
 *fill*         0x00000000080062be        0x2 
 .text.HAL_TIMEx_MasterConfigSynchronization
                0x00000000080062c0       0xdc Drivers/STM32G0xx_HAL_Driver/stm32g0xx_hal_tim_ex.o
                0x00000000080062c0                HAL_TIMEx_MasterConfigSynchronization
 .text.HAL_TIMEx_ConfigBreakDeadTime
                0x000000000800639c      0x14c Drivers/STM32G0xx_HAL_Driver/stm32g0xx_hal_tim_ex.o
                0x000000000800639c                HAL_TIMEx_ConfigBreakDeadTime
 .text.HAL_UART_Init
                0x00000000080064e8       0xac Drivers/STM32G0xx_HAL_Driver/stm32g0xx_hal_uart.o
                0x00000000080064e8                HAL_UART_Init
 .text.HAL_UART_Transmit
                0x0000000008006594      0x156 Drivers/STM32G0xx_HAL_Driver/stm32g0xx_hal_uart.o
                0x0000000008006594                HAL_UART_Transmit
 *fill*         0x00000000080066ea        0x2 
 .text.HAL_UART_Receive
                0x00000000080066ec      0x1e4 Drivers/STM32G0xx_HAL_Driver/stm32g0xx_hal_uart.o
                0x00000000080066ec                HAL_UART_Receive
 .text.HAL_UART_Abort
                0x00000000080068d0      0x164 Drivers/STM32G0xx_HAL_Driver/stm32g0xx_hal_uart.o
                0x00000000080068d0                HAL_UART_Abort
 .text.HAL_UART_IRQHandler
                0x0000000008006a34      0x470 Drivers/STM32G0xx_HAL_Driver/stm32g0xx_hal_uart.o
                0x0000000008006a34                HAL_UART_IRQHandler
 .text.HAL_UART_TxCpltCallback
                0x0000000008006ea4       0x10 Drivers/STM32G0xx_HAL_Driver/stm32g0xx_hal_uart.o
                0x0000000008006ea4                HAL_UART_TxCpltCallback
 .text.HAL_UART_ErrorCallback
                0x0000000008006eb4       0x10 Drivers/STM32G0xx_HAL_Driver/stm32g0xx_hal_uart.o
                0x0000000008006eb4                HAL_UART_ErrorCallback
 .text.HAL_UARTEx_RxEventCallback
                0x0000000008006ec4       0x16 Drivers/STM32G0xx_HAL_Driver/stm32g0xx_hal_uart.o
                0x0000000008006ec4                HAL_UARTEx_RxEventCallback
 *fill*         0x0000000008006eda        0x2 
 .text.UART_SetConfig
                0x0000000008006edc      0x5c4 Drivers/STM32G0xx_HAL_Driver/stm32g0xx_hal_uart.o
                0x0000000008006edc                UART_SetConfig
 .text.UART_AdvFeatureConfig
                0x00000000080074a0      0x168 Drivers/STM32G0xx_HAL_Driver/stm32g0xx_hal_uart.o
                0x00000000080074a0                UART_AdvFeatureConfig
 .text.UART_CheckIdleState
                0x0000000008007608       0x94 Drivers/STM32G0xx_HAL_Driver/stm32g0xx_hal_uart.o
                0x0000000008007608                UART_CheckIdleState
 .text.UART_WaitOnFlagUntilTimeout
                0x000000000800769c      0x104 Drivers/STM32G0xx_HAL_Driver/stm32g0xx_hal_uart.o
                0x000000000800769c                UART_WaitOnFlagUntilTimeout
 .text.UART_EndRxTransfer
                0x00000000080077a0       0x64 Drivers/STM32G0xx_HAL_Driver/stm32g0xx_hal_uart.o
 .text.UART_DMAAbortOnError
                0x0000000008007804       0x2e Drivers/STM32G0xx_HAL_Driver/stm32g0xx_hal_uart.o
 .text.UART_EndTransmit_IT
                0x0000000008007832       0x36 Drivers/STM32G0xx_HAL_Driver/stm32g0xx_hal_uart.o
 .text.HAL_UARTEx_WakeupCallback
                0x0000000008007868       0x10 Drivers/STM32G0xx_HAL_Driver/stm32g0xx_hal_uart_ex.o
                0x0000000008007868                HAL_UARTEx_WakeupCallback
 .text.HAL_UARTEx_RxFifoFullCallback
                0x0000000008007878       0x10 Drivers/STM32G0xx_HAL_Driver/stm32g0xx_hal_uart_ex.o
                0x0000000008007878                HAL_UARTEx_RxFifoFullCallback
 .text.HAL_UARTEx_TxFifoEmptyCallback
                0x0000000008007888       0x10 Drivers/STM32G0xx_HAL_Driver/stm32g0xx_hal_uart_ex.o
                0x0000000008007888                HAL_UARTEx_TxFifoEmptyCallback
 .text.HAL_UARTEx_DisableFifoMode
                0x0000000008007898       0x74 Drivers/STM32G0xx_HAL_Driver/stm32g0xx_hal_uart_ex.o
                0x0000000008007898                HAL_UARTEx_DisableFifoMode
 .text.HAL_UARTEx_SetTxFifoThreshold
                0x000000000800790c       0x7e Drivers/STM32G0xx_HAL_Driver/stm32g0xx_hal_uart_ex.o
                0x000000000800790c                HAL_UARTEx_SetTxFifoThreshold
 *fill*         0x000000000800798a        0x2 
 .text.HAL_UARTEx_SetRxFifoThreshold
                0x000000000800798c       0x84 Drivers/STM32G0xx_HAL_Driver/stm32g0xx_hal_uart_ex.o
                0x000000000800798c                HAL_UARTEx_SetRxFifoThreshold
 .text.UARTEx_SetNbDataToProcess
                0x0000000008007a10       0xd4 Drivers/STM32G0xx_HAL_Driver/stm32g0xx_hal_uart_ex.o
 .text.__libc_init_array
                0x0000000008007ae4       0x48 c:/st/stm32cubeide_1.1.0/stm32cubeide/plugins/com.st.stm32cube.ide.mcu.externaltools.gnu-tools-for-stm32.9-2020-q2-update.win32_1.5.0.202011040924/tools/bin/../lib/gcc/arm-none-eabi/9.3.1/../../../../arm-none-eabi/lib/thumb/v6-m/nofp\libc_nano.a(lib_a-init.o)
                0x0000000008007ae4                __libc_init_array
 .text.memset   0x0000000008007b2c       0x10 c:/st/stm32cubeide_1.1.0/stm32cubeide/plugins/com.st.stm32cube.ide.mcu.externaltools.gnu-tools-for-stm32.9-2020-q2-update.win32_1.5.0.202011040924/tools/bin/../lib/gcc/arm-none-eabi/9.3.1/../../../../arm-none-eabi/lib/thumb/v6-m/nofp\libc_nano.a(lib_a-memset.o)
                0x0000000008007b2c                memset
 *(.glue_7)
 .glue_7        0x0000000008007b3c        0x0 linker stubs
 *(.glue_7t)
 .glue_7t       0x0000000008007b3c        0x0 linker stubs
 *(.eh_frame)
 .eh_frame      0x0000000008007b3c        0x0 c:/st/stm32cubeide_1.1.0/stm32cubeide/plugins/com.st.stm32cube.ide.mcu.externaltools.gnu-tools-for-stm32.9-2020-q2-update.win32_1.5.0.202011040924/tools/bin/../lib/gcc/arm-none-eabi/9.3.1/thumb/v6-m/nofp/crtbegin.o
 *(.init)
 .init          0x0000000008007b3c        0x4 c:/st/stm32cubeide_1.1.0/stm32cubeide/plugins/com.st.stm32cube.ide.mcu.externaltools.gnu-tools-for-stm32.9-2020-q2-update.win32_1.5.0.202011040924/tools/bin/../lib/gcc/arm-none-eabi/9.3.1/thumb/v6-m/nofp/crti.o
                0x0000000008007b3c                _init
 .init          0x0000000008007b40        0x8 c:/st/stm32cubeide_1.1.0/stm32cubeide/plugins/com.st.stm32cube.ide.mcu.externaltools.gnu-tools-for-stm32.9-2020-q2-update.win32_1.5.0.202011040924/tools/bin/../lib/gcc/arm-none-eabi/9.3.1/thumb/v6-m/nofp/crtn.o
 *(.fini)
 .fini          0x0000000008007b48        0x4 c:/st/stm32cubeide_1.1.0/stm32cubeide/plugins/com.st.stm32cube.ide.mcu.externaltools.gnu-tools-for-stm32.9-2020-q2-update.win32_1.5.0.202011040924/tools/bin/../lib/gcc/arm-none-eabi/9.3.1/thumb/v6-m/nofp/crti.o
                0x0000000008007b48                _fini
 .fini          0x0000000008007b4c        0x8 c:/st/stm32cubeide_1.1.0/stm32cubeide/plugins/com.st.stm32cube.ide.mcu.externaltools.gnu-tools-for-stm32.9-2020-q2-update.win32_1.5.0.202011040924/tools/bin/../lib/gcc/arm-none-eabi/9.3.1/thumb/v6-m/nofp/crtn.o
 *fill*         0x0000000008007b54        0x4 
 .fini.__stub   0x0000000008007b58       0x10 linker stubs
                0x0000000008007b68                . = ALIGN (0x4)
                0x0000000008007b68                _etext = .

.vfp11_veneer   0x0000000008007b68        0x0
 .vfp11_veneer  0x0000000008007b68        0x0 linker stubs

.v4_bx          0x0000000008007b68        0x0
 .v4_bx         0x0000000008007b68        0x0 linker stubs

.iplt           0x0000000008007b68        0x0
 .iplt          0x0000000008007b68        0x0 c:/st/stm32cubeide_1.1.0/stm32cubeide/plugins/com.st.stm32cube.ide.mcu.externaltools.gnu-tools-for-stm32.9-2020-q2-update.win32_1.5.0.202011040924/tools/bin/../lib/gcc/arm-none-eabi/9.3.1/thumb/v6-m/nofp/crtbegin.o

.rodata         0x0000000008007b68       0xdc
                0x0000000008007b68                . = ALIGN (0x4)
 *(.rodata)
 .rodata        0x0000000008007b68       0x10 Drivers/STM32G0xx_HAL_Driver/stm32g0xx_hal_uart_ex.o
 *(.rodata*)
 .rodata.AHBPrescTable
                0x0000000008007b78       0x40 Core/Src/system_stm32g0xx.o
                0x0000000008007b78                AHBPrescTable
 .rodata.APBPrescTable
                0x0000000008007bb8       0x20 Core/Src/system_stm32g0xx.o
                0x0000000008007bb8                APBPrescTable
 .rodata.HAL_TIM_PWM_ConfigChannel
                0x0000000008007bd8       0x54 Drivers/STM32G0xx_HAL_Driver/stm32g0xx_hal_tim.o
 .rodata.UARTPrescTable
                0x0000000008007c2c       0x18 Drivers/STM32G0xx_HAL_Driver/stm32g0xx_hal_uart.o
                0x0000000008007c2c                UARTPrescTable
                0x0000000008007c44                . = ALIGN (0x4)

.ARM.extab      0x0000000008007c44        0x0
                0x0000000008007c44                . = ALIGN (0x4)
 *(.ARM.extab* .gnu.linkonce.armextab.*)
                0x0000000008007c44                . = ALIGN (0x4)

.ARM            0x0000000008007c44        0x8
                0x0000000008007c44                . = ALIGN (0x4)
                0x0000000008007c44                __exidx_start = .
 *(.ARM.exidx*)
 .ARM.exidx     0x0000000008007c44        0x8 c:/st/stm32cubeide_1.1.0/stm32cubeide/plugins/com.st.stm32cube.ide.mcu.externaltools.gnu-tools-for-stm32.9-2020-q2-update.win32_1.5.0.202011040924/tools/bin/../lib/gcc/arm-none-eabi/9.3.1/thumb/v6-m/nofp\libgcc.a(_udivmoddi4.o)
                0x0000000008007c4c                __exidx_end = .
                0x0000000008007c4c                . = ALIGN (0x4)

.rel.dyn        0x0000000008007c4c        0x0
 .rel.iplt      0x0000000008007c4c        0x0 c:/st/stm32cubeide_1.1.0/stm32cubeide/plugins/com.st.stm32cube.ide.mcu.externaltools.gnu-tools-for-stm32.9-2020-q2-update.win32_1.5.0.202011040924/tools/bin/../lib/gcc/arm-none-eabi/9.3.1/thumb/v6-m/nofp/crtbegin.o

.preinit_array  0x0000000008007c4c        0x0
                0x0000000008007c4c                . = ALIGN (0x4)
                0x0000000008007c4c                PROVIDE (__preinit_array_start = .)
 *(.preinit_array*)
                0x0000000008007c4c                PROVIDE (__preinit_array_end = .)
                0x0000000008007c4c                . = ALIGN (0x4)

.init_array     0x0000000008007c4c        0x4
                0x0000000008007c4c                . = ALIGN (0x4)
                0x0000000008007c4c                PROVIDE (__init_array_start = .)
 *(SORT_BY_NAME(.init_array.*))
 *(.init_array*)
 .init_array    0x0000000008007c4c        0x4 c:/st/stm32cubeide_1.1.0/stm32cubeide/plugins/com.st.stm32cube.ide.mcu.externaltools.gnu-tools-for-stm32.9-2020-q2-update.win32_1.5.0.202011040924/tools/bin/../lib/gcc/arm-none-eabi/9.3.1/thumb/v6-m/nofp/crtbegin.o
                0x0000000008007c50                PROVIDE (__init_array_end = .)
                0x0000000008007c50                . = ALIGN (0x4)

.fini_array     0x0000000008007c50        0x4
                0x0000000008007c50                . = ALIGN (0x4)
                [!provide]                        PROVIDE (__fini_array_start = .)
 *(SORT_BY_NAME(.fini_array.*))
 *(.fini_array*)
 .fini_array    0x0000000008007c50        0x4 c:/st/stm32cubeide_1.1.0/stm32cubeide/plugins/com.st.stm32cube.ide.mcu.externaltools.gnu-tools-for-stm32.9-2020-q2-update.win32_1.5.0.202011040924/tools/bin/../lib/gcc/arm-none-eabi/9.3.1/thumb/v6-m/nofp/crtbegin.o
                [!provide]                        PROVIDE (__fini_array_end = .)
                0x0000000008007c54                . = ALIGN (0x4)
                0x0000000008007c54                _sidata = LOADADDR (.data)

.data           0x0000000020000000       0xac load address 0x0000000008007c54
                0x0000000020000000                . = ALIGN (0x4)
                0x0000000020000000                _sdata = .
 *(.data)
 *(.data*)
 .data.ErasePAGE31Init
                0x0000000020000000       0x10 Core/Src/main.o
                0x0000000020000000                ErasePAGE31Init
 .data.DimmingDirectionCh1
                0x0000000020000010        0x1 Core/Src/main.o
                0x0000000020000010                DimmingDirectionCh1
 .data.DimmingDirectionCh2
                0x0000000020000011        0x1 Core/Src/main.o
                0x0000000020000011                DimmingDirectionCh2
 .data.FallingEdge
                0x0000000020000012        0x1 Core/Src/main.o
                0x0000000020000012                FallingEdge
 .data.DimmingLevelCh1
                0x0000000020000013        0x1 Core/Src/main.o
                0x0000000020000013                DimmingLevelCh1
 .data.DimmingLevelCh2
                0x0000000020000014        0x1 Core/Src/main.o
                0x0000000020000014                DimmingLevelCh2
 .data.Channel  0x0000000020000015        0x1 Core/Src/main.o
                0x0000000020000015                Channel
 *fill*         0x0000000020000016        0x2 
 .data.SystemCoreClock
                0x0000000020000018        0x4 Core/Src/system_stm32g0xx.o
                0x0000000020000018                SystemCoreClock
 .data.uwTickPrio
                0x000000002000001c        0x4 Drivers/STM32G0xx_HAL_Driver/stm32g0xx_hal.o
                0x000000002000001c                uwTickPrio
 .data.uwTickFreq
                0x0000000020000020        0x1 Drivers/STM32G0xx_HAL_Driver/stm32g0xx_hal.o
                0x0000000020000020                uwTickFreq
 *(.RamFunc)
 *fill*         0x0000000020000021        0x3 
 .RamFunc       0x0000000020000024       0x88 Drivers/STM32G0xx_HAL_Driver/stm32g0xx_hal_flash.o
 *(.RamFunc*)
                0x00000000200000ac                . = ALIGN (0x4)
                0x00000000200000ac                _edata = .

.igot.plt       0x00000000200000ac        0x0 load address 0x0000000008007d00
 .igot.plt      0x00000000200000ac        0x0 c:/st/stm32cubeide_1.1.0/stm32cubeide/plugins/com.st.stm32cube.ide.mcu.externaltools.gnu-tools-for-stm32.9-2020-q2-update.win32_1.5.0.202011040924/tools/bin/../lib/gcc/arm-none-eabi/9.3.1/thumb/v6-m/nofp/crtbegin.o
                0x00000000200000ac                . = ALIGN (0x4)

.bss            0x00000000200000ac      0x25c load address 0x0000000008007d00
                0x00000000200000ac                _sbss = .
                0x00000000200000ac                __bss_start__ = _sbss
 *(.bss)
 .bss           0x00000000200000ac       0x1c c:/st/stm32cubeide_1.1.0/stm32cubeide/plugins/com.st.stm32cube.ide.mcu.externaltools.gnu-tools-for-stm32.9-2020-q2-update.win32_1.5.0.202011040924/tools/bin/../lib/gcc/arm-none-eabi/9.3.1/thumb/v6-m/nofp/crtbegin.o
 *(.bss*)
 .bss.MyPageError
                0x00000000200000c8        0x4 Core/Src/main.o
                0x00000000200000c8                MyPageError
 .bss.Edge      0x00000000200000cc        0x1 Core/Src/main.o
                0x00000000200000cc                Edge
 .bss.Power     0x00000000200000cd        0x1 Core/Src/main.o
                0x00000000200000cd                Power
 .bss.Software  0x00000000200000ce        0x1 Core/Src/main.o
                0x00000000200000ce                Software
 .bss.RisingEdge
                0x00000000200000cf        0x1 Core/Src/main.o
                0x00000000200000cf                RisingEdge
 .bss.TimeOut   0x00000000200000d0        0x1 Core/Src/main.o
                0x00000000200000d0                TimeOut
 *fill*         0x00000000200000d1        0x1 
 .bss.TargetLevelCh1
                0x00000000200000d2        0x2 Core/Src/main.o
                0x00000000200000d2                TargetLevelCh1
 .bss.TargetLevelCh2
                0x00000000200000d4        0x2 Core/Src/main.o
                0x00000000200000d4                TargetLevelCh2
 .bss.mSec      0x00000000200000d6        0x2 Core/Src/main.o
                0x00000000200000d6                mSec
 .bss.mSec_Allarm
                0x00000000200000d8        0x2 Core/Src/main.o
                0x00000000200000d8                mSec_Allarm
 *fill*         0x00000000200000da        0x2 
 .bss.FlashPtr  0x00000000200000dc        0x4 Core/Src/main.o
                0x00000000200000dc                FlashPtr
 .bss.i         0x00000000200000e0        0x2 Core/Src/main.o
                0x00000000200000e0                i
 *fill*         0x00000000200000e2        0x2 
 .bss.TxBuffer  0x00000000200000e4        0x3 Core/Src/main.o
                0x00000000200000e4                TxBuffer
 *fill*         0x00000000200000e7        0x1 
 .bss.RxBuffer  0x00000000200000e8        0x3 Core/Src/main.o
                0x00000000200000e8                RxBuffer
 .bss.slave_does_not_respond
                0x00000000200000eb        0x1 Core/Src/main.o
                0x00000000200000eb                slave_does_not_respond
 .bss.is_to_ceck
                0x00000000200000ec        0x1 Core/Src/main.o
                0x00000000200000ec                is_to_ceck
 .bss.touch_count
                0x00000000200000ed        0x1 Core/Src/main.o
                0x00000000200000ed                touch_count
 .bss.mSecDoubleTouch
                0x00000000200000ee        0x2 Core/Src/main.o
                0x00000000200000ee                mSecDoubleTouch
 .bss.channel_is_changed
                0x00000000200000f0        0x1 Core/Src/main.o
                0x00000000200000f0                channel_is_changed
 *fill*         0x00000000200000f1        0x1 
 .bss.mSecTouch
                0x00000000200000f2        0x2 Core/Src/main.o
                0x00000000200000f2                mSecTouch
 .bss.BufferMemCh1
                0x00000000200000f4        0x1 Core/Src/main.o
                0x00000000200000f4                BufferMemCh1
 .bss.BufferMemCh2
                0x00000000200000f5        0x1 Core/Src/main.o
                0x00000000200000f5                BufferMemCh2
 *fill*         0x00000000200000f6        0x2 
 .bss.pFlash    0x00000000200000f8       0x1c Drivers/STM32G0xx_HAL_Driver/stm32g0xx_hal_flash.o
                0x00000000200000f8                pFlash
 *(COMMON)
 COMMON         0x0000000020000114      0x1f0 Core/Src/main.o
                0x0000000020000114                hi2c2
                0x0000000020000160                htim17
                0x00000000200001ac                hcomp1
                0x00000000200001dc                huart1
                0x000000002000026c                htim2
                0x00000000200002b8                htim14
 COMMON         0x0000000020000304        0x4 Drivers/STM32G0xx_HAL_Driver/stm32g0xx_hal.o
                0x0000000020000304                uwTick
                0x0000000020000308                . = ALIGN (0x4)
                0x0000000020000308                _ebss = .
                0x0000000020000308                __bss_end__ = _ebss

._user_heap_stack
                0x0000000020000308      0x600 load address 0x0000000008007d00
                0x0000000020000308                . = ALIGN (0x8)
                [!provide]                        PROVIDE (end = .)
                0x0000000020000308                PROVIDE (_end = .)
                0x0000000020000508                . = (. + _Min_Heap_Size)
 *fill*         0x0000000020000308      0x200 
                0x0000000020000908                . = (. + _Min_Stack_Size)
 *fill*         0x0000000020000508      0x400 
                0x0000000020000908                . = ALIGN (0x8)

/DISCARD/
 libc.a(*)
 libm.a(*)
 libgcc.a(*)

.ARM.attributes
                0x0000000000000000       0x28
 *(.ARM.attributes)
 .ARM.attributes
                0x0000000000000000       0x1e c:/st/stm32cubeide_1.1.0/stm32cubeide/plugins/com.st.stm32cube.ide.mcu.externaltools.gnu-tools-for-stm32.9-2020-q2-update.win32_1.5.0.202011040924/tools/bin/../lib/gcc/arm-none-eabi/9.3.1/thumb/v6-m/nofp/crti.o
 .ARM.attributes
                0x000000000000001e       0x2c c:/st/stm32cubeide_1.1.0/stm32cubeide/plugins/com.st.stm32cube.ide.mcu.externaltools.gnu-tools-for-stm32.9-2020-q2-update.win32_1.5.0.202011040924/tools/bin/../lib/gcc/arm-none-eabi/9.3.1/thumb/v6-m/nofp/crtbegin.o
 .ARM.attributes
                0x000000000000004a       0x2c Core/Src/main.o
 .ARM.attributes
                0x0000000000000076       0x2c Core/Src/stm32g0xx_hal_msp.o
 .ARM.attributes
                0x00000000000000a2       0x2c Core/Src/stm32g0xx_it.o
 .ARM.attributes
                0x00000000000000ce       0x2c Core/Src/system_stm32g0xx.o
 .ARM.attributes
                0x00000000000000fa       0x2c Core/Src/vcnl4020.o
 .ARM.attributes
                0x0000000000000126       0x22 Core/Startup/startup_stm32g071g8uxn.o
 .ARM.attributes
                0x0000000000000148       0x2c Drivers/STM32G0xx_HAL_Driver/stm32g0xx_hal.o
 .ARM.attributes
                0x0000000000000174       0x2c Drivers/STM32G0xx_HAL_Driver/stm32g0xx_hal_comp.o
 .ARM.attributes
                0x00000000000001a0       0x2c Drivers/STM32G0xx_HAL_Driver/stm32g0xx_hal_cortex.o
 .ARM.attributes
                0x00000000000001cc       0x2c Drivers/STM32G0xx_HAL_Driver/stm32g0xx_hal_dma.o
 .ARM.attributes
                0x00000000000001f8       0x2c Drivers/STM32G0xx_HAL_Driver/stm32g0xx_hal_flash.o
 .ARM.attributes
                0x0000000000000224       0x2c Drivers/STM32G0xx_HAL_Driver/stm32g0xx_hal_flash_ex.o
 .ARM.attributes
                0x0000000000000250       0x2c Drivers/STM32G0xx_HAL_Driver/stm32g0xx_hal_gpio.o
 .ARM.attributes
                0x000000000000027c       0x2c Drivers/STM32G0xx_HAL_Driver/stm32g0xx_hal_i2c.o
 .ARM.attributes
                0x00000000000002a8       0x2c Drivers/STM32G0xx_HAL_Driver/stm32g0xx_hal_i2c_ex.o
 .ARM.attributes
                0x00000000000002d4       0x2c Drivers/STM32G0xx_HAL_Driver/stm32g0xx_hal_pwr_ex.o
 .ARM.attributes
                0x0000000000000300       0x2c Drivers/STM32G0xx_HAL_Driver/stm32g0xx_hal_rcc.o
 .ARM.attributes
                0x000000000000032c       0x2c Drivers/STM32G0xx_HAL_Driver/stm32g0xx_hal_rcc_ex.o
 .ARM.attributes
                0x0000000000000358       0x2c Drivers/STM32G0xx_HAL_Driver/stm32g0xx_hal_tim.o
 .ARM.attributes
                0x0000000000000384       0x2c Drivers/STM32G0xx_HAL_Driver/stm32g0xx_hal_tim_ex.o
 .ARM.attributes
                0x00000000000003b0       0x2c Drivers/STM32G0xx_HAL_Driver/stm32g0xx_hal_uart.o
 .ARM.attributes
                0x00000000000003dc       0x2c Drivers/STM32G0xx_HAL_Driver/stm32g0xx_hal_uart_ex.o
 .ARM.attributes
                0x0000000000000408       0x2c c:/st/stm32cubeide_1.1.0/stm32cubeide/plugins/com.st.stm32cube.ide.mcu.externaltools.gnu-tools-for-stm32.9-2020-q2-update.win32_1.5.0.202011040924/tools/bin/../lib/gcc/arm-none-eabi/9.3.1/../../../../arm-none-eabi/lib/thumb/v6-m/nofp\libc_nano.a(lib_a-init.o)
 .ARM.attributes
                0x0000000000000434       0x2c c:/st/stm32cubeide_1.1.0/stm32cubeide/plugins/com.st.stm32cube.ide.mcu.externaltools.gnu-tools-for-stm32.9-2020-q2-update.win32_1.5.0.202011040924/tools/bin/../lib/gcc/arm-none-eabi/9.3.1/../../../../arm-none-eabi/lib/thumb/v6-m/nofp\libc_nano.a(lib_a-memset.o)
 .ARM.attributes
                0x0000000000000460       0x1e c:/st/stm32cubeide_1.1.0/stm32cubeide/plugins/com.st.stm32cube.ide.mcu.externaltools.gnu-tools-for-stm32.9-2020-q2-update.win32_1.5.0.202011040924/tools/bin/../lib/gcc/arm-none-eabi/9.3.1/thumb/v6-m/nofp\libgcc.a(_udivsi3.o)
 .ARM.attributes
                0x000000000000047e       0x1e c:/st/stm32cubeide_1.1.0/stm32cubeide/plugins/com.st.stm32cube.ide.mcu.externaltools.gnu-tools-for-stm32.9-2020-q2-update.win32_1.5.0.202011040924/tools/bin/../lib/gcc/arm-none-eabi/9.3.1/thumb/v6-m/nofp\libgcc.a(_divsi3.o)
 .ARM.attributes
                0x000000000000049c       0x1e c:/st/stm32cubeide_1.1.0/stm32cubeide/plugins/com.st.stm32cube.ide.mcu.externaltools.gnu-tools-for-stm32.9-2020-q2-update.win32_1.5.0.202011040924/tools/bin/../lib/gcc/arm-none-eabi/9.3.1/thumb/v6-m/nofp\libgcc.a(_dvmd_tls.o)
 .ARM.attributes
                0x00000000000004ba       0x1e c:/st/stm32cubeide_1.1.0/stm32cubeide/plugins/com.st.stm32cube.ide.mcu.externaltools.gnu-tools-for-stm32.9-2020-q2-update.win32_1.5.0.202011040924/tools/bin/../lib/gcc/arm-none-eabi/9.3.1/thumb/v6-m/nofp\libgcc.a(_aeabi_uldivmod.o)
 .ARM.attributes
                0x00000000000004d8       0x2c c:/st/stm32cubeide_1.1.0/stm32cubeide/plugins/com.st.stm32cube.ide.mcu.externaltools.gnu-tools-for-stm32.9-2020-q2-update.win32_1.5.0.202011040924/tools/bin/../lib/gcc/arm-none-eabi/9.3.1/thumb/v6-m/nofp\libgcc.a(_udivmoddi4.o)
 .ARM.attributes
                0x0000000000000504       0x1e c:/st/stm32cubeide_1.1.0/stm32cubeide/plugins/com.st.stm32cube.ide.mcu.externaltools.gnu-tools-for-stm32.9-2020-q2-update.win32_1.5.0.202011040924/tools/bin/../lib/gcc/arm-none-eabi/9.3.1/thumb/v6-m/nofp\libgcc.a(_clzdi2.o)
 .ARM.attributes
                0x0000000000000522       0x1e c:/st/stm32cubeide_1.1.0/stm32cubeide/plugins/com.st.stm32cube.ide.mcu.externaltools.gnu-tools-for-stm32.9-2020-q2-update.win32_1.5.0.202011040924/tools/bin/../lib/gcc/arm-none-eabi/9.3.1/thumb/v6-m/nofp\libgcc.a(_clzsi2.o)
 .ARM.attributes
                0x0000000000000540       0x1e c:/st/stm32cubeide_1.1.0/stm32cubeide/plugins/com.st.stm32cube.ide.mcu.externaltools.gnu-tools-for-stm32.9-2020-q2-update.win32_1.5.0.202011040924/tools/bin/../lib/gcc/arm-none-eabi/9.3.1/thumb/v6-m/nofp/crtn.o
OUTPUT(FontanaArte-Onde_Convogliate_Master_MCU-N.elf elf32-littlearm)
LOAD linker stubs
LOAD c:/st/stm32cubeide_1.1.0/stm32cubeide/plugins/com.st.stm32cube.ide.mcu.externaltools.gnu-tools-for-stm32.9-2020-q2-update.win32_1.5.0.202011040924/tools/bin/../lib/gcc/arm-none-eabi/9.3.1/../../../../arm-none-eabi/lib/thumb/v6-m/nofp\libc.a
LOAD c:/st/stm32cubeide_1.1.0/stm32cubeide/plugins/com.st.stm32cube.ide.mcu.externaltools.gnu-tools-for-stm32.9-2020-q2-update.win32_1.5.0.202011040924/tools/bin/../lib/gcc/arm-none-eabi/9.3.1/../../../../arm-none-eabi/lib/thumb/v6-m/nofp\libm.a
LOAD c:/st/stm32cubeide_1.1.0/stm32cubeide/plugins/com.st.stm32cube.ide.mcu.externaltools.gnu-tools-for-stm32.9-2020-q2-update.win32_1.5.0.202011040924/tools/bin/../lib/gcc/arm-none-eabi/9.3.1/thumb/v6-m/nofp\libgcc.a

.debug_info     0x0000000000000000    0x1546b
 .debug_info    0x0000000000000000     0x1e62 Core/Src/main.o
 .debug_info    0x0000000000001e62     0x17aa Core/Src/stm32g0xx_hal_msp.o
 .debug_info    0x000000000000360c      0xc76 Core/Src/stm32g0xx_it.o
 .debug_info    0x0000000000004282      0x53b Core/Src/system_stm32g0xx.o
 .debug_info    0x00000000000047bd      0x9e0 Core/Src/vcnl4020.o
 .debug_info    0x000000000000519d       0x22 Core/Startup/startup_stm32g071g8uxn.o
 .debug_info    0x00000000000051bf      0xb72 Drivers/STM32G0xx_HAL_Driver/stm32g0xx_hal.o
 .debug_info    0x0000000000005d31      0xa1d Drivers/STM32G0xx_HAL_Driver/stm32g0xx_hal_comp.o
 .debug_info    0x000000000000674e      0xa9e Drivers/STM32G0xx_HAL_Driver/stm32g0xx_hal_cortex.o
 .debug_info    0x00000000000071ec      0xa32 Drivers/STM32G0xx_HAL_Driver/stm32g0xx_hal_dma.o
 .debug_info    0x0000000000007c1e      0x78f Drivers/STM32G0xx_HAL_Driver/stm32g0xx_hal_flash.o
 .debug_info    0x00000000000083ad      0xa78 Drivers/STM32G0xx_HAL_Driver/stm32g0xx_hal_flash_ex.o
 .debug_info    0x0000000000008e25      0x798 Drivers/STM32G0xx_HAL_Driver/stm32g0xx_hal_gpio.o
 .debug_info    0x00000000000095bd     0x2349 Drivers/STM32G0xx_HAL_Driver/stm32g0xx_hal_i2c.o
 .debug_info    0x000000000000b906      0xbc4 Drivers/STM32G0xx_HAL_Driver/stm32g0xx_hal_i2c_ex.o
 .debug_info    0x000000000000c4ca      0x986 Drivers/STM32G0xx_HAL_Driver/stm32g0xx_hal_pwr_ex.o
 .debug_info    0x000000000000ce50      0xc0e Drivers/STM32G0xx_HAL_Driver/stm32g0xx_hal_rcc.o
 .debug_info    0x000000000000da5e      0x947 Drivers/STM32G0xx_HAL_Driver/stm32g0xx_hal_rcc_ex.o
 .debug_info    0x000000000000e3a5     0x2d13 Drivers/STM32G0xx_HAL_Driver/stm32g0xx_hal_tim.o
 .debug_info    0x00000000000110b8     0x191d Drivers/STM32G0xx_HAL_Driver/stm32g0xx_hal_tim_ex.o
 .debug_info    0x00000000000129d5     0x1c3a Drivers/STM32G0xx_HAL_Driver/stm32g0xx_hal_uart.o
 .debug_info    0x000000000001460f      0xe5c Drivers/STM32G0xx_HAL_Driver/stm32g0xx_hal_uart_ex.o

.debug_abbrev   0x0000000000000000     0x2ef4
 .debug_abbrev  0x0000000000000000      0x2b4 Core/Src/main.o
 .debug_abbrev  0x00000000000002b4      0x249 Core/Src/stm32g0xx_hal_msp.o
 .debug_abbrev  0x00000000000004fd      0x190 Core/Src/stm32g0xx_it.o
 .debug_abbrev  0x000000000000068d      0x165 Core/Src/system_stm32g0xx.o
 .debug_abbrev  0x00000000000007f2      0x1bf Core/Src/vcnl4020.o
 .debug_abbrev  0x00000000000009b1       0x12 Core/Startup/startup_stm32g071g8uxn.o
 .debug_abbrev  0x00000000000009c3      0x276 Drivers/STM32G0xx_HAL_Driver/stm32g0xx_hal.o
 .debug_abbrev  0x0000000000000c39      0x22b Drivers/STM32G0xx_HAL_Driver/stm32g0xx_hal_comp.o
 .debug_abbrev  0x0000000000000e64      0x2c5 Drivers/STM32G0xx_HAL_Driver/stm32g0xx_hal_cortex.o
 .debug_abbrev  0x0000000000001129      0x22c Drivers/STM32G0xx_HAL_Driver/stm32g0xx_hal_dma.o
 .debug_abbrev  0x0000000000001355      0x2d9 Drivers/STM32G0xx_HAL_Driver/stm32g0xx_hal_flash.o
 .debug_abbrev  0x000000000000162e      0x258 Drivers/STM32G0xx_HAL_Driver/stm32g0xx_hal_flash_ex.o
 .debug_abbrev  0x0000000000001886      0x1df Drivers/STM32G0xx_HAL_Driver/stm32g0xx_hal_gpio.o
 .debug_abbrev  0x0000000000001a65      0x278 Drivers/STM32G0xx_HAL_Driver/stm32g0xx_hal_i2c.o
 .debug_abbrev  0x0000000000001cdd      0x1fd Drivers/STM32G0xx_HAL_Driver/stm32g0xx_hal_i2c_ex.o
 .debug_abbrev  0x0000000000001eda      0x245 Drivers/STM32G0xx_HAL_Driver/stm32g0xx_hal_pwr_ex.o
 .debug_abbrev  0x000000000000211f      0x23d Drivers/STM32G0xx_HAL_Driver/stm32g0xx_hal_rcc.o
 .debug_abbrev  0x000000000000235c      0x1fc Drivers/STM32G0xx_HAL_Driver/stm32g0xx_hal_rcc_ex.o
 .debug_abbrev  0x0000000000002558      0x280 Drivers/STM32G0xx_HAL_Driver/stm32g0xx_hal_tim.o
 .debug_abbrev  0x00000000000027d8      0x277 Drivers/STM32G0xx_HAL_Driver/stm32g0xx_hal_tim_ex.o
 .debug_abbrev  0x0000000000002a4f      0x270 Drivers/STM32G0xx_HAL_Driver/stm32g0xx_hal_uart.o
 .debug_abbrev  0x0000000000002cbf      0x235 Drivers/STM32G0xx_HAL_Driver/stm32g0xx_hal_uart_ex.o

.debug_aranges  0x0000000000000000     0x13f8
 .debug_aranges
                0x0000000000000000       0x80 Core/Src/main.o
 .debug_aranges
                0x0000000000000080       0x78 Core/Src/stm32g0xx_hal_msp.o
 .debug_aranges
                0x00000000000000f8       0x60 Core/Src/stm32g0xx_it.o
 .debug_aranges
                0x0000000000000158       0x28 Core/Src/system_stm32g0xx.o
 .debug_aranges
                0x0000000000000180       0x38 Core/Src/vcnl4020.o
 .debug_aranges
                0x00000000000001b8       0x28 Core/Startup/startup_stm32g071g8uxn.o
 .debug_aranges
                0x00000000000001e0      0x120 Drivers/STM32G0xx_HAL_Driver/stm32g0xx_hal.o
 .debug_aranges
                0x0000000000000300       0xd8 Drivers/STM32G0xx_HAL_Driver/stm32g0xx_hal_comp.o
 .debug_aranges
                0x00000000000003d8       0xd8 Drivers/STM32G0xx_HAL_Driver/stm32g0xx_hal_cortex.o
 .debug_aranges
                0x00000000000004b0       0x90 Drivers/STM32G0xx_HAL_Driver/stm32g0xx_hal_dma.o
 .debug_aranges
                0x0000000000000540       0x88 Drivers/STM32G0xx_HAL_Driver/stm32g0xx_hal_flash.o
 .debug_aranges
                0x00000000000005c8       0xd0 Drivers/STM32G0xx_HAL_Driver/stm32g0xx_hal_flash_ex.o
 .debug_aranges
                0x0000000000000698       0x60 Drivers/STM32G0xx_HAL_Driver/stm32g0xx_hal_gpio.o
 .debug_aranges
                0x00000000000006f8      0x290 Drivers/STM32G0xx_HAL_Driver/stm32g0xx_hal_i2c.o
 .debug_aranges
                0x0000000000000988       0x48 Drivers/STM32G0xx_HAL_Driver/stm32g0xx_hal_i2c_ex.o
 .debug_aranges
                0x00000000000009d0       0xf0 Drivers/STM32G0xx_HAL_Driver/stm32g0xx_hal_pwr_ex.o
 .debug_aranges
                0x0000000000000ac0       0x98 Drivers/STM32G0xx_HAL_Driver/stm32g0xx_hal_rcc.o
 .debug_aranges
                0x0000000000000b58       0x40 Drivers/STM32G0xx_HAL_Driver/stm32g0xx_hal_rcc_ex.o
 .debug_aranges
                0x0000000000000b98      0x3e0 Drivers/STM32G0xx_HAL_Driver/stm32g0xx_hal_tim.o
 .debug_aranges
                0x0000000000000f78      0x198 Drivers/STM32G0xx_HAL_Driver/stm32g0xx_hal_tim_ex.o
 .debug_aranges
                0x0000000000001110      0x248 Drivers/STM32G0xx_HAL_Driver/stm32g0xx_hal_uart.o
 .debug_aranges
                0x0000000000001358       0xa0 Drivers/STM32G0xx_HAL_Driver/stm32g0xx_hal_uart_ex.o

.debug_ranges   0x0000000000000000     0x12d0
 .debug_ranges  0x0000000000000000       0x70 Core/Src/main.o
 .debug_ranges  0x0000000000000070       0x68 Core/Src/stm32g0xx_hal_msp.o
 .debug_ranges  0x00000000000000d8       0x50 Core/Src/stm32g0xx_it.o
 .debug_ranges  0x0000000000000128       0x18 Core/Src/system_stm32g0xx.o
 .debug_ranges  0x0000000000000140       0x28 Core/Src/vcnl4020.o
 .debug_ranges  0x0000000000000168       0x20 Core/Startup/startup_stm32g071g8uxn.o
 .debug_ranges  0x0000000000000188      0x110 Drivers/STM32G0xx_HAL_Driver/stm32g0xx_hal.o
 .debug_ranges  0x0000000000000298       0xc8 Drivers/STM32G0xx_HAL_Driver/stm32g0xx_hal_comp.o
 .debug_ranges  0x0000000000000360       0xc8 Drivers/STM32G0xx_HAL_Driver/stm32g0xx_hal_cortex.o
 .debug_ranges  0x0000000000000428       0x80 Drivers/STM32G0xx_HAL_Driver/stm32g0xx_hal_dma.o
 .debug_ranges  0x00000000000004a8       0x78 Drivers/STM32G0xx_HAL_Driver/stm32g0xx_hal_flash.o
 .debug_ranges  0x0000000000000520       0xc0 Drivers/STM32G0xx_HAL_Driver/stm32g0xx_hal_flash_ex.o
 .debug_ranges  0x00000000000005e0       0x50 Drivers/STM32G0xx_HAL_Driver/stm32g0xx_hal_gpio.o
 .debug_ranges  0x0000000000000630      0x280 Drivers/STM32G0xx_HAL_Driver/stm32g0xx_hal_i2c.o
 .debug_ranges  0x00000000000008b0       0x38 Drivers/STM32G0xx_HAL_Driver/stm32g0xx_hal_i2c_ex.o
 .debug_ranges  0x00000000000008e8       0xe0 Drivers/STM32G0xx_HAL_Driver/stm32g0xx_hal_pwr_ex.o
 .debug_ranges  0x00000000000009c8       0x88 Drivers/STM32G0xx_HAL_Driver/stm32g0xx_hal_rcc.o
 .debug_ranges  0x0000000000000a50       0x30 Drivers/STM32G0xx_HAL_Driver/stm32g0xx_hal_rcc_ex.o
 .debug_ranges  0x0000000000000a80      0x3d0 Drivers/STM32G0xx_HAL_Driver/stm32g0xx_hal_tim.o
 .debug_ranges  0x0000000000000e50      0x188 Drivers/STM32G0xx_HAL_Driver/stm32g0xx_hal_tim_ex.o
 .debug_ranges  0x0000000000000fd8      0x268 Drivers/STM32G0xx_HAL_Driver/stm32g0xx_hal_uart.o
 .debug_ranges  0x0000000000001240       0x90 Drivers/STM32G0xx_HAL_Driver/stm32g0xx_hal_uart_ex.o

.debug_macro    0x0000000000000000    0x195ea
 .debug_macro   0x0000000000000000      0x299 Core/Src/main.o
 .debug_macro   0x0000000000000299      0xa7e Core/Src/main.o
 .debug_macro   0x0000000000000d17      0x129 Core/Src/main.o
 .debug_macro   0x0000000000000e40       0x2e Core/Src/main.o
 .debug_macro   0x0000000000000e6e       0x28 Core/Src/main.o
 .debug_macro   0x0000000000000e96       0x22 Core/Src/main.o
 .debug_macro   0x0000000000000eb8       0x8e Core/Src/main.o
 .debug_macro   0x0000000000000f46       0x51 Core/Src/main.o
 .debug_macro   0x0000000000000f97      0x103 Core/Src/main.o
 .debug_macro   0x000000000000109a       0x6a Core/Src/main.o
 .debug_macro   0x0000000000001104      0x1df Core/Src/main.o
 .debug_macro   0x00000000000012e3       0x1c Core/Src/main.o
 .debug_macro   0x00000000000012ff       0x22 Core/Src/main.o
 .debug_macro   0x0000000000001321       0xd7 Core/Src/main.o
 .debug_macro   0x00000000000013f8      0x4da Core/Src/main.o
 .debug_macro   0x00000000000018d2      0x11f Core/Src/main.o
 .debug_macro   0x00000000000019f1     0xc4f2 Core/Src/main.o
 .debug_macro   0x000000000000dee3       0x3c Core/Src/main.o
 .debug_macro   0x000000000000df1f     0x34b5 Core/Src/main.o
 .debug_macro   0x00000000000113d4      0x174 Core/Src/main.o
 .debug_macro   0x0000000000011548       0x5c Core/Src/main.o
 .debug_macro   0x00000000000115a4      0x56c Core/Src/main.o
 .debug_macro   0x0000000000011b10     0x109d Core/Src/main.o
 .debug_macro   0x0000000000012bad      0x264 Core/Src/main.o
 .debug_macro   0x0000000000012e11      0x153 Core/Src/main.o
 .debug_macro   0x0000000000012f64      0x1d8 Core/Src/main.o
 .debug_macro   0x000000000001313c      0x426 Core/Src/main.o
 .debug_macro   0x0000000000013562      0x280 Core/Src/main.o
 .debug_macro   0x00000000000137e2      0x3a7 Core/Src/main.o
 .debug_macro   0x0000000000013b89      0x1b2 Core/Src/main.o
 .debug_macro   0x0000000000013d3b       0x43 Core/Src/main.o
 .debug_macro   0x0000000000013d7e      0x1f1 Core/Src/main.o
 .debug_macro   0x0000000000013f6f      0x189 Core/Src/main.o
 .debug_macro   0x00000000000140f8      0x321 Core/Src/main.o
 .debug_macro   0x0000000000014419      0x1d7 Core/Src/main.o
 .debug_macro   0x00000000000145f0      0x38a Core/Src/main.o
 .debug_macro   0x000000000001497a       0x28 Core/Src/main.o
 .debug_macro   0x00000000000149a2       0xe4 Core/Src/main.o
 .debug_macro   0x0000000000014a86      0x22c Core/Src/main.o
 .debug_macro   0x0000000000014cb2       0x64 Core/Src/main.o
 .debug_macro   0x0000000000014d16       0xa5 Core/Src/main.o
 .debug_macro   0x0000000000014dbb      0x125 Core/Src/main.o
 .debug_macro   0x0000000000014ee0      0x240 Core/Src/main.o
 .debug_macro   0x0000000000015120      0xaad Core/Src/main.o
 .debug_macro   0x0000000000015bcd      0x1a1 Core/Src/main.o
 .debug_macro   0x0000000000015d6e      0x67e Core/Src/main.o
 .debug_macro   0x00000000000163ec       0xa6 Core/Src/main.o
 .debug_macro   0x0000000000016492      0x4f2 Core/Src/main.o
 .debug_macro   0x0000000000016984       0x64 Core/Src/main.o
 .debug_macro   0x00000000000169e8       0x64 Core/Src/main.o
 .debug_macro   0x0000000000016a4c      0x220 Core/Src/stm32g0xx_hal_msp.o
 .debug_macro   0x0000000000016c6c      0x22a Core/Src/stm32g0xx_it.o
 .debug_macro   0x0000000000016e96      0x217 Core/Src/system_stm32g0xx.o
 .debug_macro   0x00000000000170ad      0x233 Core/Src/vcnl4020.o
 .debug_macro   0x00000000000172e0      0x235 Drivers/STM32G0xx_HAL_Driver/stm32g0xx_hal.o
 .debug_macro   0x0000000000017515      0x227 Drivers/STM32G0xx_HAL_Driver/stm32g0xx_hal_comp.o
 .debug_macro   0x000000000001773c      0x211 Drivers/STM32G0xx_HAL_Driver/stm32g0xx_hal_cortex.o
 .debug_macro   0x000000000001794d      0x211 Drivers/STM32G0xx_HAL_Driver/stm32g0xx_hal_dma.o
 .debug_macro   0x0000000000017b5e      0x211 Drivers/STM32G0xx_HAL_Driver/stm32g0xx_hal_flash.o
 .debug_macro   0x0000000000017d6f      0x211 Drivers/STM32G0xx_HAL_Driver/stm32g0xx_hal_flash_ex.o
 .debug_macro   0x0000000000017f80      0x249 Drivers/STM32G0xx_HAL_Driver/stm32g0xx_hal_gpio.o
 .debug_macro   0x00000000000181c9      0x2d6 Drivers/STM32G0xx_HAL_Driver/stm32g0xx_hal_i2c.o
 .debug_macro   0x000000000001849f      0x211 Drivers/STM32G0xx_HAL_Driver/stm32g0xx_hal_i2c_ex.o
 .debug_macro   0x00000000000186b0      0x23b Drivers/STM32G0xx_HAL_Driver/stm32g0xx_hal_pwr_ex.o
 .debug_macro   0x00000000000188eb      0x24d Drivers/STM32G0xx_HAL_Driver/stm32g0xx_hal_rcc.o
 .debug_macro   0x0000000000018b38      0x229 Drivers/STM32G0xx_HAL_Driver/stm32g0xx_hal_rcc_ex.o
 .debug_macro   0x0000000000018d61      0x219 Drivers/STM32G0xx_HAL_Driver/stm32g0xx_hal_tim.o
 .debug_macro   0x0000000000018f7a      0x217 Drivers/STM32G0xx_HAL_Driver/stm32g0xx_hal_tim_ex.o
 .debug_macro   0x0000000000019191      0x23c Drivers/STM32G0xx_HAL_Driver/stm32g0xx_hal_uart.o
 .debug_macro   0x00000000000193cd      0x21d Drivers/STM32G0xx_HAL_Driver/stm32g0xx_hal_uart_ex.o

.debug_line     0x0000000000000000    0x18aed
 .debug_line    0x0000000000000000     0x13bf Core/Src/main.o
 .debug_line    0x00000000000013bf      0xa42 Core/Src/stm32g0xx_hal_msp.o
 .debug_line    0x0000000000001e01      0x921 Core/Src/stm32g0xx_it.o
 .debug_line    0x0000000000002722      0x8c4 Core/Src/system_stm32g0xx.o
 .debug_line    0x0000000000002fe6      0x8b0 Core/Src/vcnl4020.o
 .debug_line    0x0000000000003896       0x8a Core/Startup/startup_stm32g071g8uxn.o
 .debug_line    0x0000000000003920      0xc2a Drivers/STM32G0xx_HAL_Driver/stm32g0xx_hal.o
 .debug_line    0x000000000000454a      0xd00 Drivers/STM32G0xx_HAL_Driver/stm32g0xx_hal_comp.o
 .debug_line    0x000000000000524a      0xcab Drivers/STM32G0xx_HAL_Driver/stm32g0xx_hal_cortex.o
 .debug_line    0x0000000000005ef5      0xecb Drivers/STM32G0xx_HAL_Driver/stm32g0xx_hal_dma.o
 .debug_line    0x0000000000006dc0      0xbbb Drivers/STM32G0xx_HAL_Driver/stm32g0xx_hal_flash.o
 .debug_line    0x000000000000797b      0xd78 Drivers/STM32G0xx_HAL_Driver/stm32g0xx_hal_flash_ex.o
 .debug_line    0x00000000000086f3      0xca1 Drivers/STM32G0xx_HAL_Driver/stm32g0xx_hal_gpio.o
 .debug_line    0x0000000000009394     0x3452 Drivers/STM32G0xx_HAL_Driver/stm32g0xx_hal_i2c.o
 .debug_line    0x000000000000c7e6      0xa9f Drivers/STM32G0xx_HAL_Driver/stm32g0xx_hal_i2c_ex.o
 .debug_line    0x000000000000d285      0xbf5 Drivers/STM32G0xx_HAL_Driver/stm32g0xx_hal_pwr_ex.o
 .debug_line    0x000000000000de7a     0x1037 Drivers/STM32G0xx_HAL_Driver/stm32g0xx_hal_rcc.o
 .debug_line    0x000000000000eeb1      0xe66 Drivers/STM32G0xx_HAL_Driver/stm32g0xx_hal_rcc_ex.o
 .debug_line    0x000000000000fd17     0x3ce6 Drivers/STM32G0xx_HAL_Driver/stm32g0xx_hal_tim.o
 .debug_line    0x00000000000139fd     0x1f76 Drivers/STM32G0xx_HAL_Driver/stm32g0xx_hal_tim_ex.o
 .debug_line    0x0000000000015973     0x22f9 Drivers/STM32G0xx_HAL_Driver/stm32g0xx_hal_uart.o
 .debug_line    0x0000000000017c6c      0xe81 Drivers/STM32G0xx_HAL_Driver/stm32g0xx_hal_uart_ex.o

.debug_str      0x0000000000000000    0xa3276
 .debug_str     0x0000000000000000    0x9e0d1 Core/Src/main.o
                                      0x9e782 (size before relaxing)
 .debug_str     0x000000000009e0d1      0x129 Core/Src/stm32g0xx_hal_msp.o
                                      0x9dd1f (size before relaxing)
 .debug_str     0x000000000009e1fa       0xbf Core/Src/stm32g0xx_it.o
                                      0x9d551 (size before relaxing)
 .debug_str     0x000000000009e2b9       0x9c Core/Src/system_stm32g0xx.o
                                      0x9ccbd (size before relaxing)
 .debug_str     0x000000000009e355       0x8a Core/Src/vcnl4020.o
                                      0x9d539 (size before relaxing)
 .debug_str     0x000000000009e3df       0x37 Core/Startup/startup_stm32g071g8uxn.o
                                         0xa0 (size before relaxing)
 .debug_str     0x000000000009e416      0x520 Drivers/STM32G0xx_HAL_Driver/stm32g0xx_hal.o
                                      0x9d41e (size before relaxing)
 .debug_str     0x000000000009e936      0x3f0 Drivers/STM32G0xx_HAL_Driver/stm32g0xx_hal_comp.o
                                      0x9d11d (size before relaxing)
 .debug_str     0x000000000009ed26      0x2aa Drivers/STM32G0xx_HAL_Driver/stm32g0xx_hal_cortex.o
                                      0x9d173 (size before relaxing)
 .debug_str     0x000000000009efd0      0x2ea Drivers/STM32G0xx_HAL_Driver/stm32g0xx_hal_dma.o
                                      0x9d13e (size before relaxing)
 .debug_str     0x000000000009f2ba      0x21d Drivers/STM32G0xx_HAL_Driver/stm32g0xx_hal_flash.o
                                      0x9ce74 (size before relaxing)
 .debug_str     0x000000000009f4d7      0x3b5 Drivers/STM32G0xx_HAL_Driver/stm32g0xx_hal_flash_ex.o
                                      0x9d01a (size before relaxing)
 .debug_str     0x000000000009f88c      0x1ed Drivers/STM32G0xx_HAL_Driver/stm32g0xx_hal_gpio.o
                                      0x9ced7 (size before relaxing)
 .debug_str     0x000000000009fa79      0xd7c Drivers/STM32G0xx_HAL_Driver/stm32g0xx_hal_i2c.o
                                      0x9df90 (size before relaxing)
 .debug_str     0x00000000000a07f5       0xf0 Drivers/STM32G0xx_HAL_Driver/stm32g0xx_hal_i2c_ex.o
                                      0x9d2ef (size before relaxing)
 .debug_str     0x00000000000a08e5      0x3d3 Drivers/STM32G0xx_HAL_Driver/stm32g0xx_hal_pwr_ex.o
                                      0x9d164 (size before relaxing)
 .debug_str     0x00000000000a0cb8      0x38d Drivers/STM32G0xx_HAL_Driver/stm32g0xx_hal_rcc.o
                                      0x9d27b (size before relaxing)
 .debug_str     0x00000000000a1045      0x1a4 Drivers/STM32G0xx_HAL_Driver/stm32g0xx_hal_rcc_ex.o
                                      0x9d023 (size before relaxing)
 .debug_str     0x00000000000a11e9      0xe0d Drivers/STM32G0xx_HAL_Driver/stm32g0xx_hal_tim.o
                                      0x9e125 (size before relaxing)
 .debug_str     0x00000000000a1ff6      0x5f9 Drivers/STM32G0xx_HAL_Driver/stm32g0xx_hal_tim_ex.o
                                      0x9da95 (size before relaxing)
 .debug_str     0x00000000000a25ef      0x971 Drivers/STM32G0xx_HAL_Driver/stm32g0xx_hal_uart.o
                                      0x9db24 (size before relaxing)
 .debug_str     0x00000000000a2f60      0x316 Drivers/STM32G0xx_HAL_Driver/stm32g0xx_hal_uart_ex.o
                                      0x9d3ff (size before relaxing)

.comment        0x0000000000000000       0x53
 .comment       0x0000000000000000       0x53 Core/Src/main.o
                                         0x54 (size before relaxing)
 .comment       0x0000000000000053       0x54 Core/Src/stm32g0xx_hal_msp.o
 .comment       0x0000000000000053       0x54 Core/Src/stm32g0xx_it.o
 .comment       0x0000000000000053       0x54 Core/Src/system_stm32g0xx.o
 .comment       0x0000000000000053       0x54 Core/Src/vcnl4020.o
 .comment       0x0000000000000053       0x54 Drivers/STM32G0xx_HAL_Driver/stm32g0xx_hal.o
 .comment       0x0000000000000053       0x54 Drivers/STM32G0xx_HAL_Driver/stm32g0xx_hal_comp.o
 .comment       0x0000000000000053       0x54 Drivers/STM32G0xx_HAL_Driver/stm32g0xx_hal_cortex.o
 .comment       0x0000000000000053       0x54 Drivers/STM32G0xx_HAL_Driver/stm32g0xx_hal_dma.o
 .comment       0x0000000000000053       0x54 Drivers/STM32G0xx_HAL_Driver/stm32g0xx_hal_flash.o
 .comment       0x0000000000000053       0x54 Drivers/STM32G0xx_HAL_Driver/stm32g0xx_hal_flash_ex.o
 .comment       0x0000000000000053       0x54 Drivers/STM32G0xx_HAL_Driver/stm32g0xx_hal_gpio.o
 .comment       0x0000000000000053       0x54 Drivers/STM32G0xx_HAL_Driver/stm32g0xx_hal_i2c.o
 .comment       0x0000000000000053       0x54 Drivers/STM32G0xx_HAL_Driver/stm32g0xx_hal_i2c_ex.o
 .comment       0x0000000000000053       0x54 Drivers/STM32G0xx_HAL_Driver/stm32g0xx_hal_pwr_ex.o
 .comment       0x0000000000000053       0x54 Drivers/STM32G0xx_HAL_Driver/stm32g0xx_hal_rcc.o
 .comment       0x0000000000000053       0x54 Drivers/STM32G0xx_HAL_Driver/stm32g0xx_hal_rcc_ex.o
 .comment       0x0000000000000053       0x54 Drivers/STM32G0xx_HAL_Driver/stm32g0xx_hal_tim.o
 .comment       0x0000000000000053       0x54 Drivers/STM32G0xx_HAL_Driver/stm32g0xx_hal_tim_ex.o
 .comment       0x0000000000000053       0x54 Drivers/STM32G0xx_HAL_Driver/stm32g0xx_hal_uart.o
 .comment       0x0000000000000053       0x54 Drivers/STM32G0xx_HAL_Driver/stm32g0xx_hal_uart_ex.o

.debug_frame    0x0000000000000000     0x48cc
 .debug_frame   0x0000000000000000      0x1a0 Core/Src/main.o
 .debug_frame   0x00000000000001a0      0x190 Core/Src/stm32g0xx_hal_msp.o
 .debug_frame   0x0000000000000330      0x10c Core/Src/stm32g0xx_it.o
 .debug_frame   0x000000000000043c       0x4c Core/Src/system_stm32g0xx.o
 .debug_frame   0x0000000000000488       0x90 Core/Src/vcnl4020.o
 .debug_frame   0x0000000000000518      0x3dc Drivers/STM32G0xx_HAL_Driver/stm32g0xx_hal.o
 .debug_frame   0x00000000000008f4      0x310 Drivers/STM32G0xx_HAL_Driver/stm32g0xx_hal_comp.o
 .debug_frame   0x0000000000000c04      0x2fc Drivers/STM32G0xx_HAL_Driver/stm32g0xx_hal_cortex.o
 .debug_frame   0x0000000000000f00      0x1f0 Drivers/STM32G0xx_HAL_Driver/stm32g0xx_hal_dma.o
 .debug_frame   0x00000000000010f0      0x1d4 Drivers/STM32G0xx_HAL_Driver/stm32g0xx_hal_flash.o
 .debug_frame   0x00000000000012c4      0x2ec Drivers/STM32G0xx_HAL_Driver/stm32g0xx_hal_flash_ex.o
 .debug_frame   0x00000000000015b0      0x130 Drivers/STM32G0xx_HAL_Driver/stm32g0xx_hal_gpio.o
 .debug_frame   0x00000000000016e0      0xa24 Drivers/STM32G0xx_HAL_Driver/stm32g0xx_hal_i2c.o
 .debug_frame   0x0000000000002104       0xd0 Drivers/STM32G0xx_HAL_Driver/stm32g0xx_hal_i2c_ex.o
 .debug_frame   0x00000000000021d4      0x32c Drivers/STM32G0xx_HAL_Driver/stm32g0xx_hal_pwr_ex.o
 .debug_frame   0x0000000000002500      0x1f4 Drivers/STM32G0xx_HAL_Driver/stm32g0xx_hal_rcc.o
 .debug_frame   0x00000000000026f4       0xb0 Drivers/STM32G0xx_HAL_Driver/stm32g0xx_hal_rcc_ex.o
 .debug_frame   0x00000000000027a4      0xf38 Drivers/STM32G0xx_HAL_Driver/stm32g0xx_hal_tim.o
 .debug_frame   0x00000000000036dc      0x618 Drivers/STM32G0xx_HAL_Driver/stm32g0xx_hal_tim_ex.o
 .debug_frame   0x0000000000003cf4      0x8d4 Drivers/STM32G0xx_HAL_Driver/stm32g0xx_hal_uart.o
 .debug_frame   0x00000000000045c8      0x23c Drivers/STM32G0xx_HAL_Driver/stm32g0xx_hal_uart_ex.o
 .debug_frame   0x0000000000004804       0x2c c:/st/stm32cubeide_1.1.0/stm32cubeide/plugins/com.st.stm32cube.ide.mcu.externaltools.gnu-tools-for-stm32.9-2020-q2-update.win32_1.5.0.202011040924/tools/bin/../lib/gcc/arm-none-eabi/9.3.1/../../../../arm-none-eabi/lib/thumb/v6-m/nofp\libc_nano.a(lib_a-init.o)
 .debug_frame   0x0000000000004830       0x20 c:/st/stm32cubeide_1.1.0/stm32cubeide/plugins/com.st.stm32cube.ide.mcu.externaltools.gnu-tools-for-stm32.9-2020-q2-update.win32_1.5.0.202011040924/tools/bin/../lib/gcc/arm-none-eabi/9.3.1/../../../../arm-none-eabi/lib/thumb/v6-m/nofp\libc_nano.a(lib_a-memset.o)
 .debug_frame   0x0000000000004850       0x20 c:/st/stm32cubeide_1.1.0/stm32cubeide/plugins/com.st.stm32cube.ide.mcu.externaltools.gnu-tools-for-stm32.9-2020-q2-update.win32_1.5.0.202011040924/tools/bin/../lib/gcc/arm-none-eabi/9.3.1/thumb/v6-m/nofp\libgcc.a(_udivsi3.o)
 .debug_frame   0x0000000000004870       0x20 c:/st/stm32cubeide_1.1.0/stm32cubeide/plugins/com.st.stm32cube.ide.mcu.externaltools.gnu-tools-for-stm32.9-2020-q2-update.win32_1.5.0.202011040924/tools/bin/../lib/gcc/arm-none-eabi/9.3.1/thumb/v6-m/nofp\libgcc.a(_divsi3.o)
 .debug_frame   0x0000000000004890       0x3c c:/st/stm32cubeide_1.1.0/stm32cubeide/plugins/com.st.stm32cube.ide.mcu.externaltools.gnu-tools-for-stm32.9-2020-q2-update.win32_1.5.0.202011040924/tools/bin/../lib/gcc/arm-none-eabi/9.3.1/thumb/v6-m/nofp\libgcc.a(_udivmoddi4.o)
